{
	"CPAMM.sol": {
		"CPAMM": {
			"abi": [
				{
					"inputs": [
						{
							"internalType": "address",
							"name": "_token0",
							"type": "address"
						},
						{
							"internalType": "address",
							"name": "_token1",
							"type": "address"
						}
					],
					"stateMutability": "nonpayable",
					"type": "constructor"
				},
				{
					"inputs": [
						{
							"internalType": "uint256",
							"name": "_amount0",
							"type": "uint256"
						},
						{
							"internalType": "uint256",
							"name": "_amount1",
							"type": "uint256"
						}
					],
					"name": "addLiquidity",
					"outputs": [
						{
							"internalType": "uint256",
							"name": "shares",
							"type": "uint256"
						}
					],
					"stateMutability": "nonpayable",
					"type": "function"
				},
				{
					"inputs": [
						{
							"internalType": "address",
							"name": "",
							"type": "address"
						}
					],
					"name": "balanceOf",
					"outputs": [
						{
							"internalType": "uint256",
							"name": "",
							"type": "uint256"
						}
					],
					"stateMutability": "view",
					"type": "function"
				},
				{
					"inputs": [
						{
							"internalType": "uint256",
							"name": "_shares",
							"type": "uint256"
						}
					],
					"name": "removeLiquity",
					"outputs": [
						{
							"internalType": "uint256",
							"name": "amount0",
							"type": "uint256"
						},
						{
							"internalType": "uint256",
							"name": "amount1",
							"type": "uint256"
						}
					],
					"stateMutability": "nonpayable",
					"type": "function"
				},
				{
					"inputs": [],
					"name": "reserve0",
					"outputs": [
						{
							"internalType": "uint256",
							"name": "",
							"type": "uint256"
						}
					],
					"stateMutability": "view",
					"type": "function"
				},
				{
					"inputs": [],
					"name": "reserve1",
					"outputs": [
						{
							"internalType": "uint256",
							"name": "",
							"type": "uint256"
						}
					],
					"stateMutability": "view",
					"type": "function"
				},
				{
					"inputs": [
						{
							"internalType": "address",
							"name": "_tokenIn",
							"type": "address"
						},
						{
							"internalType": "uint256",
							"name": "_amountIn",
							"type": "uint256"
						}
					],
					"name": "swap",
					"outputs": [
						{
							"internalType": "uint256",
							"name": "amountOut",
							"type": "uint256"
						}
					],
					"stateMutability": "nonpayable",
					"type": "function"
				},
				{
					"inputs": [],
					"name": "token0",
					"outputs": [
						{
							"internalType": "contract IERC20",
							"name": "",
							"type": "address"
						}
					],
					"stateMutability": "view",
					"type": "function"
				},
				{
					"inputs": [],
					"name": "token1",
					"outputs": [
						{
							"internalType": "contract IERC20",
							"name": "",
							"type": "address"
						}
					],
					"stateMutability": "view",
					"type": "function"
				},
				{
					"inputs": [],
					"name": "totalSupply",
					"outputs": [
						{
							"internalType": "uint256",
							"name": "",
							"type": "uint256"
						}
					],
					"stateMutability": "view",
					"type": "function"
				}
			],
			"devdoc": {
				"kind": "dev",
				"methods": {},
				"version": 1
			},
			"evm": {
				"assembly": "    /* \"CPAMM.sol\":82:3616  contract CPAMM {... */\n  mstore(0x40, 0xc0)\n    /* \"CPAMM.sol\":318:439  constructor(address _token0, address _token1) {... */\n  callvalue\n  dup1\n  iszero\n  tag_1\n  jumpi\n  0x00\n  dup1\n  revert\ntag_1:\n  pop\n  mload(0x40)\n  sub(codesize, bytecodeSize)\n  dup1\n  bytecodeSize\n  dup4\n  codecopy\n  dup2\n  dup2\n  add\n  0x40\n  mstore\n  dup2\n  add\n  swap1\n  tag_2\n  swap2\n  swap1\n  tag_3\n  jump\t// in\ntag_2:\n    /* \"CPAMM.sol\":390:397  _token0 */\n  dup2\n    /* \"CPAMM.sol\":374:398  token0 = IERC20(_token0) */\n  0xffffffffffffffffffffffffffffffffffffffff\n  and\n  0x80\n  dup2\n  0xffffffffffffffffffffffffffffffffffffffff\n  and\n  dup2\n  mstore\n  pop\n  pop\n    /* \"CPAMM.sol\":424:431  _token1 */\n  dup1\n    /* \"CPAMM.sol\":408:432  token1 = IERC20(_token1) */\n  0xffffffffffffffffffffffffffffffffffffffff\n  and\n  0xa0\n  dup2\n  0xffffffffffffffffffffffffffffffffffffffff\n  and\n  dup2\n  mstore\n  pop\n  pop\n    /* \"CPAMM.sol\":318:439  constructor(address _token0, address _token1) {... */\n  pop\n  pop\n    /* \"CPAMM.sol\":82:3616  contract CPAMM {... */\n  jump(tag_6)\n    /* \"#utility.yul\":88:205   */\ntag_8:\n    /* \"#utility.yul\":197:198   */\n  0x00\n    /* \"#utility.yul\":194:195   */\n  dup1\n    /* \"#utility.yul\":187:199   */\n  revert\n    /* \"#utility.yul\":334:460   */\ntag_10:\n    /* \"#utility.yul\":371:378   */\n  0x00\n    /* \"#utility.yul\":411:453   */\n  0xffffffffffffffffffffffffffffffffffffffff\n    /* \"#utility.yul\":404:409   */\n  dup3\n    /* \"#utility.yul\":400:454   */\n  and\n    /* \"#utility.yul\":389:454   */\n  swap1\n  pop\n    /* \"#utility.yul\":334:460   */\n  swap2\n  swap1\n  pop\n  jump\t// out\n    /* \"#utility.yul\":466:562   */\ntag_11:\n    /* \"#utility.yul\":503:510   */\n  0x00\n    /* \"#utility.yul\":532:556   */\n  tag_20\n    /* \"#utility.yul\":550:555   */\n  dup3\n    /* \"#utility.yul\":532:556   */\n  tag_10\n  jump\t// in\ntag_20:\n    /* \"#utility.yul\":521:556   */\n  swap1\n  pop\n    /* \"#utility.yul\":466:562   */\n  swap2\n  swap1\n  pop\n  jump\t// out\n    /* \"#utility.yul\":568:690   */\ntag_12:\n    /* \"#utility.yul\":641:665   */\n  tag_22\n    /* \"#utility.yul\":659:664   */\n  dup2\n    /* \"#utility.yul\":641:665   */\n  tag_11\n  jump\t// in\ntag_22:\n    /* \"#utility.yul\":634:639   */\n  dup2\n    /* \"#utility.yul\":631:666   */\n  eq\n    /* \"#utility.yul\":621:684   */\n  tag_23\n  jumpi\n    /* \"#utility.yul\":680:681   */\n  0x00\n    /* \"#utility.yul\":677:678   */\n  dup1\n    /* \"#utility.yul\":670:682   */\n  revert\n    /* \"#utility.yul\":621:684   */\ntag_23:\n    /* \"#utility.yul\":568:690   */\n  pop\n  jump\t// out\n    /* \"#utility.yul\":696:839   */\ntag_13:\n    /* \"#utility.yul\":753:758   */\n  0x00\n    /* \"#utility.yul\":784:790   */\n  dup2\n    /* \"#utility.yul\":778:791   */\n  mload\n    /* \"#utility.yul\":769:791   */\n  swap1\n  pop\n    /* \"#utility.yul\":800:833   */\n  tag_25\n    /* \"#utility.yul\":827:832   */\n  dup2\n    /* \"#utility.yul\":800:833   */\n  tag_12\n  jump\t// in\ntag_25:\n    /* \"#utility.yul\":696:839   */\n  swap3\n  swap2\n  pop\n  pop\n  jump\t// out\n    /* \"#utility.yul\":845:1352   */\ntag_3:\n    /* \"#utility.yul\":924:930   */\n  0x00\n    /* \"#utility.yul\":932:938   */\n  dup1\n    /* \"#utility.yul\":981:983   */\n  0x40\n    /* \"#utility.yul\":969:978   */\n  dup4\n    /* \"#utility.yul\":960:967   */\n  dup6\n    /* \"#utility.yul\":956:979   */\n  sub\n    /* \"#utility.yul\":952:984   */\n  slt\n    /* \"#utility.yul\":949:1068   */\n  iszero\n  tag_27\n  jumpi\n    /* \"#utility.yul\":987:1066   */\n  tag_28\n  tag_8\n  jump\t// in\ntag_28:\n    /* \"#utility.yul\":949:1068   */\ntag_27:\n    /* \"#utility.yul\":1107:1108   */\n  0x00\n    /* \"#utility.yul\":1132:1196   */\n  tag_29\n    /* \"#utility.yul\":1188:1195   */\n  dup6\n    /* \"#utility.yul\":1179:1185   */\n  dup3\n    /* \"#utility.yul\":1168:1177   */\n  dup7\n    /* \"#utility.yul\":1164:1186   */\n  add\n    /* \"#utility.yul\":1132:1196   */\n  tag_13\n  jump\t// in\ntag_29:\n    /* \"#utility.yul\":1122:1196   */\n  swap3\n  pop\n    /* \"#utility.yul\":1078:1206   */\n  pop\n    /* \"#utility.yul\":1245:1247   */\n  0x20\n    /* \"#utility.yul\":1271:1335   */\n  tag_30\n    /* \"#utility.yul\":1327:1334   */\n  dup6\n    /* \"#utility.yul\":1318:1324   */\n  dup3\n    /* \"#utility.yul\":1307:1316   */\n  dup7\n    /* \"#utility.yul\":1303:1325   */\n  add\n    /* \"#utility.yul\":1271:1335   */\n  tag_13\n  jump\t// in\ntag_30:\n    /* \"#utility.yul\":1261:1335   */\n  swap2\n  pop\n    /* \"#utility.yul\":1216:1345   */\n  pop\n    /* \"#utility.yul\":845:1352   */\n  swap3\n  pop\n  swap3\n  swap1\n  pop\n  jump\t// out\n    /* \"CPAMM.sol\":82:3616  contract CPAMM {... */\ntag_6:\n  mload(0x80)\n  mload(0xa0)\n  codecopy(0x00, dataOffset(sub_0), dataSize(sub_0))\n  0x00\n  assignImmutable(\"0xe4b1702d9298fee62dfeccc57d322a463ad55ca201256d01f62b45b2e1c21c10\")\n  0x00\n  assignImmutable(\"0xceebf77a833b30520287ddd9478ff51abbdffa30aa90a8d655dba0e8a79ce0c1\")\n  return(0x00, dataSize(sub_0))\nstop\n\nsub_0: assembly {\n        /* \"CPAMM.sol\":82:3616  contract CPAMM {... */\n      mstore(0x40, 0x80)\n      callvalue\n      dup1\n      iszero\n      tag_1\n      jumpi\n      0x00\n      dup1\n      revert\n    tag_1:\n      pop\n      jumpi(tag_2, lt(calldatasize, 0x04))\n      shr(0xe0, calldataload(0x00))\n      dup1\n      0x70a08231\n      gt\n      tag_12\n      jumpi\n      dup1\n      0x70a08231\n      eq\n      tag_7\n      jumpi\n      dup1\n      0x9cd441da\n      eq\n      tag_8\n      jumpi\n      dup1\n      0xd004f0f7\n      eq\n      tag_9\n      jumpi\n      dup1\n      0xd21220a7\n      eq\n      tag_10\n      jumpi\n      dup1\n      0xff72258b\n      eq\n      tag_11\n      jumpi\n      jump(tag_2)\n    tag_12:\n      dup1\n      0x0dfe1681\n      eq\n      tag_3\n      jumpi\n      dup1\n      0x18160ddd\n      eq\n      tag_4\n      jumpi\n      dup1\n      0x443cb4bc\n      eq\n      tag_5\n      jumpi\n      dup1\n      0x5a76f25e\n      eq\n      tag_6\n      jumpi\n    tag_2:\n      0x00\n      dup1\n      revert\n        /* \"CPAMM.sol\":103:133  IERC20 public immutable token0 */\n    tag_3:\n      tag_13\n      tag_14\n      jump\t// in\n    tag_13:\n      mload(0x40)\n      tag_15\n      swap2\n      swap1\n      tag_16\n      jump\t// in\n    tag_15:\n      mload(0x40)\n      dup1\n      swap2\n      sub\n      swap1\n      return\n        /* \"CPAMM.sol\":235:261  uint256 public totalSupply */\n    tag_4:\n      tag_17\n      tag_18\n      jump\t// in\n    tag_17:\n      mload(0x40)\n      tag_19\n      swap2\n      swap1\n      tag_20\n      jump\t// in\n    tag_19:\n      mload(0x40)\n      dup1\n      swap2\n      sub\n      swap1\n      return\n        /* \"CPAMM.sol\":176:199  uint256 public reserve0 */\n    tag_5:\n      tag_21\n      tag_22\n      jump\t// in\n    tag_21:\n      mload(0x40)\n      tag_23\n      swap2\n      swap1\n      tag_20\n      jump\t// in\n    tag_23:\n      mload(0x40)\n      dup1\n      swap2\n      sub\n      swap1\n      return\n        /* \"CPAMM.sol\":205:228  uint256 public reserve1 */\n    tag_6:\n      tag_24\n      tag_25\n      jump\t// in\n    tag_24:\n      mload(0x40)\n      tag_26\n      swap2\n      swap1\n      tag_20\n      jump\t// in\n    tag_26:\n      mload(0x40)\n      dup1\n      swap2\n      sub\n      swap1\n      return\n        /* \"CPAMM.sol\":267:311  mapping(address => uint256) public balanceOf */\n    tag_7:\n      tag_27\n      0x04\n      dup1\n      calldatasize\n      sub\n      dup2\n      add\n      swap1\n      tag_28\n      swap2\n      swap1\n      tag_29\n      jump\t// in\n    tag_28:\n      tag_30\n      jump\t// in\n    tag_27:\n      mload(0x40)\n      tag_31\n      swap2\n      swap1\n      tag_20\n      jump\t// in\n    tag_31:\n      mload(0x40)\n      dup1\n      swap2\n      sub\n      swap1\n      return\n        /* \"CPAMM.sol\":2283:3106  function addLiquidity(... */\n    tag_8:\n      tag_32\n      0x04\n      dup1\n      calldatasize\n      sub\n      dup2\n      add\n      swap1\n      tag_33\n      swap2\n      swap1\n      tag_34\n      jump\t// in\n    tag_33:\n      tag_35\n      jump\t// in\n    tag_32:\n      mload(0x40)\n      tag_36\n      swap2\n      swap1\n      tag_20\n      jump\t// in\n    tag_36:\n      mload(0x40)\n      dup1\n      swap2\n      sub\n      swap1\n      return\n        /* \"CPAMM.sol\":1293:2277  function swap(... */\n    tag_9:\n      tag_37\n      0x04\n      dup1\n      calldatasize\n      sub\n      dup2\n      add\n      swap1\n      tag_38\n      swap2\n      swap1\n      tag_39\n      jump\t// in\n    tag_38:\n      tag_40\n      jump\t// in\n    tag_37:\n      mload(0x40)\n      tag_41\n      swap2\n      swap1\n      tag_20\n      jump\t// in\n    tag_41:\n      mload(0x40)\n      dup1\n      swap2\n      sub\n      swap1\n      return\n        /* \"CPAMM.sol\":139:169  IERC20 public immutable token1 */\n    tag_10:\n      tag_42\n      tag_43\n      jump\t// in\n    tag_42:\n      mload(0x40)\n      tag_44\n      swap2\n      swap1\n      tag_16\n      jump\t// in\n    tag_44:\n      mload(0x40)\n      dup1\n      swap2\n      sub\n      swap1\n      return\n        /* \"CPAMM.sol\":3112:3614  function removeLiquity(... */\n    tag_11:\n      tag_45\n      0x04\n      dup1\n      calldatasize\n      sub\n      dup2\n      add\n      swap1\n      tag_46\n      swap2\n      swap1\n      tag_47\n      jump\t// in\n    tag_46:\n      tag_48\n      jump\t// in\n    tag_45:\n      mload(0x40)\n      tag_49\n      swap3\n      swap2\n      swap1\n      tag_50\n      jump\t// in\n    tag_49:\n      mload(0x40)\n      dup1\n      swap2\n      sub\n      swap1\n      return\n        /* \"CPAMM.sol\":103:133  IERC20 public immutable token0 */\n    tag_14:\n      immutable(\"0xceebf77a833b30520287ddd9478ff51abbdffa30aa90a8d655dba0e8a79ce0c1\")\n      dup2\n      jump\t// out\n        /* \"CPAMM.sol\":235:261  uint256 public totalSupply */\n    tag_18:\n      sload(0x02)\n      dup2\n      jump\t// out\n        /* \"CPAMM.sol\":176:199  uint256 public reserve0 */\n    tag_22:\n      sload(0x00)\n      dup2\n      jump\t// out\n        /* \"CPAMM.sol\":205:228  uint256 public reserve1 */\n    tag_25:\n      sload(0x01)\n      dup2\n      jump\t// out\n        /* \"CPAMM.sol\":267:311  mapping(address => uint256) public balanceOf */\n    tag_30:\n      mstore(0x20, 0x03)\n      dup1\n      0x00\n      mstore\n      keccak256(0x00, 0x40)\n      0x00\n      swap2\n      pop\n      swap1\n      pop\n      sload\n      dup2\n      jump\t// out\n        /* \"CPAMM.sol\":2283:3106  function addLiquidity(... */\n    tag_35:\n        /* \"CPAMM.sol\":2381:2395  uint256 shares */\n      0x00\n        /* \"CPAMM.sol\":2407:2413  token0 */\n      immutable(\"0xceebf77a833b30520287ddd9478ff51abbdffa30aa90a8d655dba0e8a79ce0c1\")\n        /* \"CPAMM.sol\":2407:2426  token0.transferFrom */\n      0xffffffffffffffffffffffffffffffffffffffff\n      and\n      0x23b872dd\n        /* \"CPAMM.sol\":2427:2437  msg.sender */\n      caller\n        /* \"CPAMM.sol\":2447:2451  this */\n      address\n        /* \"CPAMM.sol\":2454:2462  _amount0 */\n      dup7\n        /* \"CPAMM.sol\":2407:2463  token0.transferFrom(msg.sender, address(this), _amount0) */\n      mload(0x40)\n      dup5\n      0xffffffff\n      and\n      0xe0\n      shl\n      dup2\n      mstore\n      0x04\n      add\n      tag_52\n      swap4\n      swap3\n      swap2\n      swap1\n      tag_53\n      jump\t// in\n    tag_52:\n      0x20\n      mload(0x40)\n      dup1\n      dup4\n      sub\n      dup2\n      0x00\n      dup8\n      gas\n      call\n      iszero\n      dup1\n      iszero\n      tag_55\n      jumpi\n      returndatasize\n      0x00\n      dup1\n      returndatacopy\n      revert(0x00, returndatasize)\n    tag_55:\n      pop\n      pop\n      pop\n      pop\n      mload(0x40)\n      returndatasize\n      not(0x1f)\n      0x1f\n      dup3\n      add\n      and\n      dup3\n      add\n      dup1\n      0x40\n      mstore\n      pop\n      dup2\n      add\n      swap1\n      tag_56\n      swap2\n      swap1\n      tag_57\n      jump\t// in\n    tag_56:\n      pop\n        /* \"CPAMM.sol\":2473:2479  token1 */\n      immutable(\"0xe4b1702d9298fee62dfeccc57d322a463ad55ca201256d01f62b45b2e1c21c10\")\n        /* \"CPAMM.sol\":2473:2492  token1.transferFrom */\n      0xffffffffffffffffffffffffffffffffffffffff\n      and\n      0x23b872dd\n        /* \"CPAMM.sol\":2493:2503  msg.sender */\n      caller\n        /* \"CPAMM.sol\":2513:2517  this */\n      address\n        /* \"CPAMM.sol\":2520:2528  _amount1 */\n      dup6\n        /* \"CPAMM.sol\":2473:2529  token1.transferFrom(msg.sender, address(this), _amount1) */\n      mload(0x40)\n      dup5\n      0xffffffff\n      and\n      0xe0\n      shl\n      dup2\n      mstore\n      0x04\n      add\n      tag_58\n      swap4\n      swap3\n      swap2\n      swap1\n      tag_53\n      jump\t// in\n    tag_58:\n      0x20\n      mload(0x40)\n      dup1\n      dup4\n      sub\n      dup2\n      0x00\n      dup8\n      gas\n      call\n      iszero\n      dup1\n      iszero\n      tag_60\n      jumpi\n      returndatasize\n      0x00\n      dup1\n      returndatacopy\n      revert(0x00, returndatasize)\n    tag_60:\n      pop\n      pop\n      pop\n      pop\n      mload(0x40)\n      returndatasize\n      not(0x1f)\n      0x1f\n      dup3\n      add\n      and\n      dup3\n      add\n      dup1\n      0x40\n      mstore\n      pop\n      dup2\n      add\n      swap1\n      tag_61\n      swap2\n      swap1\n      tag_57\n      jump\t// in\n    tag_61:\n      pop\n        /* \"CPAMM.sol\":2554:2555  0 */\n      0x00\n        /* \"CPAMM.sol\":2543:2551  reserve0 */\n      dup1\n      sload\n        /* \"CPAMM.sol\":2543:2555  reserve0 > 0 */\n      gt\n        /* \"CPAMM.sol\":2543:2571  reserve0 > 0 || reserve1 > 0 */\n      dup1\n      tag_62\n      jumpi\n      pop\n        /* \"CPAMM.sol\":2570:2571  0 */\n      0x00\n        /* \"CPAMM.sol\":2559:2567  reserve1 */\n      sload(0x01)\n        /* \"CPAMM.sol\":2559:2571  reserve1 > 0 */\n      gt\n        /* \"CPAMM.sol\":2543:2571  reserve0 > 0 || reserve1 > 0 */\n    tag_62:\n        /* \"CPAMM.sol\":2539:2649  if (reserve0 > 0 || reserve1 > 0) {... */\n      iszero\n      tag_63\n      jumpi\n        /* \"CPAMM.sol\":2629:2637  _amount0 */\n      dup3\n        /* \"CPAMM.sol\":2618:2626  reserve1 */\n      sload(0x01)\n        /* \"CPAMM.sol\":2618:2637  reserve1 * _amount0 */\n      tag_64\n      swap2\n      swap1\n      tag_65\n      jump\t// in\n    tag_64:\n        /* \"CPAMM.sol\":2606:2614  _amount1 */\n      dup3\n        /* \"CPAMM.sol\":2595:2603  reserve0 */\n      sload(0x00)\n        /* \"CPAMM.sol\":2595:2614  reserve0 * _amount1 */\n      tag_66\n      swap2\n      swap1\n      tag_65\n      jump\t// in\n    tag_66:\n        /* \"CPAMM.sol\":2595:2637  reserve0 * _amount1 == reserve1 * _amount0 */\n      eq\n        /* \"CPAMM.sol\":2587:2638  require(reserve0 * _amount1 == reserve1 * _amount0) */\n      tag_67\n      jumpi\n      0x00\n      dup1\n      revert\n    tag_67:\n        /* \"CPAMM.sol\":2539:2649  if (reserve0 > 0 || reserve1 > 0) {... */\n    tag_63:\n        /* \"CPAMM.sol\":2678:2679  0 */\n      0x00\n        /* \"CPAMM.sol\":2663:2674  totalSupply */\n      sload(0x02)\n        /* \"CPAMM.sol\":2663:2679  totalSupply == 0 */\n      sub\n        /* \"CPAMM.sol\":2659:2905  if (totalSupply == 0) {... */\n      tag_68\n      jumpi\n        /* \"CPAMM.sol\":2704:2730  _sqrt(_amount0 * _amount1) */\n      tag_69\n        /* \"CPAMM.sol\":2721:2729  _amount1 */\n      dup3\n        /* \"CPAMM.sol\":2710:2718  _amount0 */\n      dup5\n        /* \"CPAMM.sol\":2710:2729  _amount0 * _amount1 */\n      tag_70\n      swap2\n      swap1\n      tag_65\n      jump\t// in\n    tag_70:\n        /* \"CPAMM.sol\":2704:2709  _sqrt */\n      tag_71\n        /* \"CPAMM.sol\":2704:2730  _sqrt(_amount0 * _amount1) */\n      jump\t// in\n    tag_69:\n        /* \"CPAMM.sol\":2695:2730  shares = _sqrt(_amount0 * _amount1) */\n      swap1\n      pop\n        /* \"CPAMM.sol\":2659:2905  if (totalSupply == 0) {... */\n      jump(tag_72)\n    tag_68:\n        /* \"CPAMM.sol\":2770:2894  _min(... */\n      tag_73\n        /* \"CPAMM.sol\":2819:2827  reserve0 */\n      sload(0x00)\n        /* \"CPAMM.sol\":2804:2815  totalSupply */\n      sload(0x02)\n        /* \"CPAMM.sol\":2793:2801  _amount0 */\n      dup6\n        /* \"CPAMM.sol\":2793:2815  _amount0 * totalSupply */\n      tag_74\n      swap2\n      swap1\n      tag_65\n      jump\t// in\n    tag_74:\n        /* \"CPAMM.sol\":2792:2827  (_amount0 * totalSupply) / reserve0 */\n      tag_75\n      swap2\n      swap1\n      tag_76\n      jump\t// in\n    tag_75:\n        /* \"CPAMM.sol\":2872:2880  reserve1 */\n      sload(0x01)\n        /* \"CPAMM.sol\":2857:2868  totalSupply */\n      sload(0x02)\n        /* \"CPAMM.sol\":2846:2854  _amount1 */\n      dup6\n        /* \"CPAMM.sol\":2846:2868  _amount1 * totalSupply */\n      tag_77\n      swap2\n      swap1\n      tag_65\n      jump\t// in\n    tag_77:\n        /* \"CPAMM.sol\":2845:2880  (_amount1 * totalSupply) / reserve1 */\n      tag_78\n      swap2\n      swap1\n      tag_76\n      jump\t// in\n    tag_78:\n        /* \"CPAMM.sol\":2770:2774  _min */\n      tag_79\n        /* \"CPAMM.sol\":2770:2894  _min(... */\n      jump\t// in\n    tag_73:\n        /* \"CPAMM.sol\":2761:2894  shares = _min(... */\n      swap1\n      pop\n        /* \"CPAMM.sol\":2659:2905  if (totalSupply == 0) {... */\n    tag_72:\n        /* \"CPAMM.sol\":2931:2932  0 */\n      0x00\n        /* \"CPAMM.sol\":2922:2928  shares */\n      dup2\n        /* \"CPAMM.sol\":2922:2932  shares > 0 */\n      gt\n        /* \"CPAMM.sol\":2914:2947  require(shares > 0, \"shares = 0\") */\n      tag_80\n      jumpi\n      mload(0x40)\n      0x08c379a000000000000000000000000000000000000000000000000000000000\n      dup2\n      mstore\n      0x04\n      add\n      tag_81\n      swap1\n      tag_82\n      jump\t// in\n    tag_81:\n      mload(0x40)\n      dup1\n      swap2\n      sub\n      swap1\n      revert\n    tag_80:\n        /* \"CPAMM.sol\":2957:2982  _mint(msg.sender, shares) */\n      tag_83\n        /* \"CPAMM.sol\":2963:2973  msg.sender */\n      caller\n        /* \"CPAMM.sol\":2975:2981  shares */\n      dup3\n        /* \"CPAMM.sol\":2957:2962  _mint */\n      tag_84\n        /* \"CPAMM.sol\":2957:2982  _mint(msg.sender, shares) */\n      jump\t// in\n    tag_83:\n        /* \"CPAMM.sol\":2992:3099  _update(... */\n      tag_85\n        /* \"CPAMM.sol\":3013:3019  token0 */\n      immutable(\"0xceebf77a833b30520287ddd9478ff51abbdffa30aa90a8d655dba0e8a79ce0c1\")\n        /* \"CPAMM.sol\":3013:3029  token0.balanceOf */\n      0xffffffffffffffffffffffffffffffffffffffff\n      and\n      0x70a08231\n        /* \"CPAMM.sol\":3038:3042  this */\n      address\n        /* \"CPAMM.sol\":3013:3044  token0.balanceOf(address(this)) */\n      mload(0x40)\n      dup3\n      0xffffffff\n      and\n      0xe0\n      shl\n      dup2\n      mstore\n      0x04\n      add\n      tag_86\n      swap2\n      swap1\n      tag_87\n      jump\t// in\n    tag_86:\n      0x20\n      mload(0x40)\n      dup1\n      dup4\n      sub\n      dup2\n      dup7\n      gas\n      staticcall\n      iszero\n      dup1\n      iszero\n      tag_89\n      jumpi\n      returndatasize\n      0x00\n      dup1\n      returndatacopy\n      revert(0x00, returndatasize)\n    tag_89:\n      pop\n      pop\n      pop\n      pop\n      mload(0x40)\n      returndatasize\n      not(0x1f)\n      0x1f\n      dup3\n      add\n      and\n      dup3\n      add\n      dup1\n      0x40\n      mstore\n      pop\n      dup2\n      add\n      swap1\n      tag_90\n      swap2\n      swap1\n      tag_91\n      jump\t// in\n    tag_90:\n        /* \"CPAMM.sol\":3058:3064  token1 */\n      immutable(\"0xe4b1702d9298fee62dfeccc57d322a463ad55ca201256d01f62b45b2e1c21c10\")\n        /* \"CPAMM.sol\":3058:3074  token1.balanceOf */\n      0xffffffffffffffffffffffffffffffffffffffff\n      and\n      0x70a08231\n        /* \"CPAMM.sol\":3083:3087  this */\n      address\n        /* \"CPAMM.sol\":3058:3089  token1.balanceOf(address(this)) */\n      mload(0x40)\n      dup3\n      0xffffffff\n      and\n      0xe0\n      shl\n      dup2\n      mstore\n      0x04\n      add\n      tag_92\n      swap2\n      swap1\n      tag_87\n      jump\t// in\n    tag_92:\n      0x20\n      mload(0x40)\n      dup1\n      dup4\n      sub\n      dup2\n      dup7\n      gas\n      staticcall\n      iszero\n      dup1\n      iszero\n      tag_94\n      jumpi\n      returndatasize\n      0x00\n      dup1\n      returndatacopy\n      revert(0x00, returndatasize)\n    tag_94:\n      pop\n      pop\n      pop\n      pop\n      mload(0x40)\n      returndatasize\n      not(0x1f)\n      0x1f\n      dup3\n      add\n      and\n      dup3\n      add\n      dup1\n      0x40\n      mstore\n      pop\n      dup2\n      add\n      swap1\n      tag_95\n      swap2\n      swap1\n      tag_91\n      jump\t// in\n    tag_95:\n        /* \"CPAMM.sol\":2992:2999  _update */\n      tag_96\n        /* \"CPAMM.sol\":2992:3099  _update(... */\n      jump\t// in\n    tag_85:\n        /* \"CPAMM.sol\":2283:3106  function addLiquidity(... */\n      swap3\n      swap2\n      pop\n      pop\n      jump\t// out\n        /* \"CPAMM.sol\":1293:2277  function swap(... */\n    tag_40:\n        /* \"CPAMM.sol\":1384:1401  uint256 amountOut */\n      0x00\n        /* \"CPAMM.sol\":1454:1460  token0 */\n      immutable(\"0xceebf77a833b30520287ddd9478ff51abbdffa30aa90a8d655dba0e8a79ce0c1\")\n        /* \"CPAMM.sol\":1434:1461  _tokenIn == address(token0) */\n      0xffffffffffffffffffffffffffffffffffffffff\n      and\n        /* \"CPAMM.sol\":1434:1442  _tokenIn */\n      dup4\n        /* \"CPAMM.sol\":1434:1461  _tokenIn == address(token0) */\n      0xffffffffffffffffffffffffffffffffffffffff\n      and\n      eq\n        /* \"CPAMM.sol\":1434:1492  _tokenIn == address(token0) || _tokenIn == address(token1) */\n      dup1\n      tag_98\n      jumpi\n      pop\n        /* \"CPAMM.sol\":1485:1491  token1 */\n      immutable(\"0xe4b1702d9298fee62dfeccc57d322a463ad55ca201256d01f62b45b2e1c21c10\")\n        /* \"CPAMM.sol\":1465:1492  _tokenIn == address(token1) */\n      0xffffffffffffffffffffffffffffffffffffffff\n      and\n        /* \"CPAMM.sol\":1465:1473  _tokenIn */\n      dup4\n        /* \"CPAMM.sol\":1465:1492  _tokenIn == address(token1) */\n      0xffffffffffffffffffffffffffffffffffffffff\n      and\n      eq\n        /* \"CPAMM.sol\":1434:1492  _tokenIn == address(token0) || _tokenIn == address(token1) */\n    tag_98:\n        /* \"CPAMM.sol\":1413:1531  require(... */\n      tag_99\n      jumpi\n      mload(0x40)\n      0x08c379a000000000000000000000000000000000000000000000000000000000\n      dup2\n      mstore\n      0x04\n      add\n      tag_100\n      swap1\n      tag_101\n      jump\t// in\n    tag_100:\n      mload(0x40)\n      dup1\n      swap2\n      sub\n      swap1\n      revert\n    tag_99:\n        /* \"CPAMM.sol\":1541:1554  bool isToken0 */\n      0x00\n        /* \"CPAMM.sol\":1577:1583  token0 */\n      immutable(\"0xceebf77a833b30520287ddd9478ff51abbdffa30aa90a8d655dba0e8a79ce0c1\")\n        /* \"CPAMM.sol\":1557:1584  _tokenIn == address(token0) */\n      0xffffffffffffffffffffffffffffffffffffffff\n      and\n        /* \"CPAMM.sol\":1557:1565  _tokenIn */\n      dup5\n        /* \"CPAMM.sol\":1557:1584  _tokenIn == address(token0) */\n      0xffffffffffffffffffffffffffffffffffffffff\n      and\n      eq\n        /* \"CPAMM.sol\":1541:1584  bool isToken0 = _tokenIn == address(token0) */\n      swap1\n      pop\n        /* \"CPAMM.sol\":1608:1622  IERC20 tokenIn */\n      0x00\n        /* \"CPAMM.sol\":1636:1651  IERC20 tokenOut */\n      dup1\n        /* \"CPAMM.sol\":1665:1682  uint256 reserveIn */\n      0x00\n        /* \"CPAMM.sol\":1696:1714  uint256 reserveOut */\n      dup1\n        /* \"CPAMM.sol\":1727:1735  isToken0 */\n      dup5\n        /* \"CPAMM.sol\":1727:1845  isToken0... */\n      tag_102\n      jumpi\n        /* \"CPAMM.sol\":1810:1816  token1 */\n      immutable(\"0xe4b1702d9298fee62dfeccc57d322a463ad55ca201256d01f62b45b2e1c21c10\")\n        /* \"CPAMM.sol\":1818:1824  token0 */\n      immutable(\"0xceebf77a833b30520287ddd9478ff51abbdffa30aa90a8d655dba0e8a79ce0c1\")\n        /* \"CPAMM.sol\":1826:1834  reserve1 */\n      sload(0x01)\n        /* \"CPAMM.sol\":1836:1844  reserve0 */\n      sload(0x00)\n        /* \"CPAMM.sol\":1727:1845  isToken0... */\n      jump(tag_103)\n    tag_102:\n        /* \"CPAMM.sol\":1755:1761  token0 */\n      immutable(\"0xceebf77a833b30520287ddd9478ff51abbdffa30aa90a8d655dba0e8a79ce0c1\")\n        /* \"CPAMM.sol\":1763:1769  token1 */\n      immutable(\"0xe4b1702d9298fee62dfeccc57d322a463ad55ca201256d01f62b45b2e1c21c10\")\n        /* \"CPAMM.sol\":1771:1779  reserve0 */\n      sload(0x00)\n        /* \"CPAMM.sol\":1781:1789  reserve1 */\n      sload(0x01)\n        /* \"CPAMM.sol\":1727:1845  isToken0... */\n    tag_103:\n        /* \"CPAMM.sol\":1594:1845  (... */\n      swap4\n      pop\n      swap4\n      pop\n      swap4\n      pop\n      swap4\n      pop\n        /* \"CPAMM.sol\":1855:1862  tokenIn */\n      dup4\n        /* \"CPAMM.sol\":1855:1875  tokenIn.transferFrom */\n      0xffffffffffffffffffffffffffffffffffffffff\n      and\n      0x23b872dd\n        /* \"CPAMM.sol\":1876:1886  msg.sender */\n      caller\n        /* \"CPAMM.sol\":1896:1900  this */\n      address\n        /* \"CPAMM.sol\":1903:1912  _amountIn */\n      dup11\n        /* \"CPAMM.sol\":1855:1913  tokenIn.transferFrom(msg.sender, address(this), _amountIn) */\n      mload(0x40)\n      dup5\n      0xffffffff\n      and\n      0xe0\n      shl\n      dup2\n      mstore\n      0x04\n      add\n      tag_104\n      swap4\n      swap3\n      swap2\n      swap1\n      tag_53\n      jump\t// in\n    tag_104:\n      0x20\n      mload(0x40)\n      dup1\n      dup4\n      sub\n      dup2\n      0x00\n      dup8\n      gas\n      call\n      iszero\n      dup1\n      iszero\n      tag_106\n      jumpi\n      returndatasize\n      0x00\n      dup1\n      returndatacopy\n      revert(0x00, returndatasize)\n    tag_106:\n      pop\n      pop\n      pop\n      pop\n      mload(0x40)\n      returndatasize\n      not(0x1f)\n      0x1f\n      dup3\n      add\n      and\n      dup3\n      add\n      dup1\n      0x40\n      mstore\n      pop\n      dup2\n      add\n      swap1\n      tag_107\n      swap2\n      swap1\n      tag_57\n      jump\t// in\n    tag_107:\n      pop\n        /* \"CPAMM.sol\":1956:1979  uint256 amountInWithFee */\n      0x00\n        /* \"CPAMM.sol\":2002:2006  1000 */\n      0x03e8\n        /* \"CPAMM.sol\":1995:1998  997 */\n      0x03e5\n        /* \"CPAMM.sol\":1983:1992  _amountIn */\n      dup10\n        /* \"CPAMM.sol\":1983:1998  _amountIn * 997 */\n      tag_108\n      swap2\n      swap1\n      tag_65\n      jump\t// in\n    tag_108:\n        /* \"CPAMM.sol\":1982:2006  (_amountIn * 997) / 1000 */\n      tag_109\n      swap2\n      swap1\n      tag_76\n      jump\t// in\n    tag_109:\n        /* \"CPAMM.sol\":1956:2006  uint256 amountInWithFee = (_amountIn * 997) / 1000 */\n      swap1\n      pop\n        /* \"CPAMM.sol\":2086:2101  amountInWithFee */\n      dup1\n        /* \"CPAMM.sol\":2074:2083  reserveIn */\n      dup4\n        /* \"CPAMM.sol\":2074:2101  reserveIn * amountInWithFee */\n      tag_110\n      swap2\n      swap1\n      tag_65\n      jump\t// in\n    tag_110:\n        /* \"CPAMM.sol\":2054:2069  amountInWithFee */\n      dup2\n        /* \"CPAMM.sol\":2041:2051  reserveOut */\n      dup4\n        /* \"CPAMM.sol\":2041:2069  reserveOut * amountInWithFee */\n      tag_111\n      swap2\n      swap1\n      tag_65\n      jump\t// in\n    tag_111:\n        /* \"CPAMM.sol\":2040:2102  (reserveOut * amountInWithFee) / (reserveIn * amountInWithFee) */\n      tag_112\n      swap2\n      swap1\n      tag_76\n      jump\t// in\n    tag_112:\n        /* \"CPAMM.sol\":2016:2102  amountOut =... */\n      swap7\n      pop\n        /* \"CPAMM.sol\":2112:2120  tokenOut */\n      dup4\n        /* \"CPAMM.sol\":2112:2129  tokenOut.transfer */\n      0xffffffffffffffffffffffffffffffffffffffff\n      and\n      0xa9059cbb\n        /* \"CPAMM.sol\":2130:2140  msg.sender */\n      caller\n        /* \"CPAMM.sol\":2142:2151  amountOut */\n      dup10\n        /* \"CPAMM.sol\":2112:2152  tokenOut.transfer(msg.sender, amountOut) */\n      mload(0x40)\n      dup4\n      0xffffffff\n      and\n      0xe0\n      shl\n      dup2\n      mstore\n      0x04\n      add\n      tag_113\n      swap3\n      swap2\n      swap1\n      tag_114\n      jump\t// in\n    tag_113:\n      0x20\n      mload(0x40)\n      dup1\n      dup4\n      sub\n      dup2\n      0x00\n      dup8\n      gas\n      call\n      iszero\n      dup1\n      iszero\n      tag_116\n      jumpi\n      returndatasize\n      0x00\n      dup1\n      returndatacopy\n      revert(0x00, returndatasize)\n    tag_116:\n      pop\n      pop\n      pop\n      pop\n      mload(0x40)\n      returndatasize\n      not(0x1f)\n      0x1f\n      dup3\n      add\n      and\n      dup3\n      add\n      dup1\n      0x40\n      mstore\n      pop\n      dup2\n      add\n      swap1\n      tag_117\n      swap2\n      swap1\n      tag_57\n      jump\t// in\n    tag_117:\n      pop\n        /* \"CPAMM.sol\":2163:2270  _update(... */\n      tag_118\n        /* \"CPAMM.sol\":2184:2190  token0 */\n      immutable(\"0xceebf77a833b30520287ddd9478ff51abbdffa30aa90a8d655dba0e8a79ce0c1\")\n        /* \"CPAMM.sol\":2184:2200  token0.balanceOf */\n      0xffffffffffffffffffffffffffffffffffffffff\n      and\n      0x70a08231\n        /* \"CPAMM.sol\":2209:2213  this */\n      address\n        /* \"CPAMM.sol\":2184:2215  token0.balanceOf(address(this)) */\n      mload(0x40)\n      dup3\n      0xffffffff\n      and\n      0xe0\n      shl\n      dup2\n      mstore\n      0x04\n      add\n      tag_119\n      swap2\n      swap1\n      tag_87\n      jump\t// in\n    tag_119:\n      0x20\n      mload(0x40)\n      dup1\n      dup4\n      sub\n      dup2\n      dup7\n      gas\n      staticcall\n      iszero\n      dup1\n      iszero\n      tag_121\n      jumpi\n      returndatasize\n      0x00\n      dup1\n      returndatacopy\n      revert(0x00, returndatasize)\n    tag_121:\n      pop\n      pop\n      pop\n      pop\n      mload(0x40)\n      returndatasize\n      not(0x1f)\n      0x1f\n      dup3\n      add\n      and\n      dup3\n      add\n      dup1\n      0x40\n      mstore\n      pop\n      dup2\n      add\n      swap1\n      tag_122\n      swap2\n      swap1\n      tag_91\n      jump\t// in\n    tag_122:\n        /* \"CPAMM.sol\":2229:2235  token1 */\n      immutable(\"0xe4b1702d9298fee62dfeccc57d322a463ad55ca201256d01f62b45b2e1c21c10\")\n        /* \"CPAMM.sol\":2229:2245  token1.balanceOf */\n      0xffffffffffffffffffffffffffffffffffffffff\n      and\n      0x70a08231\n        /* \"CPAMM.sol\":2254:2258  this */\n      address\n        /* \"CPAMM.sol\":2229:2260  token1.balanceOf(address(this)) */\n      mload(0x40)\n      dup3\n      0xffffffff\n      and\n      0xe0\n      shl\n      dup2\n      mstore\n      0x04\n      add\n      tag_123\n      swap2\n      swap1\n      tag_87\n      jump\t// in\n    tag_123:\n      0x20\n      mload(0x40)\n      dup1\n      dup4\n      sub\n      dup2\n      dup7\n      gas\n      staticcall\n      iszero\n      dup1\n      iszero\n      tag_125\n      jumpi\n      returndatasize\n      0x00\n      dup1\n      returndatacopy\n      revert(0x00, returndatasize)\n    tag_125:\n      pop\n      pop\n      pop\n      pop\n      mload(0x40)\n      returndatasize\n      not(0x1f)\n      0x1f\n      dup3\n      add\n      and\n      dup3\n      add\n      dup1\n      0x40\n      mstore\n      pop\n      dup2\n      add\n      swap1\n      tag_126\n      swap2\n      swap1\n      tag_91\n      jump\t// in\n    tag_126:\n        /* \"CPAMM.sol\":2163:2170  _update */\n      tag_96\n        /* \"CPAMM.sol\":2163:2270  _update(... */\n      jump\t// in\n    tag_118:\n        /* \"CPAMM.sol\":1403:2277  {... */\n      pop\n      pop\n      pop\n      pop\n      pop\n      pop\n        /* \"CPAMM.sol\":1293:2277  function swap(... */\n      swap3\n      swap2\n      pop\n      pop\n      jump\t// out\n        /* \"CPAMM.sol\":139:169  IERC20 public immutable token1 */\n    tag_43:\n      immutable(\"0xe4b1702d9298fee62dfeccc57d322a463ad55ca201256d01f62b45b2e1c21c10\")\n      dup2\n      jump\t// out\n        /* \"CPAMM.sol\":3112:3614  function removeLiquity(... */\n    tag_48:\n        /* \"CPAMM.sol\":3184:3199  uint256 amount0 */\n      0x00\n        /* \"CPAMM.sol\":3201:3216  uint256 amount1 */\n      dup1\n        /* \"CPAMM.sol\":3228:3240  uint256 bal0 */\n      0x00\n        /* \"CPAMM.sol\":3243:3249  token0 */\n      immutable(\"0xceebf77a833b30520287ddd9478ff51abbdffa30aa90a8d655dba0e8a79ce0c1\")\n        /* \"CPAMM.sol\":3243:3259  token0.balanceOf */\n      0xffffffffffffffffffffffffffffffffffffffff\n      and\n      0x70a08231\n        /* \"CPAMM.sol\":3268:3272  this */\n      address\n        /* \"CPAMM.sol\":3243:3274  token0.balanceOf(address(this)) */\n      mload(0x40)\n      dup3\n      0xffffffff\n      and\n      0xe0\n      shl\n      dup2\n      mstore\n      0x04\n      add\n      tag_128\n      swap2\n      swap1\n      tag_87\n      jump\t// in\n    tag_128:\n      0x20\n      mload(0x40)\n      dup1\n      dup4\n      sub\n      dup2\n      dup7\n      gas\n      staticcall\n      iszero\n      dup1\n      iszero\n      tag_130\n      jumpi\n      returndatasize\n      0x00\n      dup1\n      returndatacopy\n      revert(0x00, returndatasize)\n    tag_130:\n      pop\n      pop\n      pop\n      pop\n      mload(0x40)\n      returndatasize\n      not(0x1f)\n      0x1f\n      dup3\n      add\n      and\n      dup3\n      add\n      dup1\n      0x40\n      mstore\n      pop\n      dup2\n      add\n      swap1\n      tag_131\n      swap2\n      swap1\n      tag_91\n      jump\t// in\n    tag_131:\n        /* \"CPAMM.sol\":3228:3274  uint256 bal0 = token0.balanceOf(address(this)) */\n      swap1\n      pop\n        /* \"CPAMM.sol\":3284:3296  uint256 bal1 */\n      0x00\n        /* \"CPAMM.sol\":3299:3305  token1 */\n      immutable(\"0xe4b1702d9298fee62dfeccc57d322a463ad55ca201256d01f62b45b2e1c21c10\")\n        /* \"CPAMM.sol\":3299:3315  token1.balanceOf */\n      0xffffffffffffffffffffffffffffffffffffffff\n      and\n      0x70a08231\n        /* \"CPAMM.sol\":3324:3328  this */\n      address\n        /* \"CPAMM.sol\":3299:3330  token1.balanceOf(address(this)) */\n      mload(0x40)\n      dup3\n      0xffffffff\n      and\n      0xe0\n      shl\n      dup2\n      mstore\n      0x04\n      add\n      tag_132\n      swap2\n      swap1\n      tag_87\n      jump\t// in\n    tag_132:\n      0x20\n      mload(0x40)\n      dup1\n      dup4\n      sub\n      dup2\n      dup7\n      gas\n      staticcall\n      iszero\n      dup1\n      iszero\n      tag_134\n      jumpi\n      returndatasize\n      0x00\n      dup1\n      returndatacopy\n      revert(0x00, returndatasize)\n    tag_134:\n      pop\n      pop\n      pop\n      pop\n      mload(0x40)\n      returndatasize\n      not(0x1f)\n      0x1f\n      dup3\n      add\n      and\n      dup3\n      add\n      dup1\n      0x40\n      mstore\n      pop\n      dup2\n      add\n      swap1\n      tag_135\n      swap2\n      swap1\n      tag_91\n      jump\t// in\n    tag_135:\n        /* \"CPAMM.sol\":3284:3330  uint256 bal1 = token1.balanceOf(address(this)) */\n      swap1\n      pop\n        /* \"CPAMM.sol\":3369:3380  totalSupply */\n      sload(0x02)\n        /* \"CPAMM.sol\":3361:3365  bal0 */\n      dup3\n        /* \"CPAMM.sol\":3351:3358  _shares */\n      dup7\n        /* \"CPAMM.sol\":3351:3365  _shares * bal0 */\n      tag_136\n      swap2\n      swap1\n      tag_65\n      jump\t// in\n    tag_136:\n        /* \"CPAMM.sol\":3350:3380  (_shares * bal0) / totalSupply */\n      tag_137\n      swap2\n      swap1\n      tag_76\n      jump\t// in\n    tag_137:\n        /* \"CPAMM.sol\":3340:3380  amount0 = (_shares * bal0) / totalSupply */\n      swap4\n      pop\n        /* \"CPAMM.sol\":3419:3430  totalSupply */\n      sload(0x02)\n        /* \"CPAMM.sol\":3411:3415  bal1 */\n      dup2\n        /* \"CPAMM.sol\":3401:3408  _shares */\n      dup7\n        /* \"CPAMM.sol\":3401:3415  _shares * bal1 */\n      tag_138\n      swap2\n      swap1\n      tag_65\n      jump\t// in\n    tag_138:\n        /* \"CPAMM.sol\":3400:3430  (_shares * bal1) / totalSupply */\n      tag_139\n      swap2\n      swap1\n      tag_76\n      jump\t// in\n    tag_139:\n        /* \"CPAMM.sol\":3390:3430  amount1 = (_shares * bal1) / totalSupply */\n      swap3\n      pop\n        /* \"CPAMM.sol\":3440:3466  _burn(msg.sender, _shares) */\n      tag_140\n        /* \"CPAMM.sol\":3446:3456  msg.sender */\n      caller\n        /* \"CPAMM.sol\":3458:3465  _shares */\n      dup7\n        /* \"CPAMM.sol\":3440:3445  _burn */\n      tag_141\n        /* \"CPAMM.sol\":3440:3466  _burn(msg.sender, _shares) */\n      jump\t// in\n    tag_140:\n        /* \"CPAMM.sol\":3476:3515  _update(bal0 - amount0, bal1 - amount1) */\n      tag_142\n        /* \"CPAMM.sol\":3491:3498  amount0 */\n      dup5\n        /* \"CPAMM.sol\":3484:3488  bal0 */\n      dup4\n        /* \"CPAMM.sol\":3484:3498  bal0 - amount0 */\n      tag_143\n      swap2\n      swap1\n      tag_144\n      jump\t// in\n    tag_143:\n        /* \"CPAMM.sol\":3507:3514  amount1 */\n      dup5\n        /* \"CPAMM.sol\":3500:3504  bal1 */\n      dup4\n        /* \"CPAMM.sol\":3500:3514  bal1 - amount1 */\n      tag_145\n      swap2\n      swap1\n      tag_144\n      jump\t// in\n    tag_145:\n        /* \"CPAMM.sol\":3476:3483  _update */\n      tag_96\n        /* \"CPAMM.sol\":3476:3515  _update(bal0 - amount0, bal1 - amount1) */\n      jump\t// in\n    tag_142:\n        /* \"CPAMM.sol\":3525:3531  token0 */\n      immutable(\"0xceebf77a833b30520287ddd9478ff51abbdffa30aa90a8d655dba0e8a79ce0c1\")\n        /* \"CPAMM.sol\":3525:3540  token0.transfer */\n      0xffffffffffffffffffffffffffffffffffffffff\n      and\n      0xa9059cbb\n        /* \"CPAMM.sol\":3541:3551  msg.sender */\n      caller\n        /* \"CPAMM.sol\":3553:3560  amount0 */\n      dup7\n        /* \"CPAMM.sol\":3525:3561  token0.transfer(msg.sender, amount0) */\n      mload(0x40)\n      dup4\n      0xffffffff\n      and\n      0xe0\n      shl\n      dup2\n      mstore\n      0x04\n      add\n      tag_146\n      swap3\n      swap2\n      swap1\n      tag_114\n      jump\t// in\n    tag_146:\n      0x20\n      mload(0x40)\n      dup1\n      dup4\n      sub\n      dup2\n      0x00\n      dup8\n      gas\n      call\n      iszero\n      dup1\n      iszero\n      tag_148\n      jumpi\n      returndatasize\n      0x00\n      dup1\n      returndatacopy\n      revert(0x00, returndatasize)\n    tag_148:\n      pop\n      pop\n      pop\n      pop\n      mload(0x40)\n      returndatasize\n      not(0x1f)\n      0x1f\n      dup3\n      add\n      and\n      dup3\n      add\n      dup1\n      0x40\n      mstore\n      pop\n      dup2\n      add\n      swap1\n      tag_149\n      swap2\n      swap1\n      tag_57\n      jump\t// in\n    tag_149:\n      pop\n        /* \"CPAMM.sol\":3571:3577  token1 */\n      immutable(\"0xe4b1702d9298fee62dfeccc57d322a463ad55ca201256d01f62b45b2e1c21c10\")\n        /* \"CPAMM.sol\":3571:3586  token1.transfer */\n      0xffffffffffffffffffffffffffffffffffffffff\n      and\n      0xa9059cbb\n        /* \"CPAMM.sol\":3587:3597  msg.sender */\n      caller\n        /* \"CPAMM.sol\":3599:3606  amount1 */\n      dup6\n        /* \"CPAMM.sol\":3571:3607  token1.transfer(msg.sender, amount1) */\n      mload(0x40)\n      dup4\n      0xffffffff\n      and\n      0xe0\n      shl\n      dup2\n      mstore\n      0x04\n      add\n      tag_150\n      swap3\n      swap2\n      swap1\n      tag_114\n      jump\t// in\n    tag_150:\n      0x20\n      mload(0x40)\n      dup1\n      dup4\n      sub\n      dup2\n      0x00\n      dup8\n      gas\n      call\n      iszero\n      dup1\n      iszero\n      tag_152\n      jumpi\n      returndatasize\n      0x00\n      dup1\n      returndatacopy\n      revert(0x00, returndatasize)\n    tag_152:\n      pop\n      pop\n      pop\n      pop\n      mload(0x40)\n      returndatasize\n      not(0x1f)\n      0x1f\n      dup3\n      add\n      and\n      dup3\n      add\n      dup1\n      0x40\n      mstore\n      pop\n      dup2\n      add\n      swap1\n      tag_153\n      swap2\n      swap1\n      tag_57\n      jump\t// in\n    tag_153:\n      pop\n        /* \"CPAMM.sol\":3218:3614  {... */\n      pop\n      pop\n        /* \"CPAMM.sol\":3112:3614  function removeLiquity(... */\n      swap2\n      pop\n      swap2\n      jump\t// out\n        /* \"CPAMM.sol\":851:1176  function _sqrt(uint256 val) private pure returns (uint root) {... */\n    tag_71:\n        /* \"CPAMM.sol\":901:910  uint root */\n      0x00\n        /* \"CPAMM.sol\":932:933  3 */\n      0x03\n        /* \"CPAMM.sol\":926:929  val */\n      dup3\n        /* \"CPAMM.sol\":926:933  val > 3 */\n      gt\n        /* \"CPAMM.sol\":922:1170  if (val > 3) {... */\n      iszero\n      tag_155\n      jumpi\n        /* \"CPAMM.sol\":956:959  val */\n      dup2\n        /* \"CPAMM.sol\":949:959  root = val */\n      swap1\n      pop\n        /* \"CPAMM.sol\":973:982  uint256 x */\n      0x00\n        /* \"CPAMM.sol\":995:996  1 */\n      0x01\n        /* \"CPAMM.sol\":991:992  2 */\n      0x02\n        /* \"CPAMM.sol\":985:988  val */\n      dup5\n        /* \"CPAMM.sol\":985:992  val / 2 */\n      tag_156\n      swap2\n      swap1\n      tag_76\n      jump\t// in\n    tag_156:\n        /* \"CPAMM.sol\":985:996  val / 2 + 1 */\n      tag_157\n      swap2\n      swap1\n      tag_158\n      jump\t// in\n    tag_157:\n        /* \"CPAMM.sol\":973:996  uint256 x = val / 2 + 1 */\n      swap1\n      pop\n        /* \"CPAMM.sol\":1010:1107  while (x < root) {... */\n    tag_159:\n        /* \"CPAMM.sol\":1021:1025  root */\n      dup2\n        /* \"CPAMM.sol\":1017:1018  x */\n      dup2\n        /* \"CPAMM.sol\":1017:1025  x < root */\n      lt\n        /* \"CPAMM.sol\":1010:1107  while (x < root) {... */\n      iszero\n      tag_160\n      jumpi\n        /* \"CPAMM.sol\":1052:1053  x */\n      dup1\n        /* \"CPAMM.sol\":1045:1053  root = x */\n      swap2\n      pop\n        /* \"CPAMM.sol\":1091:1092  2 */\n      0x02\n        /* \"CPAMM.sol\":1086:1087  x */\n      dup2\n        /* \"CPAMM.sol\":1082:1083  x */\n      dup3\n        /* \"CPAMM.sol\":1076:1079  val */\n      dup6\n        /* \"CPAMM.sol\":1076:1083  val / x */\n      tag_161\n      swap2\n      swap1\n      tag_76\n      jump\t// in\n    tag_161:\n        /* \"CPAMM.sol\":1076:1087  val / x + x */\n      tag_162\n      swap2\n      swap1\n      tag_158\n      jump\t// in\n    tag_162:\n        /* \"CPAMM.sol\":1075:1092  (val / x + x) / 2 */\n      tag_163\n      swap2\n      swap1\n      tag_76\n      jump\t// in\n    tag_163:\n        /* \"CPAMM.sol\":1071:1092  x = (val / x + x) / 2 */\n      swap1\n      pop\n        /* \"CPAMM.sol\":1010:1107  while (x < root) {... */\n      jump(tag_159)\n    tag_160:\n        /* \"CPAMM.sol\":935:1117  {... */\n      pop\n        /* \"CPAMM.sol\":922:1170  if (val > 3) {... */\n      jump(tag_164)\n    tag_155:\n        /* \"CPAMM.sol\":1134:1135  0 */\n      0x00\n        /* \"CPAMM.sol\":1127:1130  val */\n      dup3\n        /* \"CPAMM.sol\":1127:1135  val != 0 */\n      eq\n        /* \"CPAMM.sol\":1123:1170  if (val != 0) {... */\n      tag_165\n      jumpi\n        /* \"CPAMM.sol\":1158:1159  1 */\n      0x01\n        /* \"CPAMM.sol\":1151:1159  root = 1 */\n      swap1\n      pop\n        /* \"CPAMM.sol\":1123:1170  if (val != 0) {... */\n    tag_165:\n        /* \"CPAMM.sol\":922:1170  if (val > 3) {... */\n    tag_164:\n        /* \"CPAMM.sol\":851:1176  function _sqrt(uint256 val) private pure returns (uint root) {... */\n      swap2\n      swap1\n      pop\n      jump\t// out\n        /* \"CPAMM.sol\":1182:1287  function _min(uint256 x, uint256 y) private pure returns (uint256) {... */\n    tag_79:\n        /* \"CPAMM.sol\":1240:1247  uint256 */\n      0x00\n        /* \"CPAMM.sol\":1271:1272  y */\n      dup2\n        /* \"CPAMM.sol\":1266:1267  x */\n      dup4\n        /* \"CPAMM.sol\":1266:1272  x <= y */\n      gt\n      iszero\n        /* \"CPAMM.sol\":1266:1280  x <= y ? x : y */\n      tag_167\n      jumpi\n        /* \"CPAMM.sol\":1279:1280  y */\n      dup2\n        /* \"CPAMM.sol\":1266:1280  x <= y ? x : y */\n      jump(tag_168)\n    tag_167:\n        /* \"CPAMM.sol\":1275:1276  x */\n      dup3\n        /* \"CPAMM.sol\":1266:1280  x <= y ? x : y */\n    tag_168:\n        /* \"CPAMM.sol\":1259:1280  return x <= y ? x : y */\n      swap1\n      pop\n        /* \"CPAMM.sol\":1182:1287  function _min(uint256 x, uint256 y) private pure returns (uint256) {... */\n      swap3\n      swap2\n      pop\n      pop\n      jump\t// out\n        /* \"CPAMM.sol\":445:572  function _mint(address _to, uint256 _amount) private {... */\n    tag_84:\n        /* \"CPAMM.sol\":526:533  _amount */\n      dup1\n        /* \"CPAMM.sol\":508:517  balanceOf */\n      0x03\n        /* \"CPAMM.sol\":508:522  balanceOf[_to] */\n      0x00\n        /* \"CPAMM.sol\":518:521  _to */\n      dup5\n        /* \"CPAMM.sol\":508:522  balanceOf[_to] */\n      0xffffffffffffffffffffffffffffffffffffffff\n      and\n      0xffffffffffffffffffffffffffffffffffffffff\n      and\n      dup2\n      mstore\n      0x20\n      add\n      swap1\n      dup2\n      mstore\n      0x20\n      add\n      0x00\n      keccak256\n      0x00\n        /* \"CPAMM.sol\":508:533  balanceOf[_to] += _amount */\n      dup3\n      dup3\n      sload\n      tag_170\n      swap2\n      swap1\n      tag_158\n      jump\t// in\n    tag_170:\n      swap3\n      pop\n      pop\n      dup2\n      swap1\n      sstore\n      pop\n        /* \"CPAMM.sol\":558:565  _amount */\n      dup1\n        /* \"CPAMM.sol\":543:554  totalSupply */\n      0x02\n      0x00\n        /* \"CPAMM.sol\":543:565  totalSupply += _amount */\n      dup3\n      dup3\n      sload\n      tag_171\n      swap2\n      swap1\n      tag_158\n      jump\t// in\n    tag_171:\n      swap3\n      pop\n      pop\n      dup2\n      swap1\n      sstore\n      pop\n        /* \"CPAMM.sol\":445:572  function _mint(address _to, uint256 _amount) private {... */\n      pop\n      pop\n      jump\t// out\n        /* \"CPAMM.sol\":715:845  function _update(uint256 _reserve0, uint256 _reserve1) private {... */\n    tag_96:\n        /* \"CPAMM.sol\":799:808  _reserve0 */\n      dup2\n        /* \"CPAMM.sol\":788:796  reserve0 */\n      0x00\n        /* \"CPAMM.sol\":788:808  reserve0 = _reserve0 */\n      dup2\n      swap1\n      sstore\n      pop\n        /* \"CPAMM.sol\":829:838  _reserve1 */\n      dup1\n        /* \"CPAMM.sol\":818:826  reserve1 */\n      0x01\n        /* \"CPAMM.sol\":818:838  reserve1 = _reserve1 */\n      dup2\n      swap1\n      sstore\n      pop\n        /* \"CPAMM.sol\":715:845  function _update(uint256 _reserve0, uint256 _reserve1) private {... */\n      pop\n      pop\n      jump\t// out\n        /* \"CPAMM.sol\":578:709  function _burn(address _from, uint256 _amount) private {... */\n    tag_141:\n        /* \"CPAMM.sol\":663:670  _amount */\n      dup1\n        /* \"CPAMM.sol\":643:652  balanceOf */\n      0x03\n        /* \"CPAMM.sol\":643:659  balanceOf[_from] */\n      0x00\n        /* \"CPAMM.sol\":653:658  _from */\n      dup5\n        /* \"CPAMM.sol\":643:659  balanceOf[_from] */\n      0xffffffffffffffffffffffffffffffffffffffff\n      and\n      0xffffffffffffffffffffffffffffffffffffffff\n      and\n      dup2\n      mstore\n      0x20\n      add\n      swap1\n      dup2\n      mstore\n      0x20\n      add\n      0x00\n      keccak256\n      0x00\n        /* \"CPAMM.sol\":643:670  balanceOf[_from] -= _amount */\n      dup3\n      dup3\n      sload\n      tag_174\n      swap2\n      swap1\n      tag_144\n      jump\t// in\n    tag_174:\n      swap3\n      pop\n      pop\n      dup2\n      swap1\n      sstore\n      pop\n        /* \"CPAMM.sol\":695:702  _amount */\n      dup1\n        /* \"CPAMM.sol\":680:691  totalSupply */\n      0x02\n      0x00\n        /* \"CPAMM.sol\":680:702  totalSupply -= _amount */\n      dup3\n      dup3\n      sload\n      tag_175\n      swap2\n      swap1\n      tag_144\n      jump\t// in\n    tag_175:\n      swap3\n      pop\n      pop\n      dup2\n      swap1\n      sstore\n      pop\n        /* \"CPAMM.sol\":578:709  function _burn(address _from, uint256 _amount) private {... */\n      pop\n      pop\n      jump\t// out\n        /* \"#utility.yul\":7:133   */\n    tag_176:\n        /* \"#utility.yul\":44:51   */\n      0x00\n        /* \"#utility.yul\":84:126   */\n      0xffffffffffffffffffffffffffffffffffffffff\n        /* \"#utility.yul\":77:82   */\n      dup3\n        /* \"#utility.yul\":73:127   */\n      and\n        /* \"#utility.yul\":62:127   */\n      swap1\n      pop\n        /* \"#utility.yul\":7:133   */\n      swap2\n      swap1\n      pop\n      jump\t// out\n        /* \"#utility.yul\":139:199   */\n    tag_177:\n        /* \"#utility.yul\":167:170   */\n      0x00\n        /* \"#utility.yul\":188:193   */\n      dup2\n        /* \"#utility.yul\":181:193   */\n      swap1\n      pop\n        /* \"#utility.yul\":139:199   */\n      swap2\n      swap1\n      pop\n      jump\t// out\n        /* \"#utility.yul\":205:347   */\n    tag_178:\n        /* \"#utility.yul\":255:264   */\n      0x00\n        /* \"#utility.yul\":288:341   */\n      tag_208\n        /* \"#utility.yul\":306:340   */\n      tag_209\n        /* \"#utility.yul\":315:339   */\n      tag_210\n        /* \"#utility.yul\":333:338   */\n      dup5\n        /* \"#utility.yul\":315:339   */\n      tag_176\n      jump\t// in\n    tag_210:\n        /* \"#utility.yul\":306:340   */\n      tag_177\n      jump\t// in\n    tag_209:\n        /* \"#utility.yul\":288:341   */\n      tag_176\n      jump\t// in\n    tag_208:\n        /* \"#utility.yul\":275:341   */\n      swap1\n      pop\n        /* \"#utility.yul\":205:347   */\n      swap2\n      swap1\n      pop\n      jump\t// out\n        /* \"#utility.yul\":353:479   */\n    tag_179:\n        /* \"#utility.yul\":403:412   */\n      0x00\n        /* \"#utility.yul\":436:473   */\n      tag_212\n        /* \"#utility.yul\":467:472   */\n      dup3\n        /* \"#utility.yul\":436:473   */\n      tag_178\n      jump\t// in\n    tag_212:\n        /* \"#utility.yul\":423:473   */\n      swap1\n      pop\n        /* \"#utility.yul\":353:479   */\n      swap2\n      swap1\n      pop\n      jump\t// out\n        /* \"#utility.yul\":485:625   */\n    tag_180:\n        /* \"#utility.yul\":549:558   */\n      0x00\n        /* \"#utility.yul\":582:619   */\n      tag_214\n        /* \"#utility.yul\":613:618   */\n      dup3\n        /* \"#utility.yul\":582:619   */\n      tag_179\n      jump\t// in\n    tag_214:\n        /* \"#utility.yul\":569:619   */\n      swap1\n      pop\n        /* \"#utility.yul\":485:625   */\n      swap2\n      swap1\n      pop\n      jump\t// out\n        /* \"#utility.yul\":631:790   */\n    tag_181:\n        /* \"#utility.yul\":732:783   */\n      tag_216\n        /* \"#utility.yul\":777:782   */\n      dup2\n        /* \"#utility.yul\":732:783   */\n      tag_180\n      jump\t// in\n    tag_216:\n        /* \"#utility.yul\":727:730   */\n      dup3\n        /* \"#utility.yul\":720:784   */\n      mstore\n        /* \"#utility.yul\":631:790   */\n      pop\n      pop\n      jump\t// out\n        /* \"#utility.yul\":796:1046   */\n    tag_16:\n        /* \"#utility.yul\":903:907   */\n      0x00\n        /* \"#utility.yul\":941:943   */\n      0x20\n        /* \"#utility.yul\":930:939   */\n      dup3\n        /* \"#utility.yul\":926:944   */\n      add\n        /* \"#utility.yul\":918:944   */\n      swap1\n      pop\n        /* \"#utility.yul\":954:1039   */\n      tag_218\n        /* \"#utility.yul\":1036:1037   */\n      0x00\n        /* \"#utility.yul\":1025:1034   */\n      dup4\n        /* \"#utility.yul\":1021:1038   */\n      add\n        /* \"#utility.yul\":1012:1018   */\n      dup5\n        /* \"#utility.yul\":954:1039   */\n      tag_181\n      jump\t// in\n    tag_218:\n        /* \"#utility.yul\":796:1046   */\n      swap3\n      swap2\n      pop\n      pop\n      jump\t// out\n        /* \"#utility.yul\":1052:1129   */\n    tag_182:\n        /* \"#utility.yul\":1089:1096   */\n      0x00\n        /* \"#utility.yul\":1118:1123   */\n      dup2\n        /* \"#utility.yul\":1107:1123   */\n      swap1\n      pop\n        /* \"#utility.yul\":1052:1129   */\n      swap2\n      swap1\n      pop\n      jump\t// out\n        /* \"#utility.yul\":1135:1253   */\n    tag_183:\n        /* \"#utility.yul\":1222:1246   */\n      tag_221\n        /* \"#utility.yul\":1240:1245   */\n      dup2\n        /* \"#utility.yul\":1222:1246   */\n      tag_182\n      jump\t// in\n    tag_221:\n        /* \"#utility.yul\":1217:1220   */\n      dup3\n        /* \"#utility.yul\":1210:1247   */\n      mstore\n        /* \"#utility.yul\":1135:1253   */\n      pop\n      pop\n      jump\t// out\n        /* \"#utility.yul\":1259:1481   */\n    tag_20:\n        /* \"#utility.yul\":1352:1356   */\n      0x00\n        /* \"#utility.yul\":1390:1392   */\n      0x20\n        /* \"#utility.yul\":1379:1388   */\n      dup3\n        /* \"#utility.yul\":1375:1393   */\n      add\n        /* \"#utility.yul\":1367:1393   */\n      swap1\n      pop\n        /* \"#utility.yul\":1403:1474   */\n      tag_223\n        /* \"#utility.yul\":1471:1472   */\n      0x00\n        /* \"#utility.yul\":1460:1469   */\n      dup4\n        /* \"#utility.yul\":1456:1473   */\n      add\n        /* \"#utility.yul\":1447:1453   */\n      dup5\n        /* \"#utility.yul\":1403:1474   */\n      tag_183\n      jump\t// in\n    tag_223:\n        /* \"#utility.yul\":1259:1481   */\n      swap3\n      swap2\n      pop\n      pop\n      jump\t// out\n        /* \"#utility.yul\":1568:1685   */\n    tag_185:\n        /* \"#utility.yul\":1677:1678   */\n      0x00\n        /* \"#utility.yul\":1674:1675   */\n      dup1\n        /* \"#utility.yul\":1667:1679   */\n      revert\n        /* \"#utility.yul\":1814:1910   */\n    tag_187:\n        /* \"#utility.yul\":1851:1858   */\n      0x00\n        /* \"#utility.yul\":1880:1904   */\n      tag_228\n        /* \"#utility.yul\":1898:1903   */\n      dup3\n        /* \"#utility.yul\":1880:1904   */\n      tag_176\n      jump\t// in\n    tag_228:\n        /* \"#utility.yul\":1869:1904   */\n      swap1\n      pop\n        /* \"#utility.yul\":1814:1910   */\n      swap2\n      swap1\n      pop\n      jump\t// out\n        /* \"#utility.yul\":1916:2038   */\n    tag_188:\n        /* \"#utility.yul\":1989:2013   */\n      tag_230\n        /* \"#utility.yul\":2007:2012   */\n      dup2\n        /* \"#utility.yul\":1989:2013   */\n      tag_187\n      jump\t// in\n    tag_230:\n        /* \"#utility.yul\":1982:1987   */\n      dup2\n        /* \"#utility.yul\":1979:2014   */\n      eq\n        /* \"#utility.yul\":1969:2032   */\n      tag_231\n      jumpi\n        /* \"#utility.yul\":2028:2029   */\n      0x00\n        /* \"#utility.yul\":2025:2026   */\n      dup1\n        /* \"#utility.yul\":2018:2030   */\n      revert\n        /* \"#utility.yul\":1969:2032   */\n    tag_231:\n        /* \"#utility.yul\":1916:2038   */\n      pop\n      jump\t// out\n        /* \"#utility.yul\":2044:2183   */\n    tag_189:\n        /* \"#utility.yul\":2090:2095   */\n      0x00\n        /* \"#utility.yul\":2128:2134   */\n      dup2\n        /* \"#utility.yul\":2115:2135   */\n      calldataload\n        /* \"#utility.yul\":2106:2135   */\n      swap1\n      pop\n        /* \"#utility.yul\":2144:2177   */\n      tag_233\n        /* \"#utility.yul\":2171:2176   */\n      dup2\n        /* \"#utility.yul\":2144:2177   */\n      tag_188\n      jump\t// in\n    tag_233:\n        /* \"#utility.yul\":2044:2183   */\n      swap3\n      swap2\n      pop\n      pop\n      jump\t// out\n        /* \"#utility.yul\":2189:2518   */\n    tag_29:\n        /* \"#utility.yul\":2248:2254   */\n      0x00\n        /* \"#utility.yul\":2297:2299   */\n      0x20\n        /* \"#utility.yul\":2285:2294   */\n      dup3\n        /* \"#utility.yul\":2276:2283   */\n      dup5\n        /* \"#utility.yul\":2272:2295   */\n      sub\n        /* \"#utility.yul\":2268:2300   */\n      slt\n        /* \"#utility.yul\":2265:2384   */\n      iszero\n      tag_235\n      jumpi\n        /* \"#utility.yul\":2303:2382   */\n      tag_236\n      tag_185\n      jump\t// in\n    tag_236:\n        /* \"#utility.yul\":2265:2384   */\n    tag_235:\n        /* \"#utility.yul\":2423:2424   */\n      0x00\n        /* \"#utility.yul\":2448:2501   */\n      tag_237\n        /* \"#utility.yul\":2493:2500   */\n      dup5\n        /* \"#utility.yul\":2484:2490   */\n      dup3\n        /* \"#utility.yul\":2473:2482   */\n      dup6\n        /* \"#utility.yul\":2469:2491   */\n      add\n        /* \"#utility.yul\":2448:2501   */\n      tag_189\n      jump\t// in\n    tag_237:\n        /* \"#utility.yul\":2438:2501   */\n      swap2\n      pop\n        /* \"#utility.yul\":2394:2511   */\n      pop\n        /* \"#utility.yul\":2189:2518   */\n      swap3\n      swap2\n      pop\n      pop\n      jump\t// out\n        /* \"#utility.yul\":2524:2646   */\n    tag_190:\n        /* \"#utility.yul\":2597:2621   */\n      tag_239\n        /* \"#utility.yul\":2615:2620   */\n      dup2\n        /* \"#utility.yul\":2597:2621   */\n      tag_182\n      jump\t// in\n    tag_239:\n        /* \"#utility.yul\":2590:2595   */\n      dup2\n        /* \"#utility.yul\":2587:2622   */\n      eq\n        /* \"#utility.yul\":2577:2640   */\n      tag_240\n      jumpi\n        /* \"#utility.yul\":2636:2637   */\n      0x00\n        /* \"#utility.yul\":2633:2634   */\n      dup1\n        /* \"#utility.yul\":2626:2638   */\n      revert\n        /* \"#utility.yul\":2577:2640   */\n    tag_240:\n        /* \"#utility.yul\":2524:2646   */\n      pop\n      jump\t// out\n        /* \"#utility.yul\":2652:2791   */\n    tag_191:\n        /* \"#utility.yul\":2698:2703   */\n      0x00\n        /* \"#utility.yul\":2736:2742   */\n      dup2\n        /* \"#utility.yul\":2723:2743   */\n      calldataload\n        /* \"#utility.yul\":2714:2743   */\n      swap1\n      pop\n        /* \"#utility.yul\":2752:2785   */\n      tag_242\n        /* \"#utility.yul\":2779:2784   */\n      dup2\n        /* \"#utility.yul\":2752:2785   */\n      tag_190\n      jump\t// in\n    tag_242:\n        /* \"#utility.yul\":2652:2791   */\n      swap3\n      swap2\n      pop\n      pop\n      jump\t// out\n        /* \"#utility.yul\":2797:3271   */\n    tag_34:\n        /* \"#utility.yul\":2865:2871   */\n      0x00\n        /* \"#utility.yul\":2873:2879   */\n      dup1\n        /* \"#utility.yul\":2922:2924   */\n      0x40\n        /* \"#utility.yul\":2910:2919   */\n      dup4\n        /* \"#utility.yul\":2901:2908   */\n      dup6\n        /* \"#utility.yul\":2897:2920   */\n      sub\n        /* \"#utility.yul\":2893:2925   */\n      slt\n        /* \"#utility.yul\":2890:3009   */\n      iszero\n      tag_244\n      jumpi\n        /* \"#utility.yul\":2928:3007   */\n      tag_245\n      tag_185\n      jump\t// in\n    tag_245:\n        /* \"#utility.yul\":2890:3009   */\n    tag_244:\n        /* \"#utility.yul\":3048:3049   */\n      0x00\n        /* \"#utility.yul\":3073:3126   */\n      tag_246\n        /* \"#utility.yul\":3118:3125   */\n      dup6\n        /* \"#utility.yul\":3109:3115   */\n      dup3\n        /* \"#utility.yul\":3098:3107   */\n      dup7\n        /* \"#utility.yul\":3094:3116   */\n      add\n        /* \"#utility.yul\":3073:3126   */\n      tag_191\n      jump\t// in\n    tag_246:\n        /* \"#utility.yul\":3063:3126   */\n      swap3\n      pop\n        /* \"#utility.yul\":3019:3136   */\n      pop\n        /* \"#utility.yul\":3175:3177   */\n      0x20\n        /* \"#utility.yul\":3201:3254   */\n      tag_247\n        /* \"#utility.yul\":3246:3253   */\n      dup6\n        /* \"#utility.yul\":3237:3243   */\n      dup3\n        /* \"#utility.yul\":3226:3235   */\n      dup7\n        /* \"#utility.yul\":3222:3244   */\n      add\n        /* \"#utility.yul\":3201:3254   */\n      tag_191\n      jump\t// in\n    tag_247:\n        /* \"#utility.yul\":3191:3254   */\n      swap2\n      pop\n        /* \"#utility.yul\":3146:3264   */\n      pop\n        /* \"#utility.yul\":2797:3271   */\n      swap3\n      pop\n      swap3\n      swap1\n      pop\n      jump\t// out\n        /* \"#utility.yul\":3277:3751   */\n    tag_39:\n        /* \"#utility.yul\":3345:3351   */\n      0x00\n        /* \"#utility.yul\":3353:3359   */\n      dup1\n        /* \"#utility.yul\":3402:3404   */\n      0x40\n        /* \"#utility.yul\":3390:3399   */\n      dup4\n        /* \"#utility.yul\":3381:3388   */\n      dup6\n        /* \"#utility.yul\":3377:3400   */\n      sub\n        /* \"#utility.yul\":3373:3405   */\n      slt\n        /* \"#utility.yul\":3370:3489   */\n      iszero\n      tag_249\n      jumpi\n        /* \"#utility.yul\":3408:3487   */\n      tag_250\n      tag_185\n      jump\t// in\n    tag_250:\n        /* \"#utility.yul\":3370:3489   */\n    tag_249:\n        /* \"#utility.yul\":3528:3529   */\n      0x00\n        /* \"#utility.yul\":3553:3606   */\n      tag_251\n        /* \"#utility.yul\":3598:3605   */\n      dup6\n        /* \"#utility.yul\":3589:3595   */\n      dup3\n        /* \"#utility.yul\":3578:3587   */\n      dup7\n        /* \"#utility.yul\":3574:3596   */\n      add\n        /* \"#utility.yul\":3553:3606   */\n      tag_189\n      jump\t// in\n    tag_251:\n        /* \"#utility.yul\":3543:3606   */\n      swap3\n      pop\n        /* \"#utility.yul\":3499:3616   */\n      pop\n        /* \"#utility.yul\":3655:3657   */\n      0x20\n        /* \"#utility.yul\":3681:3734   */\n      tag_252\n        /* \"#utility.yul\":3726:3733   */\n      dup6\n        /* \"#utility.yul\":3717:3723   */\n      dup3\n        /* \"#utility.yul\":3706:3715   */\n      dup7\n        /* \"#utility.yul\":3702:3724   */\n      add\n        /* \"#utility.yul\":3681:3734   */\n      tag_191\n      jump\t// in\n    tag_252:\n        /* \"#utility.yul\":3671:3734   */\n      swap2\n      pop\n        /* \"#utility.yul\":3626:3744   */\n      pop\n        /* \"#utility.yul\":3277:3751   */\n      swap3\n      pop\n      swap3\n      swap1\n      pop\n      jump\t// out\n        /* \"#utility.yul\":3757:4086   */\n    tag_47:\n        /* \"#utility.yul\":3816:3822   */\n      0x00\n        /* \"#utility.yul\":3865:3867   */\n      0x20\n        /* \"#utility.yul\":3853:3862   */\n      dup3\n        /* \"#utility.yul\":3844:3851   */\n      dup5\n        /* \"#utility.yul\":3840:3863   */\n      sub\n        /* \"#utility.yul\":3836:3868   */\n      slt\n        /* \"#utility.yul\":3833:3952   */\n      iszero\n      tag_254\n      jumpi\n        /* \"#utility.yul\":3871:3950   */\n      tag_255\n      tag_185\n      jump\t// in\n    tag_255:\n        /* \"#utility.yul\":3833:3952   */\n    tag_254:\n        /* \"#utility.yul\":3991:3992   */\n      0x00\n        /* \"#utility.yul\":4016:4069   */\n      tag_256\n        /* \"#utility.yul\":4061:4068   */\n      dup5\n        /* \"#utility.yul\":4052:4058   */\n      dup3\n        /* \"#utility.yul\":4041:4050   */\n      dup6\n        /* \"#utility.yul\":4037:4059   */\n      add\n        /* \"#utility.yul\":4016:4069   */\n      tag_191\n      jump\t// in\n    tag_256:\n        /* \"#utility.yul\":4006:4069   */\n      swap2\n      pop\n        /* \"#utility.yul\":3962:4079   */\n      pop\n        /* \"#utility.yul\":3757:4086   */\n      swap3\n      swap2\n      pop\n      pop\n      jump\t// out\n        /* \"#utility.yul\":4092:4424   */\n    tag_50:\n        /* \"#utility.yul\":4213:4217   */\n      0x00\n        /* \"#utility.yul\":4251:4253   */\n      0x40\n        /* \"#utility.yul\":4240:4249   */\n      dup3\n        /* \"#utility.yul\":4236:4254   */\n      add\n        /* \"#utility.yul\":4228:4254   */\n      swap1\n      pop\n        /* \"#utility.yul\":4264:4335   */\n      tag_258\n        /* \"#utility.yul\":4332:4333   */\n      0x00\n        /* \"#utility.yul\":4321:4330   */\n      dup4\n        /* \"#utility.yul\":4317:4334   */\n      add\n        /* \"#utility.yul\":4308:4314   */\n      dup6\n        /* \"#utility.yul\":4264:4335   */\n      tag_183\n      jump\t// in\n    tag_258:\n        /* \"#utility.yul\":4345:4417   */\n      tag_259\n        /* \"#utility.yul\":4413:4415   */\n      0x20\n        /* \"#utility.yul\":4402:4411   */\n      dup4\n        /* \"#utility.yul\":4398:4416   */\n      add\n        /* \"#utility.yul\":4389:4395   */\n      dup5\n        /* \"#utility.yul\":4345:4417   */\n      tag_183\n      jump\t// in\n    tag_259:\n        /* \"#utility.yul\":4092:4424   */\n      swap4\n      swap3\n      pop\n      pop\n      pop\n      jump\t// out\n        /* \"#utility.yul\":4430:4548   */\n    tag_192:\n        /* \"#utility.yul\":4517:4541   */\n      tag_261\n        /* \"#utility.yul\":4535:4540   */\n      dup2\n        /* \"#utility.yul\":4517:4541   */\n      tag_187\n      jump\t// in\n    tag_261:\n        /* \"#utility.yul\":4512:4515   */\n      dup3\n        /* \"#utility.yul\":4505:4542   */\n      mstore\n        /* \"#utility.yul\":4430:4548   */\n      pop\n      pop\n      jump\t// out\n        /* \"#utility.yul\":4554:4996   */\n    tag_53:\n        /* \"#utility.yul\":4703:4707   */\n      0x00\n        /* \"#utility.yul\":4741:4743   */\n      0x60\n        /* \"#utility.yul\":4730:4739   */\n      dup3\n        /* \"#utility.yul\":4726:4744   */\n      add\n        /* \"#utility.yul\":4718:4744   */\n      swap1\n      pop\n        /* \"#utility.yul\":4754:4825   */\n      tag_263\n        /* \"#utility.yul\":4822:4823   */\n      0x00\n        /* \"#utility.yul\":4811:4820   */\n      dup4\n        /* \"#utility.yul\":4807:4824   */\n      add\n        /* \"#utility.yul\":4798:4804   */\n      dup7\n        /* \"#utility.yul\":4754:4825   */\n      tag_192\n      jump\t// in\n    tag_263:\n        /* \"#utility.yul\":4835:4907   */\n      tag_264\n        /* \"#utility.yul\":4903:4905   */\n      0x20\n        /* \"#utility.yul\":4892:4901   */\n      dup4\n        /* \"#utility.yul\":4888:4906   */\n      add\n        /* \"#utility.yul\":4879:4885   */\n      dup6\n        /* \"#utility.yul\":4835:4907   */\n      tag_192\n      jump\t// in\n    tag_264:\n        /* \"#utility.yul\":4917:4989   */\n      tag_265\n        /* \"#utility.yul\":4985:4987   */\n      0x40\n        /* \"#utility.yul\":4974:4983   */\n      dup4\n        /* \"#utility.yul\":4970:4988   */\n      add\n        /* \"#utility.yul\":4961:4967   */\n      dup5\n        /* \"#utility.yul\":4917:4989   */\n      tag_183\n      jump\t// in\n    tag_265:\n        /* \"#utility.yul\":4554:4996   */\n      swap5\n      swap4\n      pop\n      pop\n      pop\n      pop\n      jump\t// out\n        /* \"#utility.yul\":5002:5092   */\n    tag_193:\n        /* \"#utility.yul\":5036:5043   */\n      0x00\n        /* \"#utility.yul\":5079:5084   */\n      dup2\n        /* \"#utility.yul\":5072:5085   */\n      iszero\n        /* \"#utility.yul\":5065:5086   */\n      iszero\n        /* \"#utility.yul\":5054:5086   */\n      swap1\n      pop\n        /* \"#utility.yul\":5002:5092   */\n      swap2\n      swap1\n      pop\n      jump\t// out\n        /* \"#utility.yul\":5098:5214   */\n    tag_194:\n        /* \"#utility.yul\":5168:5189   */\n      tag_268\n        /* \"#utility.yul\":5183:5188   */\n      dup2\n        /* \"#utility.yul\":5168:5189   */\n      tag_193\n      jump\t// in\n    tag_268:\n        /* \"#utility.yul\":5161:5166   */\n      dup2\n        /* \"#utility.yul\":5158:5190   */\n      eq\n        /* \"#utility.yul\":5148:5208   */\n      tag_269\n      jumpi\n        /* \"#utility.yul\":5204:5205   */\n      0x00\n        /* \"#utility.yul\":5201:5202   */\n      dup1\n        /* \"#utility.yul\":5194:5206   */\n      revert\n        /* \"#utility.yul\":5148:5208   */\n    tag_269:\n        /* \"#utility.yul\":5098:5214   */\n      pop\n      jump\t// out\n        /* \"#utility.yul\":5220:5357   */\n    tag_195:\n        /* \"#utility.yul\":5274:5279   */\n      0x00\n        /* \"#utility.yul\":5305:5311   */\n      dup2\n        /* \"#utility.yul\":5299:5312   */\n      mload\n        /* \"#utility.yul\":5290:5312   */\n      swap1\n      pop\n        /* \"#utility.yul\":5321:5351   */\n      tag_271\n        /* \"#utility.yul\":5345:5350   */\n      dup2\n        /* \"#utility.yul\":5321:5351   */\n      tag_194\n      jump\t// in\n    tag_271:\n        /* \"#utility.yul\":5220:5357   */\n      swap3\n      swap2\n      pop\n      pop\n      jump\t// out\n        /* \"#utility.yul\":5363:5708   */\n    tag_57:\n        /* \"#utility.yul\":5430:5436   */\n      0x00\n        /* \"#utility.yul\":5479:5481   */\n      0x20\n        /* \"#utility.yul\":5467:5476   */\n      dup3\n        /* \"#utility.yul\":5458:5465   */\n      dup5\n        /* \"#utility.yul\":5454:5477   */\n      sub\n        /* \"#utility.yul\":5450:5482   */\n      slt\n        /* \"#utility.yul\":5447:5566   */\n      iszero\n      tag_273\n      jumpi\n        /* \"#utility.yul\":5485:5564   */\n      tag_274\n      tag_185\n      jump\t// in\n    tag_274:\n        /* \"#utility.yul\":5447:5566   */\n    tag_273:\n        /* \"#utility.yul\":5605:5606   */\n      0x00\n        /* \"#utility.yul\":5630:5691   */\n      tag_275\n        /* \"#utility.yul\":5683:5690   */\n      dup5\n        /* \"#utility.yul\":5674:5680   */\n      dup3\n        /* \"#utility.yul\":5663:5672   */\n      dup6\n        /* \"#utility.yul\":5659:5681   */\n      add\n        /* \"#utility.yul\":5630:5691   */\n      tag_195\n      jump\t// in\n    tag_275:\n        /* \"#utility.yul\":5620:5691   */\n      swap2\n      pop\n        /* \"#utility.yul\":5576:5701   */\n      pop\n        /* \"#utility.yul\":5363:5708   */\n      swap3\n      swap2\n      pop\n      pop\n      jump\t// out\n        /* \"#utility.yul\":5714:5894   */\n    tag_196:\n        /* \"#utility.yul\":5762:5839   */\n      0x4e487b7100000000000000000000000000000000000000000000000000000000\n        /* \"#utility.yul\":5759:5760   */\n      0x00\n        /* \"#utility.yul\":5752:5840   */\n      mstore\n        /* \"#utility.yul\":5859:5863   */\n      0x11\n        /* \"#utility.yul\":5856:5857   */\n      0x04\n        /* \"#utility.yul\":5849:5864   */\n      mstore\n        /* \"#utility.yul\":5883:5887   */\n      0x24\n        /* \"#utility.yul\":5880:5881   */\n      0x00\n        /* \"#utility.yul\":5873:5888   */\n      revert\n        /* \"#utility.yul\":5900:6310   */\n    tag_65:\n        /* \"#utility.yul\":5940:5947   */\n      0x00\n        /* \"#utility.yul\":5963:5983   */\n      tag_278\n        /* \"#utility.yul\":5981:5982   */\n      dup3\n        /* \"#utility.yul\":5963:5983   */\n      tag_182\n      jump\t// in\n    tag_278:\n        /* \"#utility.yul\":5958:5983   */\n      swap2\n      pop\n        /* \"#utility.yul\":5997:6017   */\n      tag_279\n        /* \"#utility.yul\":6015:6016   */\n      dup4\n        /* \"#utility.yul\":5997:6017   */\n      tag_182\n      jump\t// in\n    tag_279:\n        /* \"#utility.yul\":5992:6017   */\n      swap3\n      pop\n        /* \"#utility.yul\":6052:6053   */\n      dup3\n        /* \"#utility.yul\":6049:6050   */\n      dup3\n        /* \"#utility.yul\":6045:6054   */\n      mul\n        /* \"#utility.yul\":6074:6104   */\n      tag_280\n        /* \"#utility.yul\":6092:6103   */\n      dup2\n        /* \"#utility.yul\":6074:6104   */\n      tag_182\n      jump\t// in\n    tag_280:\n        /* \"#utility.yul\":6063:6104   */\n      swap2\n      pop\n        /* \"#utility.yul\":6253:6254   */\n      dup3\n        /* \"#utility.yul\":6244:6251   */\n      dup3\n        /* \"#utility.yul\":6240:6255   */\n      div\n        /* \"#utility.yul\":6237:6238   */\n      dup5\n        /* \"#utility.yul\":6234:6256   */\n      eq\n        /* \"#utility.yul\":6214:6215   */\n      dup4\n        /* \"#utility.yul\":6207:6216   */\n      iszero\n        /* \"#utility.yul\":6187:6270   */\n      or\n        /* \"#utility.yul\":6164:6303   */\n      tag_281\n      jumpi\n        /* \"#utility.yul\":6283:6301   */\n      tag_282\n      tag_196\n      jump\t// in\n    tag_282:\n        /* \"#utility.yul\":6164:6303   */\n    tag_281:\n        /* \"#utility.yul\":5948:6310   */\n      pop\n        /* \"#utility.yul\":5900:6310   */\n      swap3\n      swap2\n      pop\n      pop\n      jump\t// out\n        /* \"#utility.yul\":6316:6496   */\n    tag_197:\n        /* \"#utility.yul\":6364:6441   */\n      0x4e487b7100000000000000000000000000000000000000000000000000000000\n        /* \"#utility.yul\":6361:6362   */\n      0x00\n        /* \"#utility.yul\":6354:6442   */\n      mstore\n        /* \"#utility.yul\":6461:6465   */\n      0x12\n        /* \"#utility.yul\":6458:6459   */\n      0x04\n        /* \"#utility.yul\":6451:6466   */\n      mstore\n        /* \"#utility.yul\":6485:6489   */\n      0x24\n        /* \"#utility.yul\":6482:6483   */\n      0x00\n        /* \"#utility.yul\":6475:6490   */\n      revert\n        /* \"#utility.yul\":6502:6687   */\n    tag_76:\n        /* \"#utility.yul\":6542:6543   */\n      0x00\n        /* \"#utility.yul\":6559:6579   */\n      tag_285\n        /* \"#utility.yul\":6577:6578   */\n      dup3\n        /* \"#utility.yul\":6559:6579   */\n      tag_182\n      jump\t// in\n    tag_285:\n        /* \"#utility.yul\":6554:6579   */\n      swap2\n      pop\n        /* \"#utility.yul\":6593:6613   */\n      tag_286\n        /* \"#utility.yul\":6611:6612   */\n      dup4\n        /* \"#utility.yul\":6593:6613   */\n      tag_182\n      jump\t// in\n    tag_286:\n        /* \"#utility.yul\":6588:6613   */\n      swap3\n      pop\n        /* \"#utility.yul\":6632:6633   */\n      dup3\n        /* \"#utility.yul\":6622:6657   */\n      tag_287\n      jumpi\n        /* \"#utility.yul\":6637:6655   */\n      tag_288\n      tag_197\n      jump\t// in\n    tag_288:\n        /* \"#utility.yul\":6622:6657   */\n    tag_287:\n        /* \"#utility.yul\":6679:6680   */\n      dup3\n        /* \"#utility.yul\":6676:6677   */\n      dup3\n        /* \"#utility.yul\":6672:6681   */\n      div\n        /* \"#utility.yul\":6667:6681   */\n      swap1\n      pop\n        /* \"#utility.yul\":6502:6687   */\n      swap3\n      swap2\n      pop\n      pop\n      jump\t// out\n        /* \"#utility.yul\":6693:6862   */\n    tag_198:\n        /* \"#utility.yul\":6777:6788   */\n      0x00\n        /* \"#utility.yul\":6811:6817   */\n      dup3\n        /* \"#utility.yul\":6806:6809   */\n      dup3\n        /* \"#utility.yul\":6799:6818   */\n      mstore\n        /* \"#utility.yul\":6851:6855   */\n      0x20\n        /* \"#utility.yul\":6846:6849   */\n      dup3\n        /* \"#utility.yul\":6842:6856   */\n      add\n        /* \"#utility.yul\":6827:6856   */\n      swap1\n      pop\n        /* \"#utility.yul\":6693:6862   */\n      swap3\n      swap2\n      pop\n      pop\n      jump\t// out\n        /* \"#utility.yul\":6868:7028   */\n    tag_199:\n        /* \"#utility.yul\":7008:7020   */\n      0x736861726573203d203000000000000000000000000000000000000000000000\n        /* \"#utility.yul\":7004:7005   */\n      0x00\n        /* \"#utility.yul\":6996:7002   */\n      dup3\n        /* \"#utility.yul\":6992:7006   */\n      add\n        /* \"#utility.yul\":6985:7021   */\n      mstore\n        /* \"#utility.yul\":6868:7028   */\n      pop\n      jump\t// out\n        /* \"#utility.yul\":7034:7400   */\n    tag_200:\n        /* \"#utility.yul\":7176:7179   */\n      0x00\n        /* \"#utility.yul\":7197:7264   */\n      tag_292\n        /* \"#utility.yul\":7261:7263   */\n      0x0a\n        /* \"#utility.yul\":7256:7259   */\n      dup4\n        /* \"#utility.yul\":7197:7264   */\n      tag_198\n      jump\t// in\n    tag_292:\n        /* \"#utility.yul\":7190:7264   */\n      swap2\n      pop\n        /* \"#utility.yul\":7273:7366   */\n      tag_293\n        /* \"#utility.yul\":7362:7365   */\n      dup3\n        /* \"#utility.yul\":7273:7366   */\n      tag_199\n      jump\t// in\n    tag_293:\n        /* \"#utility.yul\":7391:7393   */\n      0x20\n        /* \"#utility.yul\":7386:7389   */\n      dup3\n        /* \"#utility.yul\":7382:7394   */\n      add\n        /* \"#utility.yul\":7375:7394   */\n      swap1\n      pop\n        /* \"#utility.yul\":7034:7400   */\n      swap2\n      swap1\n      pop\n      jump\t// out\n        /* \"#utility.yul\":7406:7825   */\n    tag_82:\n        /* \"#utility.yul\":7572:7576   */\n      0x00\n        /* \"#utility.yul\":7610:7612   */\n      0x20\n        /* \"#utility.yul\":7599:7608   */\n      dup3\n        /* \"#utility.yul\":7595:7613   */\n      add\n        /* \"#utility.yul\":7587:7613   */\n      swap1\n      pop\n        /* \"#utility.yul\":7659:7668   */\n      dup2\n        /* \"#utility.yul\":7653:7657   */\n      dup2\n        /* \"#utility.yul\":7649:7669   */\n      sub\n        /* \"#utility.yul\":7645:7646   */\n      0x00\n        /* \"#utility.yul\":7634:7643   */\n      dup4\n        /* \"#utility.yul\":7630:7647   */\n      add\n        /* \"#utility.yul\":7623:7670   */\n      mstore\n        /* \"#utility.yul\":7687:7818   */\n      tag_295\n        /* \"#utility.yul\":7813:7817   */\n      dup2\n        /* \"#utility.yul\":7687:7818   */\n      tag_200\n      jump\t// in\n    tag_295:\n        /* \"#utility.yul\":7679:7818   */\n      swap1\n      pop\n        /* \"#utility.yul\":7406:7825   */\n      swap2\n      swap1\n      pop\n      jump\t// out\n        /* \"#utility.yul\":7831:8053   */\n    tag_87:\n        /* \"#utility.yul\":7924:7928   */\n      0x00\n        /* \"#utility.yul\":7962:7964   */\n      0x20\n        /* \"#utility.yul\":7951:7960   */\n      dup3\n        /* \"#utility.yul\":7947:7965   */\n      add\n        /* \"#utility.yul\":7939:7965   */\n      swap1\n      pop\n        /* \"#utility.yul\":7975:8046   */\n      tag_297\n        /* \"#utility.yul\":8043:8044   */\n      0x00\n        /* \"#utility.yul\":8032:8041   */\n      dup4\n        /* \"#utility.yul\":8028:8045   */\n      add\n        /* \"#utility.yul\":8019:8025   */\n      dup5\n        /* \"#utility.yul\":7975:8046   */\n      tag_192\n      jump\t// in\n    tag_297:\n        /* \"#utility.yul\":7831:8053   */\n      swap3\n      swap2\n      pop\n      pop\n      jump\t// out\n        /* \"#utility.yul\":8059:8202   */\n    tag_201:\n        /* \"#utility.yul\":8116:8121   */\n      0x00\n        /* \"#utility.yul\":8147:8153   */\n      dup2\n        /* \"#utility.yul\":8141:8154   */\n      mload\n        /* \"#utility.yul\":8132:8154   */\n      swap1\n      pop\n        /* \"#utility.yul\":8163:8196   */\n      tag_299\n        /* \"#utility.yul\":8190:8195   */\n      dup2\n        /* \"#utility.yul\":8163:8196   */\n      tag_190\n      jump\t// in\n    tag_299:\n        /* \"#utility.yul\":8059:8202   */\n      swap3\n      swap2\n      pop\n      pop\n      jump\t// out\n        /* \"#utility.yul\":8208:8559   */\n    tag_91:\n        /* \"#utility.yul\":8278:8284   */\n      0x00\n        /* \"#utility.yul\":8327:8329   */\n      0x20\n        /* \"#utility.yul\":8315:8324   */\n      dup3\n        /* \"#utility.yul\":8306:8313   */\n      dup5\n        /* \"#utility.yul\":8302:8325   */\n      sub\n        /* \"#utility.yul\":8298:8330   */\n      slt\n        /* \"#utility.yul\":8295:8414   */\n      iszero\n      tag_301\n      jumpi\n        /* \"#utility.yul\":8333:8412   */\n      tag_302\n      tag_185\n      jump\t// in\n    tag_302:\n        /* \"#utility.yul\":8295:8414   */\n    tag_301:\n        /* \"#utility.yul\":8453:8454   */\n      0x00\n        /* \"#utility.yul\":8478:8542   */\n      tag_303\n        /* \"#utility.yul\":8534:8541   */\n      dup5\n        /* \"#utility.yul\":8525:8531   */\n      dup3\n        /* \"#utility.yul\":8514:8523   */\n      dup6\n        /* \"#utility.yul\":8510:8532   */\n      add\n        /* \"#utility.yul\":8478:8542   */\n      tag_201\n      jump\t// in\n    tag_303:\n        /* \"#utility.yul\":8468:8542   */\n      swap2\n      pop\n        /* \"#utility.yul\":8424:8552   */\n      pop\n        /* \"#utility.yul\":8208:8559   */\n      swap3\n      swap2\n      pop\n      pop\n      jump\t// out\n        /* \"#utility.yul\":8565:8728   */\n    tag_202:\n        /* \"#utility.yul\":8705:8720   */\n      0x496e76616c696420746f6b656e00000000000000000000000000000000000000\n        /* \"#utility.yul\":8701:8702   */\n      0x00\n        /* \"#utility.yul\":8693:8699   */\n      dup3\n        /* \"#utility.yul\":8689:8703   */\n      add\n        /* \"#utility.yul\":8682:8721   */\n      mstore\n        /* \"#utility.yul\":8565:8728   */\n      pop\n      jump\t// out\n        /* \"#utility.yul\":8734:9100   */\n    tag_203:\n        /* \"#utility.yul\":8876:8879   */\n      0x00\n        /* \"#utility.yul\":8897:8964   */\n      tag_306\n        /* \"#utility.yul\":8961:8963   */\n      0x0d\n        /* \"#utility.yul\":8956:8959   */\n      dup4\n        /* \"#utility.yul\":8897:8964   */\n      tag_198\n      jump\t// in\n    tag_306:\n        /* \"#utility.yul\":8890:8964   */\n      swap2\n      pop\n        /* \"#utility.yul\":8973:9066   */\n      tag_307\n        /* \"#utility.yul\":9062:9065   */\n      dup3\n        /* \"#utility.yul\":8973:9066   */\n      tag_202\n      jump\t// in\n    tag_307:\n        /* \"#utility.yul\":9091:9093   */\n      0x20\n        /* \"#utility.yul\":9086:9089   */\n      dup3\n        /* \"#utility.yul\":9082:9094   */\n      add\n        /* \"#utility.yul\":9075:9094   */\n      swap1\n      pop\n        /* \"#utility.yul\":8734:9100   */\n      swap2\n      swap1\n      pop\n      jump\t// out\n        /* \"#utility.yul\":9106:9525   */\n    tag_101:\n        /* \"#utility.yul\":9272:9276   */\n      0x00\n        /* \"#utility.yul\":9310:9312   */\n      0x20\n        /* \"#utility.yul\":9299:9308   */\n      dup3\n        /* \"#utility.yul\":9295:9313   */\n      add\n        /* \"#utility.yul\":9287:9313   */\n      swap1\n      pop\n        /* \"#utility.yul\":9359:9368   */\n      dup2\n        /* \"#utility.yul\":9353:9357   */\n      dup2\n        /* \"#utility.yul\":9349:9369   */\n      sub\n        /* \"#utility.yul\":9345:9346   */\n      0x00\n        /* \"#utility.yul\":9334:9343   */\n      dup4\n        /* \"#utility.yul\":9330:9347   */\n      add\n        /* \"#utility.yul\":9323:9370   */\n      mstore\n        /* \"#utility.yul\":9387:9518   */\n      tag_309\n        /* \"#utility.yul\":9513:9517   */\n      dup2\n        /* \"#utility.yul\":9387:9518   */\n      tag_203\n      jump\t// in\n    tag_309:\n        /* \"#utility.yul\":9379:9518   */\n      swap1\n      pop\n        /* \"#utility.yul\":9106:9525   */\n      swap2\n      swap1\n      pop\n      jump\t// out\n        /* \"#utility.yul\":9531:9863   */\n    tag_114:\n        /* \"#utility.yul\":9652:9656   */\n      0x00\n        /* \"#utility.yul\":9690:9692   */\n      0x40\n        /* \"#utility.yul\":9679:9688   */\n      dup3\n        /* \"#utility.yul\":9675:9693   */\n      add\n        /* \"#utility.yul\":9667:9693   */\n      swap1\n      pop\n        /* \"#utility.yul\":9703:9774   */\n      tag_311\n        /* \"#utility.yul\":9771:9772   */\n      0x00\n        /* \"#utility.yul\":9760:9769   */\n      dup4\n        /* \"#utility.yul\":9756:9773   */\n      add\n        /* \"#utility.yul\":9747:9753   */\n      dup6\n        /* \"#utility.yul\":9703:9774   */\n      tag_192\n      jump\t// in\n    tag_311:\n        /* \"#utility.yul\":9784:9856   */\n      tag_312\n        /* \"#utility.yul\":9852:9854   */\n      0x20\n        /* \"#utility.yul\":9841:9850   */\n      dup4\n        /* \"#utility.yul\":9837:9855   */\n      add\n        /* \"#utility.yul\":9828:9834   */\n      dup5\n        /* \"#utility.yul\":9784:9856   */\n      tag_183\n      jump\t// in\n    tag_312:\n        /* \"#utility.yul\":9531:9863   */\n      swap4\n      swap3\n      pop\n      pop\n      pop\n      jump\t// out\n        /* \"#utility.yul\":9869:10063   */\n    tag_144:\n        /* \"#utility.yul\":9909:9913   */\n      0x00\n        /* \"#utility.yul\":9929:9949   */\n      tag_314\n        /* \"#utility.yul\":9947:9948   */\n      dup3\n        /* \"#utility.yul\":9929:9949   */\n      tag_182\n      jump\t// in\n    tag_314:\n        /* \"#utility.yul\":9924:9949   */\n      swap2\n      pop\n        /* \"#utility.yul\":9963:9983   */\n      tag_315\n        /* \"#utility.yul\":9981:9982   */\n      dup4\n        /* \"#utility.yul\":9963:9983   */\n      tag_182\n      jump\t// in\n    tag_315:\n        /* \"#utility.yul\":9958:9983   */\n      swap3\n      pop\n        /* \"#utility.yul\":10007:10008   */\n      dup3\n        /* \"#utility.yul\":10004:10005   */\n      dup3\n        /* \"#utility.yul\":10000:10009   */\n      sub\n        /* \"#utility.yul\":9992:10009   */\n      swap1\n      pop\n        /* \"#utility.yul\":10031:10032   */\n      dup2\n        /* \"#utility.yul\":10025:10029   */\n      dup2\n        /* \"#utility.yul\":10022:10033   */\n      gt\n        /* \"#utility.yul\":10019:10056   */\n      iszero\n      tag_316\n      jumpi\n        /* \"#utility.yul\":10036:10054   */\n      tag_317\n      tag_196\n      jump\t// in\n    tag_317:\n        /* \"#utility.yul\":10019:10056   */\n    tag_316:\n        /* \"#utility.yul\":9869:10063   */\n      swap3\n      swap2\n      pop\n      pop\n      jump\t// out\n        /* \"#utility.yul\":10069:10260   */\n    tag_158:\n        /* \"#utility.yul\":10109:10112   */\n      0x00\n        /* \"#utility.yul\":10128:10148   */\n      tag_319\n        /* \"#utility.yul\":10146:10147   */\n      dup3\n        /* \"#utility.yul\":10128:10148   */\n      tag_182\n      jump\t// in\n    tag_319:\n        /* \"#utility.yul\":10123:10148   */\n      swap2\n      pop\n        /* \"#utility.yul\":10162:10182   */\n      tag_320\n        /* \"#utility.yul\":10180:10181   */\n      dup4\n        /* \"#utility.yul\":10162:10182   */\n      tag_182\n      jump\t// in\n    tag_320:\n        /* \"#utility.yul\":10157:10182   */\n      swap3\n      pop\n        /* \"#utility.yul\":10205:10206   */\n      dup3\n        /* \"#utility.yul\":10202:10203   */\n      dup3\n        /* \"#utility.yul\":10198:10207   */\n      add\n        /* \"#utility.yul\":10191:10207   */\n      swap1\n      pop\n        /* \"#utility.yul\":10226:10229   */\n      dup1\n        /* \"#utility.yul\":10223:10224   */\n      dup3\n        /* \"#utility.yul\":10220:10230   */\n      gt\n        /* \"#utility.yul\":10217:10253   */\n      iszero\n      tag_321\n      jumpi\n        /* \"#utility.yul\":10233:10251   */\n      tag_322\n      tag_196\n      jump\t// in\n    tag_322:\n        /* \"#utility.yul\":10217:10253   */\n    tag_321:\n        /* \"#utility.yul\":10069:10260   */\n      swap3\n      swap2\n      pop\n      pop\n      jump\t// out\n\n    auxdata: 0xa26469706673582212202c78068c8f4080c951afdef469da55089fc73a1ea4ca34b81c9b834223ef162e64736f6c63430008130033\n}\n",
				"bytecode": {
					"linkReferences": {},
					"object": "60c06040523480156200001157600080fd5b506040516200167338038062001673833981810160405281019062000037919062000111565b8173ffffffffffffffffffffffffffffffffffffffff1660808173ffffffffffffffffffffffffffffffffffffffff16815250508073ffffffffffffffffffffffffffffffffffffffff1660a08173ffffffffffffffffffffffffffffffffffffffff1681525050505062000158565b600080fd5b600073ffffffffffffffffffffffffffffffffffffffff82169050919050565b6000620000d982620000ac565b9050919050565b620000eb81620000cc565b8114620000f757600080fd5b50565b6000815190506200010b81620000e0565b92915050565b600080604083850312156200012b576200012a620000a7565b5b60006200013b85828601620000fa565b92505060206200014e85828601620000fa565b9150509250929050565b60805160a05161147e620001f5600039600081816102e2015281816105110152818161060d015281816106fa015281816107680152818161097801528181610a2301528181610aea0152610c850152600081816101f10152818161024101528181610477015281816105b80152818161069e0152818161071b01528181610747015281816108de01528181610a4c0152610be6015261147e6000f3fe608060405234801561001057600080fd5b50600436106100935760003560e01c806370a082311161006657806370a08231146101105780639cd441da14610140578063d004f0f714610170578063d21220a7146101a0578063ff72258b146101be57610093565b80630dfe16811461009857806318160ddd146100b6578063443cb4bc146100d45780635a76f25e146100f2575b600080fd5b6100a06101ef565b6040516100ad9190610f34565b60405180910390f35b6100be610213565b6040516100cb9190610f68565b60405180910390f35b6100dc610219565b6040516100e99190610f68565b60405180910390f35b6100fa61021f565b6040516101079190610f68565b60405180910390f35b61012a60048036038101906101259190610fc6565b610225565b6040516101379190610f68565b60405180910390f35b61015a6004803603810190610155919061101f565b61023d565b6040516101679190610f68565b60405180910390f35b61018a6004803603810190610185919061105f565b6105b4565b6040516101979190610f68565b60405180910390f35b6101a8610a21565b6040516101b59190610f34565b60405180910390f35b6101d860048036038101906101d3919061109f565b610a45565b6040516101e69291906110cc565b60405180910390f35b7f000000000000000000000000000000000000000000000000000000000000000081565b60025481565b60005481565b60015481565b60036020528060005260406000206000915090505481565b60007f000000000000000000000000000000000000000000000000000000000000000073ffffffffffffffffffffffffffffffffffffffff166323b872dd3330866040518463ffffffff1660e01b815260040161029c93929190611104565b6020604051808303816000875af11580156102bb573d6000803e3d6000fd5b505050506040513d601f19601f820116820180604052508101906102df9190611173565b507f000000000000000000000000000000000000000000000000000000000000000073ffffffffffffffffffffffffffffffffffffffff166323b872dd3330856040518463ffffffff1660e01b815260040161033d93929190611104565b6020604051808303816000875af115801561035c573d6000803e3d6000fd5b505050506040513d601f19601f820116820180604052508101906103809190611173565b5060008054118061039357506000600154115b156103bf57826001546103a691906111cf565b826000546103b491906111cf565b146103be57600080fd5b5b6000600254036103e4576103dd82846103d891906111cf565b610d29565b9050610425565b610422600054600254856103f891906111cf565b6104029190611240565b6001546002548561041391906111cf565b61041d9190611240565b610da3565b90505b60008111610468576040517f08c379a000000000000000000000000000000000000000000000000000000000815260040161045f906112ce565b60405180910390fd5b6104723382610dbd565b6105ae7f000000000000000000000000000000000000000000000000000000000000000073ffffffffffffffffffffffffffffffffffffffff166370a08231306040518263ffffffff1660e01b81526004016104ce91906112ee565b602060405180830381865afa1580156104eb573d6000803e3d6000fd5b505050506040513d601f19601f8201168201806040525081019061050f919061131e565b7f000000000000000000000000000000000000000000000000000000000000000073ffffffffffffffffffffffffffffffffffffffff166370a08231306040518263ffffffff1660e01b815260040161056891906112ee565b602060405180830381865afa158015610585573d6000803e3d6000fd5b505050506040513d601f19601f820116820180604052508101906105a9919061131e565b610e30565b92915050565b60007f000000000000000000000000000000000000000000000000000000000000000073ffffffffffffffffffffffffffffffffffffffff168373ffffffffffffffffffffffffffffffffffffffff16148061065b57507f000000000000000000000000000000000000000000000000000000000000000073ffffffffffffffffffffffffffffffffffffffff168373ffffffffffffffffffffffffffffffffffffffff16145b61069a576040517f08c379a000000000000000000000000000000000000000000000000000000000815260040161069190611397565b60405180910390fd5b60007f000000000000000000000000000000000000000000000000000000000000000073ffffffffffffffffffffffffffffffffffffffff168473ffffffffffffffffffffffffffffffffffffffff1614905060008060008084610745577f00000000000000000000000000000000000000000000000000000000000000007f000000000000000000000000000000000000000000000000000000000000000060015460005461078e565b7f00000000000000000000000000000000000000000000000000000000000000007f00000000000000000000000000000000000000000000000000000000000000006000546001545b93509350935093508373ffffffffffffffffffffffffffffffffffffffff166323b872dd33308a6040518463ffffffff1660e01b81526004016107d393929190611104565b6020604051808303816000875af11580156107f2573d6000803e3d6000fd5b505050506040513d601f19601f820116820180604052508101906108169190611173565b5060006103e86103e58961082a91906111cf565b6108349190611240565b9050808361084291906111cf565b818361084e91906111cf565b6108589190611240565b96508373ffffffffffffffffffffffffffffffffffffffff1663a9059cbb33896040518363ffffffff1660e01b81526004016108959291906113b7565b6020604051808303816000875af11580156108b4573d6000803e3d6000fd5b505050506040513d601f19601f820116820180604052508101906108d89190611173565b50610a157f000000000000000000000000000000000000000000000000000000000000000073ffffffffffffffffffffffffffffffffffffffff166370a08231306040518263ffffffff1660e01b815260040161093591906112ee565b602060405180830381865afa158015610952573d6000803e3d6000fd5b505050506040513d601f19601f82011682018060405250810190610976919061131e565b7f000000000000000000000000000000000000000000000000000000000000000073ffffffffffffffffffffffffffffffffffffffff166370a08231306040518263ffffffff1660e01b81526004016109cf91906112ee565b602060405180830381865afa1580156109ec573d6000803e3d6000fd5b505050506040513d601f19601f82011682018060405250810190610a10919061131e565b610e30565b50505050505092915050565b7f000000000000000000000000000000000000000000000000000000000000000081565b60008060007f000000000000000000000000000000000000000000000000000000000000000073ffffffffffffffffffffffffffffffffffffffff166370a08231306040518263ffffffff1660e01b8152600401610aa391906112ee565b602060405180830381865afa158015610ac0573d6000803e3d6000fd5b505050506040513d601f19601f82011682018060405250810190610ae4919061131e565b905060007f000000000000000000000000000000000000000000000000000000000000000073ffffffffffffffffffffffffffffffffffffffff166370a08231306040518263ffffffff1660e01b8152600401610b4191906112ee565b602060405180830381865afa158015610b5e573d6000803e3d6000fd5b505050506040513d601f19601f82011682018060405250810190610b82919061131e565b90506002548286610b9391906111cf565b610b9d9190611240565b93506002548186610bae91906111cf565b610bb89190611240565b9250610bc43386610e42565b610be48483610bd391906113e0565b8483610bdf91906113e0565b610e30565b7f000000000000000000000000000000000000000000000000000000000000000073ffffffffffffffffffffffffffffffffffffffff1663a9059cbb33866040518363ffffffff1660e01b8152600401610c3f9291906113b7565b6020604051808303816000875af1158015610c5e573d6000803e3d6000fd5b505050506040513d601f19601f82011682018060405250810190610c829190611173565b507f000000000000000000000000000000000000000000000000000000000000000073ffffffffffffffffffffffffffffffffffffffff1663a9059cbb33856040518363ffffffff1660e01b8152600401610cde9291906113b7565b6020604051808303816000875af1158015610cfd573d6000803e3d6000fd5b505050506040513d601f19601f82011682018060405250810190610d219190611173565b505050915091565b60006003821115610d905781905060006001600284610d489190611240565b610d529190611414565b90505b81811015610d8a578091506002818285610d6f9190611240565b610d799190611414565b610d839190611240565b9050610d55565b50610d9e565b60008214610d9d57600190505b5b919050565b600081831115610db35781610db5565b825b905092915050565b80600360008473ffffffffffffffffffffffffffffffffffffffff1673ffffffffffffffffffffffffffffffffffffffff1681526020019081526020016000206000828254610e0c9190611414565b925050819055508060026000828254610e259190611414565b925050819055505050565b81600081905550806001819055505050565b80600360008473ffffffffffffffffffffffffffffffffffffffff1673ffffffffffffffffffffffffffffffffffffffff1681526020019081526020016000206000828254610e9191906113e0565b925050819055508060026000828254610eaa91906113e0565b925050819055505050565b600073ffffffffffffffffffffffffffffffffffffffff82169050919050565b6000819050919050565b6000610efa610ef5610ef084610eb5565b610ed5565b610eb5565b9050919050565b6000610f0c82610edf565b9050919050565b6000610f1e82610f01565b9050919050565b610f2e81610f13565b82525050565b6000602082019050610f496000830184610f25565b92915050565b6000819050919050565b610f6281610f4f565b82525050565b6000602082019050610f7d6000830184610f59565b92915050565b600080fd5b6000610f9382610eb5565b9050919050565b610fa381610f88565b8114610fae57600080fd5b50565b600081359050610fc081610f9a565b92915050565b600060208284031215610fdc57610fdb610f83565b5b6000610fea84828501610fb1565b91505092915050565b610ffc81610f4f565b811461100757600080fd5b50565b60008135905061101981610ff3565b92915050565b6000806040838503121561103657611035610f83565b5b60006110448582860161100a565b92505060206110558582860161100a565b9150509250929050565b6000806040838503121561107657611075610f83565b5b600061108485828601610fb1565b92505060206110958582860161100a565b9150509250929050565b6000602082840312156110b5576110b4610f83565b5b60006110c38482850161100a565b91505092915050565b60006040820190506110e16000830185610f59565b6110ee6020830184610f59565b9392505050565b6110fe81610f88565b82525050565b600060608201905061111960008301866110f5565b61112660208301856110f5565b6111336040830184610f59565b949350505050565b60008115159050919050565b6111508161113b565b811461115b57600080fd5b50565b60008151905061116d81611147565b92915050565b60006020828403121561118957611188610f83565b5b60006111978482850161115e565b91505092915050565b7f4e487b7100000000000000000000000000000000000000000000000000000000600052601160045260246000fd5b60006111da82610f4f565b91506111e583610f4f565b92508282026111f381610f4f565b9150828204841483151761120a576112096111a0565b5b5092915050565b7f4e487b7100000000000000000000000000000000000000000000000000000000600052601260045260246000fd5b600061124b82610f4f565b915061125683610f4f565b92508261126657611265611211565b5b828204905092915050565b600082825260208201905092915050565b7f736861726573203d203000000000000000000000000000000000000000000000600082015250565b60006112b8600a83611271565b91506112c382611282565b602082019050919050565b600060208201905081810360008301526112e7816112ab565b9050919050565b600060208201905061130360008301846110f5565b92915050565b60008151905061131881610ff3565b92915050565b60006020828403121561133457611333610f83565b5b600061134284828501611309565b91505092915050565b7f496e76616c696420746f6b656e00000000000000000000000000000000000000600082015250565b6000611381600d83611271565b915061138c8261134b565b602082019050919050565b600060208201905081810360008301526113b081611374565b9050919050565b60006040820190506113cc60008301856110f5565b6113d96020830184610f59565b9392505050565b60006113eb82610f4f565b91506113f683610f4f565b925082820390508181111561140e5761140d6111a0565b5b92915050565b600061141f82610f4f565b915061142a83610f4f565b9250828201905080821115611442576114416111a0565b5b9291505056fea26469706673582212202c78068c8f4080c951afdef469da55089fc73a1ea4ca34b81c9b834223ef162e64736f6c63430008130033",
					"opcodes": "PUSH1 0xC0 PUSH1 0x40 MSTORE CALLVALUE DUP1 ISZERO PUSH3 0x11 JUMPI PUSH1 0x0 DUP1 REVERT JUMPDEST POP PUSH1 0x40 MLOAD PUSH3 0x1673 CODESIZE SUB DUP1 PUSH3 0x1673 DUP4 CODECOPY DUP2 DUP2 ADD PUSH1 0x40 MSTORE DUP2 ADD SWAP1 PUSH3 0x37 SWAP2 SWAP1 PUSH3 0x111 JUMP JUMPDEST DUP2 PUSH20 0xFFFFFFFFFFFFFFFFFFFFFFFFFFFFFFFFFFFFFFFF AND PUSH1 0x80 DUP2 PUSH20 0xFFFFFFFFFFFFFFFFFFFFFFFFFFFFFFFFFFFFFFFF AND DUP2 MSTORE POP POP DUP1 PUSH20 0xFFFFFFFFFFFFFFFFFFFFFFFFFFFFFFFFFFFFFFFF AND PUSH1 0xA0 DUP2 PUSH20 0xFFFFFFFFFFFFFFFFFFFFFFFFFFFFFFFFFFFFFFFF AND DUP2 MSTORE POP POP POP POP PUSH3 0x158 JUMP JUMPDEST PUSH1 0x0 DUP1 REVERT JUMPDEST PUSH1 0x0 PUSH20 0xFFFFFFFFFFFFFFFFFFFFFFFFFFFFFFFFFFFFFFFF DUP3 AND SWAP1 POP SWAP2 SWAP1 POP JUMP JUMPDEST PUSH1 0x0 PUSH3 0xD9 DUP3 PUSH3 0xAC JUMP JUMPDEST SWAP1 POP SWAP2 SWAP1 POP JUMP JUMPDEST PUSH3 0xEB DUP2 PUSH3 0xCC JUMP JUMPDEST DUP2 EQ PUSH3 0xF7 JUMPI PUSH1 0x0 DUP1 REVERT JUMPDEST POP JUMP JUMPDEST PUSH1 0x0 DUP2 MLOAD SWAP1 POP PUSH3 0x10B DUP2 PUSH3 0xE0 JUMP JUMPDEST SWAP3 SWAP2 POP POP JUMP JUMPDEST PUSH1 0x0 DUP1 PUSH1 0x40 DUP4 DUP6 SUB SLT ISZERO PUSH3 0x12B JUMPI PUSH3 0x12A PUSH3 0xA7 JUMP JUMPDEST JUMPDEST PUSH1 0x0 PUSH3 0x13B DUP6 DUP3 DUP7 ADD PUSH3 0xFA JUMP JUMPDEST SWAP3 POP POP PUSH1 0x20 PUSH3 0x14E DUP6 DUP3 DUP7 ADD PUSH3 0xFA JUMP JUMPDEST SWAP2 POP POP SWAP3 POP SWAP3 SWAP1 POP JUMP JUMPDEST PUSH1 0x80 MLOAD PUSH1 0xA0 MLOAD PUSH2 0x147E PUSH3 0x1F5 PUSH1 0x0 CODECOPY PUSH1 0x0 DUP2 DUP2 PUSH2 0x2E2 ADD MSTORE DUP2 DUP2 PUSH2 0x511 ADD MSTORE DUP2 DUP2 PUSH2 0x60D ADD MSTORE DUP2 DUP2 PUSH2 0x6FA ADD MSTORE DUP2 DUP2 PUSH2 0x768 ADD MSTORE DUP2 DUP2 PUSH2 0x978 ADD MSTORE DUP2 DUP2 PUSH2 0xA23 ADD MSTORE DUP2 DUP2 PUSH2 0xAEA ADD MSTORE PUSH2 0xC85 ADD MSTORE PUSH1 0x0 DUP2 DUP2 PUSH2 0x1F1 ADD MSTORE DUP2 DUP2 PUSH2 0x241 ADD MSTORE DUP2 DUP2 PUSH2 0x477 ADD MSTORE DUP2 DUP2 PUSH2 0x5B8 ADD MSTORE DUP2 DUP2 PUSH2 0x69E ADD MSTORE DUP2 DUP2 PUSH2 0x71B ADD MSTORE DUP2 DUP2 PUSH2 0x747 ADD MSTORE DUP2 DUP2 PUSH2 0x8DE ADD MSTORE DUP2 DUP2 PUSH2 0xA4C ADD MSTORE PUSH2 0xBE6 ADD MSTORE PUSH2 0x147E PUSH1 0x0 RETURN INVALID PUSH1 0x80 PUSH1 0x40 MSTORE CALLVALUE DUP1 ISZERO PUSH2 0x10 JUMPI PUSH1 0x0 DUP1 REVERT JUMPDEST POP PUSH1 0x4 CALLDATASIZE LT PUSH2 0x93 JUMPI PUSH1 0x0 CALLDATALOAD PUSH1 0xE0 SHR DUP1 PUSH4 0x70A08231 GT PUSH2 0x66 JUMPI DUP1 PUSH4 0x70A08231 EQ PUSH2 0x110 JUMPI DUP1 PUSH4 0x9CD441DA EQ PUSH2 0x140 JUMPI DUP1 PUSH4 0xD004F0F7 EQ PUSH2 0x170 JUMPI DUP1 PUSH4 0xD21220A7 EQ PUSH2 0x1A0 JUMPI DUP1 PUSH4 0xFF72258B EQ PUSH2 0x1BE JUMPI PUSH2 0x93 JUMP JUMPDEST DUP1 PUSH4 0xDFE1681 EQ PUSH2 0x98 JUMPI DUP1 PUSH4 0x18160DDD EQ PUSH2 0xB6 JUMPI DUP1 PUSH4 0x443CB4BC EQ PUSH2 0xD4 JUMPI DUP1 PUSH4 0x5A76F25E EQ PUSH2 0xF2 JUMPI JUMPDEST PUSH1 0x0 DUP1 REVERT JUMPDEST PUSH2 0xA0 PUSH2 0x1EF JUMP JUMPDEST PUSH1 0x40 MLOAD PUSH2 0xAD SWAP2 SWAP1 PUSH2 0xF34 JUMP JUMPDEST PUSH1 0x40 MLOAD DUP1 SWAP2 SUB SWAP1 RETURN JUMPDEST PUSH2 0xBE PUSH2 0x213 JUMP JUMPDEST PUSH1 0x40 MLOAD PUSH2 0xCB SWAP2 SWAP1 PUSH2 0xF68 JUMP JUMPDEST PUSH1 0x40 MLOAD DUP1 SWAP2 SUB SWAP1 RETURN JUMPDEST PUSH2 0xDC PUSH2 0x219 JUMP JUMPDEST PUSH1 0x40 MLOAD PUSH2 0xE9 SWAP2 SWAP1 PUSH2 0xF68 JUMP JUMPDEST PUSH1 0x40 MLOAD DUP1 SWAP2 SUB SWAP1 RETURN JUMPDEST PUSH2 0xFA PUSH2 0x21F JUMP JUMPDEST PUSH1 0x40 MLOAD PUSH2 0x107 SWAP2 SWAP1 PUSH2 0xF68 JUMP JUMPDEST PUSH1 0x40 MLOAD DUP1 SWAP2 SUB SWAP1 RETURN JUMPDEST PUSH2 0x12A PUSH1 0x4 DUP1 CALLDATASIZE SUB DUP2 ADD SWAP1 PUSH2 0x125 SWAP2 SWAP1 PUSH2 0xFC6 JUMP JUMPDEST PUSH2 0x225 JUMP JUMPDEST PUSH1 0x40 MLOAD PUSH2 0x137 SWAP2 SWAP1 PUSH2 0xF68 JUMP JUMPDEST PUSH1 0x40 MLOAD DUP1 SWAP2 SUB SWAP1 RETURN JUMPDEST PUSH2 0x15A PUSH1 0x4 DUP1 CALLDATASIZE SUB DUP2 ADD SWAP1 PUSH2 0x155 SWAP2 SWAP1 PUSH2 0x101F JUMP JUMPDEST PUSH2 0x23D JUMP JUMPDEST PUSH1 0x40 MLOAD PUSH2 0x167 SWAP2 SWAP1 PUSH2 0xF68 JUMP JUMPDEST PUSH1 0x40 MLOAD DUP1 SWAP2 SUB SWAP1 RETURN JUMPDEST PUSH2 0x18A PUSH1 0x4 DUP1 CALLDATASIZE SUB DUP2 ADD SWAP1 PUSH2 0x185 SWAP2 SWAP1 PUSH2 0x105F JUMP JUMPDEST PUSH2 0x5B4 JUMP JUMPDEST PUSH1 0x40 MLOAD PUSH2 0x197 SWAP2 SWAP1 PUSH2 0xF68 JUMP JUMPDEST PUSH1 0x40 MLOAD DUP1 SWAP2 SUB SWAP1 RETURN JUMPDEST PUSH2 0x1A8 PUSH2 0xA21 JUMP JUMPDEST PUSH1 0x40 MLOAD PUSH2 0x1B5 SWAP2 SWAP1 PUSH2 0xF34 JUMP JUMPDEST PUSH1 0x40 MLOAD DUP1 SWAP2 SUB SWAP1 RETURN JUMPDEST PUSH2 0x1D8 PUSH1 0x4 DUP1 CALLDATASIZE SUB DUP2 ADD SWAP1 PUSH2 0x1D3 SWAP2 SWAP1 PUSH2 0x109F JUMP JUMPDEST PUSH2 0xA45 JUMP JUMPDEST PUSH1 0x40 MLOAD PUSH2 0x1E6 SWAP3 SWAP2 SWAP1 PUSH2 0x10CC JUMP JUMPDEST PUSH1 0x40 MLOAD DUP1 SWAP2 SUB SWAP1 RETURN JUMPDEST PUSH32 0x0 DUP2 JUMP JUMPDEST PUSH1 0x2 SLOAD DUP2 JUMP JUMPDEST PUSH1 0x0 SLOAD DUP2 JUMP JUMPDEST PUSH1 0x1 SLOAD DUP2 JUMP JUMPDEST PUSH1 0x3 PUSH1 0x20 MSTORE DUP1 PUSH1 0x0 MSTORE PUSH1 0x40 PUSH1 0x0 KECCAK256 PUSH1 0x0 SWAP2 POP SWAP1 POP SLOAD DUP2 JUMP JUMPDEST PUSH1 0x0 PUSH32 0x0 PUSH20 0xFFFFFFFFFFFFFFFFFFFFFFFFFFFFFFFFFFFFFFFF AND PUSH4 0x23B872DD CALLER ADDRESS DUP7 PUSH1 0x40 MLOAD DUP5 PUSH4 0xFFFFFFFF AND PUSH1 0xE0 SHL DUP2 MSTORE PUSH1 0x4 ADD PUSH2 0x29C SWAP4 SWAP3 SWAP2 SWAP1 PUSH2 0x1104 JUMP JUMPDEST PUSH1 0x20 PUSH1 0x40 MLOAD DUP1 DUP4 SUB DUP2 PUSH1 0x0 DUP8 GAS CALL ISZERO DUP1 ISZERO PUSH2 0x2BB JUMPI RETURNDATASIZE PUSH1 0x0 DUP1 RETURNDATACOPY RETURNDATASIZE PUSH1 0x0 REVERT JUMPDEST POP POP POP POP PUSH1 0x40 MLOAD RETURNDATASIZE PUSH1 0x1F NOT PUSH1 0x1F DUP3 ADD AND DUP3 ADD DUP1 PUSH1 0x40 MSTORE POP DUP2 ADD SWAP1 PUSH2 0x2DF SWAP2 SWAP1 PUSH2 0x1173 JUMP JUMPDEST POP PUSH32 0x0 PUSH20 0xFFFFFFFFFFFFFFFFFFFFFFFFFFFFFFFFFFFFFFFF AND PUSH4 0x23B872DD CALLER ADDRESS DUP6 PUSH1 0x40 MLOAD DUP5 PUSH4 0xFFFFFFFF AND PUSH1 0xE0 SHL DUP2 MSTORE PUSH1 0x4 ADD PUSH2 0x33D SWAP4 SWAP3 SWAP2 SWAP1 PUSH2 0x1104 JUMP JUMPDEST PUSH1 0x20 PUSH1 0x40 MLOAD DUP1 DUP4 SUB DUP2 PUSH1 0x0 DUP8 GAS CALL ISZERO DUP1 ISZERO PUSH2 0x35C JUMPI RETURNDATASIZE PUSH1 0x0 DUP1 RETURNDATACOPY RETURNDATASIZE PUSH1 0x0 REVERT JUMPDEST POP POP POP POP PUSH1 0x40 MLOAD RETURNDATASIZE PUSH1 0x1F NOT PUSH1 0x1F DUP3 ADD AND DUP3 ADD DUP1 PUSH1 0x40 MSTORE POP DUP2 ADD SWAP1 PUSH2 0x380 SWAP2 SWAP1 PUSH2 0x1173 JUMP JUMPDEST POP PUSH1 0x0 DUP1 SLOAD GT DUP1 PUSH2 0x393 JUMPI POP PUSH1 0x0 PUSH1 0x1 SLOAD GT JUMPDEST ISZERO PUSH2 0x3BF JUMPI DUP3 PUSH1 0x1 SLOAD PUSH2 0x3A6 SWAP2 SWAP1 PUSH2 0x11CF JUMP JUMPDEST DUP3 PUSH1 0x0 SLOAD PUSH2 0x3B4 SWAP2 SWAP1 PUSH2 0x11CF JUMP JUMPDEST EQ PUSH2 0x3BE JUMPI PUSH1 0x0 DUP1 REVERT JUMPDEST JUMPDEST PUSH1 0x0 PUSH1 0x2 SLOAD SUB PUSH2 0x3E4 JUMPI PUSH2 0x3DD DUP3 DUP5 PUSH2 0x3D8 SWAP2 SWAP1 PUSH2 0x11CF JUMP JUMPDEST PUSH2 0xD29 JUMP JUMPDEST SWAP1 POP PUSH2 0x425 JUMP JUMPDEST PUSH2 0x422 PUSH1 0x0 SLOAD PUSH1 0x2 SLOAD DUP6 PUSH2 0x3F8 SWAP2 SWAP1 PUSH2 0x11CF JUMP JUMPDEST PUSH2 0x402 SWAP2 SWAP1 PUSH2 0x1240 JUMP JUMPDEST PUSH1 0x1 SLOAD PUSH1 0x2 SLOAD DUP6 PUSH2 0x413 SWAP2 SWAP1 PUSH2 0x11CF JUMP JUMPDEST PUSH2 0x41D SWAP2 SWAP1 PUSH2 0x1240 JUMP JUMPDEST PUSH2 0xDA3 JUMP JUMPDEST SWAP1 POP JUMPDEST PUSH1 0x0 DUP2 GT PUSH2 0x468 JUMPI PUSH1 0x40 MLOAD PUSH32 0x8C379A000000000000000000000000000000000000000000000000000000000 DUP2 MSTORE PUSH1 0x4 ADD PUSH2 0x45F SWAP1 PUSH2 0x12CE JUMP JUMPDEST PUSH1 0x40 MLOAD DUP1 SWAP2 SUB SWAP1 REVERT JUMPDEST PUSH2 0x472 CALLER DUP3 PUSH2 0xDBD JUMP JUMPDEST PUSH2 0x5AE PUSH32 0x0 PUSH20 0xFFFFFFFFFFFFFFFFFFFFFFFFFFFFFFFFFFFFFFFF AND PUSH4 0x70A08231 ADDRESS PUSH1 0x40 MLOAD DUP3 PUSH4 0xFFFFFFFF AND PUSH1 0xE0 SHL DUP2 MSTORE PUSH1 0x4 ADD PUSH2 0x4CE SWAP2 SWAP1 PUSH2 0x12EE JUMP JUMPDEST PUSH1 0x20 PUSH1 0x40 MLOAD DUP1 DUP4 SUB DUP2 DUP7 GAS STATICCALL ISZERO DUP1 ISZERO PUSH2 0x4EB JUMPI RETURNDATASIZE PUSH1 0x0 DUP1 RETURNDATACOPY RETURNDATASIZE PUSH1 0x0 REVERT JUMPDEST POP POP POP POP PUSH1 0x40 MLOAD RETURNDATASIZE PUSH1 0x1F NOT PUSH1 0x1F DUP3 ADD AND DUP3 ADD DUP1 PUSH1 0x40 MSTORE POP DUP2 ADD SWAP1 PUSH2 0x50F SWAP2 SWAP1 PUSH2 0x131E JUMP JUMPDEST PUSH32 0x0 PUSH20 0xFFFFFFFFFFFFFFFFFFFFFFFFFFFFFFFFFFFFFFFF AND PUSH4 0x70A08231 ADDRESS PUSH1 0x40 MLOAD DUP3 PUSH4 0xFFFFFFFF AND PUSH1 0xE0 SHL DUP2 MSTORE PUSH1 0x4 ADD PUSH2 0x568 SWAP2 SWAP1 PUSH2 0x12EE JUMP JUMPDEST PUSH1 0x20 PUSH1 0x40 MLOAD DUP1 DUP4 SUB DUP2 DUP7 GAS STATICCALL ISZERO DUP1 ISZERO PUSH2 0x585 JUMPI RETURNDATASIZE PUSH1 0x0 DUP1 RETURNDATACOPY RETURNDATASIZE PUSH1 0x0 REVERT JUMPDEST POP POP POP POP PUSH1 0x40 MLOAD RETURNDATASIZE PUSH1 0x1F NOT PUSH1 0x1F DUP3 ADD AND DUP3 ADD DUP1 PUSH1 0x40 MSTORE POP DUP2 ADD SWAP1 PUSH2 0x5A9 SWAP2 SWAP1 PUSH2 0x131E JUMP JUMPDEST PUSH2 0xE30 JUMP JUMPDEST SWAP3 SWAP2 POP POP JUMP JUMPDEST PUSH1 0x0 PUSH32 0x0 PUSH20 0xFFFFFFFFFFFFFFFFFFFFFFFFFFFFFFFFFFFFFFFF AND DUP4 PUSH20 0xFFFFFFFFFFFFFFFFFFFFFFFFFFFFFFFFFFFFFFFF AND EQ DUP1 PUSH2 0x65B JUMPI POP PUSH32 0x0 PUSH20 0xFFFFFFFFFFFFFFFFFFFFFFFFFFFFFFFFFFFFFFFF AND DUP4 PUSH20 0xFFFFFFFFFFFFFFFFFFFFFFFFFFFFFFFFFFFFFFFF AND EQ JUMPDEST PUSH2 0x69A JUMPI PUSH1 0x40 MLOAD PUSH32 0x8C379A000000000000000000000000000000000000000000000000000000000 DUP2 MSTORE PUSH1 0x4 ADD PUSH2 0x691 SWAP1 PUSH2 0x1397 JUMP JUMPDEST PUSH1 0x40 MLOAD DUP1 SWAP2 SUB SWAP1 REVERT JUMPDEST PUSH1 0x0 PUSH32 0x0 PUSH20 0xFFFFFFFFFFFFFFFFFFFFFFFFFFFFFFFFFFFFFFFF AND DUP5 PUSH20 0xFFFFFFFFFFFFFFFFFFFFFFFFFFFFFFFFFFFFFFFF AND EQ SWAP1 POP PUSH1 0x0 DUP1 PUSH1 0x0 DUP1 DUP5 PUSH2 0x745 JUMPI PUSH32 0x0 PUSH32 0x0 PUSH1 0x1 SLOAD PUSH1 0x0 SLOAD PUSH2 0x78E JUMP JUMPDEST PUSH32 0x0 PUSH32 0x0 PUSH1 0x0 SLOAD PUSH1 0x1 SLOAD JUMPDEST SWAP4 POP SWAP4 POP SWAP4 POP SWAP4 POP DUP4 PUSH20 0xFFFFFFFFFFFFFFFFFFFFFFFFFFFFFFFFFFFFFFFF AND PUSH4 0x23B872DD CALLER ADDRESS DUP11 PUSH1 0x40 MLOAD DUP5 PUSH4 0xFFFFFFFF AND PUSH1 0xE0 SHL DUP2 MSTORE PUSH1 0x4 ADD PUSH2 0x7D3 SWAP4 SWAP3 SWAP2 SWAP1 PUSH2 0x1104 JUMP JUMPDEST PUSH1 0x20 PUSH1 0x40 MLOAD DUP1 DUP4 SUB DUP2 PUSH1 0x0 DUP8 GAS CALL ISZERO DUP1 ISZERO PUSH2 0x7F2 JUMPI RETURNDATASIZE PUSH1 0x0 DUP1 RETURNDATACOPY RETURNDATASIZE PUSH1 0x0 REVERT JUMPDEST POP POP POP POP PUSH1 0x40 MLOAD RETURNDATASIZE PUSH1 0x1F NOT PUSH1 0x1F DUP3 ADD AND DUP3 ADD DUP1 PUSH1 0x40 MSTORE POP DUP2 ADD SWAP1 PUSH2 0x816 SWAP2 SWAP1 PUSH2 0x1173 JUMP JUMPDEST POP PUSH1 0x0 PUSH2 0x3E8 PUSH2 0x3E5 DUP10 PUSH2 0x82A SWAP2 SWAP1 PUSH2 0x11CF JUMP JUMPDEST PUSH2 0x834 SWAP2 SWAP1 PUSH2 0x1240 JUMP JUMPDEST SWAP1 POP DUP1 DUP4 PUSH2 0x842 SWAP2 SWAP1 PUSH2 0x11CF JUMP JUMPDEST DUP2 DUP4 PUSH2 0x84E SWAP2 SWAP1 PUSH2 0x11CF JUMP JUMPDEST PUSH2 0x858 SWAP2 SWAP1 PUSH2 0x1240 JUMP JUMPDEST SWAP7 POP DUP4 PUSH20 0xFFFFFFFFFFFFFFFFFFFFFFFFFFFFFFFFFFFFFFFF AND PUSH4 0xA9059CBB CALLER DUP10 PUSH1 0x40 MLOAD DUP4 PUSH4 0xFFFFFFFF AND PUSH1 0xE0 SHL DUP2 MSTORE PUSH1 0x4 ADD PUSH2 0x895 SWAP3 SWAP2 SWAP1 PUSH2 0x13B7 JUMP JUMPDEST PUSH1 0x20 PUSH1 0x40 MLOAD DUP1 DUP4 SUB DUP2 PUSH1 0x0 DUP8 GAS CALL ISZERO DUP1 ISZERO PUSH2 0x8B4 JUMPI RETURNDATASIZE PUSH1 0x0 DUP1 RETURNDATACOPY RETURNDATASIZE PUSH1 0x0 REVERT JUMPDEST POP POP POP POP PUSH1 0x40 MLOAD RETURNDATASIZE PUSH1 0x1F NOT PUSH1 0x1F DUP3 ADD AND DUP3 ADD DUP1 PUSH1 0x40 MSTORE POP DUP2 ADD SWAP1 PUSH2 0x8D8 SWAP2 SWAP1 PUSH2 0x1173 JUMP JUMPDEST POP PUSH2 0xA15 PUSH32 0x0 PUSH20 0xFFFFFFFFFFFFFFFFFFFFFFFFFFFFFFFFFFFFFFFF AND PUSH4 0x70A08231 ADDRESS PUSH1 0x40 MLOAD DUP3 PUSH4 0xFFFFFFFF AND PUSH1 0xE0 SHL DUP2 MSTORE PUSH1 0x4 ADD PUSH2 0x935 SWAP2 SWAP1 PUSH2 0x12EE JUMP JUMPDEST PUSH1 0x20 PUSH1 0x40 MLOAD DUP1 DUP4 SUB DUP2 DUP7 GAS STATICCALL ISZERO DUP1 ISZERO PUSH2 0x952 JUMPI RETURNDATASIZE PUSH1 0x0 DUP1 RETURNDATACOPY RETURNDATASIZE PUSH1 0x0 REVERT JUMPDEST POP POP POP POP PUSH1 0x40 MLOAD RETURNDATASIZE PUSH1 0x1F NOT PUSH1 0x1F DUP3 ADD AND DUP3 ADD DUP1 PUSH1 0x40 MSTORE POP DUP2 ADD SWAP1 PUSH2 0x976 SWAP2 SWAP1 PUSH2 0x131E JUMP JUMPDEST PUSH32 0x0 PUSH20 0xFFFFFFFFFFFFFFFFFFFFFFFFFFFFFFFFFFFFFFFF AND PUSH4 0x70A08231 ADDRESS PUSH1 0x40 MLOAD DUP3 PUSH4 0xFFFFFFFF AND PUSH1 0xE0 SHL DUP2 MSTORE PUSH1 0x4 ADD PUSH2 0x9CF SWAP2 SWAP1 PUSH2 0x12EE JUMP JUMPDEST PUSH1 0x20 PUSH1 0x40 MLOAD DUP1 DUP4 SUB DUP2 DUP7 GAS STATICCALL ISZERO DUP1 ISZERO PUSH2 0x9EC JUMPI RETURNDATASIZE PUSH1 0x0 DUP1 RETURNDATACOPY RETURNDATASIZE PUSH1 0x0 REVERT JUMPDEST POP POP POP POP PUSH1 0x40 MLOAD RETURNDATASIZE PUSH1 0x1F NOT PUSH1 0x1F DUP3 ADD AND DUP3 ADD DUP1 PUSH1 0x40 MSTORE POP DUP2 ADD SWAP1 PUSH2 0xA10 SWAP2 SWAP1 PUSH2 0x131E JUMP JUMPDEST PUSH2 0xE30 JUMP JUMPDEST POP POP POP POP POP POP SWAP3 SWAP2 POP POP JUMP JUMPDEST PUSH32 0x0 DUP2 JUMP JUMPDEST PUSH1 0x0 DUP1 PUSH1 0x0 PUSH32 0x0 PUSH20 0xFFFFFFFFFFFFFFFFFFFFFFFFFFFFFFFFFFFFFFFF AND PUSH4 0x70A08231 ADDRESS PUSH1 0x40 MLOAD DUP3 PUSH4 0xFFFFFFFF AND PUSH1 0xE0 SHL DUP2 MSTORE PUSH1 0x4 ADD PUSH2 0xAA3 SWAP2 SWAP1 PUSH2 0x12EE JUMP JUMPDEST PUSH1 0x20 PUSH1 0x40 MLOAD DUP1 DUP4 SUB DUP2 DUP7 GAS STATICCALL ISZERO DUP1 ISZERO PUSH2 0xAC0 JUMPI RETURNDATASIZE PUSH1 0x0 DUP1 RETURNDATACOPY RETURNDATASIZE PUSH1 0x0 REVERT JUMPDEST POP POP POP POP PUSH1 0x40 MLOAD RETURNDATASIZE PUSH1 0x1F NOT PUSH1 0x1F DUP3 ADD AND DUP3 ADD DUP1 PUSH1 0x40 MSTORE POP DUP2 ADD SWAP1 PUSH2 0xAE4 SWAP2 SWAP1 PUSH2 0x131E JUMP JUMPDEST SWAP1 POP PUSH1 0x0 PUSH32 0x0 PUSH20 0xFFFFFFFFFFFFFFFFFFFFFFFFFFFFFFFFFFFFFFFF AND PUSH4 0x70A08231 ADDRESS PUSH1 0x40 MLOAD DUP3 PUSH4 0xFFFFFFFF AND PUSH1 0xE0 SHL DUP2 MSTORE PUSH1 0x4 ADD PUSH2 0xB41 SWAP2 SWAP1 PUSH2 0x12EE JUMP JUMPDEST PUSH1 0x20 PUSH1 0x40 MLOAD DUP1 DUP4 SUB DUP2 DUP7 GAS STATICCALL ISZERO DUP1 ISZERO PUSH2 0xB5E JUMPI RETURNDATASIZE PUSH1 0x0 DUP1 RETURNDATACOPY RETURNDATASIZE PUSH1 0x0 REVERT JUMPDEST POP POP POP POP PUSH1 0x40 MLOAD RETURNDATASIZE PUSH1 0x1F NOT PUSH1 0x1F DUP3 ADD AND DUP3 ADD DUP1 PUSH1 0x40 MSTORE POP DUP2 ADD SWAP1 PUSH2 0xB82 SWAP2 SWAP1 PUSH2 0x131E JUMP JUMPDEST SWAP1 POP PUSH1 0x2 SLOAD DUP3 DUP7 PUSH2 0xB93 SWAP2 SWAP1 PUSH2 0x11CF JUMP JUMPDEST PUSH2 0xB9D SWAP2 SWAP1 PUSH2 0x1240 JUMP JUMPDEST SWAP4 POP PUSH1 0x2 SLOAD DUP2 DUP7 PUSH2 0xBAE SWAP2 SWAP1 PUSH2 0x11CF JUMP JUMPDEST PUSH2 0xBB8 SWAP2 SWAP1 PUSH2 0x1240 JUMP JUMPDEST SWAP3 POP PUSH2 0xBC4 CALLER DUP7 PUSH2 0xE42 JUMP JUMPDEST PUSH2 0xBE4 DUP5 DUP4 PUSH2 0xBD3 SWAP2 SWAP1 PUSH2 0x13E0 JUMP JUMPDEST DUP5 DUP4 PUSH2 0xBDF SWAP2 SWAP1 PUSH2 0x13E0 JUMP JUMPDEST PUSH2 0xE30 JUMP JUMPDEST PUSH32 0x0 PUSH20 0xFFFFFFFFFFFFFFFFFFFFFFFFFFFFFFFFFFFFFFFF AND PUSH4 0xA9059CBB CALLER DUP7 PUSH1 0x40 MLOAD DUP4 PUSH4 0xFFFFFFFF AND PUSH1 0xE0 SHL DUP2 MSTORE PUSH1 0x4 ADD PUSH2 0xC3F SWAP3 SWAP2 SWAP1 PUSH2 0x13B7 JUMP JUMPDEST PUSH1 0x20 PUSH1 0x40 MLOAD DUP1 DUP4 SUB DUP2 PUSH1 0x0 DUP8 GAS CALL ISZERO DUP1 ISZERO PUSH2 0xC5E JUMPI RETURNDATASIZE PUSH1 0x0 DUP1 RETURNDATACOPY RETURNDATASIZE PUSH1 0x0 REVERT JUMPDEST POP POP POP POP PUSH1 0x40 MLOAD RETURNDATASIZE PUSH1 0x1F NOT PUSH1 0x1F DUP3 ADD AND DUP3 ADD DUP1 PUSH1 0x40 MSTORE POP DUP2 ADD SWAP1 PUSH2 0xC82 SWAP2 SWAP1 PUSH2 0x1173 JUMP JUMPDEST POP PUSH32 0x0 PUSH20 0xFFFFFFFFFFFFFFFFFFFFFFFFFFFFFFFFFFFFFFFF AND PUSH4 0xA9059CBB CALLER DUP6 PUSH1 0x40 MLOAD DUP4 PUSH4 0xFFFFFFFF AND PUSH1 0xE0 SHL DUP2 MSTORE PUSH1 0x4 ADD PUSH2 0xCDE SWAP3 SWAP2 SWAP1 PUSH2 0x13B7 JUMP JUMPDEST PUSH1 0x20 PUSH1 0x40 MLOAD DUP1 DUP4 SUB DUP2 PUSH1 0x0 DUP8 GAS CALL ISZERO DUP1 ISZERO PUSH2 0xCFD JUMPI RETURNDATASIZE PUSH1 0x0 DUP1 RETURNDATACOPY RETURNDATASIZE PUSH1 0x0 REVERT JUMPDEST POP POP POP POP PUSH1 0x40 MLOAD RETURNDATASIZE PUSH1 0x1F NOT PUSH1 0x1F DUP3 ADD AND DUP3 ADD DUP1 PUSH1 0x40 MSTORE POP DUP2 ADD SWAP1 PUSH2 0xD21 SWAP2 SWAP1 PUSH2 0x1173 JUMP JUMPDEST POP POP POP SWAP2 POP SWAP2 JUMP JUMPDEST PUSH1 0x0 PUSH1 0x3 DUP3 GT ISZERO PUSH2 0xD90 JUMPI DUP2 SWAP1 POP PUSH1 0x0 PUSH1 0x1 PUSH1 0x2 DUP5 PUSH2 0xD48 SWAP2 SWAP1 PUSH2 0x1240 JUMP JUMPDEST PUSH2 0xD52 SWAP2 SWAP1 PUSH2 0x1414 JUMP JUMPDEST SWAP1 POP JUMPDEST DUP2 DUP2 LT ISZERO PUSH2 0xD8A JUMPI DUP1 SWAP2 POP PUSH1 0x2 DUP2 DUP3 DUP6 PUSH2 0xD6F SWAP2 SWAP1 PUSH2 0x1240 JUMP JUMPDEST PUSH2 0xD79 SWAP2 SWAP1 PUSH2 0x1414 JUMP JUMPDEST PUSH2 0xD83 SWAP2 SWAP1 PUSH2 0x1240 JUMP JUMPDEST SWAP1 POP PUSH2 0xD55 JUMP JUMPDEST POP PUSH2 0xD9E JUMP JUMPDEST PUSH1 0x0 DUP3 EQ PUSH2 0xD9D JUMPI PUSH1 0x1 SWAP1 POP JUMPDEST JUMPDEST SWAP2 SWAP1 POP JUMP JUMPDEST PUSH1 0x0 DUP2 DUP4 GT ISZERO PUSH2 0xDB3 JUMPI DUP2 PUSH2 0xDB5 JUMP JUMPDEST DUP3 JUMPDEST SWAP1 POP SWAP3 SWAP2 POP POP JUMP JUMPDEST DUP1 PUSH1 0x3 PUSH1 0x0 DUP5 PUSH20 0xFFFFFFFFFFFFFFFFFFFFFFFFFFFFFFFFFFFFFFFF AND PUSH20 0xFFFFFFFFFFFFFFFFFFFFFFFFFFFFFFFFFFFFFFFF AND DUP2 MSTORE PUSH1 0x20 ADD SWAP1 DUP2 MSTORE PUSH1 0x20 ADD PUSH1 0x0 KECCAK256 PUSH1 0x0 DUP3 DUP3 SLOAD PUSH2 0xE0C SWAP2 SWAP1 PUSH2 0x1414 JUMP JUMPDEST SWAP3 POP POP DUP2 SWAP1 SSTORE POP DUP1 PUSH1 0x2 PUSH1 0x0 DUP3 DUP3 SLOAD PUSH2 0xE25 SWAP2 SWAP1 PUSH2 0x1414 JUMP JUMPDEST SWAP3 POP POP DUP2 SWAP1 SSTORE POP POP POP JUMP JUMPDEST DUP2 PUSH1 0x0 DUP2 SWAP1 SSTORE POP DUP1 PUSH1 0x1 DUP2 SWAP1 SSTORE POP POP POP JUMP JUMPDEST DUP1 PUSH1 0x3 PUSH1 0x0 DUP5 PUSH20 0xFFFFFFFFFFFFFFFFFFFFFFFFFFFFFFFFFFFFFFFF AND PUSH20 0xFFFFFFFFFFFFFFFFFFFFFFFFFFFFFFFFFFFFFFFF AND DUP2 MSTORE PUSH1 0x20 ADD SWAP1 DUP2 MSTORE PUSH1 0x20 ADD PUSH1 0x0 KECCAK256 PUSH1 0x0 DUP3 DUP3 SLOAD PUSH2 0xE91 SWAP2 SWAP1 PUSH2 0x13E0 JUMP JUMPDEST SWAP3 POP POP DUP2 SWAP1 SSTORE POP DUP1 PUSH1 0x2 PUSH1 0x0 DUP3 DUP3 SLOAD PUSH2 0xEAA SWAP2 SWAP1 PUSH2 0x13E0 JUMP JUMPDEST SWAP3 POP POP DUP2 SWAP1 SSTORE POP POP POP JUMP JUMPDEST PUSH1 0x0 PUSH20 0xFFFFFFFFFFFFFFFFFFFFFFFFFFFFFFFFFFFFFFFF DUP3 AND SWAP1 POP SWAP2 SWAP1 POP JUMP JUMPDEST PUSH1 0x0 DUP2 SWAP1 POP SWAP2 SWAP1 POP JUMP JUMPDEST PUSH1 0x0 PUSH2 0xEFA PUSH2 0xEF5 PUSH2 0xEF0 DUP5 PUSH2 0xEB5 JUMP JUMPDEST PUSH2 0xED5 JUMP JUMPDEST PUSH2 0xEB5 JUMP JUMPDEST SWAP1 POP SWAP2 SWAP1 POP JUMP JUMPDEST PUSH1 0x0 PUSH2 0xF0C DUP3 PUSH2 0xEDF JUMP JUMPDEST SWAP1 POP SWAP2 SWAP1 POP JUMP JUMPDEST PUSH1 0x0 PUSH2 0xF1E DUP3 PUSH2 0xF01 JUMP JUMPDEST SWAP1 POP SWAP2 SWAP1 POP JUMP JUMPDEST PUSH2 0xF2E DUP2 PUSH2 0xF13 JUMP JUMPDEST DUP3 MSTORE POP POP JUMP JUMPDEST PUSH1 0x0 PUSH1 0x20 DUP3 ADD SWAP1 POP PUSH2 0xF49 PUSH1 0x0 DUP4 ADD DUP5 PUSH2 0xF25 JUMP JUMPDEST SWAP3 SWAP2 POP POP JUMP JUMPDEST PUSH1 0x0 DUP2 SWAP1 POP SWAP2 SWAP1 POP JUMP JUMPDEST PUSH2 0xF62 DUP2 PUSH2 0xF4F JUMP JUMPDEST DUP3 MSTORE POP POP JUMP JUMPDEST PUSH1 0x0 PUSH1 0x20 DUP3 ADD SWAP1 POP PUSH2 0xF7D PUSH1 0x0 DUP4 ADD DUP5 PUSH2 0xF59 JUMP JUMPDEST SWAP3 SWAP2 POP POP JUMP JUMPDEST PUSH1 0x0 DUP1 REVERT JUMPDEST PUSH1 0x0 PUSH2 0xF93 DUP3 PUSH2 0xEB5 JUMP JUMPDEST SWAP1 POP SWAP2 SWAP1 POP JUMP JUMPDEST PUSH2 0xFA3 DUP2 PUSH2 0xF88 JUMP JUMPDEST DUP2 EQ PUSH2 0xFAE JUMPI PUSH1 0x0 DUP1 REVERT JUMPDEST POP JUMP JUMPDEST PUSH1 0x0 DUP2 CALLDATALOAD SWAP1 POP PUSH2 0xFC0 DUP2 PUSH2 0xF9A JUMP JUMPDEST SWAP3 SWAP2 POP POP JUMP JUMPDEST PUSH1 0x0 PUSH1 0x20 DUP3 DUP5 SUB SLT ISZERO PUSH2 0xFDC JUMPI PUSH2 0xFDB PUSH2 0xF83 JUMP JUMPDEST JUMPDEST PUSH1 0x0 PUSH2 0xFEA DUP5 DUP3 DUP6 ADD PUSH2 0xFB1 JUMP JUMPDEST SWAP2 POP POP SWAP3 SWAP2 POP POP JUMP JUMPDEST PUSH2 0xFFC DUP2 PUSH2 0xF4F JUMP JUMPDEST DUP2 EQ PUSH2 0x1007 JUMPI PUSH1 0x0 DUP1 REVERT JUMPDEST POP JUMP JUMPDEST PUSH1 0x0 DUP2 CALLDATALOAD SWAP1 POP PUSH2 0x1019 DUP2 PUSH2 0xFF3 JUMP JUMPDEST SWAP3 SWAP2 POP POP JUMP JUMPDEST PUSH1 0x0 DUP1 PUSH1 0x40 DUP4 DUP6 SUB SLT ISZERO PUSH2 0x1036 JUMPI PUSH2 0x1035 PUSH2 0xF83 JUMP JUMPDEST JUMPDEST PUSH1 0x0 PUSH2 0x1044 DUP6 DUP3 DUP7 ADD PUSH2 0x100A JUMP JUMPDEST SWAP3 POP POP PUSH1 0x20 PUSH2 0x1055 DUP6 DUP3 DUP7 ADD PUSH2 0x100A JUMP JUMPDEST SWAP2 POP POP SWAP3 POP SWAP3 SWAP1 POP JUMP JUMPDEST PUSH1 0x0 DUP1 PUSH1 0x40 DUP4 DUP6 SUB SLT ISZERO PUSH2 0x1076 JUMPI PUSH2 0x1075 PUSH2 0xF83 JUMP JUMPDEST JUMPDEST PUSH1 0x0 PUSH2 0x1084 DUP6 DUP3 DUP7 ADD PUSH2 0xFB1 JUMP JUMPDEST SWAP3 POP POP PUSH1 0x20 PUSH2 0x1095 DUP6 DUP3 DUP7 ADD PUSH2 0x100A JUMP JUMPDEST SWAP2 POP POP SWAP3 POP SWAP3 SWAP1 POP JUMP JUMPDEST PUSH1 0x0 PUSH1 0x20 DUP3 DUP5 SUB SLT ISZERO PUSH2 0x10B5 JUMPI PUSH2 0x10B4 PUSH2 0xF83 JUMP JUMPDEST JUMPDEST PUSH1 0x0 PUSH2 0x10C3 DUP5 DUP3 DUP6 ADD PUSH2 0x100A JUMP JUMPDEST SWAP2 POP POP SWAP3 SWAP2 POP POP JUMP JUMPDEST PUSH1 0x0 PUSH1 0x40 DUP3 ADD SWAP1 POP PUSH2 0x10E1 PUSH1 0x0 DUP4 ADD DUP6 PUSH2 0xF59 JUMP JUMPDEST PUSH2 0x10EE PUSH1 0x20 DUP4 ADD DUP5 PUSH2 0xF59 JUMP JUMPDEST SWAP4 SWAP3 POP POP POP JUMP JUMPDEST PUSH2 0x10FE DUP2 PUSH2 0xF88 JUMP JUMPDEST DUP3 MSTORE POP POP JUMP JUMPDEST PUSH1 0x0 PUSH1 0x60 DUP3 ADD SWAP1 POP PUSH2 0x1119 PUSH1 0x0 DUP4 ADD DUP7 PUSH2 0x10F5 JUMP JUMPDEST PUSH2 0x1126 PUSH1 0x20 DUP4 ADD DUP6 PUSH2 0x10F5 JUMP JUMPDEST PUSH2 0x1133 PUSH1 0x40 DUP4 ADD DUP5 PUSH2 0xF59 JUMP JUMPDEST SWAP5 SWAP4 POP POP POP POP JUMP JUMPDEST PUSH1 0x0 DUP2 ISZERO ISZERO SWAP1 POP SWAP2 SWAP1 POP JUMP JUMPDEST PUSH2 0x1150 DUP2 PUSH2 0x113B JUMP JUMPDEST DUP2 EQ PUSH2 0x115B JUMPI PUSH1 0x0 DUP1 REVERT JUMPDEST POP JUMP JUMPDEST PUSH1 0x0 DUP2 MLOAD SWAP1 POP PUSH2 0x116D DUP2 PUSH2 0x1147 JUMP JUMPDEST SWAP3 SWAP2 POP POP JUMP JUMPDEST PUSH1 0x0 PUSH1 0x20 DUP3 DUP5 SUB SLT ISZERO PUSH2 0x1189 JUMPI PUSH2 0x1188 PUSH2 0xF83 JUMP JUMPDEST JUMPDEST PUSH1 0x0 PUSH2 0x1197 DUP5 DUP3 DUP6 ADD PUSH2 0x115E JUMP JUMPDEST SWAP2 POP POP SWAP3 SWAP2 POP POP JUMP JUMPDEST PUSH32 0x4E487B7100000000000000000000000000000000000000000000000000000000 PUSH1 0x0 MSTORE PUSH1 0x11 PUSH1 0x4 MSTORE PUSH1 0x24 PUSH1 0x0 REVERT JUMPDEST PUSH1 0x0 PUSH2 0x11DA DUP3 PUSH2 0xF4F JUMP JUMPDEST SWAP2 POP PUSH2 0x11E5 DUP4 PUSH2 0xF4F JUMP JUMPDEST SWAP3 POP DUP3 DUP3 MUL PUSH2 0x11F3 DUP2 PUSH2 0xF4F JUMP JUMPDEST SWAP2 POP DUP3 DUP3 DIV DUP5 EQ DUP4 ISZERO OR PUSH2 0x120A JUMPI PUSH2 0x1209 PUSH2 0x11A0 JUMP JUMPDEST JUMPDEST POP SWAP3 SWAP2 POP POP JUMP JUMPDEST PUSH32 0x4E487B7100000000000000000000000000000000000000000000000000000000 PUSH1 0x0 MSTORE PUSH1 0x12 PUSH1 0x4 MSTORE PUSH1 0x24 PUSH1 0x0 REVERT JUMPDEST PUSH1 0x0 PUSH2 0x124B DUP3 PUSH2 0xF4F JUMP JUMPDEST SWAP2 POP PUSH2 0x1256 DUP4 PUSH2 0xF4F JUMP JUMPDEST SWAP3 POP DUP3 PUSH2 0x1266 JUMPI PUSH2 0x1265 PUSH2 0x1211 JUMP JUMPDEST JUMPDEST DUP3 DUP3 DIV SWAP1 POP SWAP3 SWAP2 POP POP JUMP JUMPDEST PUSH1 0x0 DUP3 DUP3 MSTORE PUSH1 0x20 DUP3 ADD SWAP1 POP SWAP3 SWAP2 POP POP JUMP JUMPDEST PUSH32 0x736861726573203D203000000000000000000000000000000000000000000000 PUSH1 0x0 DUP3 ADD MSTORE POP JUMP JUMPDEST PUSH1 0x0 PUSH2 0x12B8 PUSH1 0xA DUP4 PUSH2 0x1271 JUMP JUMPDEST SWAP2 POP PUSH2 0x12C3 DUP3 PUSH2 0x1282 JUMP JUMPDEST PUSH1 0x20 DUP3 ADD SWAP1 POP SWAP2 SWAP1 POP JUMP JUMPDEST PUSH1 0x0 PUSH1 0x20 DUP3 ADD SWAP1 POP DUP2 DUP2 SUB PUSH1 0x0 DUP4 ADD MSTORE PUSH2 0x12E7 DUP2 PUSH2 0x12AB JUMP JUMPDEST SWAP1 POP SWAP2 SWAP1 POP JUMP JUMPDEST PUSH1 0x0 PUSH1 0x20 DUP3 ADD SWAP1 POP PUSH2 0x1303 PUSH1 0x0 DUP4 ADD DUP5 PUSH2 0x10F5 JUMP JUMPDEST SWAP3 SWAP2 POP POP JUMP JUMPDEST PUSH1 0x0 DUP2 MLOAD SWAP1 POP PUSH2 0x1318 DUP2 PUSH2 0xFF3 JUMP JUMPDEST SWAP3 SWAP2 POP POP JUMP JUMPDEST PUSH1 0x0 PUSH1 0x20 DUP3 DUP5 SUB SLT ISZERO PUSH2 0x1334 JUMPI PUSH2 0x1333 PUSH2 0xF83 JUMP JUMPDEST JUMPDEST PUSH1 0x0 PUSH2 0x1342 DUP5 DUP3 DUP6 ADD PUSH2 0x1309 JUMP JUMPDEST SWAP2 POP POP SWAP3 SWAP2 POP POP JUMP JUMPDEST PUSH32 0x496E76616C696420746F6B656E00000000000000000000000000000000000000 PUSH1 0x0 DUP3 ADD MSTORE POP JUMP JUMPDEST PUSH1 0x0 PUSH2 0x1381 PUSH1 0xD DUP4 PUSH2 0x1271 JUMP JUMPDEST SWAP2 POP PUSH2 0x138C DUP3 PUSH2 0x134B JUMP JUMPDEST PUSH1 0x20 DUP3 ADD SWAP1 POP SWAP2 SWAP1 POP JUMP JUMPDEST PUSH1 0x0 PUSH1 0x20 DUP3 ADD SWAP1 POP DUP2 DUP2 SUB PUSH1 0x0 DUP4 ADD MSTORE PUSH2 0x13B0 DUP2 PUSH2 0x1374 JUMP JUMPDEST SWAP1 POP SWAP2 SWAP1 POP JUMP JUMPDEST PUSH1 0x0 PUSH1 0x40 DUP3 ADD SWAP1 POP PUSH2 0x13CC PUSH1 0x0 DUP4 ADD DUP6 PUSH2 0x10F5 JUMP JUMPDEST PUSH2 0x13D9 PUSH1 0x20 DUP4 ADD DUP5 PUSH2 0xF59 JUMP JUMPDEST SWAP4 SWAP3 POP POP POP JUMP JUMPDEST PUSH1 0x0 PUSH2 0x13EB DUP3 PUSH2 0xF4F JUMP JUMPDEST SWAP2 POP PUSH2 0x13F6 DUP4 PUSH2 0xF4F JUMP JUMPDEST SWAP3 POP DUP3 DUP3 SUB SWAP1 POP DUP2 DUP2 GT ISZERO PUSH2 0x140E JUMPI PUSH2 0x140D PUSH2 0x11A0 JUMP JUMPDEST JUMPDEST SWAP3 SWAP2 POP POP JUMP JUMPDEST PUSH1 0x0 PUSH2 0x141F DUP3 PUSH2 0xF4F JUMP JUMPDEST SWAP2 POP PUSH2 0x142A DUP4 PUSH2 0xF4F JUMP JUMPDEST SWAP3 POP DUP3 DUP3 ADD SWAP1 POP DUP1 DUP3 GT ISZERO PUSH2 0x1442 JUMPI PUSH2 0x1441 PUSH2 0x11A0 JUMP JUMPDEST JUMPDEST SWAP3 SWAP2 POP POP JUMP INVALID LOG2 PUSH5 0x6970667358 0x22 SLT KECCAK256 0x2C PUSH25 0x68C8F4080C951AFDEF469DA55089FC73A1EA4CA34B81C9B83 TIMESTAMP 0x23 0xEF AND 0x2E PUSH5 0x736F6C6343 STOP ADDMOD SGT STOP CALLER "
				},
				"gasEstimates": {
					"creation": {
						"codeDepositCost": "1049200",
						"executionCost": "infinite",
						"totalCost": "infinite"
					},
					"external": {
						"addLiquidity(uint256,uint256)": "infinite",
						"balanceOf(address)": "2814",
						"removeLiquity(uint256)": "infinite",
						"reserve0()": "2474",
						"reserve1()": "2496",
						"swap(address,uint256)": "infinite",
						"token0()": "infinite",
						"token1()": "infinite",
						"totalSupply()": "2452"
					},
					"internal": {
						"_burn(address,uint256)": "infinite",
						"_min(uint256,uint256)": "67",
						"_mint(address,uint256)": "infinite",
						"_sqrt(uint256)": "infinite",
						"_update(uint256,uint256)": "44241"
					}
				},
				"methodIdentifiers": {
					"addLiquidity(uint256,uint256)": "9cd441da",
					"balanceOf(address)": "70a08231",
					"removeLiquity(uint256)": "ff72258b",
					"reserve0()": "443cb4bc",
					"reserve1()": "5a76f25e",
					"swap(address,uint256)": "d004f0f7",
					"token0()": "0dfe1681",
					"token1()": "d21220a7",
					"totalSupply()": "18160ddd"
				}
			},
			"storageLayout": {
				"storage": [
					{
						"astId": 10,
						"contract": "CPAMM.sol:CPAMM",
						"label": "reserve0",
						"offset": 0,
						"slot": "0",
						"type": "t_uint256"
					},
					{
						"astId": 12,
						"contract": "CPAMM.sol:CPAMM",
						"label": "reserve1",
						"offset": 0,
						"slot": "1",
						"type": "t_uint256"
					},
					{
						"astId": 14,
						"contract": "CPAMM.sol:CPAMM",
						"label": "totalSupply",
						"offset": 0,
						"slot": "2",
						"type": "t_uint256"
					},
					{
						"astId": 18,
						"contract": "CPAMM.sol:CPAMM",
						"label": "balanceOf",
						"offset": 0,
						"slot": "3",
						"type": "t_mapping(t_address,t_uint256)"
					}
				],
				"types": {
					"t_address": {
						"encoding": "inplace",
						"label": "address",
						"numberOfBytes": "20"
					},
					"t_mapping(t_address,t_uint256)": {
						"encoding": "mapping",
						"key": "t_address",
						"label": "mapping(address => uint256)",
						"numberOfBytes": "32",
						"value": "t_uint256"
					},
					"t_uint256": {
						"encoding": "inplace",
						"label": "uint256",
						"numberOfBytes": "32"
					}
				}
			},
			"userdoc": {
				"kind": "user",
				"methods": {},
				"version": 1
			}
		}
	}
}