{
	"Exchange1.sol": {
		"Exchange": {
			"abi": [
				{
					"inputs": [
						{
							"internalType": "address",
							"name": "_tokenAddress",
							"type": "address"
						}
					],
					"stateMutability": "nonpayable",
					"type": "constructor"
				},
				{
					"anonymous": false,
					"inputs": [
						{
							"indexed": true,
							"internalType": "address",
							"name": "owner",
							"type": "address"
						},
						{
							"indexed": true,
							"internalType": "address",
							"name": "spender",
							"type": "address"
						},
						{
							"indexed": false,
							"internalType": "uint256",
							"name": "value",
							"type": "uint256"
						}
					],
					"name": "Approval",
					"type": "event"
				},
				{
					"anonymous": false,
					"inputs": [
						{
							"indexed": false,
							"internalType": "uint256",
							"name": "amountERC20TokenDeposited",
							"type": "uint256"
						},
						{
							"indexed": false,
							"internalType": "uint256",
							"name": "amountEthDeposited",
							"type": "uint256"
						},
						{
							"indexed": false,
							"internalType": "uint256",
							"name": "liquidityPositionsIssued",
							"type": "uint256"
						}
					],
					"name": "LiquidityProvided",
					"type": "event"
				},
				{
					"anonymous": false,
					"inputs": [
						{
							"indexed": false,
							"internalType": "uint256",
							"name": "amountERC20TokenWithdrew",
							"type": "uint256"
						},
						{
							"indexed": false,
							"internalType": "uint256",
							"name": "amountEthWithdrew",
							"type": "uint256"
						},
						{
							"indexed": false,
							"internalType": "uint256",
							"name": "liquidityPositionsBurned",
							"type": "uint256"
						}
					],
					"name": "LiquidityWithdrew",
					"type": "event"
				},
				{
					"anonymous": false,
					"inputs": [
						{
							"indexed": false,
							"internalType": "uint256",
							"name": "amountERC20TokenWithdrew",
							"type": "uint256"
						},
						{
							"indexed": false,
							"internalType": "uint256",
							"name": "amountEthDeposited",
							"type": "uint256"
						}
					],
					"name": "SwapForERC20Token",
					"type": "event"
				},
				{
					"anonymous": false,
					"inputs": [
						{
							"indexed": false,
							"internalType": "uint256",
							"name": "amountERC20TokenDeposited",
							"type": "uint256"
						},
						{
							"indexed": false,
							"internalType": "uint256",
							"name": "amountEthWithdrew",
							"type": "uint256"
						}
					],
					"name": "SwapForEth",
					"type": "event"
				},
				{
					"anonymous": false,
					"inputs": [
						{
							"indexed": true,
							"internalType": "address",
							"name": "from",
							"type": "address"
						},
						{
							"indexed": true,
							"internalType": "address",
							"name": "to",
							"type": "address"
						},
						{
							"indexed": false,
							"internalType": "uint256",
							"name": "value",
							"type": "uint256"
						}
					],
					"name": "Transfer",
					"type": "event"
				},
				{
					"inputs": [
						{
							"internalType": "address",
							"name": "owner",
							"type": "address"
						},
						{
							"internalType": "address",
							"name": "spender",
							"type": "address"
						}
					],
					"name": "allowance",
					"outputs": [
						{
							"internalType": "uint256",
							"name": "",
							"type": "uint256"
						}
					],
					"stateMutability": "view",
					"type": "function"
				},
				{
					"inputs": [
						{
							"internalType": "address",
							"name": "spender",
							"type": "address"
						},
						{
							"internalType": "uint256",
							"name": "amount",
							"type": "uint256"
						}
					],
					"name": "approve",
					"outputs": [
						{
							"internalType": "bool",
							"name": "",
							"type": "bool"
						}
					],
					"stateMutability": "nonpayable",
					"type": "function"
				},
				{
					"inputs": [
						{
							"internalType": "address",
							"name": "account",
							"type": "address"
						}
					],
					"name": "balanceOf",
					"outputs": [
						{
							"internalType": "uint256",
							"name": "",
							"type": "uint256"
						}
					],
					"stateMutability": "view",
					"type": "function"
				},
				{
					"inputs": [],
					"name": "decimals",
					"outputs": [
						{
							"internalType": "uint8",
							"name": "",
							"type": "uint8"
						}
					],
					"stateMutability": "view",
					"type": "function"
				},
				{
					"inputs": [
						{
							"internalType": "address",
							"name": "spender",
							"type": "address"
						},
						{
							"internalType": "uint256",
							"name": "subtractedValue",
							"type": "uint256"
						}
					],
					"name": "decreaseAllowance",
					"outputs": [
						{
							"internalType": "bool",
							"name": "",
							"type": "bool"
						}
					],
					"stateMutability": "nonpayable",
					"type": "function"
				},
				{
					"inputs": [
						{
							"internalType": "uint256",
							"name": "_amountEth",
							"type": "uint256"
						}
					],
					"name": "estimateERC20TokenToProvide",
					"outputs": [
						{
							"internalType": "uint256",
							"name": "",
							"type": "uint256"
						}
					],
					"stateMutability": "view",
					"type": "function"
				},
				{
					"inputs": [
						{
							"internalType": "uint256",
							"name": "_amountERC20Token",
							"type": "uint256"
						}
					],
					"name": "estimateEthToProvide",
					"outputs": [
						{
							"internalType": "uint256",
							"name": "",
							"type": "uint256"
						}
					],
					"stateMutability": "view",
					"type": "function"
				},
				{
					"inputs": [
						{
							"internalType": "uint256",
							"name": "_amountEth",
							"type": "uint256"
						}
					],
					"name": "estimateSwapForERC20Token",
					"outputs": [
						{
							"internalType": "uint256",
							"name": "tokenOut",
							"type": "uint256"
						}
					],
					"stateMutability": "view",
					"type": "function"
				},
				{
					"inputs": [
						{
							"internalType": "uint256",
							"name": "_amountERC20Token",
							"type": "uint256"
						}
					],
					"name": "estimateSwapForEth",
					"outputs": [
						{
							"internalType": "uint256",
							"name": "ethOut",
							"type": "uint256"
						}
					],
					"stateMutability": "view",
					"type": "function"
				},
				{
					"inputs": [],
					"name": "getMyLiquidityPositions",
					"outputs": [
						{
							"internalType": "uint256",
							"name": "",
							"type": "uint256"
						}
					],
					"stateMutability": "view",
					"type": "function"
				},
				{
					"inputs": [
						{
							"internalType": "address",
							"name": "spender",
							"type": "address"
						},
						{
							"internalType": "uint256",
							"name": "addedValue",
							"type": "uint256"
						}
					],
					"name": "increaseAllowance",
					"outputs": [
						{
							"internalType": "bool",
							"name": "",
							"type": "bool"
						}
					],
					"stateMutability": "nonpayable",
					"type": "function"
				},
				{
					"inputs": [],
					"name": "k",
					"outputs": [
						{
							"internalType": "uint256",
							"name": "",
							"type": "uint256"
						}
					],
					"stateMutability": "view",
					"type": "function"
				},
				{
					"inputs": [],
					"name": "name",
					"outputs": [
						{
							"internalType": "string",
							"name": "",
							"type": "string"
						}
					],
					"stateMutability": "view",
					"type": "function"
				},
				{
					"inputs": [
						{
							"internalType": "uint256",
							"name": "_amountERC20Token",
							"type": "uint256"
						}
					],
					"name": "provideLiquidity",
					"outputs": [
						{
							"internalType": "uint256",
							"name": "lpIssued",
							"type": "uint256"
						}
					],
					"stateMutability": "payable",
					"type": "function"
				},
				{
					"inputs": [],
					"name": "swapForERC20Token",
					"outputs": [
						{
							"internalType": "uint256",
							"name": "tokenOut",
							"type": "uint256"
						}
					],
					"stateMutability": "payable",
					"type": "function"
				},
				{
					"inputs": [
						{
							"internalType": "uint256",
							"name": "_amountERC20Token",
							"type": "uint256"
						}
					],
					"name": "swapForEth",
					"outputs": [
						{
							"internalType": "uint256",
							"name": "ethOut",
							"type": "uint256"
						}
					],
					"stateMutability": "nonpayable",
					"type": "function"
				},
				{
					"inputs": [],
					"name": "symbol",
					"outputs": [
						{
							"internalType": "string",
							"name": "",
							"type": "string"
						}
					],
					"stateMutability": "view",
					"type": "function"
				},
				{
					"inputs": [],
					"name": "token",
					"outputs": [
						{
							"internalType": "contract ERC20",
							"name": "",
							"type": "address"
						}
					],
					"stateMutability": "view",
					"type": "function"
				},
				{
					"inputs": [],
					"name": "totalSupply",
					"outputs": [
						{
							"internalType": "uint256",
							"name": "",
							"type": "uint256"
						}
					],
					"stateMutability": "view",
					"type": "function"
				},
				{
					"inputs": [
						{
							"internalType": "address",
							"name": "to",
							"type": "address"
						},
						{
							"internalType": "uint256",
							"name": "amount",
							"type": "uint256"
						}
					],
					"name": "transfer",
					"outputs": [
						{
							"internalType": "bool",
							"name": "",
							"type": "bool"
						}
					],
					"stateMutability": "nonpayable",
					"type": "function"
				},
				{
					"inputs": [
						{
							"internalType": "address",
							"name": "from",
							"type": "address"
						},
						{
							"internalType": "address",
							"name": "to",
							"type": "address"
						},
						{
							"internalType": "uint256",
							"name": "amount",
							"type": "uint256"
						}
					],
					"name": "transferFrom",
					"outputs": [
						{
							"internalType": "bool",
							"name": "",
							"type": "bool"
						}
					],
					"stateMutability": "nonpayable",
					"type": "function"
				},
				{
					"inputs": [
						{
							"internalType": "uint256",
							"name": "_lpToBurn",
							"type": "uint256"
						}
					],
					"name": "withdrawLiquidity",
					"outputs": [
						{
							"internalType": "uint256",
							"name": "amountERC20",
							"type": "uint256"
						},
						{
							"internalType": "uint256",
							"name": "amountEth",
							"type": "uint256"
						}
					],
					"stateMutability": "nonpayable",
					"type": "function"
				}
			],
			"devdoc": {
				"events": {
					"Approval(address,address,uint256)": {
						"details": "Emitted when the allowance of a `spender` for an `owner` is set by a call to {approve}. `value` is the new allowance."
					},
					"Transfer(address,address,uint256)": {
						"details": "Emitted when `value` tokens are moved from one account (`from`) to another (`to`). Note that `value` may be zero."
					}
				},
				"kind": "dev",
				"methods": {
					"allowance(address,address)": {
						"details": "See {IERC20-allowance}."
					},
					"approve(address,uint256)": {
						"details": "See {IERC20-approve}. NOTE: If `amount` is the maximum `uint256`, the allowance is not updated on `transferFrom`. This is semantically equivalent to an infinite approval. Requirements: - `spender` cannot be the zero address."
					},
					"balanceOf(address)": {
						"details": "See {IERC20-balanceOf}."
					},
					"decimals()": {
						"details": "Returns the number of decimals used to get its user representation. For example, if `decimals` equals `2`, a balance of `505` tokens should be displayed to a user as `5.05` (`505 / 10 ** 2`). Tokens usually opt for a value of 18, imitating the relationship between Ether and Wei. This is the default value returned by this function, unless it's overridden. NOTE: This information is only used for _display_ purposes: it in no way affects any of the arithmetic of the contract, including {IERC20-balanceOf} and {IERC20-transfer}."
					},
					"decreaseAllowance(address,uint256)": {
						"details": "Atomically decreases the allowance granted to `spender` by the caller. This is an alternative to {approve} that can be used as a mitigation for problems described in {IERC20-approve}. Emits an {Approval} event indicating the updated allowance. Requirements: - `spender` cannot be the zero address. - `spender` must have allowance for the caller of at least `subtractedValue`."
					},
					"increaseAllowance(address,uint256)": {
						"details": "Atomically increases the allowance granted to `spender` by the caller. This is an alternative to {approve} that can be used as a mitigation for problems described in {IERC20-approve}. Emits an {Approval} event indicating the updated allowance. Requirements: - `spender` cannot be the zero address."
					},
					"name()": {
						"details": "Returns the name of the token."
					},
					"symbol()": {
						"details": "Returns the symbol of the token, usually a shorter version of the name."
					},
					"totalSupply()": {
						"details": "See {IERC20-totalSupply}."
					},
					"transfer(address,uint256)": {
						"details": "See {IERC20-transfer}. Requirements: - `to` cannot be the zero address. - the caller must have a balance of at least `amount`."
					},
					"transferFrom(address,address,uint256)": {
						"details": "See {IERC20-transferFrom}. Emits an {Approval} event indicating the updated allowance. This is not required by the EIP. See the note at the beginning of {ERC20}. NOTE: Does not update the allowance if the current allowance is the maximum `uint256`. Requirements: - `from` and `to` cannot be the zero address. - `from` must have a balance of at least `amount`. - the caller must have allowance for ``from``'s tokens of at least `amount`."
					}
				},
				"version": 1
			},
			"evm": {
				"assembly": "    /* \"Exchange1.sol\":137:8028  contract Exchange is ERC20 {... */\n  mstore(0x40, 0x80)\n    /* \"Exchange1.sol\":800:911  constructor(address _tokenAddress) ERC20(\"LiquidityToken\", \"LQT\") {... */\n  callvalue\n  dup1\n  iszero\n  tag_1\n  jumpi\n  0x00\n  dup1\n  revert\ntag_1:\n  pop\n  mload(0x40)\n  sub(codesize, bytecodeSize)\n  dup1\n  bytecodeSize\n  dup4\n  codecopy\n  dup2\n  dup2\n  add\n  0x40\n  mstore\n  dup2\n  add\n  swap1\n  tag_2\n  swap2\n  swap1\n  tag_3\n  jump\t// in\ntag_2:\n    /* \"@openzeppelin/contracts@4.9.3/token/ERC20/ERC20.sol\":1980:2093  constructor(string memory name_, string memory symbol_) {... */\n  mload(0x40)\n  dup1\n  0x40\n  add\n  0x40\n  mstore\n  dup1\n  0x0e\n  dup2\n  mstore\n  0x20\n  add\n  0x4c6971756964697479546f6b656e000000000000000000000000000000000000\n  dup2\n  mstore\n  pop\n  mload(0x40)\n  dup1\n  0x40\n  add\n  0x40\n  mstore\n  dup1\n  0x03\n  dup2\n  mstore\n  0x20\n  add\n  0x4c51540000000000000000000000000000000000000000000000000000000000\n  dup2\n  mstore\n  pop\n    /* \"@openzeppelin/contracts@4.9.3/token/ERC20/ERC20.sol\":2054:2059  name_ */\n  dup2\n    /* \"@openzeppelin/contracts@4.9.3/token/ERC20/ERC20.sol\":2046:2051  _name */\n  0x03\n    /* \"@openzeppelin/contracts@4.9.3/token/ERC20/ERC20.sol\":2046:2059  _name = name_ */\n  swap1\n  dup2\n  tag_7\n  swap2\n  swap1\n  tag_8\n  jump\t// in\ntag_7:\n  pop\n    /* \"@openzeppelin/contracts@4.9.3/token/ERC20/ERC20.sol\":2079:2086  symbol_ */\n  dup1\n    /* \"@openzeppelin/contracts@4.9.3/token/ERC20/ERC20.sol\":2069:2076  _symbol */\n  0x04\n    /* \"@openzeppelin/contracts@4.9.3/token/ERC20/ERC20.sol\":2069:2086  _symbol = symbol_ */\n  swap1\n  dup2\n  tag_9\n  swap2\n  swap1\n  tag_8\n  jump\t// in\ntag_9:\n  pop\n    /* \"@openzeppelin/contracts@4.9.3/token/ERC20/ERC20.sol\":1980:2093  constructor(string memory name_, string memory symbol_) {... */\n  pop\n  pop\n    /* \"Exchange1.sol\":890:903  _tokenAddress */\n  dup1\n    /* \"Exchange1.sol\":876:881  token */\n  0x05\n  0x00\n    /* \"Exchange1.sol\":876:904  token = ERC20(_tokenAddress) */\n  0x0100\n  exp\n  dup2\n  sload\n  dup2\n  0xffffffffffffffffffffffffffffffffffffffff\n  mul\n  not\n  and\n  swap1\n  dup4\n  0xffffffffffffffffffffffffffffffffffffffff\n  and\n  mul\n  or\n  swap1\n  sstore\n  pop\n    /* \"Exchange1.sol\":800:911  constructor(address _tokenAddress) ERC20(\"LiquidityToken\", \"LQT\") {... */\n  pop\n    /* \"Exchange1.sol\":137:8028  contract Exchange is ERC20 {... */\n  jump(tag_11)\n    /* \"#utility.yul\":88:205   */\ntag_13:\n    /* \"#utility.yul\":197:198   */\n  0x00\n    /* \"#utility.yul\":194:195   */\n  dup1\n    /* \"#utility.yul\":187:199   */\n  revert\n    /* \"#utility.yul\":334:460   */\ntag_15:\n    /* \"#utility.yul\":371:378   */\n  0x00\n    /* \"#utility.yul\":411:453   */\n  0xffffffffffffffffffffffffffffffffffffffff\n    /* \"#utility.yul\":404:409   */\n  dup3\n    /* \"#utility.yul\":400:454   */\n  and\n    /* \"#utility.yul\":389:454   */\n  swap1\n  pop\n    /* \"#utility.yul\":334:460   */\n  swap2\n  swap1\n  pop\n  jump\t// out\n    /* \"#utility.yul\":466:562   */\ntag_16:\n    /* \"#utility.yul\":503:510   */\n  0x00\n    /* \"#utility.yul\":532:556   */\n  tag_45\n    /* \"#utility.yul\":550:555   */\n  dup3\n    /* \"#utility.yul\":532:556   */\n  tag_15\n  jump\t// in\ntag_45:\n    /* \"#utility.yul\":521:556   */\n  swap1\n  pop\n    /* \"#utility.yul\":466:562   */\n  swap2\n  swap1\n  pop\n  jump\t// out\n    /* \"#utility.yul\":568:690   */\ntag_17:\n    /* \"#utility.yul\":641:665   */\n  tag_47\n    /* \"#utility.yul\":659:664   */\n  dup2\n    /* \"#utility.yul\":641:665   */\n  tag_16\n  jump\t// in\ntag_47:\n    /* \"#utility.yul\":634:639   */\n  dup2\n    /* \"#utility.yul\":631:666   */\n  eq\n    /* \"#utility.yul\":621:684   */\n  tag_48\n  jumpi\n    /* \"#utility.yul\":680:681   */\n  0x00\n    /* \"#utility.yul\":677:678   */\n  dup1\n    /* \"#utility.yul\":670:682   */\n  revert\n    /* \"#utility.yul\":621:684   */\ntag_48:\n    /* \"#utility.yul\":568:690   */\n  pop\n  jump\t// out\n    /* \"#utility.yul\":696:839   */\ntag_18:\n    /* \"#utility.yul\":753:758   */\n  0x00\n    /* \"#utility.yul\":784:790   */\n  dup2\n    /* \"#utility.yul\":778:791   */\n  mload\n    /* \"#utility.yul\":769:791   */\n  swap1\n  pop\n    /* \"#utility.yul\":800:833   */\n  tag_50\n    /* \"#utility.yul\":827:832   */\n  dup2\n    /* \"#utility.yul\":800:833   */\n  tag_17\n  jump\t// in\ntag_50:\n    /* \"#utility.yul\":696:839   */\n  swap3\n  swap2\n  pop\n  pop\n  jump\t// out\n    /* \"#utility.yul\":845:1196   */\ntag_3:\n    /* \"#utility.yul\":915:921   */\n  0x00\n    /* \"#utility.yul\":964:966   */\n  0x20\n    /* \"#utility.yul\":952:961   */\n  dup3\n    /* \"#utility.yul\":943:950   */\n  dup5\n    /* \"#utility.yul\":939:962   */\n  sub\n    /* \"#utility.yul\":935:967   */\n  slt\n    /* \"#utility.yul\":932:1051   */\n  iszero\n  tag_52\n  jumpi\n    /* \"#utility.yul\":970:1049   */\n  tag_53\n  tag_13\n  jump\t// in\ntag_53:\n    /* \"#utility.yul\":932:1051   */\ntag_52:\n    /* \"#utility.yul\":1090:1091   */\n  0x00\n    /* \"#utility.yul\":1115:1179   */\n  tag_54\n    /* \"#utility.yul\":1171:1178   */\n  dup5\n    /* \"#utility.yul\":1162:1168   */\n  dup3\n    /* \"#utility.yul\":1151:1160   */\n  dup6\n    /* \"#utility.yul\":1147:1169   */\n  add\n    /* \"#utility.yul\":1115:1179   */\n  tag_18\n  jump\t// in\ntag_54:\n    /* \"#utility.yul\":1105:1179   */\n  swap2\n  pop\n    /* \"#utility.yul\":1061:1189   */\n  pop\n    /* \"#utility.yul\":845:1196   */\n  swap3\n  swap2\n  pop\n  pop\n  jump\t// out\n    /* \"#utility.yul\":1202:1301   */\ntag_19:\n    /* \"#utility.yul\":1254:1260   */\n  0x00\n    /* \"#utility.yul\":1288:1293   */\n  dup2\n    /* \"#utility.yul\":1282:1294   */\n  mload\n    /* \"#utility.yul\":1272:1294   */\n  swap1\n  pop\n    /* \"#utility.yul\":1202:1301   */\n  swap2\n  swap1\n  pop\n  jump\t// out\n    /* \"#utility.yul\":1307:1487   */\ntag_20:\n    /* \"#utility.yul\":1355:1432   */\n  0x4e487b7100000000000000000000000000000000000000000000000000000000\n    /* \"#utility.yul\":1352:1353   */\n  0x00\n    /* \"#utility.yul\":1345:1433   */\n  mstore\n    /* \"#utility.yul\":1452:1456   */\n  0x41\n    /* \"#utility.yul\":1449:1450   */\n  0x04\n    /* \"#utility.yul\":1442:1457   */\n  mstore\n    /* \"#utility.yul\":1476:1480   */\n  0x24\n    /* \"#utility.yul\":1473:1474   */\n  0x00\n    /* \"#utility.yul\":1466:1481   */\n  revert\n    /* \"#utility.yul\":1493:1673   */\ntag_21:\n    /* \"#utility.yul\":1541:1618   */\n  0x4e487b7100000000000000000000000000000000000000000000000000000000\n    /* \"#utility.yul\":1538:1539   */\n  0x00\n    /* \"#utility.yul\":1531:1619   */\n  mstore\n    /* \"#utility.yul\":1638:1642   */\n  0x22\n    /* \"#utility.yul\":1635:1636   */\n  0x04\n    /* \"#utility.yul\":1628:1643   */\n  mstore\n    /* \"#utility.yul\":1662:1666   */\n  0x24\n    /* \"#utility.yul\":1659:1660   */\n  0x00\n    /* \"#utility.yul\":1652:1667   */\n  revert\n    /* \"#utility.yul\":1679:1999   */\ntag_22:\n    /* \"#utility.yul\":1723:1729   */\n  0x00\n    /* \"#utility.yul\":1760:1761   */\n  0x02\n    /* \"#utility.yul\":1754:1758   */\n  dup3\n    /* \"#utility.yul\":1750:1762   */\n  div\n    /* \"#utility.yul\":1740:1762   */\n  swap1\n  pop\n    /* \"#utility.yul\":1807:1808   */\n  0x01\n    /* \"#utility.yul\":1801:1805   */\n  dup3\n    /* \"#utility.yul\":1797:1809   */\n  and\n    /* \"#utility.yul\":1828:1846   */\n  dup1\n    /* \"#utility.yul\":1818:1899   */\n  tag_59\n  jumpi\n    /* \"#utility.yul\":1884:1888   */\n  0x7f\n    /* \"#utility.yul\":1876:1882   */\n  dup3\n    /* \"#utility.yul\":1872:1889   */\n  and\n    /* \"#utility.yul\":1862:1889   */\n  swap2\n  pop\n    /* \"#utility.yul\":1818:1899   */\ntag_59:\n    /* \"#utility.yul\":1946:1948   */\n  0x20\n    /* \"#utility.yul\":1938:1944   */\n  dup3\n    /* \"#utility.yul\":1935:1949   */\n  lt\n    /* \"#utility.yul\":1915:1933   */\n  dup2\n    /* \"#utility.yul\":1912:1950   */\n  sub\n    /* \"#utility.yul\":1909:1993   */\n  tag_60\n  jumpi\n    /* \"#utility.yul\":1965:1983   */\n  tag_61\n  tag_21\n  jump\t// in\ntag_61:\n    /* \"#utility.yul\":1909:1993   */\ntag_60:\n    /* \"#utility.yul\":1730:1999   */\n  pop\n    /* \"#utility.yul\":1679:1999   */\n  swap2\n  swap1\n  pop\n  jump\t// out\n    /* \"#utility.yul\":2005:2146   */\ntag_23:\n    /* \"#utility.yul\":2054:2058   */\n  0x00\n    /* \"#utility.yul\":2077:2080   */\n  dup2\n    /* \"#utility.yul\":2069:2080   */\n  swap1\n  pop\n    /* \"#utility.yul\":2100:2103   */\n  dup2\n    /* \"#utility.yul\":2097:2098   */\n  0x00\n    /* \"#utility.yul\":2090:2104   */\n  mstore\n    /* \"#utility.yul\":2134:2138   */\n  0x20\n    /* \"#utility.yul\":2131:2132   */\n  0x00\n    /* \"#utility.yul\":2121:2139   */\n  keccak256\n    /* \"#utility.yul\":2113:2139   */\n  swap1\n  pop\n    /* \"#utility.yul\":2005:2146   */\n  swap2\n  swap1\n  pop\n  jump\t// out\n    /* \"#utility.yul\":2152:2245   */\ntag_24:\n    /* \"#utility.yul\":2189:2195   */\n  0x00\n    /* \"#utility.yul\":2236:2238   */\n  0x20\n    /* \"#utility.yul\":2231:2233   */\n  0x1f\n    /* \"#utility.yul\":2224:2229   */\n  dup4\n    /* \"#utility.yul\":2220:2234   */\n  add\n    /* \"#utility.yul\":2216:2239   */\n  div\n    /* \"#utility.yul\":2206:2239   */\n  swap1\n  pop\n    /* \"#utility.yul\":2152:2245   */\n  swap2\n  swap1\n  pop\n  jump\t// out\n    /* \"#utility.yul\":2251:2358   */\ntag_25:\n    /* \"#utility.yul\":2295:2303   */\n  0x00\n    /* \"#utility.yul\":2345:2350   */\n  dup3\n    /* \"#utility.yul\":2339:2343   */\n  dup3\n    /* \"#utility.yul\":2335:2351   */\n  shl\n    /* \"#utility.yul\":2314:2351   */\n  swap1\n  pop\n    /* \"#utility.yul\":2251:2358   */\n  swap3\n  swap2\n  pop\n  pop\n  jump\t// out\n    /* \"#utility.yul\":2364:2757   */\ntag_26:\n    /* \"#utility.yul\":2433:2439   */\n  0x00\n    /* \"#utility.yul\":2483:2484   */\n  0x08\n    /* \"#utility.yul\":2471:2481   */\n  dup4\n    /* \"#utility.yul\":2467:2485   */\n  mul\n    /* \"#utility.yul\":2506:2603   */\n  tag_66\n    /* \"#utility.yul\":2536:2602   */\n  0xffffffffffffffffffffffffffffffffffffffffffffffffffffffffffffffff\n    /* \"#utility.yul\":2525:2534   */\n  dup3\n    /* \"#utility.yul\":2506:2603   */\n  tag_25\n  jump\t// in\ntag_66:\n    /* \"#utility.yul\":2624:2663   */\n  tag_67\n    /* \"#utility.yul\":2654:2662   */\n  dup7\n    /* \"#utility.yul\":2643:2652   */\n  dup4\n    /* \"#utility.yul\":2624:2663   */\n  tag_25\n  jump\t// in\ntag_67:\n    /* \"#utility.yul\":2612:2663   */\n  swap6\n  pop\n    /* \"#utility.yul\":2696:2700   */\n  dup1\n    /* \"#utility.yul\":2692:2701   */\n  not\n    /* \"#utility.yul\":2685:2690   */\n  dup5\n    /* \"#utility.yul\":2681:2702   */\n  and\n    /* \"#utility.yul\":2672:2702   */\n  swap4\n  pop\n    /* \"#utility.yul\":2745:2749   */\n  dup1\n    /* \"#utility.yul\":2735:2743   */\n  dup7\n    /* \"#utility.yul\":2731:2750   */\n  and\n    /* \"#utility.yul\":2724:2729   */\n  dup5\n    /* \"#utility.yul\":2721:2751   */\n  or\n    /* \"#utility.yul\":2711:2751   */\n  swap3\n  pop\n    /* \"#utility.yul\":2440:2757   */\n  pop\n  pop\n    /* \"#utility.yul\":2364:2757   */\n  swap4\n  swap3\n  pop\n  pop\n  pop\n  jump\t// out\n    /* \"#utility.yul\":2763:2840   */\ntag_27:\n    /* \"#utility.yul\":2800:2807   */\n  0x00\n    /* \"#utility.yul\":2829:2834   */\n  dup2\n    /* \"#utility.yul\":2818:2834   */\n  swap1\n  pop\n    /* \"#utility.yul\":2763:2840   */\n  swap2\n  swap1\n  pop\n  jump\t// out\n    /* \"#utility.yul\":2846:2906   */\ntag_28:\n    /* \"#utility.yul\":2874:2877   */\n  0x00\n    /* \"#utility.yul\":2895:2900   */\n  dup2\n    /* \"#utility.yul\":2888:2900   */\n  swap1\n  pop\n    /* \"#utility.yul\":2846:2906   */\n  swap2\n  swap1\n  pop\n  jump\t// out\n    /* \"#utility.yul\":2912:3054   */\ntag_29:\n    /* \"#utility.yul\":2962:2971   */\n  0x00\n    /* \"#utility.yul\":2995:3048   */\n  tag_71\n    /* \"#utility.yul\":3013:3047   */\n  tag_72\n    /* \"#utility.yul\":3022:3046   */\n  tag_73\n    /* \"#utility.yul\":3040:3045   */\n  dup5\n    /* \"#utility.yul\":3022:3046   */\n  tag_27\n  jump\t// in\ntag_73:\n    /* \"#utility.yul\":3013:3047   */\n  tag_28\n  jump\t// in\ntag_72:\n    /* \"#utility.yul\":2995:3048   */\n  tag_27\n  jump\t// in\ntag_71:\n    /* \"#utility.yul\":2982:3048   */\n  swap1\n  pop\n    /* \"#utility.yul\":2912:3054   */\n  swap2\n  swap1\n  pop\n  jump\t// out\n    /* \"#utility.yul\":3060:3135   */\ntag_30:\n    /* \"#utility.yul\":3103:3106   */\n  0x00\n    /* \"#utility.yul\":3124:3129   */\n  dup2\n    /* \"#utility.yul\":3117:3129   */\n  swap1\n  pop\n    /* \"#utility.yul\":3060:3135   */\n  swap2\n  swap1\n  pop\n  jump\t// out\n    /* \"#utility.yul\":3141:3410   */\ntag_31:\n    /* \"#utility.yul\":3251:3290   */\n  tag_76\n    /* \"#utility.yul\":3282:3289   */\n  dup4\n    /* \"#utility.yul\":3251:3290   */\n  tag_29\n  jump\t// in\ntag_76:\n    /* \"#utility.yul\":3312:3403   */\n  tag_77\n    /* \"#utility.yul\":3361:3402   */\n  tag_78\n    /* \"#utility.yul\":3385:3401   */\n  dup3\n    /* \"#utility.yul\":3361:3402   */\n  tag_30\n  jump\t// in\ntag_78:\n    /* \"#utility.yul\":3353:3359   */\n  dup5\n    /* \"#utility.yul\":3346:3350   */\n  dup5\n    /* \"#utility.yul\":3340:3351   */\n  sload\n    /* \"#utility.yul\":3312:3403   */\n  tag_26\n  jump\t// in\ntag_77:\n    /* \"#utility.yul\":3306:3310   */\n  dup3\n    /* \"#utility.yul\":3299:3404   */\n  sstore\n    /* \"#utility.yul\":3217:3410   */\n  pop\n    /* \"#utility.yul\":3141:3410   */\n  pop\n  pop\n  pop\n  jump\t// out\n    /* \"#utility.yul\":3416:3489   */\ntag_32:\n    /* \"#utility.yul\":3461:3464   */\n  0x00\n    /* \"#utility.yul\":3416:3489   */\n  swap1\n  jump\t// out\n    /* \"#utility.yul\":3495:3684   */\ntag_33:\n    /* \"#utility.yul\":3572:3604   */\n  tag_81\n  tag_32\n  jump\t// in\ntag_81:\n    /* \"#utility.yul\":3613:3678   */\n  tag_82\n    /* \"#utility.yul\":3671:3677   */\n  dup2\n    /* \"#utility.yul\":3663:3669   */\n  dup5\n    /* \"#utility.yul\":3657:3661   */\n  dup5\n    /* \"#utility.yul\":3613:3678   */\n  tag_31\n  jump\t// in\ntag_82:\n    /* \"#utility.yul\":3548:3684   */\n  pop\n    /* \"#utility.yul\":3495:3684   */\n  pop\n  pop\n  jump\t// out\n    /* \"#utility.yul\":3690:3876   */\ntag_34:\n    /* \"#utility.yul\":3750:3870   */\ntag_84:\n    /* \"#utility.yul\":3767:3770   */\n  dup2\n    /* \"#utility.yul\":3760:3765   */\n  dup2\n    /* \"#utility.yul\":3757:3771   */\n  lt\n    /* \"#utility.yul\":3750:3870   */\n  iszero\n  tag_86\n  jumpi\n    /* \"#utility.yul\":3821:3860   */\n  tag_87\n    /* \"#utility.yul\":3858:3859   */\n  0x00\n    /* \"#utility.yul\":3851:3856   */\n  dup3\n    /* \"#utility.yul\":3821:3860   */\n  tag_33\n  jump\t// in\ntag_87:\n    /* \"#utility.yul\":3794:3795   */\n  0x01\n    /* \"#utility.yul\":3787:3792   */\n  dup2\n    /* \"#utility.yul\":3783:3796   */\n  add\n    /* \"#utility.yul\":3774:3796   */\n  swap1\n  pop\n    /* \"#utility.yul\":3750:3870   */\n  jump(tag_84)\ntag_86:\n    /* \"#utility.yul\":3690:3876   */\n  pop\n  pop\n  jump\t// out\n    /* \"#utility.yul\":3882:4425   */\ntag_35:\n    /* \"#utility.yul\":3983:3985   */\n  0x1f\n    /* \"#utility.yul\":3978:3981   */\n  dup3\n    /* \"#utility.yul\":3975:3986   */\n  gt\n    /* \"#utility.yul\":3972:4418   */\n  iszero\n  tag_89\n  jumpi\n    /* \"#utility.yul\":4017:4055   */\n  tag_90\n    /* \"#utility.yul\":4049:4054   */\n  dup2\n    /* \"#utility.yul\":4017:4055   */\n  tag_23\n  jump\t// in\ntag_90:\n    /* \"#utility.yul\":4101:4130   */\n  tag_91\n    /* \"#utility.yul\":4119:4129   */\n  dup5\n    /* \"#utility.yul\":4101:4130   */\n  tag_24\n  jump\t// in\ntag_91:\n    /* \"#utility.yul\":4091:4099   */\n  dup2\n    /* \"#utility.yul\":4087:4131   */\n  add\n    /* \"#utility.yul\":4284:4286   */\n  0x20\n    /* \"#utility.yul\":4272:4282   */\n  dup6\n    /* \"#utility.yul\":4269:4287   */\n  lt\n    /* \"#utility.yul\":4266:4315   */\n  iszero\n  tag_92\n  jumpi\n    /* \"#utility.yul\":4305:4313   */\n  dup2\n    /* \"#utility.yul\":4290:4313   */\n  swap1\n  pop\n    /* \"#utility.yul\":4266:4315   */\ntag_92:\n    /* \"#utility.yul\":4328:4408   */\n  tag_93\n    /* \"#utility.yul\":4384:4406   */\n  tag_94\n    /* \"#utility.yul\":4402:4405   */\n  dup6\n    /* \"#utility.yul\":4384:4406   */\n  tag_24\n  jump\t// in\ntag_94:\n    /* \"#utility.yul\":4374:4382   */\n  dup4\n    /* \"#utility.yul\":4370:4407   */\n  add\n    /* \"#utility.yul\":4357:4368   */\n  dup3\n    /* \"#utility.yul\":4328:4408   */\n  tag_34\n  jump\t// in\ntag_93:\n    /* \"#utility.yul\":3987:4418   */\n  pop\n  pop\n    /* \"#utility.yul\":3972:4418   */\ntag_89:\n    /* \"#utility.yul\":3882:4425   */\n  pop\n  pop\n  pop\n  jump\t// out\n    /* \"#utility.yul\":4431:4548   */\ntag_36:\n    /* \"#utility.yul\":4485:4493   */\n  0x00\n    /* \"#utility.yul\":4535:4540   */\n  dup3\n    /* \"#utility.yul\":4529:4533   */\n  dup3\n    /* \"#utility.yul\":4525:4541   */\n  shr\n    /* \"#utility.yul\":4504:4541   */\n  swap1\n  pop\n    /* \"#utility.yul\":4431:4548   */\n  swap3\n  swap2\n  pop\n  pop\n  jump\t// out\n    /* \"#utility.yul\":4554:4723   */\ntag_37:\n    /* \"#utility.yul\":4598:4604   */\n  0x00\n    /* \"#utility.yul\":4631:4682   */\n  tag_97\n    /* \"#utility.yul\":4679:4680   */\n  0x00\n    /* \"#utility.yul\":4675:4681   */\n  not\n    /* \"#utility.yul\":4667:4672   */\n  dup5\n    /* \"#utility.yul\":4664:4665   */\n  0x08\n    /* \"#utility.yul\":4660:4673   */\n  mul\n    /* \"#utility.yul\":4631:4682   */\n  tag_36\n  jump\t// in\ntag_97:\n    /* \"#utility.yul\":4627:4683   */\n  not\n    /* \"#utility.yul\":4712:4716   */\n  dup1\n    /* \"#utility.yul\":4706:4710   */\n  dup4\n    /* \"#utility.yul\":4702:4717   */\n  and\n    /* \"#utility.yul\":4692:4717   */\n  swap2\n  pop\n    /* \"#utility.yul\":4605:4723   */\n  pop\n    /* \"#utility.yul\":4554:4723   */\n  swap3\n  swap2\n  pop\n  pop\n  jump\t// out\n    /* \"#utility.yul\":4728:5023   */\ntag_38:\n    /* \"#utility.yul\":4804:4808   */\n  0x00\n    /* \"#utility.yul\":4950:4979   */\n  tag_99\n    /* \"#utility.yul\":4975:4978   */\n  dup4\n    /* \"#utility.yul\":4969:4973   */\n  dup4\n    /* \"#utility.yul\":4950:4979   */\n  tag_37\n  jump\t// in\ntag_99:\n    /* \"#utility.yul\":4942:4979   */\n  swap2\n  pop\n    /* \"#utility.yul\":5012:5015   */\n  dup3\n    /* \"#utility.yul\":5009:5010   */\n  0x02\n    /* \"#utility.yul\":5005:5016   */\n  mul\n    /* \"#utility.yul\":4999:5003   */\n  dup3\n    /* \"#utility.yul\":4996:5017   */\n  or\n    /* \"#utility.yul\":4988:5017   */\n  swap1\n  pop\n    /* \"#utility.yul\":4728:5023   */\n  swap3\n  swap2\n  pop\n  pop\n  jump\t// out\n    /* \"#utility.yul\":5028:6423   */\ntag_8:\n    /* \"#utility.yul\":5145:5182   */\n  tag_101\n    /* \"#utility.yul\":5178:5181   */\n  dup3\n    /* \"#utility.yul\":5145:5182   */\n  tag_19\n  jump\t// in\ntag_101:\n    /* \"#utility.yul\":5247:5265   */\n  0xffffffffffffffff\n    /* \"#utility.yul\":5239:5245   */\n  dup2\n    /* \"#utility.yul\":5236:5266   */\n  gt\n    /* \"#utility.yul\":5233:5289   */\n  iszero\n  tag_102\n  jumpi\n    /* \"#utility.yul\":5269:5287   */\n  tag_103\n  tag_20\n  jump\t// in\ntag_103:\n    /* \"#utility.yul\":5233:5289   */\ntag_102:\n    /* \"#utility.yul\":5313:5351   */\n  tag_104\n    /* \"#utility.yul\":5345:5349   */\n  dup3\n    /* \"#utility.yul\":5339:5350   */\n  sload\n    /* \"#utility.yul\":5313:5351   */\n  tag_22\n  jump\t// in\ntag_104:\n    /* \"#utility.yul\":5398:5465   */\n  tag_105\n    /* \"#utility.yul\":5458:5464   */\n  dup3\n    /* \"#utility.yul\":5450:5456   */\n  dup3\n    /* \"#utility.yul\":5444:5448   */\n  dup6\n    /* \"#utility.yul\":5398:5465   */\n  tag_35\n  jump\t// in\ntag_105:\n    /* \"#utility.yul\":5492:5493   */\n  0x00\n    /* \"#utility.yul\":5516:5520   */\n  0x20\n    /* \"#utility.yul\":5503:5520   */\n  swap1\n  pop\n    /* \"#utility.yul\":5548:5550   */\n  0x1f\n    /* \"#utility.yul\":5540:5546   */\n  dup4\n    /* \"#utility.yul\":5537:5551   */\n  gt\n    /* \"#utility.yul\":5565:5566   */\n  0x01\n    /* \"#utility.yul\":5560:6178   */\n  dup2\n  eq\n  tag_107\n  jumpi\n    /* \"#utility.yul\":6222:6223   */\n  0x00\n    /* \"#utility.yul\":6239:6245   */\n  dup5\n    /* \"#utility.yul\":6236:6313   */\n  iszero\n  tag_108\n  jumpi\n    /* \"#utility.yul\":6288:6297   */\n  dup3\n    /* \"#utility.yul\":6283:6286   */\n  dup8\n    /* \"#utility.yul\":6279:6298   */\n  add\n    /* \"#utility.yul\":6273:6299   */\n  mload\n    /* \"#utility.yul\":6264:6299   */\n  swap1\n  pop\n    /* \"#utility.yul\":6236:6313   */\ntag_108:\n    /* \"#utility.yul\":6339:6406   */\n  tag_109\n    /* \"#utility.yul\":6399:6405   */\n  dup6\n    /* \"#utility.yul\":6392:6397   */\n  dup3\n    /* \"#utility.yul\":6339:6406   */\n  tag_38\n  jump\t// in\ntag_109:\n    /* \"#utility.yul\":6333:6337   */\n  dup7\n    /* \"#utility.yul\":6326:6407   */\n  sstore\n    /* \"#utility.yul\":6195:6417   */\n  pop\n    /* \"#utility.yul\":5530:6417   */\n  jump(tag_106)\n    /* \"#utility.yul\":5560:6178   */\ntag_107:\n    /* \"#utility.yul\":5612:5616   */\n  0x1f\n    /* \"#utility.yul\":5608:5617   */\n  not\n    /* \"#utility.yul\":5600:5606   */\n  dup5\n    /* \"#utility.yul\":5596:5618   */\n  and\n    /* \"#utility.yul\":5646:5683   */\n  tag_110\n    /* \"#utility.yul\":5678:5682   */\n  dup7\n    /* \"#utility.yul\":5646:5683   */\n  tag_23\n  jump\t// in\ntag_110:\n    /* \"#utility.yul\":5705:5706   */\n  0x00\n    /* \"#utility.yul\":5719:5927   */\ntag_111:\n    /* \"#utility.yul\":5733:5740   */\n  dup3\n    /* \"#utility.yul\":5730:5731   */\n  dup2\n    /* \"#utility.yul\":5727:5741   */\n  lt\n    /* \"#utility.yul\":5719:5927   */\n  iszero\n  tag_113\n  jumpi\n    /* \"#utility.yul\":5812:5821   */\n  dup5\n    /* \"#utility.yul\":5807:5810   */\n  dup10\n    /* \"#utility.yul\":5803:5822   */\n  add\n    /* \"#utility.yul\":5797:5823   */\n  mload\n    /* \"#utility.yul\":5789:5795   */\n  dup3\n    /* \"#utility.yul\":5782:5824   */\n  sstore\n    /* \"#utility.yul\":5863:5864   */\n  0x01\n    /* \"#utility.yul\":5855:5861   */\n  dup3\n    /* \"#utility.yul\":5851:5865   */\n  add\n    /* \"#utility.yul\":5841:5865   */\n  swap2\n  pop\n    /* \"#utility.yul\":5910:5912   */\n  0x20\n    /* \"#utility.yul\":5899:5908   */\n  dup6\n    /* \"#utility.yul\":5895:5913   */\n  add\n    /* \"#utility.yul\":5882:5913   */\n  swap5\n  pop\n    /* \"#utility.yul\":5756:5760   */\n  0x20\n    /* \"#utility.yul\":5753:5754   */\n  dup2\n    /* \"#utility.yul\":5749:5761   */\n  add\n    /* \"#utility.yul\":5744:5761   */\n  swap1\n  pop\n    /* \"#utility.yul\":5719:5927   */\n  jump(tag_111)\ntag_113:\n    /* \"#utility.yul\":5955:5961   */\n  dup7\n    /* \"#utility.yul\":5946:5953   */\n  dup4\n    /* \"#utility.yul\":5943:5962   */\n  lt\n    /* \"#utility.yul\":5940:6119   */\n  iszero\n  tag_114\n  jumpi\n    /* \"#utility.yul\":6013:6022   */\n  dup5\n    /* \"#utility.yul\":6008:6011   */\n  dup10\n    /* \"#utility.yul\":6004:6023   */\n  add\n    /* \"#utility.yul\":5998:6024   */\n  mload\n    /* \"#utility.yul\":6056:6104   */\n  tag_115\n    /* \"#utility.yul\":6098:6102   */\n  0x1f\n    /* \"#utility.yul\":6090:6096   */\n  dup10\n    /* \"#utility.yul\":6086:6103   */\n  and\n    /* \"#utility.yul\":6075:6084   */\n  dup3\n    /* \"#utility.yul\":6056:6104   */\n  tag_37\n  jump\t// in\ntag_115:\n    /* \"#utility.yul\":6048:6054   */\n  dup4\n    /* \"#utility.yul\":6041:6105   */\n  sstore\n    /* \"#utility.yul\":5963:6119   */\n  pop\n    /* \"#utility.yul\":5940:6119   */\ntag_114:\n    /* \"#utility.yul\":6165:6166   */\n  0x01\n    /* \"#utility.yul\":6161:6162   */\n  0x02\n    /* \"#utility.yul\":6153:6159   */\n  dup9\n    /* \"#utility.yul\":6149:6163   */\n  mul\n    /* \"#utility.yul\":6145:6167   */\n  add\n    /* \"#utility.yul\":6139:6143   */\n  dup9\n    /* \"#utility.yul\":6132:6168   */\n  sstore\n    /* \"#utility.yul\":5567:6178   */\n  pop\n  pop\n  pop\n    /* \"#utility.yul\":5530:6417   */\ntag_106:\n  pop\n    /* \"#utility.yul\":5120:6423   */\n  pop\n  pop\n  pop\n    /* \"#utility.yul\":5028:6423   */\n  pop\n  pop\n  jump\t// out\n    /* \"Exchange1.sol\":137:8028  contract Exchange is ERC20 {... */\ntag_11:\n  dataSize(sub_0)\n  dup1\n  dataOffset(sub_0)\n  0x00\n  codecopy\n  0x00\n  return\nstop\n\nsub_0: assembly {\n        /* \"Exchange1.sol\":137:8028  contract Exchange is ERC20 {... */\n      mstore(0x40, 0x80)\n      jumpi(tag_1, lt(calldatasize, 0x04))\n      shr(0xe0, calldataload(0x00))\n      dup1\n      0x903875f7\n      gt\n      tag_24\n      jumpi\n      dup1\n      0xc8ab8325\n      gt\n      tag_25\n      jumpi\n      dup1\n      0xc8ab8325\n      eq\n      tag_18\n      jumpi\n      dup1\n      0xdd62ed3e\n      eq\n      tag_19\n      jumpi\n      dup1\n      0xe0ba2000\n      eq\n      tag_20\n      jumpi\n      dup1\n      0xeb521a4c\n      eq\n      tag_21\n      jumpi\n      dup1\n      0xed7bf868\n      eq\n      tag_22\n      jumpi\n      dup1\n      0xfc0c546a\n      eq\n      tag_23\n      jumpi\n      jump(tag_1)\n    tag_25:\n      dup1\n      0x903875f7\n      eq\n      tag_13\n      jumpi\n      dup1\n      0x95d89b41\n      eq\n      tag_14\n      jumpi\n      dup1\n      0xa457c2d7\n      eq\n      tag_15\n      jumpi\n      dup1\n      0xa9059cbb\n      eq\n      tag_16\n      jumpi\n      dup1\n      0xb4f40c61\n      eq\n      tag_17\n      jumpi\n      jump(tag_1)\n    tag_24:\n      dup1\n      0x240f3dea\n      gt\n      tag_26\n      jumpi\n      dup1\n      0x240f3dea\n      eq\n      tag_7\n      jumpi\n      dup1\n      0x29cbab3e\n      eq\n      tag_8\n      jumpi\n      dup1\n      0x313ce567\n      eq\n      tag_9\n      jumpi\n      dup1\n      0x39509351\n      eq\n      tag_10\n      jumpi\n      dup1\n      0x70a08231\n      eq\n      tag_11\n      jumpi\n      dup1\n      0x79ed3562\n      eq\n      tag_12\n      jumpi\n      jump(tag_1)\n    tag_26:\n      dup1\n      0x06fdde03\n      eq\n      tag_2\n      jumpi\n      dup1\n      0x095ea7b3\n      eq\n      tag_3\n      jumpi\n      dup1\n      0x0a861f2a\n      eq\n      tag_4\n      jumpi\n      dup1\n      0x18160ddd\n      eq\n      tag_5\n      jumpi\n      dup1\n      0x23b872dd\n      eq\n      tag_6\n      jumpi\n    tag_1:\n      0x00\n      dup1\n      revert\n        /* \"@openzeppelin/contracts@4.9.3/token/ERC20/ERC20.sol\":2158:2256  function name() public view virtual override returns (string memory) {... */\n    tag_2:\n      callvalue\n      dup1\n      iszero\n      tag_27\n      jumpi\n      0x00\n      dup1\n      revert\n    tag_27:\n      pop\n      tag_28\n      tag_29\n      jump\t// in\n    tag_28:\n      mload(0x40)\n      tag_30\n      swap2\n      swap1\n      tag_31\n      jump\t// in\n    tag_30:\n      mload(0x40)\n      dup1\n      swap2\n      sub\n      swap1\n      return\n        /* \"@openzeppelin/contracts@4.9.3/token/ERC20/ERC20.sol\":4444:4641  function approve(address spender, uint256 amount) public virtual override returns (bool) {... */\n    tag_3:\n      callvalue\n      dup1\n      iszero\n      tag_32\n      jumpi\n      0x00\n      dup1\n      revert\n    tag_32:\n      pop\n      tag_33\n      0x04\n      dup1\n      calldatasize\n      sub\n      dup2\n      add\n      swap1\n      tag_34\n      swap2\n      swap1\n      tag_35\n      jump\t// in\n    tag_34:\n      tag_36\n      jump\t// in\n    tag_33:\n      mload(0x40)\n      tag_37\n      swap2\n      swap1\n      tag_38\n      jump\t// in\n    tag_37:\n      mload(0x40)\n      dup1\n      swap2\n      sub\n      swap1\n      return\n        /* \"Exchange1.sol\":2500:3641  function withdrawLiquidity(... */\n    tag_4:\n      callvalue\n      dup1\n      iszero\n      tag_39\n      jumpi\n      0x00\n      dup1\n      revert\n    tag_39:\n      pop\n      tag_40\n      0x04\n      dup1\n      calldatasize\n      sub\n      dup2\n      add\n      swap1\n      tag_41\n      swap2\n      swap1\n      tag_42\n      jump\t// in\n    tag_41:\n      tag_43\n      jump\t// in\n    tag_40:\n      mload(0x40)\n      tag_44\n      swap3\n      swap2\n      swap1\n      tag_45\n      jump\t// in\n    tag_44:\n      mload(0x40)\n      dup1\n      swap2\n      sub\n      swap1\n      return\n        /* \"@openzeppelin/contracts@4.9.3/token/ERC20/ERC20.sol\":3255:3361  function totalSupply() public view virtual override returns (uint256) {... */\n    tag_5:\n      callvalue\n      dup1\n      iszero\n      tag_46\n      jumpi\n      0x00\n      dup1\n      revert\n    tag_46:\n      pop\n      tag_47\n      tag_48\n      jump\t// in\n    tag_47:\n      mload(0x40)\n      tag_49\n      swap2\n      swap1\n      tag_50\n      jump\t// in\n    tag_49:\n      mload(0x40)\n      dup1\n      swap2\n      sub\n      swap1\n      return\n        /* \"@openzeppelin/contracts@4.9.3/token/ERC20/ERC20.sol\":5203:5459  function transferFrom(address from, address to, uint256 amount) public virtual override returns (bool) {... */\n    tag_6:\n      callvalue\n      dup1\n      iszero\n      tag_51\n      jumpi\n      0x00\n      dup1\n      revert\n    tag_51:\n      pop\n      tag_52\n      0x04\n      dup1\n      calldatasize\n      sub\n      dup2\n      add\n      swap1\n      tag_53\n      swap2\n      swap1\n      tag_54\n      jump\t// in\n    tag_53:\n      tag_55\n      jump\t// in\n    tag_52:\n      mload(0x40)\n      tag_56\n      swap2\n      swap1\n      tag_38\n      jump\t// in\n    tag_56:\n      mload(0x40)\n      dup1\n      swap2\n      sub\n      swap1\n      return\n        /* \"Exchange1.sol\":3903:4247  function estimateEthToProvide(... */\n    tag_7:\n      callvalue\n      dup1\n      iszero\n      tag_57\n      jumpi\n      0x00\n      dup1\n      revert\n    tag_57:\n      pop\n      tag_58\n      0x04\n      dup1\n      calldatasize\n      sub\n      dup2\n      add\n      swap1\n      tag_59\n      swap2\n      swap1\n      tag_42\n      jump\t// in\n    tag_59:\n      tag_60\n      jump\t// in\n    tag_58:\n      mload(0x40)\n      tag_61\n      swap2\n      swap1\n      tag_50\n      jump\t// in\n    tag_61:\n      mload(0x40)\n      dup1\n      swap2\n      sub\n      swap1\n      return\n        /* \"Exchange1.sol\":6569:7448  function swapForERC20Token() external payable returns (uint tokenOut) {... */\n    tag_8:\n      tag_62\n      tag_63\n      jump\t// in\n    tag_62:\n      mload(0x40)\n      tag_64\n      swap2\n      swap1\n      tag_50\n      jump\t// in\n    tag_64:\n      mload(0x40)\n      dup1\n      swap2\n      sub\n      swap1\n      return\n        /* \"@openzeppelin/contracts@4.9.3/token/ERC20/ERC20.sol\":3104:3195  function decimals() public view virtual override returns (uint8) {... */\n    tag_9:\n      callvalue\n      dup1\n      iszero\n      tag_65\n      jumpi\n      0x00\n      dup1\n      revert\n    tag_65:\n      pop\n      tag_66\n      tag_67\n      jump\t// in\n    tag_66:\n      mload(0x40)\n      tag_68\n      swap2\n      swap1\n      tag_69\n      jump\t// in\n    tag_68:\n      mload(0x40)\n      dup1\n      swap2\n      sub\n      swap1\n      return\n        /* \"@openzeppelin/contracts@4.9.3/token/ERC20/ERC20.sol\":5854:6088  function increaseAllowance(address spender, uint256 addedValue) public virtual returns (bool) {... */\n    tag_10:\n      callvalue\n      dup1\n      iszero\n      tag_70\n      jumpi\n      0x00\n      dup1\n      revert\n    tag_70:\n      pop\n      tag_71\n      0x04\n      dup1\n      calldatasize\n      sub\n      dup2\n      add\n      swap1\n      tag_72\n      swap2\n      swap1\n      tag_35\n      jump\t// in\n    tag_72:\n      tag_73\n      jump\t// in\n    tag_71:\n      mload(0x40)\n      tag_74\n      swap2\n      swap1\n      tag_38\n      jump\t// in\n    tag_74:\n      mload(0x40)\n      dup1\n      swap2\n      sub\n      swap1\n      return\n        /* \"@openzeppelin/contracts@4.9.3/token/ERC20/ERC20.sol\":3419:3544  function balanceOf(address account) public view virtual override returns (uint256) {... */\n    tag_11:\n      callvalue\n      dup1\n      iszero\n      tag_75\n      jumpi\n      0x00\n      dup1\n      revert\n    tag_75:\n      pop\n      tag_76\n      0x04\n      dup1\n      calldatasize\n      sub\n      dup2\n      add\n      swap1\n      tag_77\n      swap2\n      swap1\n      tag_78\n      jump\t// in\n    tag_77:\n      tag_79\n      jump\t// in\n    tag_76:\n      mload(0x40)\n      tag_80\n      swap2\n      swap1\n      tag_50\n      jump\t// in\n    tag_80:\n      mload(0x40)\n      dup1\n      swap2\n      sub\n      swap1\n      return\n        /* \"Exchange1.sol\":7520:8026  function estimateSwapForERC20Token(... */\n    tag_12:\n      callvalue\n      dup1\n      iszero\n      tag_81\n      jumpi\n      0x00\n      dup1\n      revert\n    tag_81:\n      pop\n      tag_82\n      0x04\n      dup1\n      calldatasize\n      sub\n      dup2\n      add\n      swap1\n      tag_83\n      swap2\n      swap1\n      tag_42\n      jump\t// in\n    tag_83:\n      tag_84\n      jump\t// in\n    tag_82:\n      mload(0x40)\n      tag_85\n      swap2\n      swap1\n      tag_50\n      jump\t// in\n    tag_85:\n      mload(0x40)\n      dup1\n      swap2\n      sub\n      swap1\n      return\n        /* \"Exchange1.sol\":6000:6505  function estimateSwapForEth(... */\n    tag_13:\n      callvalue\n      dup1\n      iszero\n      tag_86\n      jumpi\n      0x00\n      dup1\n      revert\n    tag_86:\n      pop\n      tag_87\n      0x04\n      dup1\n      calldatasize\n      sub\n      dup2\n      add\n      swap1\n      tag_88\n      swap2\n      swap1\n      tag_42\n      jump\t// in\n    tag_88:\n      tag_89\n      jump\t// in\n    tag_87:\n      mload(0x40)\n      tag_90\n      swap2\n      swap1\n      tag_50\n      jump\t// in\n    tag_90:\n      mload(0x40)\n      dup1\n      swap2\n      sub\n      swap1\n      return\n        /* \"@openzeppelin/contracts@4.9.3/token/ERC20/ERC20.sol\":2369:2471  function symbol() public view virtual override returns (string memory) {... */\n    tag_14:\n      callvalue\n      dup1\n      iszero\n      tag_91\n      jumpi\n      0x00\n      dup1\n      revert\n    tag_91:\n      pop\n      tag_92\n      tag_93\n      jump\t// in\n    tag_92:\n      mload(0x40)\n      tag_94\n      swap2\n      swap1\n      tag_31\n      jump\t// in\n    tag_94:\n      mload(0x40)\n      dup1\n      swap2\n      sub\n      swap1\n      return\n        /* \"@openzeppelin/contracts@4.9.3/token/ERC20/ERC20.sol\":6575:7002  function decreaseAllowance(address spender, uint256 subtractedValue) public virtual returns (bool) {... */\n    tag_15:\n      callvalue\n      dup1\n      iszero\n      tag_95\n      jumpi\n      0x00\n      dup1\n      revert\n    tag_95:\n      pop\n      tag_96\n      0x04\n      dup1\n      calldatasize\n      sub\n      dup2\n      add\n      swap1\n      tag_97\n      swap2\n      swap1\n      tag_35\n      jump\t// in\n    tag_97:\n      tag_98\n      jump\t// in\n    tag_96:\n      mload(0x40)\n      tag_99\n      swap2\n      swap1\n      tag_38\n      jump\t// in\n    tag_99:\n      mload(0x40)\n      dup1\n      swap2\n      sub\n      swap1\n      return\n        /* \"@openzeppelin/contracts@4.9.3/token/ERC20/ERC20.sol\":3740:3929  function transfer(address to, uint256 amount) public virtual override returns (bool) {... */\n    tag_16:\n      callvalue\n      dup1\n      iszero\n      tag_100\n      jumpi\n      0x00\n      dup1\n      revert\n    tag_100:\n      pop\n      tag_101\n      0x04\n      dup1\n      calldatasize\n      sub\n      dup2\n      add\n      swap1\n      tag_102\n      swap2\n      swap1\n      tag_35\n      jump\t// in\n    tag_102:\n      tag_103\n      jump\t// in\n    tag_101:\n      mload(0x40)\n      tag_104\n      swap2\n      swap1\n      tag_38\n      jump\t// in\n    tag_104:\n      mload(0x40)\n      dup1\n      swap2\n      sub\n      swap1\n      return\n        /* \"Exchange1.sol\":220:236  uint256 public k */\n    tag_17:\n      callvalue\n      dup1\n      iszero\n      tag_105\n      jumpi\n      0x00\n      dup1\n      revert\n    tag_105:\n      pop\n      tag_106\n      tag_107\n      jump\t// in\n    tag_106:\n      mload(0x40)\n      tag_108\n      swap2\n      swap1\n      tag_50\n      jump\t// in\n    tag_108:\n      mload(0x40)\n      dup1\n      swap2\n      sub\n      swap1\n      return\n        /* \"Exchange1.sol\":4816:5928  function swapForEth(uint _amountERC20Token) external returns (uint ethOut) {... */\n    tag_18:\n      callvalue\n      dup1\n      iszero\n      tag_109\n      jumpi\n      0x00\n      dup1\n      revert\n    tag_109:\n      pop\n      tag_110\n      0x04\n      dup1\n      calldatasize\n      sub\n      dup2\n      add\n      swap1\n      tag_111\n      swap2\n      swap1\n      tag_42\n      jump\t// in\n    tag_111:\n      tag_112\n      jump\t// in\n    tag_110:\n      mload(0x40)\n      tag_113\n      swap2\n      swap1\n      tag_50\n      jump\t// in\n    tag_113:\n      mload(0x40)\n      dup1\n      swap2\n      sub\n      swap1\n      return\n        /* \"@openzeppelin/contracts@4.9.3/token/ERC20/ERC20.sol\":3987:4136  function allowance(address owner, address spender) public view virtual override returns (uint256) {... */\n    tag_19:\n      callvalue\n      dup1\n      iszero\n      tag_114\n      jumpi\n      0x00\n      dup1\n      revert\n    tag_114:\n      pop\n      tag_115\n      0x04\n      dup1\n      calldatasize\n      sub\n      dup2\n      add\n      swap1\n      tag_116\n      swap2\n      swap1\n      tag_117\n      jump\t// in\n    tag_116:\n      tag_118\n      jump\t// in\n    tag_115:\n      mload(0x40)\n      tag_119\n      swap2\n      swap1\n      tag_50\n      jump\t// in\n    tag_119:\n      mload(0x40)\n      dup1\n      swap2\n      sub\n      swap1\n      return\n        /* \"Exchange1.sol\":3686:3795  function getMyLiquidityPositions() external view returns (uint) {... */\n    tag_20:\n      callvalue\n      dup1\n      iszero\n      tag_120\n      jumpi\n      0x00\n      dup1\n      revert\n    tag_120:\n      pop\n      tag_121\n      tag_122\n      jump\t// in\n    tag_121:\n      mload(0x40)\n      tag_123\n      swap2\n      swap1\n      tag_50\n      jump\t// in\n    tag_123:\n      mload(0x40)\n      dup1\n      swap2\n      sub\n      swap1\n      return\n        /* \"Exchange1.sol\":1037:2418  function provideLiquidity(... */\n    tag_21:\n      tag_124\n      0x04\n      dup1\n      calldatasize\n      sub\n      dup2\n      add\n      swap1\n      tag_125\n      swap2\n      swap1\n      tag_42\n      jump\t// in\n    tag_125:\n      tag_126\n      jump\t// in\n    tag_124:\n      mload(0x40)\n      tag_127\n      swap2\n      swap1\n      tag_50\n      jump\t// in\n    tag_127:\n      mload(0x40)\n      dup1\n      swap2\n      sub\n      swap1\n      return\n        /* \"Exchange1.sol\":4315:4652  function estimateERC20TokenToProvide(... */\n    tag_22:\n      callvalue\n      dup1\n      iszero\n      tag_128\n      jumpi\n      0x00\n      dup1\n      revert\n    tag_128:\n      pop\n      tag_129\n      0x04\n      dup1\n      calldatasize\n      sub\n      dup2\n      add\n      swap1\n      tag_130\n      swap2\n      swap1\n      tag_42\n      jump\t// in\n    tag_130:\n      tag_131\n      jump\t// in\n    tag_129:\n      mload(0x40)\n      tag_132\n      swap2\n      swap1\n      tag_50\n      jump\t// in\n    tag_132:\n      mload(0x40)\n      dup1\n      swap2\n      sub\n      swap1\n      return\n        /* \"Exchange1.sol\":170:188  ERC20 public token */\n    tag_23:\n      callvalue\n      dup1\n      iszero\n      tag_133\n      jumpi\n      0x00\n      dup1\n      revert\n    tag_133:\n      pop\n      tag_134\n      tag_135\n      jump\t// in\n    tag_134:\n      mload(0x40)\n      tag_136\n      swap2\n      swap1\n      tag_137\n      jump\t// in\n    tag_136:\n      mload(0x40)\n      dup1\n      swap2\n      sub\n      swap1\n      return\n        /* \"@openzeppelin/contracts@4.9.3/token/ERC20/ERC20.sol\":2158:2256  function name() public view virtual override returns (string memory) {... */\n    tag_29:\n        /* \"@openzeppelin/contracts@4.9.3/token/ERC20/ERC20.sol\":2212:2225  string memory */\n      0x60\n        /* \"@openzeppelin/contracts@4.9.3/token/ERC20/ERC20.sol\":2244:2249  _name */\n      0x03\n        /* \"@openzeppelin/contracts@4.9.3/token/ERC20/ERC20.sol\":2237:2249  return _name */\n      dup1\n      sload\n      tag_139\n      swap1\n      tag_140\n      jump\t// in\n    tag_139:\n      dup1\n      0x1f\n      add\n      0x20\n      dup1\n      swap2\n      div\n      mul\n      0x20\n      add\n      mload(0x40)\n      swap1\n      dup2\n      add\n      0x40\n      mstore\n      dup1\n      swap3\n      swap2\n      swap1\n      dup2\n      dup2\n      mstore\n      0x20\n      add\n      dup3\n      dup1\n      sload\n      tag_141\n      swap1\n      tag_140\n      jump\t// in\n    tag_141:\n      dup1\n      iszero\n      tag_142\n      jumpi\n      dup1\n      0x1f\n      lt\n      tag_143\n      jumpi\n      0x0100\n      dup1\n      dup4\n      sload\n      div\n      mul\n      dup4\n      mstore\n      swap2\n      0x20\n      add\n      swap2\n      jump(tag_142)\n    tag_143:\n      dup3\n      add\n      swap2\n      swap1\n      0x00\n      mstore\n      keccak256(0x00, 0x20)\n      swap1\n    tag_144:\n      dup2\n      sload\n      dup2\n      mstore\n      swap1\n      0x01\n      add\n      swap1\n      0x20\n      add\n      dup1\n      dup4\n      gt\n      tag_144\n      jumpi\n      dup3\n      swap1\n      sub\n      0x1f\n      and\n      dup3\n      add\n      swap2\n    tag_142:\n      pop\n      pop\n      pop\n      pop\n      pop\n      swap1\n      pop\n        /* \"@openzeppelin/contracts@4.9.3/token/ERC20/ERC20.sol\":2158:2256  function name() public view virtual override returns (string memory) {... */\n      swap1\n      jump\t// out\n        /* \"@openzeppelin/contracts@4.9.3/token/ERC20/ERC20.sol\":4444:4641  function approve(address spender, uint256 amount) public virtual override returns (bool) {... */\n    tag_36:\n        /* \"@openzeppelin/contracts@4.9.3/token/ERC20/ERC20.sol\":4527:4531  bool */\n      0x00\n        /* \"@openzeppelin/contracts@4.9.3/token/ERC20/ERC20.sol\":4543:4556  address owner */\n      dup1\n        /* \"@openzeppelin/contracts@4.9.3/token/ERC20/ERC20.sol\":4559:4571  _msgSender() */\n      tag_146\n        /* \"@openzeppelin/contracts@4.9.3/token/ERC20/ERC20.sol\":4559:4569  _msgSender */\n      tag_147\n        /* \"@openzeppelin/contracts@4.9.3/token/ERC20/ERC20.sol\":4559:4571  _msgSender() */\n      jump\t// in\n    tag_146:\n        /* \"@openzeppelin/contracts@4.9.3/token/ERC20/ERC20.sol\":4543:4571  address owner = _msgSender() */\n      swap1\n      pop\n        /* \"@openzeppelin/contracts@4.9.3/token/ERC20/ERC20.sol\":4581:4613  _approve(owner, spender, amount) */\n      tag_148\n        /* \"@openzeppelin/contracts@4.9.3/token/ERC20/ERC20.sol\":4590:4595  owner */\n      dup2\n        /* \"@openzeppelin/contracts@4.9.3/token/ERC20/ERC20.sol\":4597:4604  spender */\n      dup6\n        /* \"@openzeppelin/contracts@4.9.3/token/ERC20/ERC20.sol\":4606:4612  amount */\n      dup6\n        /* \"@openzeppelin/contracts@4.9.3/token/ERC20/ERC20.sol\":4581:4589  _approve */\n      tag_149\n        /* \"@openzeppelin/contracts@4.9.3/token/ERC20/ERC20.sol\":4581:4613  _approve(owner, spender, amount) */\n      jump\t// in\n    tag_148:\n        /* \"@openzeppelin/contracts@4.9.3/token/ERC20/ERC20.sol\":4630:4634  true */\n      0x01\n        /* \"@openzeppelin/contracts@4.9.3/token/ERC20/ERC20.sol\":4623:4634  return true */\n      swap2\n      pop\n      pop\n        /* \"@openzeppelin/contracts@4.9.3/token/ERC20/ERC20.sol\":4444:4641  function approve(address spender, uint256 amount) public virtual override returns (bool) {... */\n      swap3\n      swap2\n      pop\n      pop\n      jump\t// out\n        /* \"Exchange1.sol\":2500:3641  function withdrawLiquidity(... */\n    tag_43:\n        /* \"Exchange1.sol\":2575:2591  uint amountERC20 */\n      0x00\n        /* \"Exchange1.sol\":2593:2607  uint amountEth */\n      dup1\n        /* \"Exchange1.sol\":2652:2653  0 */\n      0x00\n        /* \"Exchange1.sol\":2640:2649  _lpToBurn */\n      dup4\n        /* \"Exchange1.sol\":2640:2653  _lpToBurn > 0 */\n      gt\n        /* \"Exchange1.sol\":2640:2690  _lpToBurn > 0 && _lpToBurn < balanceOf(msg.sender) */\n      dup1\n      iszero\n      tag_151\n      jumpi\n      pop\n        /* \"Exchange1.sol\":2669:2690  balanceOf(msg.sender) */\n      tag_152\n        /* \"Exchange1.sol\":2679:2689  msg.sender */\n      caller\n        /* \"Exchange1.sol\":2669:2678  balanceOf */\n      tag_79\n        /* \"Exchange1.sol\":2669:2690  balanceOf(msg.sender) */\n      jump\t// in\n    tag_152:\n        /* \"Exchange1.sol\":2657:2666  _lpToBurn */\n      dup4\n        /* \"Exchange1.sol\":2657:2690  _lpToBurn < balanceOf(msg.sender) */\n      lt\n        /* \"Exchange1.sol\":2640:2690  _lpToBurn > 0 && _lpToBurn < balanceOf(msg.sender) */\n    tag_151:\n        /* \"Exchange1.sol\":2619:2731  require(... */\n      tag_153\n      jumpi\n      mload(0x40)\n      0x08c379a000000000000000000000000000000000000000000000000000000000\n      dup2\n      mstore\n      0x04\n      add\n      tag_154\n      swap1\n      tag_155\n      jump\t// in\n    tag_154:\n      mload(0x40)\n      dup1\n      swap2\n      sub\n      swap1\n      revert\n    tag_153:\n        /* \"Exchange1.sol\":2742:2754  uint totalLP */\n      0x00\n        /* \"Exchange1.sol\":2757:2770  totalSupply() */\n      tag_156\n        /* \"Exchange1.sol\":2757:2768  totalSupply */\n      tag_48\n        /* \"Exchange1.sol\":2757:2770  totalSupply() */\n      jump\t// in\n    tag_156:\n        /* \"Exchange1.sol\":2742:2770  uint totalLP = totalSupply() */\n      swap1\n      pop\n        /* \"Exchange1.sol\":2798:2799  0 */\n      0x00\n        /* \"Exchange1.sol\":2788:2795  totalLP */\n      dup2\n        /* \"Exchange1.sol\":2788:2799  totalLP > 0 */\n      gt\n        /* \"Exchange1.sol\":2780:2814  require(totalLP > 0, \"Empty pool\") */\n      tag_157\n      jumpi\n      mload(0x40)\n      0x08c379a000000000000000000000000000000000000000000000000000000000\n      dup2\n      mstore\n      0x04\n      add\n      tag_158\n      swap1\n      tag_159\n      jump\t// in\n    tag_158:\n      mload(0x40)\n      dup1\n      swap2\n      sub\n      swap1\n      revert\n    tag_157:\n        /* \"Exchange1.sol\":2825:2840  uint ethBalance */\n      0x00\n        /* \"Exchange1.sol\":2843:2864  address(this).balance */\n      selfbalance\n        /* \"Exchange1.sol\":2825:2864  uint ethBalance = address(this).balance */\n      swap1\n      pop\n        /* \"Exchange1.sol\":2874:2891  uint tokenBalance */\n      0x00\n        /* \"Exchange1.sol\":2894:2899  token */\n      0x05\n      0x00\n      swap1\n      sload\n      swap1\n      0x0100\n      exp\n      swap1\n      div\n      0xffffffffffffffffffffffffffffffffffffffff\n      and\n        /* \"Exchange1.sol\":2894:2909  token.balanceOf */\n      0xffffffffffffffffffffffffffffffffffffffff\n      and\n      0x70a08231\n        /* \"Exchange1.sol\":2918:2922  this */\n      address\n        /* \"Exchange1.sol\":2894:2924  token.balanceOf(address(this)) */\n      mload(0x40)\n      dup3\n      0xffffffff\n      and\n      0xe0\n      shl\n      dup2\n      mstore\n      0x04\n      add\n      tag_160\n      swap2\n      swap1\n      tag_161\n      jump\t// in\n    tag_160:\n      0x20\n      mload(0x40)\n      dup1\n      dup4\n      sub\n      dup2\n      dup7\n      gas\n      staticcall\n      iszero\n      dup1\n      iszero\n      tag_163\n      jumpi\n      returndatasize\n      0x00\n      dup1\n      returndatacopy\n      revert(0x00, returndatasize)\n    tag_163:\n      pop\n      pop\n      pop\n      pop\n      mload(0x40)\n      returndatasize\n      not(0x1f)\n      0x1f\n      dup3\n      add\n      and\n      dup3\n      add\n      dup1\n      0x40\n      mstore\n      pop\n      dup2\n      add\n      swap1\n      tag_164\n      swap2\n      swap1\n      tag_165\n      jump\t// in\n    tag_164:\n        /* \"Exchange1.sol\":2874:2924  uint tokenBalance = token.balanceOf(address(this)) */\n      swap1\n      pop\n        /* \"Exchange1.sol\":2974:2981  totalLP */\n      dup3\n        /* \"Exchange1.sol\":2961:2970  _lpToBurn */\n      dup7\n        /* \"Exchange1.sol\":2948:2958  ethBalance */\n      dup4\n        /* \"Exchange1.sol\":2948:2970  ethBalance * _lpToBurn */\n      tag_166\n      swap2\n      swap1\n      tag_167\n      jump\t// in\n    tag_166:\n        /* \"Exchange1.sol\":2947:2981  (ethBalance * _lpToBurn) / totalLP */\n      tag_168\n      swap2\n      swap1\n      tag_169\n      jump\t// in\n    tag_168:\n        /* \"Exchange1.sol\":2935:2981  amountEth = (ethBalance * _lpToBurn) / totalLP */\n      swap4\n      pop\n        /* \"Exchange1.sol\":3034:3041  totalLP */\n      dup3\n        /* \"Exchange1.sol\":3021:3030  _lpToBurn */\n      dup7\n        /* \"Exchange1.sol\":3006:3018  tokenBalance */\n      dup3\n        /* \"Exchange1.sol\":3006:3030  tokenBalance * _lpToBurn */\n      tag_170\n      swap2\n      swap1\n      tag_167\n      jump\t// in\n    tag_170:\n        /* \"Exchange1.sol\":3005:3041  (tokenBalance * _lpToBurn) / totalLP */\n      tag_171\n      swap2\n      swap1\n      tag_169\n      jump\t// in\n    tag_171:\n        /* \"Exchange1.sol\":2991:3041  amountERC20 = (tokenBalance * _lpToBurn) / totalLP */\n      swap5\n      pop\n        /* \"Exchange1.sol\":3127:3155  _burn(msg.sender, _lpToBurn) */\n      tag_172\n        /* \"Exchange1.sol\":3133:3143  msg.sender */\n      caller\n        /* \"Exchange1.sol\":3145:3154  _lpToBurn */\n      dup8\n        /* \"Exchange1.sol\":3127:3132  _burn */\n      tag_173\n        /* \"Exchange1.sol\":3127:3155  _burn(msg.sender, _lpToBurn) */\n      jump\t// in\n    tag_172:\n        /* \"Exchange1.sol\":3187:3197  bool okEth */\n      0x00\n        /* \"Exchange1.sol\":3211:3221  msg.sender */\n      caller\n        /* \"Exchange1.sol\":3203:3227  payable(msg.sender).call */\n      0xffffffffffffffffffffffffffffffffffffffff\n      and\n        /* \"Exchange1.sol\":3235:3244  amountEth */\n      dup6\n        /* \"Exchange1.sol\":3203:3249  payable(msg.sender).call{value: amountEth}(\"\") */\n      mload(0x40)\n      tag_174\n      swap1\n      tag_175\n      jump\t// in\n    tag_174:\n      0x00\n      mload(0x40)\n      dup1\n      dup4\n      sub\n      dup2\n      dup6\n      dup8\n      gas\n      call\n      swap3\n      pop\n      pop\n      pop\n      returndatasize\n      dup1\n      0x00\n      dup2\n      eq\n      tag_178\n      jumpi\n      mload(0x40)\n      swap2\n      pop\n      and(add(returndatasize, 0x3f), not(0x1f))\n      dup3\n      add\n      0x40\n      mstore\n      returndatasize\n      dup3\n      mstore\n      returndatasize\n      0x00\n      0x20\n      dup5\n      add\n      returndatacopy\n      jump(tag_177)\n    tag_178:\n      0x60\n      swap2\n      pop\n    tag_177:\n      pop\n        /* \"Exchange1.sol\":3186:3249  (bool okEth, ) = payable(msg.sender).call{value: amountEth}(\"\") */\n      pop\n      swap1\n      pop\n        /* \"Exchange1.sol\":3267:3272  okEth */\n      dup1\n        /* \"Exchange1.sol\":3259:3296  require(okEth, \"ETH transfer failed\") */\n      tag_179\n      jumpi\n      mload(0x40)\n      0x08c379a000000000000000000000000000000000000000000000000000000000\n      dup2\n      mstore\n      0x04\n      add\n      tag_180\n      swap1\n      tag_181\n      jump\t// in\n    tag_180:\n      mload(0x40)\n      dup1\n      swap2\n      sub\n      swap1\n      revert\n    tag_179:\n        /* \"Exchange1.sol\":3350:3355  token */\n      0x05\n      0x00\n      swap1\n      sload\n      swap1\n      0x0100\n      exp\n      swap1\n      div\n      0xffffffffffffffffffffffffffffffffffffffff\n      and\n        /* \"Exchange1.sol\":3350:3364  token.transfer */\n      0xffffffffffffffffffffffffffffffffffffffff\n      and\n      0xa9059cbb\n        /* \"Exchange1.sol\":3365:3375  msg.sender */\n      caller\n        /* \"Exchange1.sol\":3377:3388  amountERC20 */\n      dup9\n        /* \"Exchange1.sol\":3350:3389  token.transfer(msg.sender, amountERC20) */\n      mload(0x40)\n      dup4\n      0xffffffff\n      and\n      0xe0\n      shl\n      dup2\n      mstore\n      0x04\n      add\n      tag_182\n      swap3\n      swap2\n      swap1\n      tag_183\n      jump\t// in\n    tag_182:\n      0x20\n      mload(0x40)\n      dup1\n      dup4\n      sub\n      dup2\n      0x00\n      dup8\n      gas\n      call\n      iszero\n      dup1\n      iszero\n      tag_185\n      jumpi\n      returndatasize\n      0x00\n      dup1\n      returndatacopy\n      revert(0x00, returndatasize)\n    tag_185:\n      pop\n      pop\n      pop\n      pop\n      mload(0x40)\n      returndatasize\n      not(0x1f)\n      0x1f\n      dup3\n      add\n      and\n      dup3\n      add\n      dup1\n      0x40\n      mstore\n      pop\n      dup2\n      add\n      swap1\n      tag_186\n      swap2\n      swap1\n      tag_187\n      jump\t// in\n    tag_186:\n        /* \"Exchange1.sol\":3329:3436  require(... */\n      tag_188\n      jumpi\n      mload(0x40)\n      0x08c379a000000000000000000000000000000000000000000000000000000000\n      dup2\n      mstore\n      0x04\n      add\n      tag_189\n      swap1\n      tag_190\n      jump\t// in\n    tag_189:\n      mload(0x40)\n      dup1\n      swap2\n      sub\n      swap1\n      revert\n    tag_188:\n        /* \"Exchange1.sol\":3495:3500  token */\n      0x05\n      0x00\n      swap1\n      sload\n      swap1\n      0x0100\n      exp\n      swap1\n      div\n      0xffffffffffffffffffffffffffffffffffffffff\n      and\n        /* \"Exchange1.sol\":3495:3510  token.balanceOf */\n      0xffffffffffffffffffffffffffffffffffffffff\n      and\n      0x70a08231\n        /* \"Exchange1.sol\":3519:3523  this */\n      address\n        /* \"Exchange1.sol\":3495:3525  token.balanceOf(address(this)) */\n      mload(0x40)\n      dup3\n      0xffffffff\n      and\n      0xe0\n      shl\n      dup2\n      mstore\n      0x04\n      add\n      tag_191\n      swap2\n      swap1\n      tag_161\n      jump\t// in\n    tag_191:\n      0x20\n      mload(0x40)\n      dup1\n      dup4\n      sub\n      dup2\n      dup7\n      gas\n      staticcall\n      iszero\n      dup1\n      iszero\n      tag_193\n      jumpi\n      returndatasize\n      0x00\n      dup1\n      returndatacopy\n      revert(0x00, returndatasize)\n    tag_193:\n      pop\n      pop\n      pop\n      pop\n      mload(0x40)\n      returndatasize\n      not(0x1f)\n      0x1f\n      dup3\n      add\n      and\n      dup3\n      add\n      dup1\n      0x40\n      mstore\n      pop\n      dup2\n      add\n      swap1\n      tag_194\n      swap2\n      swap1\n      tag_165\n      jump\t// in\n    tag_194:\n        /* \"Exchange1.sol\":3471:3492  address(this).balance */\n      selfbalance\n        /* \"Exchange1.sol\":3471:3525  address(this).balance * token.balanceOf(address(this)) */\n      tag_195\n      swap2\n      swap1\n      tag_167\n      jump\t// in\n    tag_195:\n        /* \"Exchange1.sol\":3467:3468  k */\n      0x06\n        /* \"Exchange1.sol\":3467:3525  k = address(this).balance * token.balanceOf(address(this)) */\n      dup2\n      swap1\n      sstore\n      pop\n        /* \"Exchange1.sol\":3541:3593  LiquidityWithdrew(amountERC20, amountEth, _lpToBurn) */\n      0xb14f451e613015c13a17c78777f1d87fcb448d7330d67299a09b8f2db38aab10\n        /* \"Exchange1.sol\":3559:3570  amountERC20 */\n      dup7\n        /* \"Exchange1.sol\":3572:3581  amountEth */\n      dup7\n        /* \"Exchange1.sol\":3583:3592  _lpToBurn */\n      dup10\n        /* \"Exchange1.sol\":3541:3593  LiquidityWithdrew(amountERC20, amountEth, _lpToBurn) */\n      mload(0x40)\n      tag_196\n      swap4\n      swap3\n      swap2\n      swap1\n      tag_197\n      jump\t// in\n    tag_196:\n      mload(0x40)\n      dup1\n      swap2\n      sub\n      swap1\n      log1\n        /* \"Exchange1.sol\":3603:3634  return (amountERC20, amountEth) */\n      pop\n      pop\n      pop\n      pop\n        /* \"Exchange1.sol\":2500:3641  function withdrawLiquidity(... */\n      swap2\n      pop\n      swap2\n      jump\t// out\n        /* \"@openzeppelin/contracts@4.9.3/token/ERC20/ERC20.sol\":3255:3361  function totalSupply() public view virtual override returns (uint256) {... */\n    tag_48:\n        /* \"@openzeppelin/contracts@4.9.3/token/ERC20/ERC20.sol\":3316:3323  uint256 */\n      0x00\n        /* \"@openzeppelin/contracts@4.9.3/token/ERC20/ERC20.sol\":3342:3354  _totalSupply */\n      sload(0x02)\n        /* \"@openzeppelin/contracts@4.9.3/token/ERC20/ERC20.sol\":3335:3354  return _totalSupply */\n      swap1\n      pop\n        /* \"@openzeppelin/contracts@4.9.3/token/ERC20/ERC20.sol\":3255:3361  function totalSupply() public view virtual override returns (uint256) {... */\n      swap1\n      jump\t// out\n        /* \"@openzeppelin/contracts@4.9.3/token/ERC20/ERC20.sol\":5203:5459  function transferFrom(address from, address to, uint256 amount) public virtual override returns (bool) {... */\n    tag_55:\n        /* \"@openzeppelin/contracts@4.9.3/token/ERC20/ERC20.sol\":5300:5304  bool */\n      0x00\n        /* \"@openzeppelin/contracts@4.9.3/token/ERC20/ERC20.sol\":5316:5331  address spender */\n      dup1\n        /* \"@openzeppelin/contracts@4.9.3/token/ERC20/ERC20.sol\":5334:5346  _msgSender() */\n      tag_200\n        /* \"@openzeppelin/contracts@4.9.3/token/ERC20/ERC20.sol\":5334:5344  _msgSender */\n      tag_147\n        /* \"@openzeppelin/contracts@4.9.3/token/ERC20/ERC20.sol\":5334:5346  _msgSender() */\n      jump\t// in\n    tag_200:\n        /* \"@openzeppelin/contracts@4.9.3/token/ERC20/ERC20.sol\":5316:5346  address spender = _msgSender() */\n      swap1\n      pop\n        /* \"@openzeppelin/contracts@4.9.3/token/ERC20/ERC20.sol\":5356:5394  _spendAllowance(from, spender, amount) */\n      tag_201\n        /* \"@openzeppelin/contracts@4.9.3/token/ERC20/ERC20.sol\":5372:5376  from */\n      dup6\n        /* \"@openzeppelin/contracts@4.9.3/token/ERC20/ERC20.sol\":5378:5385  spender */\n      dup3\n        /* \"@openzeppelin/contracts@4.9.3/token/ERC20/ERC20.sol\":5387:5393  amount */\n      dup6\n        /* \"@openzeppelin/contracts@4.9.3/token/ERC20/ERC20.sol\":5356:5371  _spendAllowance */\n      tag_202\n        /* \"@openzeppelin/contracts@4.9.3/token/ERC20/ERC20.sol\":5356:5394  _spendAllowance(from, spender, amount) */\n      jump\t// in\n    tag_201:\n        /* \"@openzeppelin/contracts@4.9.3/token/ERC20/ERC20.sol\":5404:5431  _transfer(from, to, amount) */\n      tag_203\n        /* \"@openzeppelin/contracts@4.9.3/token/ERC20/ERC20.sol\":5414:5418  from */\n      dup6\n        /* \"@openzeppelin/contracts@4.9.3/token/ERC20/ERC20.sol\":5420:5422  to */\n      dup6\n        /* \"@openzeppelin/contracts@4.9.3/token/ERC20/ERC20.sol\":5424:5430  amount */\n      dup6\n        /* \"@openzeppelin/contracts@4.9.3/token/ERC20/ERC20.sol\":5404:5413  _transfer */\n      tag_204\n        /* \"@openzeppelin/contracts@4.9.3/token/ERC20/ERC20.sol\":5404:5431  _transfer(from, to, amount) */\n      jump\t// in\n    tag_203:\n        /* \"@openzeppelin/contracts@4.9.3/token/ERC20/ERC20.sol\":5448:5452  true */\n      0x01\n        /* \"@openzeppelin/contracts@4.9.3/token/ERC20/ERC20.sol\":5441:5452  return true */\n      swap2\n      pop\n      pop\n        /* \"@openzeppelin/contracts@4.9.3/token/ERC20/ERC20.sol\":5203:5459  function transferFrom(address from, address to, uint256 amount) public virtual override returns (bool) {... */\n      swap4\n      swap3\n      pop\n      pop\n      pop\n      jump\t// out\n        /* \"Exchange1.sol\":3903:4247  function estimateEthToProvide(... */\n    tag_60:\n        /* \"Exchange1.sol\":3994:3998  uint */\n      0x00\n        /* \"Exchange1.sol\":4010:4025  uint ethBalance */\n      dup1\n        /* \"Exchange1.sol\":4028:4049  address(this).balance */\n      selfbalance\n        /* \"Exchange1.sol\":4010:4049  uint ethBalance = address(this).balance */\n      swap1\n      pop\n        /* \"Exchange1.sol\":4059:4076  uint tokenBalance */\n      0x00\n        /* \"Exchange1.sol\":4079:4084  token */\n      0x05\n      0x00\n      swap1\n      sload\n      swap1\n      0x0100\n      exp\n      swap1\n      div\n      0xffffffffffffffffffffffffffffffffffffffff\n      and\n        /* \"Exchange1.sol\":4079:4094  token.balanceOf */\n      0xffffffffffffffffffffffffffffffffffffffff\n      and\n      0x70a08231\n        /* \"Exchange1.sol\":4103:4107  this */\n      address\n        /* \"Exchange1.sol\":4079:4109  token.balanceOf(address(this)) */\n      mload(0x40)\n      dup3\n      0xffffffff\n      and\n      0xe0\n      shl\n      dup2\n      mstore\n      0x04\n      add\n      tag_206\n      swap2\n      swap1\n      tag_161\n      jump\t// in\n    tag_206:\n      0x20\n      mload(0x40)\n      dup1\n      dup4\n      sub\n      dup2\n      dup7\n      gas\n      staticcall\n      iszero\n      dup1\n      iszero\n      tag_208\n      jumpi\n      returndatasize\n      0x00\n      dup1\n      returndatacopy\n      revert(0x00, returndatasize)\n    tag_208:\n      pop\n      pop\n      pop\n      pop\n      mload(0x40)\n      returndatasize\n      not(0x1f)\n      0x1f\n      dup3\n      add\n      and\n      dup3\n      add\n      dup1\n      0x40\n      mstore\n      pop\n      dup2\n      add\n      swap1\n      tag_209\n      swap2\n      swap1\n      tag_165\n      jump\t// in\n    tag_209:\n        /* \"Exchange1.sol\":4059:4109  uint tokenBalance = token.balanceOf(address(this)) */\n      swap1\n      pop\n        /* \"Exchange1.sol\":4142:4143  0 */\n      0x00\n        /* \"Exchange1.sol\":4127:4139  tokenBalance */\n      dup2\n        /* \"Exchange1.sol\":4127:4143  tokenBalance > 0 */\n      gt\n        /* \"Exchange1.sol\":4127:4161  tokenBalance > 0 && ethBalance > 0 */\n      dup1\n      iszero\n      tag_210\n      jumpi\n      pop\n        /* \"Exchange1.sol\":4160:4161  0 */\n      0x00\n        /* \"Exchange1.sol\":4147:4157  ethBalance */\n      dup3\n        /* \"Exchange1.sol\":4147:4161  ethBalance > 0 */\n      gt\n        /* \"Exchange1.sol\":4127:4161  tokenBalance > 0 && ethBalance > 0 */\n    tag_210:\n        /* \"Exchange1.sol\":4119:4176  require(tokenBalance > 0 && ethBalance > 0, \"Pool empty\") */\n      tag_211\n      jumpi\n      mload(0x40)\n      0x08c379a000000000000000000000000000000000000000000000000000000000\n      dup2\n      mstore\n      0x04\n      add\n      tag_212\n      swap1\n      tag_213\n      jump\t// in\n    tag_212:\n      mload(0x40)\n      dup1\n      swap2\n      sub\n      swap1\n      revert\n    tag_211:\n        /* \"Exchange1.sol\":4228:4240  tokenBalance */\n      dup1\n        /* \"Exchange1.sol\":4207:4224  _amountERC20Token */\n      dup5\n        /* \"Exchange1.sol\":4194:4204  ethBalance */\n      dup4\n        /* \"Exchange1.sol\":4194:4224  ethBalance * _amountERC20Token */\n      tag_214\n      swap2\n      swap1\n      tag_167\n      jump\t// in\n    tag_214:\n        /* \"Exchange1.sol\":4193:4240  (ethBalance * _amountERC20Token) / tokenBalance */\n      tag_215\n      swap2\n      swap1\n      tag_169\n      jump\t// in\n    tag_215:\n        /* \"Exchange1.sol\":4186:4240  return (ethBalance * _amountERC20Token) / tokenBalance */\n      swap3\n      pop\n      pop\n      pop\n        /* \"Exchange1.sol\":3903:4247  function estimateEthToProvide(... */\n      swap2\n      swap1\n      pop\n      jump\t// out\n        /* \"Exchange1.sol\":6569:7448  function swapForERC20Token() external payable returns (uint tokenOut) {... */\n    tag_63:\n        /* \"Exchange1.sol\":6624:6637  uint tokenOut */\n      0x00\n        /* \"Exchange1.sol\":6669:6670  0 */\n      dup1\n        /* \"Exchange1.sol\":6657:6666  msg.value */\n      callvalue\n        /* \"Exchange1.sol\":6657:6670  msg.value > 0 */\n      gt\n        /* \"Exchange1.sol\":6649:6686  require(msg.value > 0, \"Invalid ETH\") */\n      tag_217\n      jumpi\n      mload(0x40)\n      0x08c379a000000000000000000000000000000000000000000000000000000000\n      dup2\n      mstore\n      0x04\n      add\n      tag_218\n      swap1\n      tag_219\n      jump\t// in\n    tag_218:\n      mload(0x40)\n      dup1\n      swap2\n      sub\n      swap1\n      revert\n    tag_217:\n        /* \"Exchange1.sol\":6697:6718  uint ethBalanceBefore */\n      0x00\n        /* \"Exchange1.sol\":6745:6754  msg.value */\n      callvalue\n        /* \"Exchange1.sol\":6721:6742  address(this).balance */\n      selfbalance\n        /* \"Exchange1.sol\":6721:6754  address(this).balance - msg.value */\n      tag_220\n      swap2\n      swap1\n      tag_221\n      jump\t// in\n    tag_220:\n        /* \"Exchange1.sol\":6697:6754  uint ethBalanceBefore = address(this).balance - msg.value */\n      swap1\n      pop\n        /* \"Exchange1.sol\":6764:6787  uint tokenBalanceBefore */\n      0x00\n        /* \"Exchange1.sol\":6790:6795  token */\n      0x05\n      0x00\n      swap1\n      sload\n      swap1\n      0x0100\n      exp\n      swap1\n      div\n      0xffffffffffffffffffffffffffffffffffffffff\n      and\n        /* \"Exchange1.sol\":6790:6805  token.balanceOf */\n      0xffffffffffffffffffffffffffffffffffffffff\n      and\n      0x70a08231\n        /* \"Exchange1.sol\":6814:6818  this */\n      address\n        /* \"Exchange1.sol\":6790:6820  token.balanceOf(address(this)) */\n      mload(0x40)\n      dup3\n      0xffffffff\n      and\n      0xe0\n      shl\n      dup2\n      mstore\n      0x04\n      add\n      tag_222\n      swap2\n      swap1\n      tag_161\n      jump\t// in\n    tag_222:\n      0x20\n      mload(0x40)\n      dup1\n      dup4\n      sub\n      dup2\n      dup7\n      gas\n      staticcall\n      iszero\n      dup1\n      iszero\n      tag_224\n      jumpi\n      returndatasize\n      0x00\n      dup1\n      returndatacopy\n      revert(0x00, returndatasize)\n    tag_224:\n      pop\n      pop\n      pop\n      pop\n      mload(0x40)\n      returndatasize\n      not(0x1f)\n      0x1f\n      dup3\n      add\n      and\n      dup3\n      add\n      dup1\n      0x40\n      mstore\n      pop\n      dup2\n      add\n      swap1\n      tag_225\n      swap2\n      swap1\n      tag_165\n      jump\t// in\n    tag_225:\n        /* \"Exchange1.sol\":6764:6820  uint tokenBalanceBefore = token.balanceOf(address(this)) */\n      swap1\n      pop\n        /* \"Exchange1.sol\":6857:6858  0 */\n      0x00\n        /* \"Exchange1.sol\":6838:6854  ethBalanceBefore */\n      dup3\n        /* \"Exchange1.sol\":6838:6858  ethBalanceBefore > 0 */\n      gt\n        /* \"Exchange1.sol\":6838:6884  ethBalanceBefore > 0 && tokenBalanceBefore > 0 */\n      dup1\n      iszero\n      tag_226\n      jumpi\n      pop\n        /* \"Exchange1.sol\":6883:6884  0 */\n      0x00\n        /* \"Exchange1.sol\":6862:6880  tokenBalanceBefore */\n      dup2\n        /* \"Exchange1.sol\":6862:6884  tokenBalanceBefore > 0 */\n      gt\n        /* \"Exchange1.sol\":6838:6884  ethBalanceBefore > 0 && tokenBalanceBefore > 0 */\n    tag_226:\n        /* \"Exchange1.sol\":6830:6899  require(ethBalanceBefore > 0 && tokenBalanceBefore > 0, \"Pool empty\") */\n      tag_227\n      jumpi\n      mload(0x40)\n      0x08c379a000000000000000000000000000000000000000000000000000000000\n      dup2\n      mstore\n      0x04\n      add\n      tag_228\n      swap1\n      tag_213\n      jump\t// in\n    tag_228:\n      mload(0x40)\n      dup1\n      swap2\n      sub\n      swap1\n      revert\n    tag_227:\n        /* \"Exchange1.sol\":6910:6928  uint newEthBalance */\n      0x00\n        /* \"Exchange1.sol\":6950:6959  msg.value */\n      callvalue\n        /* \"Exchange1.sol\":6931:6947  ethBalanceBefore */\n      dup4\n        /* \"Exchange1.sol\":6931:6959  ethBalanceBefore + msg.value */\n      tag_229\n      swap2\n      swap1\n      tag_230\n      jump\t// in\n    tag_229:\n        /* \"Exchange1.sol\":6910:6959  uint newEthBalance = ethBalanceBefore + msg.value */\n      swap1\n      pop\n        /* \"Exchange1.sol\":6969:6989  uint newTokenBalance */\n      0x00\n        /* \"Exchange1.sol\":6996:7009  newEthBalance */\n      dup2\n        /* \"Exchange1.sol\":6992:6993  k */\n      sload(0x06)\n        /* \"Exchange1.sol\":6992:7009  k / newEthBalance */\n      tag_231\n      swap2\n      swap1\n      tag_169\n      jump\t// in\n    tag_231:\n        /* \"Exchange1.sol\":6969:7009  uint newTokenBalance = k / newEthBalance */\n      swap1\n      pop\n        /* \"Exchange1.sol\":7048:7063  newTokenBalance */\n      dup1\n        /* \"Exchange1.sol\":7027:7045  tokenBalanceBefore */\n      dup4\n        /* \"Exchange1.sol\":7027:7063  tokenBalanceBefore > newTokenBalance */\n      gt\n        /* \"Exchange1.sol\":7019:7083  require(tokenBalanceBefore > newTokenBalance, \"No token output\") */\n      tag_232\n      jumpi\n      mload(0x40)\n      0x08c379a000000000000000000000000000000000000000000000000000000000\n      dup2\n      mstore\n      0x04\n      add\n      tag_233\n      swap1\n      tag_234\n      jump\t// in\n    tag_233:\n      mload(0x40)\n      dup1\n      swap2\n      sub\n      swap1\n      revert\n    tag_232:\n        /* \"Exchange1.sol\":7125:7140  newTokenBalance */\n      dup1\n        /* \"Exchange1.sol\":7104:7122  tokenBalanceBefore */\n      dup4\n        /* \"Exchange1.sol\":7104:7140  tokenBalanceBefore - newTokenBalance */\n      tag_235\n      swap2\n      swap1\n      tag_221\n      jump\t// in\n    tag_235:\n        /* \"Exchange1.sol\":7093:7140  tokenOut = tokenBalanceBefore - newTokenBalance */\n      swap5\n      pop\n        /* \"Exchange1.sol\":7191:7196  token */\n      0x05\n      0x00\n      swap1\n      sload\n      swap1\n      0x0100\n      exp\n      swap1\n      div\n      0xffffffffffffffffffffffffffffffffffffffff\n      and\n        /* \"Exchange1.sol\":7191:7205  token.transfer */\n      0xffffffffffffffffffffffffffffffffffffffff\n      and\n      0xa9059cbb\n        /* \"Exchange1.sol\":7206:7216  msg.sender */\n      caller\n        /* \"Exchange1.sol\":7218:7226  tokenOut */\n      dup8\n        /* \"Exchange1.sol\":7191:7227  token.transfer(msg.sender, tokenOut) */\n      mload(0x40)\n      dup4\n      0xffffffff\n      and\n      0xe0\n      shl\n      dup2\n      mstore\n      0x04\n      add\n      tag_236\n      swap3\n      swap2\n      swap1\n      tag_183\n      jump\t// in\n    tag_236:\n      0x20\n      mload(0x40)\n      dup1\n      dup4\n      sub\n      dup2\n      0x00\n      dup8\n      gas\n      call\n      iszero\n      dup1\n      iszero\n      tag_238\n      jumpi\n      returndatasize\n      0x00\n      dup1\n      returndatacopy\n      revert(0x00, returndatasize)\n    tag_238:\n      pop\n      pop\n      pop\n      pop\n      mload(0x40)\n      returndatasize\n      not(0x1f)\n      0x1f\n      dup3\n      add\n      and\n      dup3\n      add\n      dup1\n      0x40\n      mstore\n      pop\n      dup2\n      add\n      swap1\n      tag_239\n      swap2\n      swap1\n      tag_187\n      jump\t// in\n    tag_239:\n        /* \"Exchange1.sol\":7183:7253  require(token.transfer(msg.sender, tokenOut), \"Token transfer failed\") */\n      tag_240\n      jumpi\n      mload(0x40)\n      0x08c379a000000000000000000000000000000000000000000000000000000000\n      dup2\n      mstore\n      0x04\n      add\n      tag_241\n      swap1\n      tag_190\n      jump\t// in\n    tag_241:\n      mload(0x40)\n      dup1\n      swap2\n      sub\n      swap1\n      revert\n    tag_240:\n        /* \"Exchange1.sol\":7332:7337  token */\n      0x05\n      0x00\n      swap1\n      sload\n      swap1\n      0x0100\n      exp\n      swap1\n      div\n      0xffffffffffffffffffffffffffffffffffffffff\n      and\n        /* \"Exchange1.sol\":7332:7347  token.balanceOf */\n      0xffffffffffffffffffffffffffffffffffffffff\n      and\n      0x70a08231\n        /* \"Exchange1.sol\":7356:7360  this */\n      address\n        /* \"Exchange1.sol\":7332:7362  token.balanceOf(address(this)) */\n      mload(0x40)\n      dup3\n      0xffffffff\n      and\n      0xe0\n      shl\n      dup2\n      mstore\n      0x04\n      add\n      tag_242\n      swap2\n      swap1\n      tag_161\n      jump\t// in\n    tag_242:\n      0x20\n      mload(0x40)\n      dup1\n      dup4\n      sub\n      dup2\n      dup7\n      gas\n      staticcall\n      iszero\n      dup1\n      iszero\n      tag_244\n      jumpi\n      returndatasize\n      0x00\n      dup1\n      returndatacopy\n      revert(0x00, returndatasize)\n    tag_244:\n      pop\n      pop\n      pop\n      pop\n      mload(0x40)\n      returndatasize\n      not(0x1f)\n      0x1f\n      dup3\n      add\n      and\n      dup3\n      add\n      dup1\n      0x40\n      mstore\n      pop\n      dup2\n      add\n      swap1\n      tag_245\n      swap2\n      swap1\n      tag_165\n      jump\t// in\n    tag_245:\n        /* \"Exchange1.sol\":7308:7329  address(this).balance */\n      selfbalance\n        /* \"Exchange1.sol\":7308:7362  address(this).balance * token.balanceOf(address(this)) */\n      tag_246\n      swap2\n      swap1\n      tag_167\n      jump\t// in\n    tag_246:\n        /* \"Exchange1.sol\":7304:7305  k */\n      0x06\n        /* \"Exchange1.sol\":7304:7362  k = address(this).balance * token.balanceOf(address(this)) */\n      dup2\n      swap1\n      sstore\n      pop\n        /* \"Exchange1.sol\":7378:7416  SwapForERC20Token(tokenOut, msg.value) */\n      0xcdfc57b3d0cdc24b23cea1f480aabea287321f5bee23ad76c2b52fa7982f5ea5\n        /* \"Exchange1.sol\":7396:7404  tokenOut */\n      dup6\n        /* \"Exchange1.sol\":7406:7415  msg.value */\n      callvalue\n        /* \"Exchange1.sol\":7378:7416  SwapForERC20Token(tokenOut, msg.value) */\n      mload(0x40)\n      tag_247\n      swap3\n      swap2\n      swap1\n      tag_45\n      jump\t// in\n    tag_247:\n      mload(0x40)\n      dup1\n      swap2\n      sub\n      swap1\n      log1\n        /* \"Exchange1.sol\":7426:7441  return tokenOut */\n      pop\n      pop\n      pop\n      pop\n        /* \"Exchange1.sol\":6569:7448  function swapForERC20Token() external payable returns (uint tokenOut) {... */\n      swap1\n      jump\t// out\n        /* \"@openzeppelin/contracts@4.9.3/token/ERC20/ERC20.sol\":3104:3195  function decimals() public view virtual override returns (uint8) {... */\n    tag_67:\n        /* \"@openzeppelin/contracts@4.9.3/token/ERC20/ERC20.sol\":3162:3167  uint8 */\n      0x00\n        /* \"@openzeppelin/contracts@4.9.3/token/ERC20/ERC20.sol\":3186:3188  18 */\n      0x12\n        /* \"@openzeppelin/contracts@4.9.3/token/ERC20/ERC20.sol\":3179:3188  return 18 */\n      swap1\n      pop\n        /* \"@openzeppelin/contracts@4.9.3/token/ERC20/ERC20.sol\":3104:3195  function decimals() public view virtual override returns (uint8) {... */\n      swap1\n      jump\t// out\n        /* \"@openzeppelin/contracts@4.9.3/token/ERC20/ERC20.sol\":5854:6088  function increaseAllowance(address spender, uint256 addedValue) public virtual returns (bool) {... */\n    tag_73:\n        /* \"@openzeppelin/contracts@4.9.3/token/ERC20/ERC20.sol\":5942:5946  bool */\n      0x00\n        /* \"@openzeppelin/contracts@4.9.3/token/ERC20/ERC20.sol\":5958:5971  address owner */\n      dup1\n        /* \"@openzeppelin/contracts@4.9.3/token/ERC20/ERC20.sol\":5974:5986  _msgSender() */\n      tag_250\n        /* \"@openzeppelin/contracts@4.9.3/token/ERC20/ERC20.sol\":5974:5984  _msgSender */\n      tag_147\n        /* \"@openzeppelin/contracts@4.9.3/token/ERC20/ERC20.sol\":5974:5986  _msgSender() */\n      jump\t// in\n    tag_250:\n        /* \"@openzeppelin/contracts@4.9.3/token/ERC20/ERC20.sol\":5958:5986  address owner = _msgSender() */\n      swap1\n      pop\n        /* \"@openzeppelin/contracts@4.9.3/token/ERC20/ERC20.sol\":5996:6060  _approve(owner, spender, allowance(owner, spender) + addedValue) */\n      tag_251\n        /* \"@openzeppelin/contracts@4.9.3/token/ERC20/ERC20.sol\":6005:6010  owner */\n      dup2\n        /* \"@openzeppelin/contracts@4.9.3/token/ERC20/ERC20.sol\":6012:6019  spender */\n      dup6\n        /* \"@openzeppelin/contracts@4.9.3/token/ERC20/ERC20.sol\":6049:6059  addedValue */\n      dup6\n        /* \"@openzeppelin/contracts@4.9.3/token/ERC20/ERC20.sol\":6021:6046  allowance(owner, spender) */\n      tag_252\n        /* \"@openzeppelin/contracts@4.9.3/token/ERC20/ERC20.sol\":6031:6036  owner */\n      dup6\n        /* \"@openzeppelin/contracts@4.9.3/token/ERC20/ERC20.sol\":6038:6045  spender */\n      dup10\n        /* \"@openzeppelin/contracts@4.9.3/token/ERC20/ERC20.sol\":6021:6030  allowance */\n      tag_118\n        /* \"@openzeppelin/contracts@4.9.3/token/ERC20/ERC20.sol\":6021:6046  allowance(owner, spender) */\n      jump\t// in\n    tag_252:\n        /* \"@openzeppelin/contracts@4.9.3/token/ERC20/ERC20.sol\":6021:6059  allowance(owner, spender) + addedValue */\n      tag_253\n      swap2\n      swap1\n      tag_230\n      jump\t// in\n    tag_253:\n        /* \"@openzeppelin/contracts@4.9.3/token/ERC20/ERC20.sol\":5996:6004  _approve */\n      tag_149\n        /* \"@openzeppelin/contracts@4.9.3/token/ERC20/ERC20.sol\":5996:6060  _approve(owner, spender, allowance(owner, spender) + addedValue) */\n      jump\t// in\n    tag_251:\n        /* \"@openzeppelin/contracts@4.9.3/token/ERC20/ERC20.sol\":6077:6081  true */\n      0x01\n        /* \"@openzeppelin/contracts@4.9.3/token/ERC20/ERC20.sol\":6070:6081  return true */\n      swap2\n      pop\n      pop\n        /* \"@openzeppelin/contracts@4.9.3/token/ERC20/ERC20.sol\":5854:6088  function increaseAllowance(address spender, uint256 addedValue) public virtual returns (bool) {... */\n      swap3\n      swap2\n      pop\n      pop\n      jump\t// out\n        /* \"@openzeppelin/contracts@4.9.3/token/ERC20/ERC20.sol\":3419:3544  function balanceOf(address account) public view virtual override returns (uint256) {... */\n    tag_79:\n        /* \"@openzeppelin/contracts@4.9.3/token/ERC20/ERC20.sol\":3493:3500  uint256 */\n      0x00\n        /* \"@openzeppelin/contracts@4.9.3/token/ERC20/ERC20.sol\":3519:3528  _balances */\n      dup1\n        /* \"@openzeppelin/contracts@4.9.3/token/ERC20/ERC20.sol\":3519:3537  _balances[account] */\n      0x00\n        /* \"@openzeppelin/contracts@4.9.3/token/ERC20/ERC20.sol\":3529:3536  account */\n      dup4\n        /* \"@openzeppelin/contracts@4.9.3/token/ERC20/ERC20.sol\":3519:3537  _balances[account] */\n      0xffffffffffffffffffffffffffffffffffffffff\n      and\n      0xffffffffffffffffffffffffffffffffffffffff\n      and\n      dup2\n      mstore\n      0x20\n      add\n      swap1\n      dup2\n      mstore\n      0x20\n      add\n      0x00\n      keccak256\n      sload\n        /* \"@openzeppelin/contracts@4.9.3/token/ERC20/ERC20.sol\":3512:3537  return _balances[account] */\n      swap1\n      pop\n        /* \"@openzeppelin/contracts@4.9.3/token/ERC20/ERC20.sol\":3419:3544  function balanceOf(address account) public view virtual override returns (uint256) {... */\n      swap2\n      swap1\n      pop\n      jump\t// out\n        /* \"Exchange1.sol\":7520:8026  function estimateSwapForERC20Token(... */\n    tag_84:\n        /* \"Exchange1.sol\":7609:7622  uint tokenOut */\n      0x00\n        /* \"Exchange1.sol\":7634:7649  uint ethBalance */\n      dup1\n        /* \"Exchange1.sol\":7652:7673  address(this).balance */\n      selfbalance\n        /* \"Exchange1.sol\":7634:7673  uint ethBalance = address(this).balance */\n      swap1\n      pop\n        /* \"Exchange1.sol\":7683:7700  uint tokenBalance */\n      0x00\n        /* \"Exchange1.sol\":7703:7708  token */\n      0x05\n      0x00\n      swap1\n      sload\n      swap1\n      0x0100\n      exp\n      swap1\n      div\n      0xffffffffffffffffffffffffffffffffffffffff\n      and\n        /* \"Exchange1.sol\":7703:7718  token.balanceOf */\n      0xffffffffffffffffffffffffffffffffffffffff\n      and\n      0x70a08231\n        /* \"Exchange1.sol\":7727:7731  this */\n      address\n        /* \"Exchange1.sol\":7703:7733  token.balanceOf(address(this)) */\n      mload(0x40)\n      dup3\n      0xffffffff\n      and\n      0xe0\n      shl\n      dup2\n      mstore\n      0x04\n      add\n      tag_256\n      swap2\n      swap1\n      tag_161\n      jump\t// in\n    tag_256:\n      0x20\n      mload(0x40)\n      dup1\n      dup4\n      sub\n      dup2\n      dup7\n      gas\n      staticcall\n      iszero\n      dup1\n      iszero\n      tag_258\n      jumpi\n      returndatasize\n      0x00\n      dup1\n      returndatacopy\n      revert(0x00, returndatasize)\n    tag_258:\n      pop\n      pop\n      pop\n      pop\n      mload(0x40)\n      returndatasize\n      not(0x1f)\n      0x1f\n      dup3\n      add\n      and\n      dup3\n      add\n      dup1\n      0x40\n      mstore\n      pop\n      dup2\n      add\n      swap1\n      tag_259\n      swap2\n      swap1\n      tag_165\n      jump\t// in\n    tag_259:\n        /* \"Exchange1.sol\":7683:7733  uint tokenBalance = token.balanceOf(address(this)) */\n      swap1\n      pop\n        /* \"Exchange1.sol\":7764:7765  0 */\n      0x00\n        /* \"Exchange1.sol\":7751:7761  ethBalance */\n      dup3\n        /* \"Exchange1.sol\":7751:7765  ethBalance > 0 */\n      gt\n        /* \"Exchange1.sol\":7751:7785  ethBalance > 0 && tokenBalance > 0 */\n      dup1\n      iszero\n      tag_260\n      jumpi\n      pop\n        /* \"Exchange1.sol\":7784:7785  0 */\n      0x00\n        /* \"Exchange1.sol\":7769:7781  tokenBalance */\n      dup2\n        /* \"Exchange1.sol\":7769:7785  tokenBalance > 0 */\n      gt\n        /* \"Exchange1.sol\":7751:7785  ethBalance > 0 && tokenBalance > 0 */\n    tag_260:\n        /* \"Exchange1.sol\":7743:7800  require(ethBalance > 0 && tokenBalance > 0, \"Pool empty\") */\n      tag_261\n      jumpi\n      mload(0x40)\n      0x08c379a000000000000000000000000000000000000000000000000000000000\n      dup2\n      mstore\n      0x04\n      add\n      tag_262\n      swap1\n      tag_213\n      jump\t// in\n    tag_262:\n      mload(0x40)\n      dup1\n      swap2\n      sub\n      swap1\n      revert\n    tag_261:\n        /* \"Exchange1.sol\":7810:7828  uint newEthBalance */\n      0x00\n        /* \"Exchange1.sol\":7844:7854  _amountEth */\n      dup5\n        /* \"Exchange1.sol\":7831:7841  ethBalance */\n      dup4\n        /* \"Exchange1.sol\":7831:7854  ethBalance + _amountEth */\n      tag_263\n      swap2\n      swap1\n      tag_230\n      jump\t// in\n    tag_263:\n        /* \"Exchange1.sol\":7810:7854  uint newEthBalance = ethBalance + _amountEth */\n      swap1\n      pop\n        /* \"Exchange1.sol\":7864:7884  uint newTokenBalance */\n      0x00\n        /* \"Exchange1.sol\":7891:7904  newEthBalance */\n      dup2\n        /* \"Exchange1.sol\":7887:7888  k */\n      sload(0x06)\n        /* \"Exchange1.sol\":7887:7904  k / newEthBalance */\n      tag_264\n      swap2\n      swap1\n      tag_169\n      jump\t// in\n    tag_264:\n        /* \"Exchange1.sol\":7864:7904  uint newTokenBalance = k / newEthBalance */\n      swap1\n      pop\n        /* \"Exchange1.sol\":7937:7952  newTokenBalance */\n      dup1\n        /* \"Exchange1.sol\":7922:7934  tokenBalance */\n      dup4\n        /* \"Exchange1.sol\":7922:7952  tokenBalance > newTokenBalance */\n      gt\n        /* \"Exchange1.sol\":7914:7972  require(tokenBalance > newTokenBalance, \"No token output\") */\n      tag_265\n      jumpi\n      mload(0x40)\n      0x08c379a000000000000000000000000000000000000000000000000000000000\n      dup2\n      mstore\n      0x04\n      add\n      tag_266\n      swap1\n      tag_234\n      jump\t// in\n    tag_266:\n      mload(0x40)\n      dup1\n      swap2\n      sub\n      swap1\n      revert\n    tag_265:\n        /* \"Exchange1.sol\":8004:8019  newTokenBalance */\n      dup1\n        /* \"Exchange1.sol\":7989:8001  tokenBalance */\n      dup4\n        /* \"Exchange1.sol\":7989:8019  tokenBalance - newTokenBalance */\n      tag_267\n      swap2\n      swap1\n      tag_221\n      jump\t// in\n    tag_267:\n        /* \"Exchange1.sol\":7982:8019  return tokenBalance - newTokenBalance */\n      swap5\n      pop\n      pop\n      pop\n      pop\n      pop\n        /* \"Exchange1.sol\":7520:8026  function estimateSwapForERC20Token(... */\n      swap2\n      swap1\n      pop\n      jump\t// out\n        /* \"Exchange1.sol\":6000:6505  function estimateSwapForEth(... */\n    tag_89:\n        /* \"Exchange1.sol\":6089:6100  uint ethOut */\n      0x00\n        /* \"Exchange1.sol\":6112:6127  uint ethBalance */\n      dup1\n        /* \"Exchange1.sol\":6130:6151  address(this).balance */\n      selfbalance\n        /* \"Exchange1.sol\":6112:6151  uint ethBalance = address(this).balance */\n      swap1\n      pop\n        /* \"Exchange1.sol\":6161:6178  uint tokenBalance */\n      0x00\n        /* \"Exchange1.sol\":6181:6186  token */\n      0x05\n      0x00\n      swap1\n      sload\n      swap1\n      0x0100\n      exp\n      swap1\n      div\n      0xffffffffffffffffffffffffffffffffffffffff\n      and\n        /* \"Exchange1.sol\":6181:6196  token.balanceOf */\n      0xffffffffffffffffffffffffffffffffffffffff\n      and\n      0x70a08231\n        /* \"Exchange1.sol\":6205:6209  this */\n      address\n        /* \"Exchange1.sol\":6181:6211  token.balanceOf(address(this)) */\n      mload(0x40)\n      dup3\n      0xffffffff\n      and\n      0xe0\n      shl\n      dup2\n      mstore\n      0x04\n      add\n      tag_269\n      swap2\n      swap1\n      tag_161\n      jump\t// in\n    tag_269:\n      0x20\n      mload(0x40)\n      dup1\n      dup4\n      sub\n      dup2\n      dup7\n      gas\n      staticcall\n      iszero\n      dup1\n      iszero\n      tag_271\n      jumpi\n      returndatasize\n      0x00\n      dup1\n      returndatacopy\n      revert(0x00, returndatasize)\n    tag_271:\n      pop\n      pop\n      pop\n      pop\n      mload(0x40)\n      returndatasize\n      not(0x1f)\n      0x1f\n      dup3\n      add\n      and\n      dup3\n      add\n      dup1\n      0x40\n      mstore\n      pop\n      dup2\n      add\n      swap1\n      tag_272\n      swap2\n      swap1\n      tag_165\n      jump\t// in\n    tag_272:\n        /* \"Exchange1.sol\":6161:6211  uint tokenBalance = token.balanceOf(address(this)) */\n      swap1\n      pop\n        /* \"Exchange1.sol\":6242:6243  0 */\n      0x00\n        /* \"Exchange1.sol\":6229:6239  ethBalance */\n      dup3\n        /* \"Exchange1.sol\":6229:6243  ethBalance > 0 */\n      gt\n        /* \"Exchange1.sol\":6229:6263  ethBalance > 0 && tokenBalance > 0 */\n      dup1\n      iszero\n      tag_273\n      jumpi\n      pop\n        /* \"Exchange1.sol\":6262:6263  0 */\n      0x00\n        /* \"Exchange1.sol\":6247:6259  tokenBalance */\n      dup2\n        /* \"Exchange1.sol\":6247:6263  tokenBalance > 0 */\n      gt\n        /* \"Exchange1.sol\":6229:6263  ethBalance > 0 && tokenBalance > 0 */\n    tag_273:\n        /* \"Exchange1.sol\":6221:6278  require(ethBalance > 0 && tokenBalance > 0, \"Pool empty\") */\n      tag_274\n      jumpi\n      mload(0x40)\n      0x08c379a000000000000000000000000000000000000000000000000000000000\n      dup2\n      mstore\n      0x04\n      add\n      tag_275\n      swap1\n      tag_213\n      jump\t// in\n    tag_275:\n      mload(0x40)\n      dup1\n      swap2\n      sub\n      swap1\n      revert\n    tag_274:\n        /* \"Exchange1.sol\":6288:6308  uint newTokenBalance */\n      0x00\n        /* \"Exchange1.sol\":6326:6343  _amountERC20Token */\n      dup5\n        /* \"Exchange1.sol\":6311:6323  tokenBalance */\n      dup3\n        /* \"Exchange1.sol\":6311:6343  tokenBalance + _amountERC20Token */\n      tag_276\n      swap2\n      swap1\n      tag_230\n      jump\t// in\n    tag_276:\n        /* \"Exchange1.sol\":6288:6343  uint newTokenBalance = tokenBalance + _amountERC20Token */\n      swap1\n      pop\n        /* \"Exchange1.sol\":6353:6371  uint newEthBalance */\n      0x00\n        /* \"Exchange1.sol\":6378:6393  newTokenBalance */\n      dup2\n        /* \"Exchange1.sol\":6374:6375  k */\n      sload(0x06)\n        /* \"Exchange1.sol\":6374:6393  k / newTokenBalance */\n      tag_277\n      swap2\n      swap1\n      tag_169\n      jump\t// in\n    tag_277:\n        /* \"Exchange1.sol\":6353:6393  uint newEthBalance = k / newTokenBalance */\n      swap1\n      pop\n        /* \"Exchange1.sol\":6424:6437  newEthBalance */\n      dup1\n        /* \"Exchange1.sol\":6411:6421  ethBalance */\n      dup5\n        /* \"Exchange1.sol\":6411:6437  ethBalance > newEthBalance */\n      gt\n        /* \"Exchange1.sol\":6403:6455  require(ethBalance > newEthBalance, \"No ETH output\") */\n      tag_278\n      jumpi\n      mload(0x40)\n      0x08c379a000000000000000000000000000000000000000000000000000000000\n      dup2\n      mstore\n      0x04\n      add\n      tag_279\n      swap1\n      tag_280\n      jump\t// in\n    tag_279:\n      mload(0x40)\n      dup1\n      swap2\n      sub\n      swap1\n      revert\n    tag_278:\n        /* \"Exchange1.sol\":6485:6498  newEthBalance */\n      dup1\n        /* \"Exchange1.sol\":6472:6482  ethBalance */\n      dup5\n        /* \"Exchange1.sol\":6472:6498  ethBalance - newEthBalance */\n      tag_281\n      swap2\n      swap1\n      tag_221\n      jump\t// in\n    tag_281:\n        /* \"Exchange1.sol\":6465:6498  return ethBalance - newEthBalance */\n      swap5\n      pop\n      pop\n      pop\n      pop\n      pop\n        /* \"Exchange1.sol\":6000:6505  function estimateSwapForEth(... */\n      swap2\n      swap1\n      pop\n      jump\t// out\n        /* \"@openzeppelin/contracts@4.9.3/token/ERC20/ERC20.sol\":2369:2471  function symbol() public view virtual override returns (string memory) {... */\n    tag_93:\n        /* \"@openzeppelin/contracts@4.9.3/token/ERC20/ERC20.sol\":2425:2438  string memory */\n      0x60\n        /* \"@openzeppelin/contracts@4.9.3/token/ERC20/ERC20.sol\":2457:2464  _symbol */\n      0x04\n        /* \"@openzeppelin/contracts@4.9.3/token/ERC20/ERC20.sol\":2450:2464  return _symbol */\n      dup1\n      sload\n      tag_283\n      swap1\n      tag_140\n      jump\t// in\n    tag_283:\n      dup1\n      0x1f\n      add\n      0x20\n      dup1\n      swap2\n      div\n      mul\n      0x20\n      add\n      mload(0x40)\n      swap1\n      dup2\n      add\n      0x40\n      mstore\n      dup1\n      swap3\n      swap2\n      swap1\n      dup2\n      dup2\n      mstore\n      0x20\n      add\n      dup3\n      dup1\n      sload\n      tag_284\n      swap1\n      tag_140\n      jump\t// in\n    tag_284:\n      dup1\n      iszero\n      tag_285\n      jumpi\n      dup1\n      0x1f\n      lt\n      tag_286\n      jumpi\n      0x0100\n      dup1\n      dup4\n      sload\n      div\n      mul\n      dup4\n      mstore\n      swap2\n      0x20\n      add\n      swap2\n      jump(tag_285)\n    tag_286:\n      dup3\n      add\n      swap2\n      swap1\n      0x00\n      mstore\n      keccak256(0x00, 0x20)\n      swap1\n    tag_287:\n      dup2\n      sload\n      dup2\n      mstore\n      swap1\n      0x01\n      add\n      swap1\n      0x20\n      add\n      dup1\n      dup4\n      gt\n      tag_287\n      jumpi\n      dup3\n      swap1\n      sub\n      0x1f\n      and\n      dup3\n      add\n      swap2\n    tag_285:\n      pop\n      pop\n      pop\n      pop\n      pop\n      swap1\n      pop\n        /* \"@openzeppelin/contracts@4.9.3/token/ERC20/ERC20.sol\":2369:2471  function symbol() public view virtual override returns (string memory) {... */\n      swap1\n      jump\t// out\n        /* \"@openzeppelin/contracts@4.9.3/token/ERC20/ERC20.sol\":6575:7002  function decreaseAllowance(address spender, uint256 subtractedValue) public virtual returns (bool) {... */\n    tag_98:\n        /* \"@openzeppelin/contracts@4.9.3/token/ERC20/ERC20.sol\":6668:6672  bool */\n      0x00\n        /* \"@openzeppelin/contracts@4.9.3/token/ERC20/ERC20.sol\":6684:6697  address owner */\n      dup1\n        /* \"@openzeppelin/contracts@4.9.3/token/ERC20/ERC20.sol\":6700:6712  _msgSender() */\n      tag_289\n        /* \"@openzeppelin/contracts@4.9.3/token/ERC20/ERC20.sol\":6700:6710  _msgSender */\n      tag_147\n        /* \"@openzeppelin/contracts@4.9.3/token/ERC20/ERC20.sol\":6700:6712  _msgSender() */\n      jump\t// in\n    tag_289:\n        /* \"@openzeppelin/contracts@4.9.3/token/ERC20/ERC20.sol\":6684:6712  address owner = _msgSender() */\n      swap1\n      pop\n        /* \"@openzeppelin/contracts@4.9.3/token/ERC20/ERC20.sol\":6722:6746  uint256 currentAllowance */\n      0x00\n        /* \"@openzeppelin/contracts@4.9.3/token/ERC20/ERC20.sol\":6749:6774  allowance(owner, spender) */\n      tag_290\n        /* \"@openzeppelin/contracts@4.9.3/token/ERC20/ERC20.sol\":6759:6764  owner */\n      dup3\n        /* \"@openzeppelin/contracts@4.9.3/token/ERC20/ERC20.sol\":6766:6773  spender */\n      dup7\n        /* \"@openzeppelin/contracts@4.9.3/token/ERC20/ERC20.sol\":6749:6758  allowance */\n      tag_118\n        /* \"@openzeppelin/contracts@4.9.3/token/ERC20/ERC20.sol\":6749:6774  allowance(owner, spender) */\n      jump\t// in\n    tag_290:\n        /* \"@openzeppelin/contracts@4.9.3/token/ERC20/ERC20.sol\":6722:6774  uint256 currentAllowance = allowance(owner, spender) */\n      swap1\n      pop\n        /* \"@openzeppelin/contracts@4.9.3/token/ERC20/ERC20.sol\":6812:6827  subtractedValue */\n      dup4\n        /* \"@openzeppelin/contracts@4.9.3/token/ERC20/ERC20.sol\":6792:6808  currentAllowance */\n      dup2\n        /* \"@openzeppelin/contracts@4.9.3/token/ERC20/ERC20.sol\":6792:6827  currentAllowance >= subtractedValue */\n      lt\n      iszero\n        /* \"@openzeppelin/contracts@4.9.3/token/ERC20/ERC20.sol\":6784:6869  require(currentAllowance >= subtractedValue, \"ERC20: decreased allowance below zero\") */\n      tag_291\n      jumpi\n      mload(0x40)\n      0x08c379a000000000000000000000000000000000000000000000000000000000\n      dup2\n      mstore\n      0x04\n      add\n      tag_292\n      swap1\n      tag_293\n      jump\t// in\n    tag_292:\n      mload(0x40)\n      dup1\n      swap2\n      sub\n      swap1\n      revert\n    tag_291:\n        /* \"@openzeppelin/contracts@4.9.3/token/ERC20/ERC20.sol\":6903:6963  _approve(owner, spender, currentAllowance - subtractedValue) */\n      tag_294\n        /* \"@openzeppelin/contracts@4.9.3/token/ERC20/ERC20.sol\":6912:6917  owner */\n      dup3\n        /* \"@openzeppelin/contracts@4.9.3/token/ERC20/ERC20.sol\":6919:6926  spender */\n      dup7\n        /* \"@openzeppelin/contracts@4.9.3/token/ERC20/ERC20.sol\":6947:6962  subtractedValue */\n      dup7\n        /* \"@openzeppelin/contracts@4.9.3/token/ERC20/ERC20.sol\":6928:6944  currentAllowance */\n      dup5\n        /* \"@openzeppelin/contracts@4.9.3/token/ERC20/ERC20.sol\":6928:6962  currentAllowance - subtractedValue */\n      sub\n        /* \"@openzeppelin/contracts@4.9.3/token/ERC20/ERC20.sol\":6903:6911  _approve */\n      tag_149\n        /* \"@openzeppelin/contracts@4.9.3/token/ERC20/ERC20.sol\":6903:6963  _approve(owner, spender, currentAllowance - subtractedValue) */\n      jump\t// in\n    tag_294:\n        /* \"@openzeppelin/contracts@4.9.3/token/ERC20/ERC20.sol\":6991:6995  true */\n      0x01\n        /* \"@openzeppelin/contracts@4.9.3/token/ERC20/ERC20.sol\":6984:6995  return true */\n      swap3\n      pop\n      pop\n      pop\n        /* \"@openzeppelin/contracts@4.9.3/token/ERC20/ERC20.sol\":6575:7002  function decreaseAllowance(address spender, uint256 subtractedValue) public virtual returns (bool) {... */\n      swap3\n      swap2\n      pop\n      pop\n      jump\t// out\n        /* \"@openzeppelin/contracts@4.9.3/token/ERC20/ERC20.sol\":3740:3929  function transfer(address to, uint256 amount) public virtual override returns (bool) {... */\n    tag_103:\n        /* \"@openzeppelin/contracts@4.9.3/token/ERC20/ERC20.sol\":3819:3823  bool */\n      0x00\n        /* \"@openzeppelin/contracts@4.9.3/token/ERC20/ERC20.sol\":3835:3848  address owner */\n      dup1\n        /* \"@openzeppelin/contracts@4.9.3/token/ERC20/ERC20.sol\":3851:3863  _msgSender() */\n      tag_296\n        /* \"@openzeppelin/contracts@4.9.3/token/ERC20/ERC20.sol\":3851:3861  _msgSender */\n      tag_147\n        /* \"@openzeppelin/contracts@4.9.3/token/ERC20/ERC20.sol\":3851:3863  _msgSender() */\n      jump\t// in\n    tag_296:\n        /* \"@openzeppelin/contracts@4.9.3/token/ERC20/ERC20.sol\":3835:3863  address owner = _msgSender() */\n      swap1\n      pop\n        /* \"@openzeppelin/contracts@4.9.3/token/ERC20/ERC20.sol\":3873:3901  _transfer(owner, to, amount) */\n      tag_297\n        /* \"@openzeppelin/contracts@4.9.3/token/ERC20/ERC20.sol\":3883:3888  owner */\n      dup2\n        /* \"@openzeppelin/contracts@4.9.3/token/ERC20/ERC20.sol\":3890:3892  to */\n      dup6\n        /* \"@openzeppelin/contracts@4.9.3/token/ERC20/ERC20.sol\":3894:3900  amount */\n      dup6\n        /* \"@openzeppelin/contracts@4.9.3/token/ERC20/ERC20.sol\":3873:3882  _transfer */\n      tag_204\n        /* \"@openzeppelin/contracts@4.9.3/token/ERC20/ERC20.sol\":3873:3901  _transfer(owner, to, amount) */\n      jump\t// in\n    tag_297:\n        /* \"@openzeppelin/contracts@4.9.3/token/ERC20/ERC20.sol\":3918:3922  true */\n      0x01\n        /* \"@openzeppelin/contracts@4.9.3/token/ERC20/ERC20.sol\":3911:3922  return true */\n      swap2\n      pop\n      pop\n        /* \"@openzeppelin/contracts@4.9.3/token/ERC20/ERC20.sol\":3740:3929  function transfer(address to, uint256 amount) public virtual override returns (bool) {... */\n      swap3\n      swap2\n      pop\n      pop\n      jump\t// out\n        /* \"Exchange1.sol\":220:236  uint256 public k */\n    tag_107:\n      sload(0x06)\n      dup2\n      jump\t// out\n        /* \"Exchange1.sol\":4816:5928  function swapForEth(uint _amountERC20Token) external returns (uint ethOut) {... */\n    tag_112:\n        /* \"Exchange1.sol\":4878:4889  uint ethOut */\n      0x00\n        /* \"Exchange1.sol\":4929:4930  0 */\n      dup1\n        /* \"Exchange1.sol\":4909:4926  _amountERC20Token */\n      dup3\n        /* \"Exchange1.sol\":4909:4930  _amountERC20Token > 0 */\n      gt\n        /* \"Exchange1.sol\":4901:4949  require(_amountERC20Token > 0, \"Invalid amount\") */\n      tag_299\n      jumpi\n      mload(0x40)\n      0x08c379a000000000000000000000000000000000000000000000000000000000\n      dup2\n      mstore\n      0x04\n      add\n      tag_300\n      swap1\n      tag_301\n      jump\t// in\n    tag_300:\n      mload(0x40)\n      dup1\n      swap2\n      sub\n      swap1\n      revert\n    tag_299:\n        /* \"Exchange1.sol\":4960:4981  uint ethBalanceBefore */\n      0x00\n        /* \"Exchange1.sol\":4984:5005  address(this).balance */\n      selfbalance\n        /* \"Exchange1.sol\":4960:5005  uint ethBalanceBefore = address(this).balance */\n      swap1\n      pop\n        /* \"Exchange1.sol\":5015:5038  uint tokenBalanceBefore */\n      0x00\n        /* \"Exchange1.sol\":5041:5046  token */\n      0x05\n      0x00\n      swap1\n      sload\n      swap1\n      0x0100\n      exp\n      swap1\n      div\n      0xffffffffffffffffffffffffffffffffffffffff\n      and\n        /* \"Exchange1.sol\":5041:5056  token.balanceOf */\n      0xffffffffffffffffffffffffffffffffffffffff\n      and\n      0x70a08231\n        /* \"Exchange1.sol\":5065:5069  this */\n      address\n        /* \"Exchange1.sol\":5041:5071  token.balanceOf(address(this)) */\n      mload(0x40)\n      dup3\n      0xffffffff\n      and\n      0xe0\n      shl\n      dup2\n      mstore\n      0x04\n      add\n      tag_302\n      swap2\n      swap1\n      tag_161\n      jump\t// in\n    tag_302:\n      0x20\n      mload(0x40)\n      dup1\n      dup4\n      sub\n      dup2\n      dup7\n      gas\n      staticcall\n      iszero\n      dup1\n      iszero\n      tag_304\n      jumpi\n      returndatasize\n      0x00\n      dup1\n      returndatacopy\n      revert(0x00, returndatasize)\n    tag_304:\n      pop\n      pop\n      pop\n      pop\n      mload(0x40)\n      returndatasize\n      not(0x1f)\n      0x1f\n      dup3\n      add\n      and\n      dup3\n      add\n      dup1\n      0x40\n      mstore\n      pop\n      dup2\n      add\n      swap1\n      tag_305\n      swap2\n      swap1\n      tag_165\n      jump\t// in\n    tag_305:\n        /* \"Exchange1.sol\":5015:5071  uint tokenBalanceBefore = token.balanceOf(address(this)) */\n      swap1\n      pop\n        /* \"Exchange1.sol\":5108:5109  0 */\n      0x00\n        /* \"Exchange1.sol\":5089:5105  ethBalanceBefore */\n      dup3\n        /* \"Exchange1.sol\":5089:5109  ethBalanceBefore > 0 */\n      gt\n        /* \"Exchange1.sol\":5089:5135  ethBalanceBefore > 0 && tokenBalanceBefore > 0 */\n      dup1\n      iszero\n      tag_306\n      jumpi\n      pop\n        /* \"Exchange1.sol\":5134:5135  0 */\n      0x00\n        /* \"Exchange1.sol\":5113:5131  tokenBalanceBefore */\n      dup2\n        /* \"Exchange1.sol\":5113:5135  tokenBalanceBefore > 0 */\n      gt\n        /* \"Exchange1.sol\":5089:5135  ethBalanceBefore > 0 && tokenBalanceBefore > 0 */\n    tag_306:\n        /* \"Exchange1.sol\":5081:5150  require(ethBalanceBefore > 0 && tokenBalanceBefore > 0, \"Pool empty\") */\n      tag_307\n      jumpi\n      mload(0x40)\n      0x08c379a000000000000000000000000000000000000000000000000000000000\n      dup2\n      mstore\n      0x04\n      add\n      tag_308\n      swap1\n      tag_213\n      jump\t// in\n    tag_308:\n      mload(0x40)\n      dup1\n      swap2\n      sub\n      swap1\n      revert\n    tag_307:\n        /* \"Exchange1.sol\":5195:5215  uint newTokenBalance */\n      0x00\n        /* \"Exchange1.sol\":5239:5256  _amountERC20Token */\n      dup5\n        /* \"Exchange1.sol\":5218:5236  tokenBalanceBefore */\n      dup3\n        /* \"Exchange1.sol\":5218:5256  tokenBalanceBefore + _amountERC20Token */\n      tag_309\n      swap2\n      swap1\n      tag_230\n      jump\t// in\n    tag_309:\n        /* \"Exchange1.sol\":5195:5256  uint newTokenBalance = tokenBalanceBefore + _amountERC20Token */\n      swap1\n      pop\n        /* \"Exchange1.sol\":5266:5284  uint newEthBalance */\n      0x00\n        /* \"Exchange1.sol\":5291:5306  newTokenBalance */\n      dup2\n        /* \"Exchange1.sol\":5287:5288  k */\n      sload(0x06)\n        /* \"Exchange1.sol\":5287:5306  k / newTokenBalance */\n      tag_310\n      swap2\n      swap1\n      tag_169\n      jump\t// in\n    tag_310:\n        /* \"Exchange1.sol\":5266:5306  uint newEthBalance = k / newTokenBalance */\n      swap1\n      pop\n        /* \"Exchange1.sol\":5343:5356  newEthBalance */\n      dup1\n        /* \"Exchange1.sol\":5324:5340  ethBalanceBefore */\n      dup5\n        /* \"Exchange1.sol\":5324:5356  ethBalanceBefore > newEthBalance */\n      gt\n        /* \"Exchange1.sol\":5316:5374  require(ethBalanceBefore > newEthBalance, \"No ETH output\") */\n      tag_311\n      jumpi\n      mload(0x40)\n      0x08c379a000000000000000000000000000000000000000000000000000000000\n      dup2\n      mstore\n      0x04\n      add\n      tag_312\n      swap1\n      tag_280\n      jump\t// in\n    tag_312:\n      mload(0x40)\n      dup1\n      swap2\n      sub\n      swap1\n      revert\n    tag_311:\n        /* \"Exchange1.sol\":5412:5425  newEthBalance */\n      dup1\n        /* \"Exchange1.sol\":5393:5409  ethBalanceBefore */\n      dup5\n        /* \"Exchange1.sol\":5393:5425  ethBalanceBefore - newEthBalance */\n      tag_313\n      swap2\n      swap1\n      tag_221\n      jump\t// in\n    tag_313:\n        /* \"Exchange1.sol\":5384:5425  ethOut = ethBalanceBefore - newEthBalance */\n      swap5\n      pop\n        /* \"Exchange1.sol\":5483:5488  token */\n      0x05\n      0x00\n      swap1\n      sload\n      swap1\n      0x0100\n      exp\n      swap1\n      div\n      0xffffffffffffffffffffffffffffffffffffffff\n      and\n        /* \"Exchange1.sol\":5483:5501  token.transferFrom */\n      0xffffffffffffffffffffffffffffffffffffffff\n      and\n      0x23b872dd\n        /* \"Exchange1.sol\":5502:5512  msg.sender */\n      caller\n        /* \"Exchange1.sol\":5522:5526  this */\n      address\n        /* \"Exchange1.sol\":5529:5546  _amountERC20Token */\n      dup10\n        /* \"Exchange1.sol\":5483:5547  token.transferFrom(msg.sender, address(this), _amountERC20Token) */\n      mload(0x40)\n      dup5\n      0xffffffff\n      and\n      0xe0\n      shl\n      dup2\n      mstore\n      0x04\n      add\n      tag_314\n      swap4\n      swap3\n      swap2\n      swap1\n      tag_315\n      jump\t// in\n    tag_314:\n      0x20\n      mload(0x40)\n      dup1\n      dup4\n      sub\n      dup2\n      0x00\n      dup8\n      gas\n      call\n      iszero\n      dup1\n      iszero\n      tag_317\n      jumpi\n      returndatasize\n      0x00\n      dup1\n      returndatacopy\n      revert(0x00, returndatasize)\n    tag_317:\n      pop\n      pop\n      pop\n      pop\n      mload(0x40)\n      returndatasize\n      not(0x1f)\n      0x1f\n      dup3\n      add\n      and\n      dup3\n      add\n      dup1\n      0x40\n      mstore\n      pop\n      dup2\n      add\n      swap1\n      tag_318\n      swap2\n      swap1\n      tag_187\n      jump\t// in\n    tag_318:\n        /* \"Exchange1.sol\":5462:5594  require(... */\n      tag_319\n      jumpi\n      mload(0x40)\n      0x08c379a000000000000000000000000000000000000000000000000000000000\n      dup2\n      mstore\n      0x04\n      add\n      tag_320\n      swap1\n      tag_190\n      jump\t// in\n    tag_320:\n      mload(0x40)\n      dup1\n      swap2\n      sub\n      swap1\n      revert\n    tag_319:\n        /* \"Exchange1.sol\":5630:5640  bool okEth */\n      0x00\n        /* \"Exchange1.sol\":5654:5664  msg.sender */\n      caller\n        /* \"Exchange1.sol\":5646:5670  payable(msg.sender).call */\n      0xffffffffffffffffffffffffffffffffffffffff\n      and\n        /* \"Exchange1.sol\":5678:5684  ethOut */\n      dup7\n        /* \"Exchange1.sol\":5646:5689  payable(msg.sender).call{value: ethOut}(\"\") */\n      mload(0x40)\n      tag_321\n      swap1\n      tag_175\n      jump\t// in\n    tag_321:\n      0x00\n      mload(0x40)\n      dup1\n      dup4\n      sub\n      dup2\n      dup6\n      dup8\n      gas\n      call\n      swap3\n      pop\n      pop\n      pop\n      returndatasize\n      dup1\n      0x00\n      dup2\n      eq\n      tag_324\n      jumpi\n      mload(0x40)\n      swap2\n      pop\n      and(add(returndatasize, 0x3f), not(0x1f))\n      dup3\n      add\n      0x40\n      mstore\n      returndatasize\n      dup3\n      mstore\n      returndatasize\n      0x00\n      0x20\n      dup5\n      add\n      returndatacopy\n      jump(tag_323)\n    tag_324:\n      0x60\n      swap2\n      pop\n    tag_323:\n      pop\n        /* \"Exchange1.sol\":5629:5689  (bool okEth, ) = payable(msg.sender).call{value: ethOut}(\"\") */\n      pop\n      swap1\n      pop\n        /* \"Exchange1.sol\":5707:5712  okEth */\n      dup1\n        /* \"Exchange1.sol\":5699:5736  require(okEth, \"ETH transfer failed\") */\n      tag_325\n      jumpi\n      mload(0x40)\n      0x08c379a000000000000000000000000000000000000000000000000000000000\n      dup2\n      mstore\n      0x04\n      add\n      tag_326\n      swap1\n      tag_181\n      jump\t// in\n    tag_326:\n      mload(0x40)\n      dup1\n      swap2\n      sub\n      swap1\n      revert\n    tag_325:\n        /* \"Exchange1.sol\":5815:5820  token */\n      0x05\n      0x00\n      swap1\n      sload\n      swap1\n      0x0100\n      exp\n      swap1\n      div\n      0xffffffffffffffffffffffffffffffffffffffff\n      and\n        /* \"Exchange1.sol\":5815:5830  token.balanceOf */\n      0xffffffffffffffffffffffffffffffffffffffff\n      and\n      0x70a08231\n        /* \"Exchange1.sol\":5839:5843  this */\n      address\n        /* \"Exchange1.sol\":5815:5845  token.balanceOf(address(this)) */\n      mload(0x40)\n      dup3\n      0xffffffff\n      and\n      0xe0\n      shl\n      dup2\n      mstore\n      0x04\n      add\n      tag_327\n      swap2\n      swap1\n      tag_161\n      jump\t// in\n    tag_327:\n      0x20\n      mload(0x40)\n      dup1\n      dup4\n      sub\n      dup2\n      dup7\n      gas\n      staticcall\n      iszero\n      dup1\n      iszero\n      tag_329\n      jumpi\n      returndatasize\n      0x00\n      dup1\n      returndatacopy\n      revert(0x00, returndatasize)\n    tag_329:\n      pop\n      pop\n      pop\n      pop\n      mload(0x40)\n      returndatasize\n      not(0x1f)\n      0x1f\n      dup3\n      add\n      and\n      dup3\n      add\n      dup1\n      0x40\n      mstore\n      pop\n      dup2\n      add\n      swap1\n      tag_330\n      swap2\n      swap1\n      tag_165\n      jump\t// in\n    tag_330:\n        /* \"Exchange1.sol\":5791:5812  address(this).balance */\n      selfbalance\n        /* \"Exchange1.sol\":5791:5845  address(this).balance * token.balanceOf(address(this)) */\n      tag_331\n      swap2\n      swap1\n      tag_167\n      jump\t// in\n    tag_331:\n        /* \"Exchange1.sol\":5787:5788  k */\n      0x06\n        /* \"Exchange1.sol\":5787:5845  k = address(this).balance * token.balanceOf(address(this)) */\n      dup2\n      swap1\n      sstore\n      pop\n        /* \"Exchange1.sol\":5861:5898  SwapForEth(_amountERC20Token, ethOut) */\n      0x3297a389bb586920e62a196af529d5f42651b17a1013d6bfe77f22372a0b2112\n        /* \"Exchange1.sol\":5872:5889  _amountERC20Token */\n      dup8\n        /* \"Exchange1.sol\":5891:5897  ethOut */\n      dup8\n        /* \"Exchange1.sol\":5861:5898  SwapForEth(_amountERC20Token, ethOut) */\n      mload(0x40)\n      tag_332\n      swap3\n      swap2\n      swap1\n      tag_45\n      jump\t// in\n    tag_332:\n      mload(0x40)\n      dup1\n      swap2\n      sub\n      swap1\n      log1\n        /* \"Exchange1.sol\":5908:5921  return ethOut */\n      pop\n      pop\n      pop\n      pop\n      pop\n        /* \"Exchange1.sol\":4816:5928  function swapForEth(uint _amountERC20Token) external returns (uint ethOut) {... */\n      swap2\n      swap1\n      pop\n      jump\t// out\n        /* \"@openzeppelin/contracts@4.9.3/token/ERC20/ERC20.sol\":3987:4136  function allowance(address owner, address spender) public view virtual override returns (uint256) {... */\n    tag_118:\n        /* \"@openzeppelin/contracts@4.9.3/token/ERC20/ERC20.sol\":4076:4083  uint256 */\n      0x00\n        /* \"@openzeppelin/contracts@4.9.3/token/ERC20/ERC20.sol\":4102:4113  _allowances */\n      0x01\n        /* \"@openzeppelin/contracts@4.9.3/token/ERC20/ERC20.sol\":4102:4120  _allowances[owner] */\n      0x00\n        /* \"@openzeppelin/contracts@4.9.3/token/ERC20/ERC20.sol\":4114:4119  owner */\n      dup5\n        /* \"@openzeppelin/contracts@4.9.3/token/ERC20/ERC20.sol\":4102:4120  _allowances[owner] */\n      0xffffffffffffffffffffffffffffffffffffffff\n      and\n      0xffffffffffffffffffffffffffffffffffffffff\n      and\n      dup2\n      mstore\n      0x20\n      add\n      swap1\n      dup2\n      mstore\n      0x20\n      add\n      0x00\n      keccak256\n        /* \"@openzeppelin/contracts@4.9.3/token/ERC20/ERC20.sol\":4102:4129  _allowances[owner][spender] */\n      0x00\n        /* \"@openzeppelin/contracts@4.9.3/token/ERC20/ERC20.sol\":4121:4128  spender */\n      dup4\n        /* \"@openzeppelin/contracts@4.9.3/token/ERC20/ERC20.sol\":4102:4129  _allowances[owner][spender] */\n      0xffffffffffffffffffffffffffffffffffffffff\n      and\n      0xffffffffffffffffffffffffffffffffffffffff\n      and\n      dup2\n      mstore\n      0x20\n      add\n      swap1\n      dup2\n      mstore\n      0x20\n      add\n      0x00\n      keccak256\n      sload\n        /* \"@openzeppelin/contracts@4.9.3/token/ERC20/ERC20.sol\":4095:4129  return _allowances[owner][spender] */\n      swap1\n      pop\n        /* \"@openzeppelin/contracts@4.9.3/token/ERC20/ERC20.sol\":3987:4136  function allowance(address owner, address spender) public view virtual override returns (uint256) {... */\n      swap3\n      swap2\n      pop\n      pop\n      jump\t// out\n        /* \"Exchange1.sol\":3686:3795  function getMyLiquidityPositions() external view returns (uint) {... */\n    tag_122:\n        /* \"Exchange1.sol\":3744:3748  uint */\n      0x00\n        /* \"Exchange1.sol\":3767:3788  balanceOf(msg.sender) */\n      tag_335\n        /* \"Exchange1.sol\":3777:3787  msg.sender */\n      caller\n        /* \"Exchange1.sol\":3767:3776  balanceOf */\n      tag_79\n        /* \"Exchange1.sol\":3767:3788  balanceOf(msg.sender) */\n      jump\t// in\n    tag_335:\n        /* \"Exchange1.sol\":3760:3788  return balanceOf(msg.sender) */\n      swap1\n      pop\n        /* \"Exchange1.sol\":3686:3795  function getMyLiquidityPositions() external view returns (uint) {... */\n      swap1\n      jump\t// out\n        /* \"Exchange1.sol\":1037:2418  function provideLiquidity(... */\n    tag_126:\n        /* \"Exchange1.sol\":1127:1140  uint lpIssued */\n      0x00\n        /* \"Exchange1.sol\":1180:1181  0 */\n      dup1\n        /* \"Exchange1.sol\":1160:1177  _amountERC20Token */\n      dup3\n        /* \"Exchange1.sol\":1160:1181  _amountERC20Token > 0 */\n      gt\n        /* \"Exchange1.sol\":1160:1198  _amountERC20Token > 0 && msg.value > 0 */\n      dup1\n      iszero\n      tag_337\n      jumpi\n      pop\n        /* \"Exchange1.sol\":1197:1198  0 */\n      0x00\n        /* \"Exchange1.sol\":1185:1194  msg.value */\n      callvalue\n        /* \"Exchange1.sol\":1185:1198  msg.value > 0 */\n      gt\n        /* \"Exchange1.sol\":1160:1198  _amountERC20Token > 0 && msg.value > 0 */\n    tag_337:\n        /* \"Exchange1.sol\":1152:1218  require(_amountERC20Token > 0 && msg.value > 0, \"Invalid amounts\") */\n      tag_338\n      jumpi\n      mload(0x40)\n      0x08c379a000000000000000000000000000000000000000000000000000000000\n      dup2\n      mstore\n      0x04\n      add\n      tag_339\n      swap1\n      tag_340\n      jump\t// in\n    tag_339:\n      mload(0x40)\n      dup1\n      swap2\n      sub\n      swap1\n      revert\n    tag_338:\n        /* \"Exchange1.sol\":1274:1295  uint ethBalanceBefore */\n      0x00\n        /* \"Exchange1.sol\":1322:1331  msg.value */\n      callvalue\n        /* \"Exchange1.sol\":1298:1319  address(this).balance */\n      selfbalance\n        /* \"Exchange1.sol\":1298:1331  address(this).balance - msg.value */\n      tag_341\n      swap2\n      swap1\n      tag_221\n      jump\t// in\n    tag_341:\n        /* \"Exchange1.sol\":1274:1331  uint ethBalanceBefore = address(this).balance - msg.value */\n      swap1\n      pop\n        /* \"Exchange1.sol\":1341:1364  uint tokenBalanceBefore */\n      0x00\n        /* \"Exchange1.sol\":1367:1372  token */\n      0x05\n      0x00\n      swap1\n      sload\n      swap1\n      0x0100\n      exp\n      swap1\n      div\n      0xffffffffffffffffffffffffffffffffffffffff\n      and\n        /* \"Exchange1.sol\":1367:1382  token.balanceOf */\n      0xffffffffffffffffffffffffffffffffffffffff\n      and\n      0x70a08231\n        /* \"Exchange1.sol\":1391:1395  this */\n      address\n        /* \"Exchange1.sol\":1367:1397  token.balanceOf(address(this)) */\n      mload(0x40)\n      dup3\n      0xffffffff\n      and\n      0xe0\n      shl\n      dup2\n      mstore\n      0x04\n      add\n      tag_342\n      swap2\n      swap1\n      tag_161\n      jump\t// in\n    tag_342:\n      0x20\n      mload(0x40)\n      dup1\n      dup4\n      sub\n      dup2\n      dup7\n      gas\n      staticcall\n      iszero\n      dup1\n      iszero\n      tag_344\n      jumpi\n      returndatasize\n      0x00\n      dup1\n      returndatacopy\n      revert(0x00, returndatasize)\n    tag_344:\n      pop\n      pop\n      pop\n      pop\n      mload(0x40)\n      returndatasize\n      not(0x1f)\n      0x1f\n      dup3\n      add\n      and\n      dup3\n      add\n      dup1\n      0x40\n      mstore\n      pop\n      dup2\n      add\n      swap1\n      tag_345\n      swap2\n      swap1\n      tag_165\n      jump\t// in\n    tag_345:\n        /* \"Exchange1.sol\":1341:1397  uint tokenBalanceBefore = token.balanceOf(address(this)) */\n      swap1\n      pop\n        /* \"Exchange1.sol\":1429:1430  0 */\n      0x00\n        /* \"Exchange1.sol\":1412:1425  totalSupply() */\n      tag_346\n        /* \"Exchange1.sol\":1412:1423  totalSupply */\n      tag_48\n        /* \"Exchange1.sol\":1412:1425  totalSupply() */\n      jump\t// in\n    tag_346:\n        /* \"Exchange1.sol\":1412:1430  totalSupply() == 0 */\n      sub\n        /* \"Exchange1.sol\":1408:1927  if (totalSupply() == 0) {... */\n      tag_347\n      jumpi\n        /* \"Exchange1.sol\":1540:1550  100 * 1e18 */\n      0x056bc75e2d63100000\n        /* \"Exchange1.sol\":1529:1550  lpIssued = 100 * 1e18 */\n      swap3\n      pop\n        /* \"Exchange1.sol\":1408:1927  if (totalSupply() == 0) {... */\n      jump(tag_348)\n    tag_347:\n        /* \"Exchange1.sol\":1778:1787  msg.value */\n      callvalue\n        /* \"Exchange1.sol\":1757:1775  tokenBalanceBefore */\n      dup2\n        /* \"Exchange1.sol\":1757:1787  tokenBalanceBefore * msg.value */\n      tag_349\n      swap2\n      swap1\n      tag_167\n      jump\t// in\n    tag_349:\n        /* \"Exchange1.sol\":1716:1733  _amountERC20Token */\n      dup5\n        /* \"Exchange1.sol\":1697:1713  ethBalanceBefore */\n      dup4\n        /* \"Exchange1.sol\":1697:1733  ethBalanceBefore * _amountERC20Token */\n      tag_350\n      swap2\n      swap1\n      tag_167\n      jump\t// in\n    tag_350:\n        /* \"Exchange1.sol\":1697:1787  ethBalanceBefore * _amountERC20Token ==... */\n      eq\n        /* \"Exchange1.sol\":1672:1835  require(... */\n      tag_351\n      jumpi\n      mload(0x40)\n      0x08c379a000000000000000000000000000000000000000000000000000000000\n      dup2\n      mstore\n      0x04\n      add\n      tag_352\n      swap1\n      tag_353\n      jump\t// in\n    tag_352:\n      mload(0x40)\n      dup1\n      swap2\n      sub\n      swap1\n      revert\n    tag_351:\n        /* \"Exchange1.sol\":1898:1916  tokenBalanceBefore */\n      dup1\n        /* \"Exchange1.sol\":1877:1894  _amountERC20Token */\n      dup5\n        /* \"Exchange1.sol\":1861:1874  totalSupply() */\n      tag_354\n        /* \"Exchange1.sol\":1861:1872  totalSupply */\n      tag_48\n        /* \"Exchange1.sol\":1861:1874  totalSupply() */\n      jump\t// in\n    tag_354:\n        /* \"Exchange1.sol\":1861:1894  totalSupply() * _amountERC20Token */\n      tag_355\n      swap2\n      swap1\n      tag_167\n      jump\t// in\n    tag_355:\n        /* \"Exchange1.sol\":1860:1916  (totalSupply() * _amountERC20Token) / tokenBalanceBefore */\n      tag_356\n      swap2\n      swap1\n      tag_169\n      jump\t// in\n    tag_356:\n        /* \"Exchange1.sol\":1849:1916  lpIssued = (totalSupply() * _amountERC20Token) / tokenBalanceBefore */\n      swap3\n      pop\n        /* \"Exchange1.sol\":1408:1927  if (totalSupply() == 0) {... */\n    tag_348:\n        /* \"Exchange1.sol\":2015:2020  token */\n      0x05\n      0x00\n      swap1\n      sload\n      swap1\n      0x0100\n      exp\n      swap1\n      div\n      0xffffffffffffffffffffffffffffffffffffffff\n      and\n        /* \"Exchange1.sol\":2015:2033  token.transferFrom */\n      0xffffffffffffffffffffffffffffffffffffffff\n      and\n      0x23b872dd\n        /* \"Exchange1.sol\":2034:2044  msg.sender */\n      caller\n        /* \"Exchange1.sol\":2054:2058  this */\n      address\n        /* \"Exchange1.sol\":2061:2078  _amountERC20Token */\n      dup8\n        /* \"Exchange1.sol\":2015:2079  token.transferFrom(msg.sender, address(this), _amountERC20Token) */\n      mload(0x40)\n      dup5\n      0xffffffff\n      and\n      0xe0\n      shl\n      dup2\n      mstore\n      0x04\n      add\n      tag_357\n      swap4\n      swap3\n      swap2\n      swap1\n      tag_315\n      jump\t// in\n    tag_357:\n      0x20\n      mload(0x40)\n      dup1\n      dup4\n      sub\n      dup2\n      0x00\n      dup8\n      gas\n      call\n      iszero\n      dup1\n      iszero\n      tag_359\n      jumpi\n      returndatasize\n      0x00\n      dup1\n      returndatacopy\n      revert(0x00, returndatasize)\n    tag_359:\n      pop\n      pop\n      pop\n      pop\n      mload(0x40)\n      returndatasize\n      not(0x1f)\n      0x1f\n      dup3\n      add\n      and\n      dup3\n      add\n      dup1\n      0x40\n      mstore\n      pop\n      dup2\n      add\n      swap1\n      tag_360\n      swap2\n      swap1\n      tag_187\n      jump\t// in\n    tag_360:\n        /* \"Exchange1.sol\":1994:2126  require(... */\n      tag_361\n      jumpi\n      mload(0x40)\n      0x08c379a000000000000000000000000000000000000000000000000000000000\n      dup2\n      mstore\n      0x04\n      add\n      tag_362\n      swap1\n      tag_190\n      jump\t// in\n    tag_362:\n      mload(0x40)\n      dup1\n      swap2\n      sub\n      swap1\n      revert\n    tag_361:\n        /* \"Exchange1.sol\":2163:2190  _mint(msg.sender, lpIssued) */\n      tag_363\n        /* \"Exchange1.sol\":2169:2179  msg.sender */\n      caller\n        /* \"Exchange1.sol\":2181:2189  lpIssued */\n      dup5\n        /* \"Exchange1.sol\":2163:2168  _mint */\n      tag_364\n        /* \"Exchange1.sol\":2163:2190  _mint(msg.sender, lpIssued) */\n      jump\t// in\n    tag_363:\n        /* \"Exchange1.sol\":2283:2288  token */\n      0x05\n      0x00\n      swap1\n      sload\n      swap1\n      0x0100\n      exp\n      swap1\n      div\n      0xffffffffffffffffffffffffffffffffffffffff\n      and\n        /* \"Exchange1.sol\":2283:2298  token.balanceOf */\n      0xffffffffffffffffffffffffffffffffffffffff\n      and\n      0x70a08231\n        /* \"Exchange1.sol\":2307:2311  this */\n      address\n        /* \"Exchange1.sol\":2283:2313  token.balanceOf(address(this)) */\n      mload(0x40)\n      dup3\n      0xffffffff\n      and\n      0xe0\n      shl\n      dup2\n      mstore\n      0x04\n      add\n      tag_365\n      swap2\n      swap1\n      tag_161\n      jump\t// in\n    tag_365:\n      0x20\n      mload(0x40)\n      dup1\n      dup4\n      sub\n      dup2\n      dup7\n      gas\n      staticcall\n      iszero\n      dup1\n      iszero\n      tag_367\n      jumpi\n      returndatasize\n      0x00\n      dup1\n      returndatacopy\n      revert(0x00, returndatasize)\n    tag_367:\n      pop\n      pop\n      pop\n      pop\n      mload(0x40)\n      returndatasize\n      not(0x1f)\n      0x1f\n      dup3\n      add\n      and\n      dup3\n      add\n      dup1\n      0x40\n      mstore\n      pop\n      dup2\n      add\n      swap1\n      tag_368\n      swap2\n      swap1\n      tag_165\n      jump\t// in\n    tag_368:\n        /* \"Exchange1.sol\":2259:2280  address(this).balance */\n      selfbalance\n        /* \"Exchange1.sol\":2259:2313  address(this).balance * token.balanceOf(address(this)) */\n      tag_369\n      swap2\n      swap1\n      tag_167\n      jump\t// in\n    tag_369:\n        /* \"Exchange1.sol\":2255:2256  k */\n      0x06\n        /* \"Exchange1.sol\":2255:2313  k = address(this).balance * token.balanceOf(address(this)) */\n      dup2\n      swap1\n      sstore\n      pop\n        /* \"Exchange1.sol\":2329:2386  LiquidityProvided(_amountERC20Token, msg.value, lpIssued) */\n      0xaa58f006cc244b2af6662862508bd39465f57169ff8386d1d1f7b0b903150abc\n        /* \"Exchange1.sol\":2347:2364  _amountERC20Token */\n      dup5\n        /* \"Exchange1.sol\":2366:2375  msg.value */\n      callvalue\n        /* \"Exchange1.sol\":2377:2385  lpIssued */\n      dup6\n        /* \"Exchange1.sol\":2329:2386  LiquidityProvided(_amountERC20Token, msg.value, lpIssued) */\n      mload(0x40)\n      tag_370\n      swap4\n      swap3\n      swap2\n      swap1\n      tag_197\n      jump\t// in\n    tag_370:\n      mload(0x40)\n      dup1\n      swap2\n      sub\n      swap1\n      log1\n        /* \"Exchange1.sol\":2396:2411  return lpIssued */\n      pop\n      pop\n        /* \"Exchange1.sol\":1037:2418  function provideLiquidity(... */\n      swap2\n      swap1\n      pop\n      jump\t// out\n        /* \"Exchange1.sol\":4315:4652  function estimateERC20TokenToProvide(... */\n    tag_131:\n        /* \"Exchange1.sol\":4406:4410  uint */\n      0x00\n        /* \"Exchange1.sol\":4422:4437  uint ethBalance */\n      dup1\n        /* \"Exchange1.sol\":4440:4461  address(this).balance */\n      selfbalance\n        /* \"Exchange1.sol\":4422:4461  uint ethBalance = address(this).balance */\n      swap1\n      pop\n        /* \"Exchange1.sol\":4471:4488  uint tokenBalance */\n      0x00\n        /* \"Exchange1.sol\":4491:4496  token */\n      0x05\n      0x00\n      swap1\n      sload\n      swap1\n      0x0100\n      exp\n      swap1\n      div\n      0xffffffffffffffffffffffffffffffffffffffff\n      and\n        /* \"Exchange1.sol\":4491:4506  token.balanceOf */\n      0xffffffffffffffffffffffffffffffffffffffff\n      and\n      0x70a08231\n        /* \"Exchange1.sol\":4515:4519  this */\n      address\n        /* \"Exchange1.sol\":4491:4521  token.balanceOf(address(this)) */\n      mload(0x40)\n      dup3\n      0xffffffff\n      and\n      0xe0\n      shl\n      dup2\n      mstore\n      0x04\n      add\n      tag_372\n      swap2\n      swap1\n      tag_161\n      jump\t// in\n    tag_372:\n      0x20\n      mload(0x40)\n      dup1\n      dup4\n      sub\n      dup2\n      dup7\n      gas\n      staticcall\n      iszero\n      dup1\n      iszero\n      tag_374\n      jumpi\n      returndatasize\n      0x00\n      dup1\n      returndatacopy\n      revert(0x00, returndatasize)\n    tag_374:\n      pop\n      pop\n      pop\n      pop\n      mload(0x40)\n      returndatasize\n      not(0x1f)\n      0x1f\n      dup3\n      add\n      and\n      dup3\n      add\n      dup1\n      0x40\n      mstore\n      pop\n      dup2\n      add\n      swap1\n      tag_375\n      swap2\n      swap1\n      tag_165\n      jump\t// in\n    tag_375:\n        /* \"Exchange1.sol\":4471:4521  uint tokenBalance = token.balanceOf(address(this)) */\n      swap1\n      pop\n        /* \"Exchange1.sol\":4554:4555  0 */\n      0x00\n        /* \"Exchange1.sol\":4539:4551  tokenBalance */\n      dup2\n        /* \"Exchange1.sol\":4539:4555  tokenBalance > 0 */\n      gt\n        /* \"Exchange1.sol\":4539:4573  tokenBalance > 0 && ethBalance > 0 */\n      dup1\n      iszero\n      tag_376\n      jumpi\n      pop\n        /* \"Exchange1.sol\":4572:4573  0 */\n      0x00\n        /* \"Exchange1.sol\":4559:4569  ethBalance */\n      dup3\n        /* \"Exchange1.sol\":4559:4573  ethBalance > 0 */\n      gt\n        /* \"Exchange1.sol\":4539:4573  tokenBalance > 0 && ethBalance > 0 */\n    tag_376:\n        /* \"Exchange1.sol\":4531:4588  require(tokenBalance > 0 && ethBalance > 0, \"Pool empty\") */\n      tag_377\n      jumpi\n      mload(0x40)\n      0x08c379a000000000000000000000000000000000000000000000000000000000\n      dup2\n      mstore\n      0x04\n      add\n      tag_378\n      swap1\n      tag_213\n      jump\t// in\n    tag_378:\n      mload(0x40)\n      dup1\n      swap2\n      sub\n      swap1\n      revert\n    tag_377:\n        /* \"Exchange1.sol\":4635:4645  ethBalance */\n      dup2\n        /* \"Exchange1.sol\":4621:4631  _amountEth */\n      dup5\n        /* \"Exchange1.sol\":4606:4618  tokenBalance */\n      dup3\n        /* \"Exchange1.sol\":4606:4631  tokenBalance * _amountEth */\n      tag_379\n      swap2\n      swap1\n      tag_167\n      jump\t// in\n    tag_379:\n        /* \"Exchange1.sol\":4605:4645  (tokenBalance * _amountEth) / ethBalance */\n      tag_380\n      swap2\n      swap1\n      tag_169\n      jump\t// in\n    tag_380:\n        /* \"Exchange1.sol\":4598:4645  return (tokenBalance * _amountEth) / ethBalance */\n      swap3\n      pop\n      pop\n      pop\n        /* \"Exchange1.sol\":4315:4652  function estimateERC20TokenToProvide(... */\n      swap2\n      swap1\n      pop\n      jump\t// out\n        /* \"Exchange1.sol\":170:188  ERC20 public token */\n    tag_135:\n      0x05\n      0x00\n      swap1\n      sload\n      swap1\n      0x0100\n      exp\n      swap1\n      div\n      0xffffffffffffffffffffffffffffffffffffffff\n      and\n      dup2\n      jump\t// out\n        /* \"@openzeppelin/contracts@4.9.3/utils/Context.sol\":640:736  function _msgSender() internal view virtual returns (address) {... */\n    tag_147:\n        /* \"@openzeppelin/contracts@4.9.3/utils/Context.sol\":693:700  address */\n      0x00\n        /* \"@openzeppelin/contracts@4.9.3/utils/Context.sol\":719:729  msg.sender */\n      caller\n        /* \"@openzeppelin/contracts@4.9.3/utils/Context.sol\":712:729  return msg.sender */\n      swap1\n      pop\n        /* \"@openzeppelin/contracts@4.9.3/utils/Context.sol\":640:736  function _msgSender() internal view virtual returns (address) {... */\n      swap1\n      jump\t// out\n        /* \"@openzeppelin/contracts@4.9.3/token/ERC20/ERC20.sol\":10457:10797  function _approve(address owner, address spender, uint256 amount) internal virtual {... */\n    tag_149:\n        /* \"@openzeppelin/contracts@4.9.3/token/ERC20/ERC20.sol\":10575:10576  0 */\n      0x00\n        /* \"@openzeppelin/contracts@4.9.3/token/ERC20/ERC20.sol\":10558:10577  owner != address(0) */\n      0xffffffffffffffffffffffffffffffffffffffff\n      and\n        /* \"@openzeppelin/contracts@4.9.3/token/ERC20/ERC20.sol\":10558:10563  owner */\n      dup4\n        /* \"@openzeppelin/contracts@4.9.3/token/ERC20/ERC20.sol\":10558:10577  owner != address(0) */\n      0xffffffffffffffffffffffffffffffffffffffff\n      and\n      sub\n        /* \"@openzeppelin/contracts@4.9.3/token/ERC20/ERC20.sol\":10550:10618  require(owner != address(0), \"ERC20: approve from the zero address\") */\n      tag_383\n      jumpi\n      mload(0x40)\n      0x08c379a000000000000000000000000000000000000000000000000000000000\n      dup2\n      mstore\n      0x04\n      add\n      tag_384\n      swap1\n      tag_385\n      jump\t// in\n    tag_384:\n      mload(0x40)\n      dup1\n      swap2\n      sub\n      swap1\n      revert\n    tag_383:\n        /* \"@openzeppelin/contracts@4.9.3/token/ERC20/ERC20.sol\":10655:10656  0 */\n      0x00\n        /* \"@openzeppelin/contracts@4.9.3/token/ERC20/ERC20.sol\":10636:10657  spender != address(0) */\n      0xffffffffffffffffffffffffffffffffffffffff\n      and\n        /* \"@openzeppelin/contracts@4.9.3/token/ERC20/ERC20.sol\":10636:10643  spender */\n      dup3\n        /* \"@openzeppelin/contracts@4.9.3/token/ERC20/ERC20.sol\":10636:10657  spender != address(0) */\n      0xffffffffffffffffffffffffffffffffffffffff\n      and\n      sub\n        /* \"@openzeppelin/contracts@4.9.3/token/ERC20/ERC20.sol\":10628:10696  require(spender != address(0), \"ERC20: approve to the zero address\") */\n      tag_386\n      jumpi\n      mload(0x40)\n      0x08c379a000000000000000000000000000000000000000000000000000000000\n      dup2\n      mstore\n      0x04\n      add\n      tag_387\n      swap1\n      tag_388\n      jump\t// in\n    tag_387:\n      mload(0x40)\n      dup1\n      swap2\n      sub\n      swap1\n      revert\n    tag_386:\n        /* \"@openzeppelin/contracts@4.9.3/token/ERC20/ERC20.sol\":10737:10743  amount */\n      dup1\n        /* \"@openzeppelin/contracts@4.9.3/token/ERC20/ERC20.sol\":10707:10718  _allowances */\n      0x01\n        /* \"@openzeppelin/contracts@4.9.3/token/ERC20/ERC20.sol\":10707:10725  _allowances[owner] */\n      0x00\n        /* \"@openzeppelin/contracts@4.9.3/token/ERC20/ERC20.sol\":10719:10724  owner */\n      dup6\n        /* \"@openzeppelin/contracts@4.9.3/token/ERC20/ERC20.sol\":10707:10725  _allowances[owner] */\n      0xffffffffffffffffffffffffffffffffffffffff\n      and\n      0xffffffffffffffffffffffffffffffffffffffff\n      and\n      dup2\n      mstore\n      0x20\n      add\n      swap1\n      dup2\n      mstore\n      0x20\n      add\n      0x00\n      keccak256\n        /* \"@openzeppelin/contracts@4.9.3/token/ERC20/ERC20.sol\":10707:10734  _allowances[owner][spender] */\n      0x00\n        /* \"@openzeppelin/contracts@4.9.3/token/ERC20/ERC20.sol\":10726:10733  spender */\n      dup5\n        /* \"@openzeppelin/contracts@4.9.3/token/ERC20/ERC20.sol\":10707:10734  _allowances[owner][spender] */\n      0xffffffffffffffffffffffffffffffffffffffff\n      and\n      0xffffffffffffffffffffffffffffffffffffffff\n      and\n      dup2\n      mstore\n      0x20\n      add\n      swap1\n      dup2\n      mstore\n      0x20\n      add\n      0x00\n      keccak256\n        /* \"@openzeppelin/contracts@4.9.3/token/ERC20/ERC20.sol\":10707:10743  _allowances[owner][spender] = amount */\n      dup2\n      swap1\n      sstore\n      pop\n        /* \"@openzeppelin/contracts@4.9.3/token/ERC20/ERC20.sol\":10774:10781  spender */\n      dup2\n        /* \"@openzeppelin/contracts@4.9.3/token/ERC20/ERC20.sol\":10758:10790  Approval(owner, spender, amount) */\n      0xffffffffffffffffffffffffffffffffffffffff\n      and\n        /* \"@openzeppelin/contracts@4.9.3/token/ERC20/ERC20.sol\":10767:10772  owner */\n      dup4\n        /* \"@openzeppelin/contracts@4.9.3/token/ERC20/ERC20.sol\":10758:10790  Approval(owner, spender, amount) */\n      0xffffffffffffffffffffffffffffffffffffffff\n      and\n      0x8c5be1e5ebec7d5bd14f71427d1e84f3dd0314c0f7b2291e5b200ac8c7c3b925\n        /* \"@openzeppelin/contracts@4.9.3/token/ERC20/ERC20.sol\":10783:10789  amount */\n      dup4\n        /* \"@openzeppelin/contracts@4.9.3/token/ERC20/ERC20.sol\":10758:10790  Approval(owner, spender, amount) */\n      mload(0x40)\n      tag_389\n      swap2\n      swap1\n      tag_50\n      jump\t// in\n    tag_389:\n      mload(0x40)\n      dup1\n      swap2\n      sub\n      swap1\n      log3\n        /* \"@openzeppelin/contracts@4.9.3/token/ERC20/ERC20.sol\":10457:10797  function _approve(address owner, address spender, uint256 amount) internal virtual {... */\n      pop\n      pop\n      pop\n      jump\t// out\n        /* \"@openzeppelin/contracts@4.9.3/token/ERC20/ERC20.sol\":9375:10034  function _burn(address account, uint256 amount) internal virtual {... */\n    tag_173:\n        /* \"@openzeppelin/contracts@4.9.3/token/ERC20/ERC20.sol\":9477:9478  0 */\n      0x00\n        /* \"@openzeppelin/contracts@4.9.3/token/ERC20/ERC20.sol\":9458:9479  account != address(0) */\n      0xffffffffffffffffffffffffffffffffffffffff\n      and\n        /* \"@openzeppelin/contracts@4.9.3/token/ERC20/ERC20.sol\":9458:9465  account */\n      dup3\n        /* \"@openzeppelin/contracts@4.9.3/token/ERC20/ERC20.sol\":9458:9479  account != address(0) */\n      0xffffffffffffffffffffffffffffffffffffffff\n      and\n      sub\n        /* \"@openzeppelin/contracts@4.9.3/token/ERC20/ERC20.sol\":9450:9517  require(account != address(0), \"ERC20: burn from the zero address\") */\n      tag_391\n      jumpi\n      mload(0x40)\n      0x08c379a000000000000000000000000000000000000000000000000000000000\n      dup2\n      mstore\n      0x04\n      add\n      tag_392\n      swap1\n      tag_393\n      jump\t// in\n    tag_392:\n      mload(0x40)\n      dup1\n      swap2\n      sub\n      swap1\n      revert\n    tag_391:\n        /* \"@openzeppelin/contracts@4.9.3/token/ERC20/ERC20.sol\":9528:9577  _beforeTokenTransfer(account, address(0), amount) */\n      tag_394\n        /* \"@openzeppelin/contracts@4.9.3/token/ERC20/ERC20.sol\":9549:9556  account */\n      dup3\n        /* \"@openzeppelin/contracts@4.9.3/token/ERC20/ERC20.sol\":9566:9567  0 */\n      0x00\n        /* \"@openzeppelin/contracts@4.9.3/token/ERC20/ERC20.sol\":9570:9576  amount */\n      dup4\n        /* \"@openzeppelin/contracts@4.9.3/token/ERC20/ERC20.sol\":9528:9548  _beforeTokenTransfer */\n      tag_395\n        /* \"@openzeppelin/contracts@4.9.3/token/ERC20/ERC20.sol\":9528:9577  _beforeTokenTransfer(account, address(0), amount) */\n      jump\t// in\n    tag_394:\n        /* \"@openzeppelin/contracts@4.9.3/token/ERC20/ERC20.sol\":9588:9610  uint256 accountBalance */\n      0x00\n        /* \"@openzeppelin/contracts@4.9.3/token/ERC20/ERC20.sol\":9613:9622  _balances */\n      dup1\n        /* \"@openzeppelin/contracts@4.9.3/token/ERC20/ERC20.sol\":9613:9631  _balances[account] */\n      0x00\n        /* \"@openzeppelin/contracts@4.9.3/token/ERC20/ERC20.sol\":9623:9630  account */\n      dup5\n        /* \"@openzeppelin/contracts@4.9.3/token/ERC20/ERC20.sol\":9613:9631  _balances[account] */\n      0xffffffffffffffffffffffffffffffffffffffff\n      and\n      0xffffffffffffffffffffffffffffffffffffffff\n      and\n      dup2\n      mstore\n      0x20\n      add\n      swap1\n      dup2\n      mstore\n      0x20\n      add\n      0x00\n      keccak256\n      sload\n        /* \"@openzeppelin/contracts@4.9.3/token/ERC20/ERC20.sol\":9588:9631  uint256 accountBalance = _balances[account] */\n      swap1\n      pop\n        /* \"@openzeppelin/contracts@4.9.3/token/ERC20/ERC20.sol\":9667:9673  amount */\n      dup2\n        /* \"@openzeppelin/contracts@4.9.3/token/ERC20/ERC20.sol\":9649:9663  accountBalance */\n      dup2\n        /* \"@openzeppelin/contracts@4.9.3/token/ERC20/ERC20.sol\":9649:9673  accountBalance >= amount */\n      lt\n      iszero\n        /* \"@openzeppelin/contracts@4.9.3/token/ERC20/ERC20.sol\":9641:9712  require(accountBalance >= amount, \"ERC20: burn amount exceeds balance\") */\n      tag_396\n      jumpi\n      mload(0x40)\n      0x08c379a000000000000000000000000000000000000000000000000000000000\n      dup2\n      mstore\n      0x04\n      add\n      tag_397\n      swap1\n      tag_398\n      jump\t// in\n    tag_397:\n      mload(0x40)\n      dup1\n      swap2\n      sub\n      swap1\n      revert\n    tag_396:\n        /* \"@openzeppelin/contracts@4.9.3/token/ERC20/ERC20.sol\":9784:9790  amount */\n      dup2\n        /* \"@openzeppelin/contracts@4.9.3/token/ERC20/ERC20.sol\":9767:9781  accountBalance */\n      dup2\n        /* \"@openzeppelin/contracts@4.9.3/token/ERC20/ERC20.sol\":9767:9790  accountBalance - amount */\n      sub\n        /* \"@openzeppelin/contracts@4.9.3/token/ERC20/ERC20.sol\":9746:9755  _balances */\n      0x00\n        /* \"@openzeppelin/contracts@4.9.3/token/ERC20/ERC20.sol\":9746:9764  _balances[account] */\n      dup1\n        /* \"@openzeppelin/contracts@4.9.3/token/ERC20/ERC20.sol\":9756:9763  account */\n      dup6\n        /* \"@openzeppelin/contracts@4.9.3/token/ERC20/ERC20.sol\":9746:9764  _balances[account] */\n      0xffffffffffffffffffffffffffffffffffffffff\n      and\n      0xffffffffffffffffffffffffffffffffffffffff\n      and\n      dup2\n      mstore\n      0x20\n      add\n      swap1\n      dup2\n      mstore\n      0x20\n      add\n      0x00\n      keccak256\n        /* \"@openzeppelin/contracts@4.9.3/token/ERC20/ERC20.sol\":9746:9790  _balances[account] = accountBalance - amount */\n      dup2\n      swap1\n      sstore\n      pop\n        /* \"@openzeppelin/contracts@4.9.3/token/ERC20/ERC20.sol\":9899:9905  amount */\n      dup2\n        /* \"@openzeppelin/contracts@4.9.3/token/ERC20/ERC20.sol\":9883:9895  _totalSupply */\n      0x02\n      0x00\n        /* \"@openzeppelin/contracts@4.9.3/token/ERC20/ERC20.sol\":9883:9905  _totalSupply -= amount */\n      dup3\n      dup3\n      sload\n      sub\n      swap3\n      pop\n      pop\n      dup2\n      swap1\n      sstore\n      pop\n        /* \"@openzeppelin/contracts@4.9.3/token/ERC20/ERC20.sol\":9957:9958  0 */\n      0x00\n        /* \"@openzeppelin/contracts@4.9.3/token/ERC20/ERC20.sol\":9931:9968  Transfer(account, address(0), amount) */\n      0xffffffffffffffffffffffffffffffffffffffff\n      and\n        /* \"@openzeppelin/contracts@4.9.3/token/ERC20/ERC20.sol\":9940:9947  account */\n      dup4\n        /* \"@openzeppelin/contracts@4.9.3/token/ERC20/ERC20.sol\":9931:9968  Transfer(account, address(0), amount) */\n      0xffffffffffffffffffffffffffffffffffffffff\n      and\n      0xddf252ad1be2c89b69c2b068fc378daa952ba7f163c4a11628f55a4df523b3ef\n        /* \"@openzeppelin/contracts@4.9.3/token/ERC20/ERC20.sol\":9961:9967  amount */\n      dup5\n        /* \"@openzeppelin/contracts@4.9.3/token/ERC20/ERC20.sol\":9931:9968  Transfer(account, address(0), amount) */\n      mload(0x40)\n      tag_399\n      swap2\n      swap1\n      tag_50\n      jump\t// in\n    tag_399:\n      mload(0x40)\n      dup1\n      swap2\n      sub\n      swap1\n      log3\n        /* \"@openzeppelin/contracts@4.9.3/token/ERC20/ERC20.sol\":9979:10027  _afterTokenTransfer(account, address(0), amount) */\n      tag_400\n        /* \"@openzeppelin/contracts@4.9.3/token/ERC20/ERC20.sol\":9999:10006  account */\n      dup4\n        /* \"@openzeppelin/contracts@4.9.3/token/ERC20/ERC20.sol\":10016:10017  0 */\n      0x00\n        /* \"@openzeppelin/contracts@4.9.3/token/ERC20/ERC20.sol\":10020:10026  amount */\n      dup5\n        /* \"@openzeppelin/contracts@4.9.3/token/ERC20/ERC20.sol\":9979:9998  _afterTokenTransfer */\n      tag_401\n        /* \"@openzeppelin/contracts@4.9.3/token/ERC20/ERC20.sol\":9979:10027  _afterTokenTransfer(account, address(0), amount) */\n      jump\t// in\n    tag_400:\n        /* \"@openzeppelin/contracts@4.9.3/token/ERC20/ERC20.sol\":9440:10034  {... */\n      pop\n        /* \"@openzeppelin/contracts@4.9.3/token/ERC20/ERC20.sol\":9375:10034  function _burn(address account, uint256 amount) internal virtual {... */\n      pop\n      pop\n      jump\t// out\n        /* \"@openzeppelin/contracts@4.9.3/token/ERC20/ERC20.sol\":11078:11489  function _spendAllowance(address owner, address spender, uint256 amount) internal virtual {... */\n    tag_202:\n        /* \"@openzeppelin/contracts@4.9.3/token/ERC20/ERC20.sol\":11178:11202  uint256 currentAllowance */\n      0x00\n        /* \"@openzeppelin/contracts@4.9.3/token/ERC20/ERC20.sol\":11205:11230  allowance(owner, spender) */\n      tag_403\n        /* \"@openzeppelin/contracts@4.9.3/token/ERC20/ERC20.sol\":11215:11220  owner */\n      dup5\n        /* \"@openzeppelin/contracts@4.9.3/token/ERC20/ERC20.sol\":11222:11229  spender */\n      dup5\n        /* \"@openzeppelin/contracts@4.9.3/token/ERC20/ERC20.sol\":11205:11214  allowance */\n      tag_118\n        /* \"@openzeppelin/contracts@4.9.3/token/ERC20/ERC20.sol\":11205:11230  allowance(owner, spender) */\n      jump\t// in\n    tag_403:\n        /* \"@openzeppelin/contracts@4.9.3/token/ERC20/ERC20.sol\":11178:11230  uint256 currentAllowance = allowance(owner, spender) */\n      swap1\n      pop\n        /* \"@openzeppelin/contracts@4.9.3/token/ERC20/ERC20.sol\":11264:11281  type(uint256).max */\n      0xffffffffffffffffffffffffffffffffffffffffffffffffffffffffffffffff\n        /* \"@openzeppelin/contracts@4.9.3/token/ERC20/ERC20.sol\":11244:11260  currentAllowance */\n      dup2\n        /* \"@openzeppelin/contracts@4.9.3/token/ERC20/ERC20.sol\":11244:11281  currentAllowance != type(uint256).max */\n      eq\n        /* \"@openzeppelin/contracts@4.9.3/token/ERC20/ERC20.sol\":11240:11483  if (currentAllowance != type(uint256).max) {... */\n      tag_404\n      jumpi\n        /* \"@openzeppelin/contracts@4.9.3/token/ERC20/ERC20.sol\":11325:11331  amount */\n      dup2\n        /* \"@openzeppelin/contracts@4.9.3/token/ERC20/ERC20.sol\":11305:11321  currentAllowance */\n      dup2\n        /* \"@openzeppelin/contracts@4.9.3/token/ERC20/ERC20.sol\":11305:11331  currentAllowance >= amount */\n      lt\n      iszero\n        /* \"@openzeppelin/contracts@4.9.3/token/ERC20/ERC20.sol\":11297:11365  require(currentAllowance >= amount, \"ERC20: insufficient allowance\") */\n      tag_405\n      jumpi\n      mload(0x40)\n      0x08c379a000000000000000000000000000000000000000000000000000000000\n      dup2\n      mstore\n      0x04\n      add\n      tag_406\n      swap1\n      tag_407\n      jump\t// in\n    tag_406:\n      mload(0x40)\n      dup1\n      swap2\n      sub\n      swap1\n      revert\n    tag_405:\n        /* \"@openzeppelin/contracts@4.9.3/token/ERC20/ERC20.sol\":11407:11458  _approve(owner, spender, currentAllowance - amount) */\n      tag_408\n        /* \"@openzeppelin/contracts@4.9.3/token/ERC20/ERC20.sol\":11416:11421  owner */\n      dup5\n        /* \"@openzeppelin/contracts@4.9.3/token/ERC20/ERC20.sol\":11423:11430  spender */\n      dup5\n        /* \"@openzeppelin/contracts@4.9.3/token/ERC20/ERC20.sol\":11451:11457  amount */\n      dup5\n        /* \"@openzeppelin/contracts@4.9.3/token/ERC20/ERC20.sol\":11432:11448  currentAllowance */\n      dup5\n        /* \"@openzeppelin/contracts@4.9.3/token/ERC20/ERC20.sol\":11432:11457  currentAllowance - amount */\n      sub\n        /* \"@openzeppelin/contracts@4.9.3/token/ERC20/ERC20.sol\":11407:11415  _approve */\n      tag_149\n        /* \"@openzeppelin/contracts@4.9.3/token/ERC20/ERC20.sol\":11407:11458  _approve(owner, spender, currentAllowance - amount) */\n      jump\t// in\n    tag_408:\n        /* \"@openzeppelin/contracts@4.9.3/token/ERC20/ERC20.sol\":11240:11483  if (currentAllowance != type(uint256).max) {... */\n    tag_404:\n        /* \"@openzeppelin/contracts@4.9.3/token/ERC20/ERC20.sol\":11168:11489  {... */\n      pop\n        /* \"@openzeppelin/contracts@4.9.3/token/ERC20/ERC20.sol\":11078:11489  function _spendAllowance(address owner, address spender, uint256 amount) internal virtual {... */\n      pop\n      pop\n      pop\n      jump\t// out\n        /* \"@openzeppelin/contracts@4.9.3/token/ERC20/ERC20.sol\":7456:8244  function _transfer(address from, address to, uint256 amount) internal virtual {... */\n    tag_204:\n        /* \"@openzeppelin/contracts@4.9.3/token/ERC20/ERC20.sol\":7568:7569  0 */\n      0x00\n        /* \"@openzeppelin/contracts@4.9.3/token/ERC20/ERC20.sol\":7552:7570  from != address(0) */\n      0xffffffffffffffffffffffffffffffffffffffff\n      and\n        /* \"@openzeppelin/contracts@4.9.3/token/ERC20/ERC20.sol\":7552:7556  from */\n      dup4\n        /* \"@openzeppelin/contracts@4.9.3/token/ERC20/ERC20.sol\":7552:7570  from != address(0) */\n      0xffffffffffffffffffffffffffffffffffffffff\n      and\n      sub\n        /* \"@openzeppelin/contracts@4.9.3/token/ERC20/ERC20.sol\":7544:7612  require(from != address(0), \"ERC20: transfer from the zero address\") */\n      tag_410\n      jumpi\n      mload(0x40)\n      0x08c379a000000000000000000000000000000000000000000000000000000000\n      dup2\n      mstore\n      0x04\n      add\n      tag_411\n      swap1\n      tag_412\n      jump\t// in\n    tag_411:\n      mload(0x40)\n      dup1\n      swap2\n      sub\n      swap1\n      revert\n    tag_410:\n        /* \"@openzeppelin/contracts@4.9.3/token/ERC20/ERC20.sol\":7644:7645  0 */\n      0x00\n        /* \"@openzeppelin/contracts@4.9.3/token/ERC20/ERC20.sol\":7630:7646  to != address(0) */\n      0xffffffffffffffffffffffffffffffffffffffff\n      and\n        /* \"@openzeppelin/contracts@4.9.3/token/ERC20/ERC20.sol\":7630:7632  to */\n      dup3\n        /* \"@openzeppelin/contracts@4.9.3/token/ERC20/ERC20.sol\":7630:7646  to != address(0) */\n      0xffffffffffffffffffffffffffffffffffffffff\n      and\n      sub\n        /* \"@openzeppelin/contracts@4.9.3/token/ERC20/ERC20.sol\":7622:7686  require(to != address(0), \"ERC20: transfer to the zero address\") */\n      tag_413\n      jumpi\n      mload(0x40)\n      0x08c379a000000000000000000000000000000000000000000000000000000000\n      dup2\n      mstore\n      0x04\n      add\n      tag_414\n      swap1\n      tag_415\n      jump\t// in\n    tag_414:\n      mload(0x40)\n      dup1\n      swap2\n      sub\n      swap1\n      revert\n    tag_413:\n        /* \"@openzeppelin/contracts@4.9.3/token/ERC20/ERC20.sol\":7697:7735  _beforeTokenTransfer(from, to, amount) */\n      tag_416\n        /* \"@openzeppelin/contracts@4.9.3/token/ERC20/ERC20.sol\":7718:7722  from */\n      dup4\n        /* \"@openzeppelin/contracts@4.9.3/token/ERC20/ERC20.sol\":7724:7726  to */\n      dup4\n        /* \"@openzeppelin/contracts@4.9.3/token/ERC20/ERC20.sol\":7728:7734  amount */\n      dup4\n        /* \"@openzeppelin/contracts@4.9.3/token/ERC20/ERC20.sol\":7697:7717  _beforeTokenTransfer */\n      tag_395\n        /* \"@openzeppelin/contracts@4.9.3/token/ERC20/ERC20.sol\":7697:7735  _beforeTokenTransfer(from, to, amount) */\n      jump\t// in\n    tag_416:\n        /* \"@openzeppelin/contracts@4.9.3/token/ERC20/ERC20.sol\":7746:7765  uint256 fromBalance */\n      0x00\n        /* \"@openzeppelin/contracts@4.9.3/token/ERC20/ERC20.sol\":7768:7777  _balances */\n      dup1\n        /* \"@openzeppelin/contracts@4.9.3/token/ERC20/ERC20.sol\":7768:7783  _balances[from] */\n      0x00\n        /* \"@openzeppelin/contracts@4.9.3/token/ERC20/ERC20.sol\":7778:7782  from */\n      dup6\n        /* \"@openzeppelin/contracts@4.9.3/token/ERC20/ERC20.sol\":7768:7783  _balances[from] */\n      0xffffffffffffffffffffffffffffffffffffffff\n      and\n      0xffffffffffffffffffffffffffffffffffffffff\n      and\n      dup2\n      mstore\n      0x20\n      add\n      swap1\n      dup2\n      mstore\n      0x20\n      add\n      0x00\n      keccak256\n      sload\n        /* \"@openzeppelin/contracts@4.9.3/token/ERC20/ERC20.sol\":7746:7783  uint256 fromBalance = _balances[from] */\n      swap1\n      pop\n        /* \"@openzeppelin/contracts@4.9.3/token/ERC20/ERC20.sol\":7816:7822  amount */\n      dup2\n        /* \"@openzeppelin/contracts@4.9.3/token/ERC20/ERC20.sol\":7801:7812  fromBalance */\n      dup2\n        /* \"@openzeppelin/contracts@4.9.3/token/ERC20/ERC20.sol\":7801:7822  fromBalance >= amount */\n      lt\n      iszero\n        /* \"@openzeppelin/contracts@4.9.3/token/ERC20/ERC20.sol\":7793:7865  require(fromBalance >= amount, \"ERC20: transfer amount exceeds balance\") */\n      tag_417\n      jumpi\n      mload(0x40)\n      0x08c379a000000000000000000000000000000000000000000000000000000000\n      dup2\n      mstore\n      0x04\n      add\n      tag_418\n      swap1\n      tag_419\n      jump\t// in\n    tag_418:\n      mload(0x40)\n      dup1\n      swap2\n      sub\n      swap1\n      revert\n    tag_417:\n        /* \"@openzeppelin/contracts@4.9.3/token/ERC20/ERC20.sol\":7931:7937  amount */\n      dup2\n        /* \"@openzeppelin/contracts@4.9.3/token/ERC20/ERC20.sol\":7917:7928  fromBalance */\n      dup2\n        /* \"@openzeppelin/contracts@4.9.3/token/ERC20/ERC20.sol\":7917:7937  fromBalance - amount */\n      sub\n        /* \"@openzeppelin/contracts@4.9.3/token/ERC20/ERC20.sol\":7899:7908  _balances */\n      0x00\n        /* \"@openzeppelin/contracts@4.9.3/token/ERC20/ERC20.sol\":7899:7914  _balances[from] */\n      dup1\n        /* \"@openzeppelin/contracts@4.9.3/token/ERC20/ERC20.sol\":7909:7913  from */\n      dup7\n        /* \"@openzeppelin/contracts@4.9.3/token/ERC20/ERC20.sol\":7899:7914  _balances[from] */\n      0xffffffffffffffffffffffffffffffffffffffff\n      and\n      0xffffffffffffffffffffffffffffffffffffffff\n      and\n      dup2\n      mstore\n      0x20\n      add\n      swap1\n      dup2\n      mstore\n      0x20\n      add\n      0x00\n      keccak256\n        /* \"@openzeppelin/contracts@4.9.3/token/ERC20/ERC20.sol\":7899:7937  _balances[from] = fromBalance - amount */\n      dup2\n      swap1\n      sstore\n      pop\n        /* \"@openzeppelin/contracts@4.9.3/token/ERC20/ERC20.sol\":8131:8137  amount */\n      dup2\n        /* \"@openzeppelin/contracts@4.9.3/token/ERC20/ERC20.sol\":8114:8123  _balances */\n      0x00\n        /* \"@openzeppelin/contracts@4.9.3/token/ERC20/ERC20.sol\":8114:8127  _balances[to] */\n      dup1\n        /* \"@openzeppelin/contracts@4.9.3/token/ERC20/ERC20.sol\":8124:8126  to */\n      dup6\n        /* \"@openzeppelin/contracts@4.9.3/token/ERC20/ERC20.sol\":8114:8127  _balances[to] */\n      0xffffffffffffffffffffffffffffffffffffffff\n      and\n      0xffffffffffffffffffffffffffffffffffffffff\n      and\n      dup2\n      mstore\n      0x20\n      add\n      swap1\n      dup2\n      mstore\n      0x20\n      add\n      0x00\n      keccak256\n      0x00\n        /* \"@openzeppelin/contracts@4.9.3/token/ERC20/ERC20.sol\":8114:8137  _balances[to] += amount */\n      dup3\n      dup3\n      sload\n      add\n      swap3\n      pop\n      pop\n      dup2\n      swap1\n      sstore\n      pop\n        /* \"@openzeppelin/contracts@4.9.3/token/ERC20/ERC20.sol\":8178:8180  to */\n      dup3\n        /* \"@openzeppelin/contracts@4.9.3/token/ERC20/ERC20.sol\":8163:8189  Transfer(from, to, amount) */\n      0xffffffffffffffffffffffffffffffffffffffff\n      and\n        /* \"@openzeppelin/contracts@4.9.3/token/ERC20/ERC20.sol\":8172:8176  from */\n      dup5\n        /* \"@openzeppelin/contracts@4.9.3/token/ERC20/ERC20.sol\":8163:8189  Transfer(from, to, amount) */\n      0xffffffffffffffffffffffffffffffffffffffff\n      and\n      0xddf252ad1be2c89b69c2b068fc378daa952ba7f163c4a11628f55a4df523b3ef\n        /* \"@openzeppelin/contracts@4.9.3/token/ERC20/ERC20.sol\":8182:8188  amount */\n      dup5\n        /* \"@openzeppelin/contracts@4.9.3/token/ERC20/ERC20.sol\":8163:8189  Transfer(from, to, amount) */\n      mload(0x40)\n      tag_420\n      swap2\n      swap1\n      tag_50\n      jump\t// in\n    tag_420:\n      mload(0x40)\n      dup1\n      swap2\n      sub\n      swap1\n      log3\n        /* \"@openzeppelin/contracts@4.9.3/token/ERC20/ERC20.sol\":8200:8237  _afterTokenTransfer(from, to, amount) */\n      tag_421\n        /* \"@openzeppelin/contracts@4.9.3/token/ERC20/ERC20.sol\":8220:8224  from */\n      dup5\n        /* \"@openzeppelin/contracts@4.9.3/token/ERC20/ERC20.sol\":8226:8228  to */\n      dup5\n        /* \"@openzeppelin/contracts@4.9.3/token/ERC20/ERC20.sol\":8230:8236  amount */\n      dup5\n        /* \"@openzeppelin/contracts@4.9.3/token/ERC20/ERC20.sol\":8200:8219  _afterTokenTransfer */\n      tag_401\n        /* \"@openzeppelin/contracts@4.9.3/token/ERC20/ERC20.sol\":8200:8237  _afterTokenTransfer(from, to, amount) */\n      jump\t// in\n    tag_421:\n        /* \"@openzeppelin/contracts@4.9.3/token/ERC20/ERC20.sol\":7534:8244  {... */\n      pop\n        /* \"@openzeppelin/contracts@4.9.3/token/ERC20/ERC20.sol\":7456:8244  function _transfer(address from, address to, uint256 amount) internal virtual {... */\n      pop\n      pop\n      pop\n      jump\t// out\n        /* \"@openzeppelin/contracts@4.9.3/token/ERC20/ERC20.sol\":8520:9055  function _mint(address account, uint256 amount) internal virtual {... */\n    tag_364:\n        /* \"@openzeppelin/contracts@4.9.3/token/ERC20/ERC20.sol\":8622:8623  0 */\n      0x00\n        /* \"@openzeppelin/contracts@4.9.3/token/ERC20/ERC20.sol\":8603:8624  account != address(0) */\n      0xffffffffffffffffffffffffffffffffffffffff\n      and\n        /* \"@openzeppelin/contracts@4.9.3/token/ERC20/ERC20.sol\":8603:8610  account */\n      dup3\n        /* \"@openzeppelin/contracts@4.9.3/token/ERC20/ERC20.sol\":8603:8624  account != address(0) */\n      0xffffffffffffffffffffffffffffffffffffffff\n      and\n      sub\n        /* \"@openzeppelin/contracts@4.9.3/token/ERC20/ERC20.sol\":8595:8660  require(account != address(0), \"ERC20: mint to the zero address\") */\n      tag_423\n      jumpi\n      mload(0x40)\n      0x08c379a000000000000000000000000000000000000000000000000000000000\n      dup2\n      mstore\n      0x04\n      add\n      tag_424\n      swap1\n      tag_425\n      jump\t// in\n    tag_424:\n      mload(0x40)\n      dup1\n      swap2\n      sub\n      swap1\n      revert\n    tag_423:\n        /* \"@openzeppelin/contracts@4.9.3/token/ERC20/ERC20.sol\":8671:8720  _beforeTokenTransfer(address(0), account, amount) */\n      tag_426\n        /* \"@openzeppelin/contracts@4.9.3/token/ERC20/ERC20.sol\":8700:8701  0 */\n      0x00\n        /* \"@openzeppelin/contracts@4.9.3/token/ERC20/ERC20.sol\":8704:8711  account */\n      dup4\n        /* \"@openzeppelin/contracts@4.9.3/token/ERC20/ERC20.sol\":8713:8719  amount */\n      dup4\n        /* \"@openzeppelin/contracts@4.9.3/token/ERC20/ERC20.sol\":8671:8691  _beforeTokenTransfer */\n      tag_395\n        /* \"@openzeppelin/contracts@4.9.3/token/ERC20/ERC20.sol\":8671:8720  _beforeTokenTransfer(address(0), account, amount) */\n      jump\t// in\n    tag_426:\n        /* \"@openzeppelin/contracts@4.9.3/token/ERC20/ERC20.sol\":8747:8753  amount */\n      dup1\n        /* \"@openzeppelin/contracts@4.9.3/token/ERC20/ERC20.sol\":8731:8743  _totalSupply */\n      0x02\n      0x00\n        /* \"@openzeppelin/contracts@4.9.3/token/ERC20/ERC20.sol\":8731:8753  _totalSupply += amount */\n      dup3\n      dup3\n      sload\n      tag_427\n      swap2\n      swap1\n      tag_230\n      jump\t// in\n    tag_427:\n      swap3\n      pop\n      pop\n      dup2\n      swap1\n      sstore\n      pop\n        /* \"@openzeppelin/contracts@4.9.3/token/ERC20/ERC20.sol\":8921:8927  amount */\n      dup1\n        /* \"@openzeppelin/contracts@4.9.3/token/ERC20/ERC20.sol\":8899:8908  _balances */\n      0x00\n        /* \"@openzeppelin/contracts@4.9.3/token/ERC20/ERC20.sol\":8899:8917  _balances[account] */\n      dup1\n        /* \"@openzeppelin/contracts@4.9.3/token/ERC20/ERC20.sol\":8909:8916  account */\n      dup5\n        /* \"@openzeppelin/contracts@4.9.3/token/ERC20/ERC20.sol\":8899:8917  _balances[account] */\n      0xffffffffffffffffffffffffffffffffffffffff\n      and\n      0xffffffffffffffffffffffffffffffffffffffff\n      and\n      dup2\n      mstore\n      0x20\n      add\n      swap1\n      dup2\n      mstore\n      0x20\n      add\n      0x00\n      keccak256\n      0x00\n        /* \"@openzeppelin/contracts@4.9.3/token/ERC20/ERC20.sol\":8899:8927  _balances[account] += amount */\n      dup3\n      dup3\n      sload\n      add\n      swap3\n      pop\n      pop\n      dup2\n      swap1\n      sstore\n      pop\n        /* \"@openzeppelin/contracts@4.9.3/token/ERC20/ERC20.sol\":8973:8980  account */\n      dup2\n        /* \"@openzeppelin/contracts@4.9.3/token/ERC20/ERC20.sol\":8952:8989  Transfer(address(0), account, amount) */\n      0xffffffffffffffffffffffffffffffffffffffff\n      and\n        /* \"@openzeppelin/contracts@4.9.3/token/ERC20/ERC20.sol\":8969:8970  0 */\n      0x00\n        /* \"@openzeppelin/contracts@4.9.3/token/ERC20/ERC20.sol\":8952:8989  Transfer(address(0), account, amount) */\n      0xffffffffffffffffffffffffffffffffffffffff\n      and\n      0xddf252ad1be2c89b69c2b068fc378daa952ba7f163c4a11628f55a4df523b3ef\n        /* \"@openzeppelin/contracts@4.9.3/token/ERC20/ERC20.sol\":8982:8988  amount */\n      dup4\n        /* \"@openzeppelin/contracts@4.9.3/token/ERC20/ERC20.sol\":8952:8989  Transfer(address(0), account, amount) */\n      mload(0x40)\n      tag_428\n      swap2\n      swap1\n      tag_50\n      jump\t// in\n    tag_428:\n      mload(0x40)\n      dup1\n      swap2\n      sub\n      swap1\n      log3\n        /* \"@openzeppelin/contracts@4.9.3/token/ERC20/ERC20.sol\":9000:9048  _afterTokenTransfer(address(0), account, amount) */\n      tag_429\n        /* \"@openzeppelin/contracts@4.9.3/token/ERC20/ERC20.sol\":9028:9029  0 */\n      0x00\n        /* \"@openzeppelin/contracts@4.9.3/token/ERC20/ERC20.sol\":9032:9039  account */\n      dup4\n        /* \"@openzeppelin/contracts@4.9.3/token/ERC20/ERC20.sol\":9041:9047  amount */\n      dup4\n        /* \"@openzeppelin/contracts@4.9.3/token/ERC20/ERC20.sol\":9000:9019  _afterTokenTransfer */\n      tag_401\n        /* \"@openzeppelin/contracts@4.9.3/token/ERC20/ERC20.sol\":9000:9048  _afterTokenTransfer(address(0), account, amount) */\n      jump\t// in\n    tag_429:\n        /* \"@openzeppelin/contracts@4.9.3/token/ERC20/ERC20.sol\":8520:9055  function _mint(address account, uint256 amount) internal virtual {... */\n      pop\n      pop\n      jump\t// out\n        /* \"@openzeppelin/contracts@4.9.3/token/ERC20/ERC20.sol\":12073:12164  function _beforeTokenTransfer(address from, address to, uint256 amount) internal virtual {} */\n    tag_395:\n      pop\n      pop\n      pop\n      jump\t// out\n        /* \"@openzeppelin/contracts@4.9.3/token/ERC20/ERC20.sol\":12752:12842  function _afterTokenTransfer(address from, address to, uint256 amount) internal virtual {} */\n    tag_401:\n      pop\n      pop\n      pop\n      jump\t// out\n        /* \"#utility.yul\":7:106   */\n    tag_432:\n        /* \"#utility.yul\":59:65   */\n      0x00\n        /* \"#utility.yul\":93:98   */\n      dup2\n        /* \"#utility.yul\":87:99   */\n      mload\n        /* \"#utility.yul\":77:99   */\n      swap1\n      pop\n        /* \"#utility.yul\":7:106   */\n      swap2\n      swap1\n      pop\n      jump\t// out\n        /* \"#utility.yul\":112:281   */\n    tag_433:\n        /* \"#utility.yul\":196:207   */\n      0x00\n        /* \"#utility.yul\":230:236   */\n      dup3\n        /* \"#utility.yul\":225:228   */\n      dup3\n        /* \"#utility.yul\":218:237   */\n      mstore\n        /* \"#utility.yul\":270:274   */\n      0x20\n        /* \"#utility.yul\":265:268   */\n      dup3\n        /* \"#utility.yul\":261:275   */\n      add\n        /* \"#utility.yul\":246:275   */\n      swap1\n      pop\n        /* \"#utility.yul\":112:281   */\n      swap3\n      swap2\n      pop\n      pop\n      jump\t// out\n        /* \"#utility.yul\":287:533   */\n    tag_434:\n        /* \"#utility.yul\":368:369   */\n      0x00\n        /* \"#utility.yul\":378:491   */\n    tag_513:\n        /* \"#utility.yul\":392:398   */\n      dup4\n        /* \"#utility.yul\":389:390   */\n      dup2\n        /* \"#utility.yul\":386:399   */\n      lt\n        /* \"#utility.yul\":378:491   */\n      iszero\n      tag_515\n      jumpi\n        /* \"#utility.yul\":477:478   */\n      dup1\n        /* \"#utility.yul\":472:475   */\n      dup3\n        /* \"#utility.yul\":468:479   */\n      add\n        /* \"#utility.yul\":462:480   */\n      mload\n        /* \"#utility.yul\":458:459   */\n      dup2\n        /* \"#utility.yul\":453:456   */\n      dup5\n        /* \"#utility.yul\":449:460   */\n      add\n        /* \"#utility.yul\":442:481   */\n      mstore\n        /* \"#utility.yul\":414:416   */\n      0x20\n        /* \"#utility.yul\":411:412   */\n      dup2\n        /* \"#utility.yul\":407:417   */\n      add\n        /* \"#utility.yul\":402:417   */\n      swap1\n      pop\n        /* \"#utility.yul\":378:491   */\n      jump(tag_513)\n    tag_515:\n        /* \"#utility.yul\":525:526   */\n      0x00\n        /* \"#utility.yul\":516:522   */\n      dup5\n        /* \"#utility.yul\":511:514   */\n      dup5\n        /* \"#utility.yul\":507:523   */\n      add\n        /* \"#utility.yul\":500:527   */\n      mstore\n        /* \"#utility.yul\":349:533   */\n      pop\n        /* \"#utility.yul\":287:533   */\n      pop\n      pop\n      pop\n      jump\t// out\n        /* \"#utility.yul\":539:641   */\n    tag_435:\n        /* \"#utility.yul\":580:586   */\n      0x00\n        /* \"#utility.yul\":631:633   */\n      0x1f\n        /* \"#utility.yul\":627:634   */\n      not\n        /* \"#utility.yul\":622:624   */\n      0x1f\n        /* \"#utility.yul\":615:620   */\n      dup4\n        /* \"#utility.yul\":611:625   */\n      add\n        /* \"#utility.yul\":607:635   */\n      and\n        /* \"#utility.yul\":597:635   */\n      swap1\n      pop\n        /* \"#utility.yul\":539:641   */\n      swap2\n      swap1\n      pop\n      jump\t// out\n        /* \"#utility.yul\":647:1024   */\n    tag_436:\n        /* \"#utility.yul\":735:738   */\n      0x00\n        /* \"#utility.yul\":763:802   */\n      tag_518\n        /* \"#utility.yul\":796:801   */\n      dup3\n        /* \"#utility.yul\":763:802   */\n      tag_432\n      jump\t// in\n    tag_518:\n        /* \"#utility.yul\":818:889   */\n      tag_519\n        /* \"#utility.yul\":882:888   */\n      dup2\n        /* \"#utility.yul\":877:880   */\n      dup6\n        /* \"#utility.yul\":818:889   */\n      tag_433\n      jump\t// in\n    tag_519:\n        /* \"#utility.yul\":811:889   */\n      swap4\n      pop\n        /* \"#utility.yul\":898:963   */\n      tag_520\n        /* \"#utility.yul\":956:962   */\n      dup2\n        /* \"#utility.yul\":951:954   */\n      dup6\n        /* \"#utility.yul\":944:948   */\n      0x20\n        /* \"#utility.yul\":937:942   */\n      dup7\n        /* \"#utility.yul\":933:949   */\n      add\n        /* \"#utility.yul\":898:963   */\n      tag_434\n      jump\t// in\n    tag_520:\n        /* \"#utility.yul\":988:1017   */\n      tag_521\n        /* \"#utility.yul\":1010:1016   */\n      dup2\n        /* \"#utility.yul\":988:1017   */\n      tag_435\n      jump\t// in\n    tag_521:\n        /* \"#utility.yul\":983:986   */\n      dup5\n        /* \"#utility.yul\":979:1018   */\n      add\n        /* \"#utility.yul\":972:1018   */\n      swap2\n      pop\n        /* \"#utility.yul\":739:1024   */\n      pop\n        /* \"#utility.yul\":647:1024   */\n      swap3\n      swap2\n      pop\n      pop\n      jump\t// out\n        /* \"#utility.yul\":1030:1343   */\n    tag_31:\n        /* \"#utility.yul\":1143:1147   */\n      0x00\n        /* \"#utility.yul\":1181:1183   */\n      0x20\n        /* \"#utility.yul\":1170:1179   */\n      dup3\n        /* \"#utility.yul\":1166:1184   */\n      add\n        /* \"#utility.yul\":1158:1184   */\n      swap1\n      pop\n        /* \"#utility.yul\":1230:1239   */\n      dup2\n        /* \"#utility.yul\":1224:1228   */\n      dup2\n        /* \"#utility.yul\":1220:1240   */\n      sub\n        /* \"#utility.yul\":1216:1217   */\n      0x00\n        /* \"#utility.yul\":1205:1214   */\n      dup4\n        /* \"#utility.yul\":1201:1218   */\n      add\n        /* \"#utility.yul\":1194:1241   */\n      mstore\n        /* \"#utility.yul\":1258:1336   */\n      tag_523\n        /* \"#utility.yul\":1331:1335   */\n      dup2\n        /* \"#utility.yul\":1322:1328   */\n      dup5\n        /* \"#utility.yul\":1258:1336   */\n      tag_436\n      jump\t// in\n    tag_523:\n        /* \"#utility.yul\":1250:1336   */\n      swap1\n      pop\n        /* \"#utility.yul\":1030:1343   */\n      swap3\n      swap2\n      pop\n      pop\n      jump\t// out\n        /* \"#utility.yul\":1430:1547   */\n    tag_438:\n        /* \"#utility.yul\":1539:1540   */\n      0x00\n        /* \"#utility.yul\":1536:1537   */\n      dup1\n        /* \"#utility.yul\":1529:1541   */\n      revert\n        /* \"#utility.yul\":1676:1802   */\n    tag_440:\n        /* \"#utility.yul\":1713:1720   */\n      0x00\n        /* \"#utility.yul\":1753:1795   */\n      0xffffffffffffffffffffffffffffffffffffffff\n        /* \"#utility.yul\":1746:1751   */\n      dup3\n        /* \"#utility.yul\":1742:1796   */\n      and\n        /* \"#utility.yul\":1731:1796   */\n      swap1\n      pop\n        /* \"#utility.yul\":1676:1802   */\n      swap2\n      swap1\n      pop\n      jump\t// out\n        /* \"#utility.yul\":1808:1904   */\n    tag_441:\n        /* \"#utility.yul\":1845:1852   */\n      0x00\n        /* \"#utility.yul\":1874:1898   */\n      tag_529\n        /* \"#utility.yul\":1892:1897   */\n      dup3\n        /* \"#utility.yul\":1874:1898   */\n      tag_440\n      jump\t// in\n    tag_529:\n        /* \"#utility.yul\":1863:1898   */\n      swap1\n      pop\n        /* \"#utility.yul\":1808:1904   */\n      swap2\n      swap1\n      pop\n      jump\t// out\n        /* \"#utility.yul\":1910:2032   */\n    tag_442:\n        /* \"#utility.yul\":1983:2007   */\n      tag_531\n        /* \"#utility.yul\":2001:2006   */\n      dup2\n        /* \"#utility.yul\":1983:2007   */\n      tag_441\n      jump\t// in\n    tag_531:\n        /* \"#utility.yul\":1976:1981   */\n      dup2\n        /* \"#utility.yul\":1973:2008   */\n      eq\n        /* \"#utility.yul\":1963:2026   */\n      tag_532\n      jumpi\n        /* \"#utility.yul\":2022:2023   */\n      0x00\n        /* \"#utility.yul\":2019:2020   */\n      dup1\n        /* \"#utility.yul\":2012:2024   */\n      revert\n        /* \"#utility.yul\":1963:2026   */\n    tag_532:\n        /* \"#utility.yul\":1910:2032   */\n      pop\n      jump\t// out\n        /* \"#utility.yul\":2038:2177   */\n    tag_443:\n        /* \"#utility.yul\":2084:2089   */\n      0x00\n        /* \"#utility.yul\":2122:2128   */\n      dup2\n        /* \"#utility.yul\":2109:2129   */\n      calldataload\n        /* \"#utility.yul\":2100:2129   */\n      swap1\n      pop\n        /* \"#utility.yul\":2138:2171   */\n      tag_534\n        /* \"#utility.yul\":2165:2170   */\n      dup2\n        /* \"#utility.yul\":2138:2171   */\n      tag_442\n      jump\t// in\n    tag_534:\n        /* \"#utility.yul\":2038:2177   */\n      swap3\n      swap2\n      pop\n      pop\n      jump\t// out\n        /* \"#utility.yul\":2183:2260   */\n    tag_444:\n        /* \"#utility.yul\":2220:2227   */\n      0x00\n        /* \"#utility.yul\":2249:2254   */\n      dup2\n        /* \"#utility.yul\":2238:2254   */\n      swap1\n      pop\n        /* \"#utility.yul\":2183:2260   */\n      swap2\n      swap1\n      pop\n      jump\t// out\n        /* \"#utility.yul\":2266:2388   */\n    tag_445:\n        /* \"#utility.yul\":2339:2363   */\n      tag_537\n        /* \"#utility.yul\":2357:2362   */\n      dup2\n        /* \"#utility.yul\":2339:2363   */\n      tag_444\n      jump\t// in\n    tag_537:\n        /* \"#utility.yul\":2332:2337   */\n      dup2\n        /* \"#utility.yul\":2329:2364   */\n      eq\n        /* \"#utility.yul\":2319:2382   */\n      tag_538\n      jumpi\n        /* \"#utility.yul\":2378:2379   */\n      0x00\n        /* \"#utility.yul\":2375:2376   */\n      dup1\n        /* \"#utility.yul\":2368:2380   */\n      revert\n        /* \"#utility.yul\":2319:2382   */\n    tag_538:\n        /* \"#utility.yul\":2266:2388   */\n      pop\n      jump\t// out\n        /* \"#utility.yul\":2394:2533   */\n    tag_446:\n        /* \"#utility.yul\":2440:2445   */\n      0x00\n        /* \"#utility.yul\":2478:2484   */\n      dup2\n        /* \"#utility.yul\":2465:2485   */\n      calldataload\n        /* \"#utility.yul\":2456:2485   */\n      swap1\n      pop\n        /* \"#utility.yul\":2494:2527   */\n      tag_540\n        /* \"#utility.yul\":2521:2526   */\n      dup2\n        /* \"#utility.yul\":2494:2527   */\n      tag_445\n      jump\t// in\n    tag_540:\n        /* \"#utility.yul\":2394:2533   */\n      swap3\n      swap2\n      pop\n      pop\n      jump\t// out\n        /* \"#utility.yul\":2539:3013   */\n    tag_35:\n        /* \"#utility.yul\":2607:2613   */\n      0x00\n        /* \"#utility.yul\":2615:2621   */\n      dup1\n        /* \"#utility.yul\":2664:2666   */\n      0x40\n        /* \"#utility.yul\":2652:2661   */\n      dup4\n        /* \"#utility.yul\":2643:2650   */\n      dup6\n        /* \"#utility.yul\":2639:2662   */\n      sub\n        /* \"#utility.yul\":2635:2667   */\n      slt\n        /* \"#utility.yul\":2632:2751   */\n      iszero\n      tag_542\n      jumpi\n        /* \"#utility.yul\":2670:2749   */\n      tag_543\n      tag_438\n      jump\t// in\n    tag_543:\n        /* \"#utility.yul\":2632:2751   */\n    tag_542:\n        /* \"#utility.yul\":2790:2791   */\n      0x00\n        /* \"#utility.yul\":2815:2868   */\n      tag_544\n        /* \"#utility.yul\":2860:2867   */\n      dup6\n        /* \"#utility.yul\":2851:2857   */\n      dup3\n        /* \"#utility.yul\":2840:2849   */\n      dup7\n        /* \"#utility.yul\":2836:2858   */\n      add\n        /* \"#utility.yul\":2815:2868   */\n      tag_443\n      jump\t// in\n    tag_544:\n        /* \"#utility.yul\":2805:2868   */\n      swap3\n      pop\n        /* \"#utility.yul\":2761:2878   */\n      pop\n        /* \"#utility.yul\":2917:2919   */\n      0x20\n        /* \"#utility.yul\":2943:2996   */\n      tag_545\n        /* \"#utility.yul\":2988:2995   */\n      dup6\n        /* \"#utility.yul\":2979:2985   */\n      dup3\n        /* \"#utility.yul\":2968:2977   */\n      dup7\n        /* \"#utility.yul\":2964:2986   */\n      add\n        /* \"#utility.yul\":2943:2996   */\n      tag_446\n      jump\t// in\n    tag_545:\n        /* \"#utility.yul\":2933:2996   */\n      swap2\n      pop\n        /* \"#utility.yul\":2888:3006   */\n      pop\n        /* \"#utility.yul\":2539:3013   */\n      swap3\n      pop\n      swap3\n      swap1\n      pop\n      jump\t// out\n        /* \"#utility.yul\":3019:3109   */\n    tag_447:\n        /* \"#utility.yul\":3053:3060   */\n      0x00\n        /* \"#utility.yul\":3096:3101   */\n      dup2\n        /* \"#utility.yul\":3089:3102   */\n      iszero\n        /* \"#utility.yul\":3082:3103   */\n      iszero\n        /* \"#utility.yul\":3071:3103   */\n      swap1\n      pop\n        /* \"#utility.yul\":3019:3109   */\n      swap2\n      swap1\n      pop\n      jump\t// out\n        /* \"#utility.yul\":3115:3224   */\n    tag_448:\n        /* \"#utility.yul\":3196:3217   */\n      tag_548\n        /* \"#utility.yul\":3211:3216   */\n      dup2\n        /* \"#utility.yul\":3196:3217   */\n      tag_447\n      jump\t// in\n    tag_548:\n        /* \"#utility.yul\":3191:3194   */\n      dup3\n        /* \"#utility.yul\":3184:3218   */\n      mstore\n        /* \"#utility.yul\":3115:3224   */\n      pop\n      pop\n      jump\t// out\n        /* \"#utility.yul\":3230:3440   */\n    tag_38:\n        /* \"#utility.yul\":3317:3321   */\n      0x00\n        /* \"#utility.yul\":3355:3357   */\n      0x20\n        /* \"#utility.yul\":3344:3353   */\n      dup3\n        /* \"#utility.yul\":3340:3358   */\n      add\n        /* \"#utility.yul\":3332:3358   */\n      swap1\n      pop\n        /* \"#utility.yul\":3368:3433   */\n      tag_550\n        /* \"#utility.yul\":3430:3431   */\n      0x00\n        /* \"#utility.yul\":3419:3428   */\n      dup4\n        /* \"#utility.yul\":3415:3432   */\n      add\n        /* \"#utility.yul\":3406:3412   */\n      dup5\n        /* \"#utility.yul\":3368:3433   */\n      tag_448\n      jump\t// in\n    tag_550:\n        /* \"#utility.yul\":3230:3440   */\n      swap3\n      swap2\n      pop\n      pop\n      jump\t// out\n        /* \"#utility.yul\":3446:3775   */\n    tag_42:\n        /* \"#utility.yul\":3505:3511   */\n      0x00\n        /* \"#utility.yul\":3554:3556   */\n      0x20\n        /* \"#utility.yul\":3542:3551   */\n      dup3\n        /* \"#utility.yul\":3533:3540   */\n      dup5\n        /* \"#utility.yul\":3529:3552   */\n      sub\n        /* \"#utility.yul\":3525:3557   */\n      slt\n        /* \"#utility.yul\":3522:3641   */\n      iszero\n      tag_552\n      jumpi\n        /* \"#utility.yul\":3560:3639   */\n      tag_553\n      tag_438\n      jump\t// in\n    tag_553:\n        /* \"#utility.yul\":3522:3641   */\n    tag_552:\n        /* \"#utility.yul\":3680:3681   */\n      0x00\n        /* \"#utility.yul\":3705:3758   */\n      tag_554\n        /* \"#utility.yul\":3750:3757   */\n      dup5\n        /* \"#utility.yul\":3741:3747   */\n      dup3\n        /* \"#utility.yul\":3730:3739   */\n      dup6\n        /* \"#utility.yul\":3726:3748   */\n      add\n        /* \"#utility.yul\":3705:3758   */\n      tag_446\n      jump\t// in\n    tag_554:\n        /* \"#utility.yul\":3695:3758   */\n      swap2\n      pop\n        /* \"#utility.yul\":3651:3768   */\n      pop\n        /* \"#utility.yul\":3446:3775   */\n      swap3\n      swap2\n      pop\n      pop\n      jump\t// out\n        /* \"#utility.yul\":3781:3899   */\n    tag_449:\n        /* \"#utility.yul\":3868:3892   */\n      tag_556\n        /* \"#utility.yul\":3886:3891   */\n      dup2\n        /* \"#utility.yul\":3868:3892   */\n      tag_444\n      jump\t// in\n    tag_556:\n        /* \"#utility.yul\":3863:3866   */\n      dup3\n        /* \"#utility.yul\":3856:3893   */\n      mstore\n        /* \"#utility.yul\":3781:3899   */\n      pop\n      pop\n      jump\t// out\n        /* \"#utility.yul\":3905:4237   */\n    tag_45:\n        /* \"#utility.yul\":4026:4030   */\n      0x00\n        /* \"#utility.yul\":4064:4066   */\n      0x40\n        /* \"#utility.yul\":4053:4062   */\n      dup3\n        /* \"#utility.yul\":4049:4067   */\n      add\n        /* \"#utility.yul\":4041:4067   */\n      swap1\n      pop\n        /* \"#utility.yul\":4077:4148   */\n      tag_558\n        /* \"#utility.yul\":4145:4146   */\n      0x00\n        /* \"#utility.yul\":4134:4143   */\n      dup4\n        /* \"#utility.yul\":4130:4147   */\n      add\n        /* \"#utility.yul\":4121:4127   */\n      dup6\n        /* \"#utility.yul\":4077:4148   */\n      tag_449\n      jump\t// in\n    tag_558:\n        /* \"#utility.yul\":4158:4230   */\n      tag_559\n        /* \"#utility.yul\":4226:4228   */\n      0x20\n        /* \"#utility.yul\":4215:4224   */\n      dup4\n        /* \"#utility.yul\":4211:4229   */\n      add\n        /* \"#utility.yul\":4202:4208   */\n      dup5\n        /* \"#utility.yul\":4158:4230   */\n      tag_449\n      jump\t// in\n    tag_559:\n        /* \"#utility.yul\":3905:4237   */\n      swap4\n      swap3\n      pop\n      pop\n      pop\n      jump\t// out\n        /* \"#utility.yul\":4243:4465   */\n    tag_50:\n        /* \"#utility.yul\":4336:4340   */\n      0x00\n        /* \"#utility.yul\":4374:4376   */\n      0x20\n        /* \"#utility.yul\":4363:4372   */\n      dup3\n        /* \"#utility.yul\":4359:4377   */\n      add\n        /* \"#utility.yul\":4351:4377   */\n      swap1\n      pop\n        /* \"#utility.yul\":4387:4458   */\n      tag_561\n        /* \"#utility.yul\":4455:4456   */\n      0x00\n        /* \"#utility.yul\":4444:4453   */\n      dup4\n        /* \"#utility.yul\":4440:4457   */\n      add\n        /* \"#utility.yul\":4431:4437   */\n      dup5\n        /* \"#utility.yul\":4387:4458   */\n      tag_449\n      jump\t// in\n    tag_561:\n        /* \"#utility.yul\":4243:4465   */\n      swap3\n      swap2\n      pop\n      pop\n      jump\t// out\n        /* \"#utility.yul\":4471:5090   */\n    tag_54:\n        /* \"#utility.yul\":4548:4554   */\n      0x00\n        /* \"#utility.yul\":4556:4562   */\n      dup1\n        /* \"#utility.yul\":4564:4570   */\n      0x00\n        /* \"#utility.yul\":4613:4615   */\n      0x60\n        /* \"#utility.yul\":4601:4610   */\n      dup5\n        /* \"#utility.yul\":4592:4599   */\n      dup7\n        /* \"#utility.yul\":4588:4611   */\n      sub\n        /* \"#utility.yul\":4584:4616   */\n      slt\n        /* \"#utility.yul\":4581:4700   */\n      iszero\n      tag_563\n      jumpi\n        /* \"#utility.yul\":4619:4698   */\n      tag_564\n      tag_438\n      jump\t// in\n    tag_564:\n        /* \"#utility.yul\":4581:4700   */\n    tag_563:\n        /* \"#utility.yul\":4739:4740   */\n      0x00\n        /* \"#utility.yul\":4764:4817   */\n      tag_565\n        /* \"#utility.yul\":4809:4816   */\n      dup7\n        /* \"#utility.yul\":4800:4806   */\n      dup3\n        /* \"#utility.yul\":4789:4798   */\n      dup8\n        /* \"#utility.yul\":4785:4807   */\n      add\n        /* \"#utility.yul\":4764:4817   */\n      tag_443\n      jump\t// in\n    tag_565:\n        /* \"#utility.yul\":4754:4817   */\n      swap4\n      pop\n        /* \"#utility.yul\":4710:4827   */\n      pop\n        /* \"#utility.yul\":4866:4868   */\n      0x20\n        /* \"#utility.yul\":4892:4945   */\n      tag_566\n        /* \"#utility.yul\":4937:4944   */\n      dup7\n        /* \"#utility.yul\":4928:4934   */\n      dup3\n        /* \"#utility.yul\":4917:4926   */\n      dup8\n        /* \"#utility.yul\":4913:4935   */\n      add\n        /* \"#utility.yul\":4892:4945   */\n      tag_443\n      jump\t// in\n    tag_566:\n        /* \"#utility.yul\":4882:4945   */\n      swap3\n      pop\n        /* \"#utility.yul\":4837:4955   */\n      pop\n        /* \"#utility.yul\":4994:4996   */\n      0x40\n        /* \"#utility.yul\":5020:5073   */\n      tag_567\n        /* \"#utility.yul\":5065:5072   */\n      dup7\n        /* \"#utility.yul\":5056:5062   */\n      dup3\n        /* \"#utility.yul\":5045:5054   */\n      dup8\n        /* \"#utility.yul\":5041:5063   */\n      add\n        /* \"#utility.yul\":5020:5073   */\n      tag_446\n      jump\t// in\n    tag_567:\n        /* \"#utility.yul\":5010:5073   */\n      swap2\n      pop\n        /* \"#utility.yul\":4965:5083   */\n      pop\n        /* \"#utility.yul\":4471:5090   */\n      swap3\n      pop\n      swap3\n      pop\n      swap3\n      jump\t// out\n        /* \"#utility.yul\":5096:5182   */\n    tag_450:\n        /* \"#utility.yul\":5131:5138   */\n      0x00\n        /* \"#utility.yul\":5171:5175   */\n      0xff\n        /* \"#utility.yul\":5164:5169   */\n      dup3\n        /* \"#utility.yul\":5160:5176   */\n      and\n        /* \"#utility.yul\":5149:5176   */\n      swap1\n      pop\n        /* \"#utility.yul\":5096:5182   */\n      swap2\n      swap1\n      pop\n      jump\t// out\n        /* \"#utility.yul\":5188:5300   */\n    tag_451:\n        /* \"#utility.yul\":5271:5293   */\n      tag_570\n        /* \"#utility.yul\":5287:5292   */\n      dup2\n        /* \"#utility.yul\":5271:5293   */\n      tag_450\n      jump\t// in\n    tag_570:\n        /* \"#utility.yul\":5266:5269   */\n      dup3\n        /* \"#utility.yul\":5259:5294   */\n      mstore\n        /* \"#utility.yul\":5188:5300   */\n      pop\n      pop\n      jump\t// out\n        /* \"#utility.yul\":5306:5520   */\n    tag_69:\n        /* \"#utility.yul\":5395:5399   */\n      0x00\n        /* \"#utility.yul\":5433:5435   */\n      0x20\n        /* \"#utility.yul\":5422:5431   */\n      dup3\n        /* \"#utility.yul\":5418:5436   */\n      add\n        /* \"#utility.yul\":5410:5436   */\n      swap1\n      pop\n        /* \"#utility.yul\":5446:5513   */\n      tag_572\n        /* \"#utility.yul\":5510:5511   */\n      0x00\n        /* \"#utility.yul\":5499:5508   */\n      dup4\n        /* \"#utility.yul\":5495:5512   */\n      add\n        /* \"#utility.yul\":5486:5492   */\n      dup5\n        /* \"#utility.yul\":5446:5513   */\n      tag_451\n      jump\t// in\n    tag_572:\n        /* \"#utility.yul\":5306:5520   */\n      swap3\n      swap2\n      pop\n      pop\n      jump\t// out\n        /* \"#utility.yul\":5526:5855   */\n    tag_78:\n        /* \"#utility.yul\":5585:5591   */\n      0x00\n        /* \"#utility.yul\":5634:5636   */\n      0x20\n        /* \"#utility.yul\":5622:5631   */\n      dup3\n        /* \"#utility.yul\":5613:5620   */\n      dup5\n        /* \"#utility.yul\":5609:5632   */\n      sub\n        /* \"#utility.yul\":5605:5637   */\n      slt\n        /* \"#utility.yul\":5602:5721   */\n      iszero\n      tag_574\n      jumpi\n        /* \"#utility.yul\":5640:5719   */\n      tag_575\n      tag_438\n      jump\t// in\n    tag_575:\n        /* \"#utility.yul\":5602:5721   */\n    tag_574:\n        /* \"#utility.yul\":5760:5761   */\n      0x00\n        /* \"#utility.yul\":5785:5838   */\n      tag_576\n        /* \"#utility.yul\":5830:5837   */\n      dup5\n        /* \"#utility.yul\":5821:5827   */\n      dup3\n        /* \"#utility.yul\":5810:5819   */\n      dup6\n        /* \"#utility.yul\":5806:5828   */\n      add\n        /* \"#utility.yul\":5785:5838   */\n      tag_443\n      jump\t// in\n    tag_576:\n        /* \"#utility.yul\":5775:5838   */\n      swap2\n      pop\n        /* \"#utility.yul\":5731:5848   */\n      pop\n        /* \"#utility.yul\":5526:5855   */\n      swap3\n      swap2\n      pop\n      pop\n      jump\t// out\n        /* \"#utility.yul\":5861:6335   */\n    tag_117:\n        /* \"#utility.yul\":5929:5935   */\n      0x00\n        /* \"#utility.yul\":5937:5943   */\n      dup1\n        /* \"#utility.yul\":5986:5988   */\n      0x40\n        /* \"#utility.yul\":5974:5983   */\n      dup4\n        /* \"#utility.yul\":5965:5972   */\n      dup6\n        /* \"#utility.yul\":5961:5984   */\n      sub\n        /* \"#utility.yul\":5957:5989   */\n      slt\n        /* \"#utility.yul\":5954:6073   */\n      iszero\n      tag_578\n      jumpi\n        /* \"#utility.yul\":5992:6071   */\n      tag_579\n      tag_438\n      jump\t// in\n    tag_579:\n        /* \"#utility.yul\":5954:6073   */\n    tag_578:\n        /* \"#utility.yul\":6112:6113   */\n      0x00\n        /* \"#utility.yul\":6137:6190   */\n      tag_580\n        /* \"#utility.yul\":6182:6189   */\n      dup6\n        /* \"#utility.yul\":6173:6179   */\n      dup3\n        /* \"#utility.yul\":6162:6171   */\n      dup7\n        /* \"#utility.yul\":6158:6180   */\n      add\n        /* \"#utility.yul\":6137:6190   */\n      tag_443\n      jump\t// in\n    tag_580:\n        /* \"#utility.yul\":6127:6190   */\n      swap3\n      pop\n        /* \"#utility.yul\":6083:6200   */\n      pop\n        /* \"#utility.yul\":6239:6241   */\n      0x20\n        /* \"#utility.yul\":6265:6318   */\n      tag_581\n        /* \"#utility.yul\":6310:6317   */\n      dup6\n        /* \"#utility.yul\":6301:6307   */\n      dup3\n        /* \"#utility.yul\":6290:6299   */\n      dup7\n        /* \"#utility.yul\":6286:6308   */\n      add\n        /* \"#utility.yul\":6265:6318   */\n      tag_443\n      jump\t// in\n    tag_581:\n        /* \"#utility.yul\":6255:6318   */\n      swap2\n      pop\n        /* \"#utility.yul\":6210:6328   */\n      pop\n        /* \"#utility.yul\":5861:6335   */\n      swap3\n      pop\n      swap3\n      swap1\n      pop\n      jump\t// out\n        /* \"#utility.yul\":6341:6401   */\n    tag_452:\n        /* \"#utility.yul\":6369:6372   */\n      0x00\n        /* \"#utility.yul\":6390:6395   */\n      dup2\n        /* \"#utility.yul\":6383:6395   */\n      swap1\n      pop\n        /* \"#utility.yul\":6341:6401   */\n      swap2\n      swap1\n      pop\n      jump\t// out\n        /* \"#utility.yul\":6407:6549   */\n    tag_453:\n        /* \"#utility.yul\":6457:6466   */\n      0x00\n        /* \"#utility.yul\":6490:6543   */\n      tag_584\n        /* \"#utility.yul\":6508:6542   */\n      tag_585\n        /* \"#utility.yul\":6517:6541   */\n      tag_586\n        /* \"#utility.yul\":6535:6540   */\n      dup5\n        /* \"#utility.yul\":6517:6541   */\n      tag_440\n      jump\t// in\n    tag_586:\n        /* \"#utility.yul\":6508:6542   */\n      tag_452\n      jump\t// in\n    tag_585:\n        /* \"#utility.yul\":6490:6543   */\n      tag_440\n      jump\t// in\n    tag_584:\n        /* \"#utility.yul\":6477:6543   */\n      swap1\n      pop\n        /* \"#utility.yul\":6407:6549   */\n      swap2\n      swap1\n      pop\n      jump\t// out\n        /* \"#utility.yul\":6555:6681   */\n    tag_454:\n        /* \"#utility.yul\":6605:6614   */\n      0x00\n        /* \"#utility.yul\":6638:6675   */\n      tag_588\n        /* \"#utility.yul\":6669:6674   */\n      dup3\n        /* \"#utility.yul\":6638:6675   */\n      tag_453\n      jump\t// in\n    tag_588:\n        /* \"#utility.yul\":6625:6675   */\n      swap1\n      pop\n        /* \"#utility.yul\":6555:6681   */\n      swap2\n      swap1\n      pop\n      jump\t// out\n        /* \"#utility.yul\":6687:6826   */\n    tag_455:\n        /* \"#utility.yul\":6750:6759   */\n      0x00\n        /* \"#utility.yul\":6783:6820   */\n      tag_590\n        /* \"#utility.yul\":6814:6819   */\n      dup3\n        /* \"#utility.yul\":6783:6820   */\n      tag_454\n      jump\t// in\n    tag_590:\n        /* \"#utility.yul\":6770:6820   */\n      swap1\n      pop\n        /* \"#utility.yul\":6687:6826   */\n      swap2\n      swap1\n      pop\n      jump\t// out\n        /* \"#utility.yul\":6832:6989   */\n    tag_456:\n        /* \"#utility.yul\":6932:6982   */\n      tag_592\n        /* \"#utility.yul\":6976:6981   */\n      dup2\n        /* \"#utility.yul\":6932:6982   */\n      tag_455\n      jump\t// in\n    tag_592:\n        /* \"#utility.yul\":6927:6930   */\n      dup3\n        /* \"#utility.yul\":6920:6983   */\n      mstore\n        /* \"#utility.yul\":6832:6989   */\n      pop\n      pop\n      jump\t// out\n        /* \"#utility.yul\":6995:7243   */\n    tag_137:\n        /* \"#utility.yul\":7101:7105   */\n      0x00\n        /* \"#utility.yul\":7139:7141   */\n      0x20\n        /* \"#utility.yul\":7128:7137   */\n      dup3\n        /* \"#utility.yul\":7124:7142   */\n      add\n        /* \"#utility.yul\":7116:7142   */\n      swap1\n      pop\n        /* \"#utility.yul\":7152:7236   */\n      tag_594\n        /* \"#utility.yul\":7233:7234   */\n      0x00\n        /* \"#utility.yul\":7222:7231   */\n      dup4\n        /* \"#utility.yul\":7218:7235   */\n      add\n        /* \"#utility.yul\":7209:7215   */\n      dup5\n        /* \"#utility.yul\":7152:7236   */\n      tag_456\n      jump\t// in\n    tag_594:\n        /* \"#utility.yul\":6995:7243   */\n      swap3\n      swap2\n      pop\n      pop\n      jump\t// out\n        /* \"#utility.yul\":7249:7429   */\n    tag_457:\n        /* \"#utility.yul\":7297:7374   */\n      0x4e487b7100000000000000000000000000000000000000000000000000000000\n        /* \"#utility.yul\":7294:7295   */\n      0x00\n        /* \"#utility.yul\":7287:7375   */\n      mstore\n        /* \"#utility.yul\":7394:7398   */\n      0x22\n        /* \"#utility.yul\":7391:7392   */\n      0x04\n        /* \"#utility.yul\":7384:7399   */\n      mstore\n        /* \"#utility.yul\":7418:7422   */\n      0x24\n        /* \"#utility.yul\":7415:7416   */\n      0x00\n        /* \"#utility.yul\":7408:7423   */\n      revert\n        /* \"#utility.yul\":7435:7755   */\n    tag_140:\n        /* \"#utility.yul\":7479:7485   */\n      0x00\n        /* \"#utility.yul\":7516:7517   */\n      0x02\n        /* \"#utility.yul\":7510:7514   */\n      dup3\n        /* \"#utility.yul\":7506:7518   */\n      div\n        /* \"#utility.yul\":7496:7518   */\n      swap1\n      pop\n        /* \"#utility.yul\":7563:7564   */\n      0x01\n        /* \"#utility.yul\":7557:7561   */\n      dup3\n        /* \"#utility.yul\":7553:7565   */\n      and\n        /* \"#utility.yul\":7584:7602   */\n      dup1\n        /* \"#utility.yul\":7574:7655   */\n      tag_597\n      jumpi\n        /* \"#utility.yul\":7640:7644   */\n      0x7f\n        /* \"#utility.yul\":7632:7638   */\n      dup3\n        /* \"#utility.yul\":7628:7645   */\n      and\n        /* \"#utility.yul\":7618:7645   */\n      swap2\n      pop\n        /* \"#utility.yul\":7574:7655   */\n    tag_597:\n        /* \"#utility.yul\":7702:7704   */\n      0x20\n        /* \"#utility.yul\":7694:7700   */\n      dup3\n        /* \"#utility.yul\":7691:7705   */\n      lt\n        /* \"#utility.yul\":7671:7689   */\n      dup2\n        /* \"#utility.yul\":7668:7706   */\n      sub\n        /* \"#utility.yul\":7665:7749   */\n      tag_598\n      jumpi\n        /* \"#utility.yul\":7721:7739   */\n      tag_599\n      tag_457\n      jump\t// in\n    tag_599:\n        /* \"#utility.yul\":7665:7749   */\n    tag_598:\n        /* \"#utility.yul\":7486:7755   */\n      pop\n        /* \"#utility.yul\":7435:7755   */\n      swap2\n      swap1\n      pop\n      jump\t// out\n        /* \"#utility.yul\":7761:7926   */\n    tag_458:\n        /* \"#utility.yul\":7901:7918   */\n      0x496e76616c6964204c50206275726e0000000000000000000000000000000000\n        /* \"#utility.yul\":7897:7898   */\n      0x00\n        /* \"#utility.yul\":7889:7895   */\n      dup3\n        /* \"#utility.yul\":7885:7899   */\n      add\n        /* \"#utility.yul\":7878:7919   */\n      mstore\n        /* \"#utility.yul\":7761:7926   */\n      pop\n      jump\t// out\n        /* \"#utility.yul\":7932:8298   */\n    tag_459:\n        /* \"#utility.yul\":8074:8077   */\n      0x00\n        /* \"#utility.yul\":8095:8162   */\n      tag_602\n        /* \"#utility.yul\":8159:8161   */\n      0x0f\n        /* \"#utility.yul\":8154:8157   */\n      dup4\n        /* \"#utility.yul\":8095:8162   */\n      tag_433\n      jump\t// in\n    tag_602:\n        /* \"#utility.yul\":8088:8162   */\n      swap2\n      pop\n        /* \"#utility.yul\":8171:8264   */\n      tag_603\n        /* \"#utility.yul\":8260:8263   */\n      dup3\n        /* \"#utility.yul\":8171:8264   */\n      tag_458\n      jump\t// in\n    tag_603:\n        /* \"#utility.yul\":8289:8291   */\n      0x20\n        /* \"#utility.yul\":8284:8287   */\n      dup3\n        /* \"#utility.yul\":8280:8292   */\n      add\n        /* \"#utility.yul\":8273:8292   */\n      swap1\n      pop\n        /* \"#utility.yul\":7932:8298   */\n      swap2\n      swap1\n      pop\n      jump\t// out\n        /* \"#utility.yul\":8304:8723   */\n    tag_155:\n        /* \"#utility.yul\":8470:8474   */\n      0x00\n        /* \"#utility.yul\":8508:8510   */\n      0x20\n        /* \"#utility.yul\":8497:8506   */\n      dup3\n        /* \"#utility.yul\":8493:8511   */\n      add\n        /* \"#utility.yul\":8485:8511   */\n      swap1\n      pop\n        /* \"#utility.yul\":8557:8566   */\n      dup2\n        /* \"#utility.yul\":8551:8555   */\n      dup2\n        /* \"#utility.yul\":8547:8567   */\n      sub\n        /* \"#utility.yul\":8543:8544   */\n      0x00\n        /* \"#utility.yul\":8532:8541   */\n      dup4\n        /* \"#utility.yul\":8528:8545   */\n      add\n        /* \"#utility.yul\":8521:8568   */\n      mstore\n        /* \"#utility.yul\":8585:8716   */\n      tag_605\n        /* \"#utility.yul\":8711:8715   */\n      dup2\n        /* \"#utility.yul\":8585:8716   */\n      tag_459\n      jump\t// in\n    tag_605:\n        /* \"#utility.yul\":8577:8716   */\n      swap1\n      pop\n        /* \"#utility.yul\":8304:8723   */\n      swap2\n      swap1\n      pop\n      jump\t// out\n        /* \"#utility.yul\":8729:8889   */\n    tag_460:\n        /* \"#utility.yul\":8869:8881   */\n      0x456d70747920706f6f6c00000000000000000000000000000000000000000000\n        /* \"#utility.yul\":8865:8866   */\n      0x00\n        /* \"#utility.yul\":8857:8863   */\n      dup3\n        /* \"#utility.yul\":8853:8867   */\n      add\n        /* \"#utility.yul\":8846:8882   */\n      mstore\n        /* \"#utility.yul\":8729:8889   */\n      pop\n      jump\t// out\n        /* \"#utility.yul\":8895:9261   */\n    tag_461:\n        /* \"#utility.yul\":9037:9040   */\n      0x00\n        /* \"#utility.yul\":9058:9125   */\n      tag_608\n        /* \"#utility.yul\":9122:9124   */\n      0x0a\n        /* \"#utility.yul\":9117:9120   */\n      dup4\n        /* \"#utility.yul\":9058:9125   */\n      tag_433\n      jump\t// in\n    tag_608:\n        /* \"#utility.yul\":9051:9125   */\n      swap2\n      pop\n        /* \"#utility.yul\":9134:9227   */\n      tag_609\n        /* \"#utility.yul\":9223:9226   */\n      dup3\n        /* \"#utility.yul\":9134:9227   */\n      tag_460\n      jump\t// in\n    tag_609:\n        /* \"#utility.yul\":9252:9254   */\n      0x20\n        /* \"#utility.yul\":9247:9250   */\n      dup3\n        /* \"#utility.yul\":9243:9255   */\n      add\n        /* \"#utility.yul\":9236:9255   */\n      swap1\n      pop\n        /* \"#utility.yul\":8895:9261   */\n      swap2\n      swap1\n      pop\n      jump\t// out\n        /* \"#utility.yul\":9267:9686   */\n    tag_159:\n        /* \"#utility.yul\":9433:9437   */\n      0x00\n        /* \"#utility.yul\":9471:9473   */\n      0x20\n        /* \"#utility.yul\":9460:9469   */\n      dup3\n        /* \"#utility.yul\":9456:9474   */\n      add\n        /* \"#utility.yul\":9448:9474   */\n      swap1\n      pop\n        /* \"#utility.yul\":9520:9529   */\n      dup2\n        /* \"#utility.yul\":9514:9518   */\n      dup2\n        /* \"#utility.yul\":9510:9530   */\n      sub\n        /* \"#utility.yul\":9506:9507   */\n      0x00\n        /* \"#utility.yul\":9495:9504   */\n      dup4\n        /* \"#utility.yul\":9491:9508   */\n      add\n        /* \"#utility.yul\":9484:9531   */\n      mstore\n        /* \"#utility.yul\":9548:9679   */\n      tag_611\n        /* \"#utility.yul\":9674:9678   */\n      dup2\n        /* \"#utility.yul\":9548:9679   */\n      tag_461\n      jump\t// in\n    tag_611:\n        /* \"#utility.yul\":9540:9679   */\n      swap1\n      pop\n        /* \"#utility.yul\":9267:9686   */\n      swap2\n      swap1\n      pop\n      jump\t// out\n        /* \"#utility.yul\":9692:9810   */\n    tag_462:\n        /* \"#utility.yul\":9779:9803   */\n      tag_613\n        /* \"#utility.yul\":9797:9802   */\n      dup2\n        /* \"#utility.yul\":9779:9803   */\n      tag_441\n      jump\t// in\n    tag_613:\n        /* \"#utility.yul\":9774:9777   */\n      dup3\n        /* \"#utility.yul\":9767:9804   */\n      mstore\n        /* \"#utility.yul\":9692:9810   */\n      pop\n      pop\n      jump\t// out\n        /* \"#utility.yul\":9816:10038   */\n    tag_161:\n        /* \"#utility.yul\":9909:9913   */\n      0x00\n        /* \"#utility.yul\":9947:9949   */\n      0x20\n        /* \"#utility.yul\":9936:9945   */\n      dup3\n        /* \"#utility.yul\":9932:9950   */\n      add\n        /* \"#utility.yul\":9924:9950   */\n      swap1\n      pop\n        /* \"#utility.yul\":9960:10031   */\n      tag_615\n        /* \"#utility.yul\":10028:10029   */\n      0x00\n        /* \"#utility.yul\":10017:10026   */\n      dup4\n        /* \"#utility.yul\":10013:10030   */\n      add\n        /* \"#utility.yul\":10004:10010   */\n      dup5\n        /* \"#utility.yul\":9960:10031   */\n      tag_462\n      jump\t// in\n    tag_615:\n        /* \"#utility.yul\":9816:10038   */\n      swap3\n      swap2\n      pop\n      pop\n      jump\t// out\n        /* \"#utility.yul\":10044:10187   */\n    tag_463:\n        /* \"#utility.yul\":10101:10106   */\n      0x00\n        /* \"#utility.yul\":10132:10138   */\n      dup2\n        /* \"#utility.yul\":10126:10139   */\n      mload\n        /* \"#utility.yul\":10117:10139   */\n      swap1\n      pop\n        /* \"#utility.yul\":10148:10181   */\n      tag_617\n        /* \"#utility.yul\":10175:10180   */\n      dup2\n        /* \"#utility.yul\":10148:10181   */\n      tag_445\n      jump\t// in\n    tag_617:\n        /* \"#utility.yul\":10044:10187   */\n      swap3\n      swap2\n      pop\n      pop\n      jump\t// out\n        /* \"#utility.yul\":10193:10544   */\n    tag_165:\n        /* \"#utility.yul\":10263:10269   */\n      0x00\n        /* \"#utility.yul\":10312:10314   */\n      0x20\n        /* \"#utility.yul\":10300:10309   */\n      dup3\n        /* \"#utility.yul\":10291:10298   */\n      dup5\n        /* \"#utility.yul\":10287:10310   */\n      sub\n        /* \"#utility.yul\":10283:10315   */\n      slt\n        /* \"#utility.yul\":10280:10399   */\n      iszero\n      tag_619\n      jumpi\n        /* \"#utility.yul\":10318:10397   */\n      tag_620\n      tag_438\n      jump\t// in\n    tag_620:\n        /* \"#utility.yul\":10280:10399   */\n    tag_619:\n        /* \"#utility.yul\":10438:10439   */\n      0x00\n        /* \"#utility.yul\":10463:10527   */\n      tag_621\n        /* \"#utility.yul\":10519:10526   */\n      dup5\n        /* \"#utility.yul\":10510:10516   */\n      dup3\n        /* \"#utility.yul\":10499:10508   */\n      dup6\n        /* \"#utility.yul\":10495:10517   */\n      add\n        /* \"#utility.yul\":10463:10527   */\n      tag_463\n      jump\t// in\n    tag_621:\n        /* \"#utility.yul\":10453:10527   */\n      swap2\n      pop\n        /* \"#utility.yul\":10409:10537   */\n      pop\n        /* \"#utility.yul\":10193:10544   */\n      swap3\n      swap2\n      pop\n      pop\n      jump\t// out\n        /* \"#utility.yul\":10550:10730   */\n    tag_464:\n        /* \"#utility.yul\":10598:10675   */\n      0x4e487b7100000000000000000000000000000000000000000000000000000000\n        /* \"#utility.yul\":10595:10596   */\n      0x00\n        /* \"#utility.yul\":10588:10676   */\n      mstore\n        /* \"#utility.yul\":10695:10699   */\n      0x11\n        /* \"#utility.yul\":10692:10693   */\n      0x04\n        /* \"#utility.yul\":10685:10700   */\n      mstore\n        /* \"#utility.yul\":10719:10723   */\n      0x24\n        /* \"#utility.yul\":10716:10717   */\n      0x00\n        /* \"#utility.yul\":10709:10724   */\n      revert\n        /* \"#utility.yul\":10736:11146   */\n    tag_167:\n        /* \"#utility.yul\":10776:10783   */\n      0x00\n        /* \"#utility.yul\":10799:10819   */\n      tag_624\n        /* \"#utility.yul\":10817:10818   */\n      dup3\n        /* \"#utility.yul\":10799:10819   */\n      tag_444\n      jump\t// in\n    tag_624:\n        /* \"#utility.yul\":10794:10819   */\n      swap2\n      pop\n        /* \"#utility.yul\":10833:10853   */\n      tag_625\n        /* \"#utility.yul\":10851:10852   */\n      dup4\n        /* \"#utility.yul\":10833:10853   */\n      tag_444\n      jump\t// in\n    tag_625:\n        /* \"#utility.yul\":10828:10853   */\n      swap3\n      pop\n        /* \"#utility.yul\":10888:10889   */\n      dup3\n        /* \"#utility.yul\":10885:10886   */\n      dup3\n        /* \"#utility.yul\":10881:10890   */\n      mul\n        /* \"#utility.yul\":10910:10940   */\n      tag_626\n        /* \"#utility.yul\":10928:10939   */\n      dup2\n        /* \"#utility.yul\":10910:10940   */\n      tag_444\n      jump\t// in\n    tag_626:\n        /* \"#utility.yul\":10899:10940   */\n      swap2\n      pop\n        /* \"#utility.yul\":11089:11090   */\n      dup3\n        /* \"#utility.yul\":11080:11087   */\n      dup3\n        /* \"#utility.yul\":11076:11091   */\n      div\n        /* \"#utility.yul\":11073:11074   */\n      dup5\n        /* \"#utility.yul\":11070:11092   */\n      eq\n        /* \"#utility.yul\":11050:11051   */\n      dup4\n        /* \"#utility.yul\":11043:11052   */\n      iszero\n        /* \"#utility.yul\":11023:11106   */\n      or\n        /* \"#utility.yul\":11000:11139   */\n      tag_627\n      jumpi\n        /* \"#utility.yul\":11119:11137   */\n      tag_628\n      tag_464\n      jump\t// in\n    tag_628:\n        /* \"#utility.yul\":11000:11139   */\n    tag_627:\n        /* \"#utility.yul\":10784:11146   */\n      pop\n        /* \"#utility.yul\":10736:11146   */\n      swap3\n      swap2\n      pop\n      pop\n      jump\t// out\n        /* \"#utility.yul\":11152:11332   */\n    tag_465:\n        /* \"#utility.yul\":11200:11277   */\n      0x4e487b7100000000000000000000000000000000000000000000000000000000\n        /* \"#utility.yul\":11197:11198   */\n      0x00\n        /* \"#utility.yul\":11190:11278   */\n      mstore\n        /* \"#utility.yul\":11297:11301   */\n      0x12\n        /* \"#utility.yul\":11294:11295   */\n      0x04\n        /* \"#utility.yul\":11287:11302   */\n      mstore\n        /* \"#utility.yul\":11321:11325   */\n      0x24\n        /* \"#utility.yul\":11318:11319   */\n      0x00\n        /* \"#utility.yul\":11311:11326   */\n      revert\n        /* \"#utility.yul\":11338:11523   */\n    tag_169:\n        /* \"#utility.yul\":11378:11379   */\n      0x00\n        /* \"#utility.yul\":11395:11415   */\n      tag_631\n        /* \"#utility.yul\":11413:11414   */\n      dup3\n        /* \"#utility.yul\":11395:11415   */\n      tag_444\n      jump\t// in\n    tag_631:\n        /* \"#utility.yul\":11390:11415   */\n      swap2\n      pop\n        /* \"#utility.yul\":11429:11449   */\n      tag_632\n        /* \"#utility.yul\":11447:11448   */\n      dup4\n        /* \"#utility.yul\":11429:11449   */\n      tag_444\n      jump\t// in\n    tag_632:\n        /* \"#utility.yul\":11424:11449   */\n      swap3\n      pop\n        /* \"#utility.yul\":11468:11469   */\n      dup3\n        /* \"#utility.yul\":11458:11493   */\n      tag_633\n      jumpi\n        /* \"#utility.yul\":11473:11491   */\n      tag_634\n      tag_465\n      jump\t// in\n    tag_634:\n        /* \"#utility.yul\":11458:11493   */\n    tag_633:\n        /* \"#utility.yul\":11515:11516   */\n      dup3\n        /* \"#utility.yul\":11512:11513   */\n      dup3\n        /* \"#utility.yul\":11508:11517   */\n      div\n        /* \"#utility.yul\":11503:11517   */\n      swap1\n      pop\n        /* \"#utility.yul\":11338:11523   */\n      swap3\n      swap2\n      pop\n      pop\n      jump\t// out\n        /* \"#utility.yul\":11529:11676   */\n    tag_466:\n        /* \"#utility.yul\":11630:11641   */\n      0x00\n        /* \"#utility.yul\":11667:11670   */\n      dup2\n        /* \"#utility.yul\":11652:11670   */\n      swap1\n      pop\n        /* \"#utility.yul\":11529:11676   */\n      swap3\n      swap2\n      pop\n      pop\n      jump\t// out\n        /* \"#utility.yul\":11682:11796   */\n    tag_467:\n      pop\n      jump\t// out\n        /* \"#utility.yul\":11802:12200   */\n    tag_468:\n        /* \"#utility.yul\":11961:11964   */\n      0x00\n        /* \"#utility.yul\":11982:12065   */\n      tag_638\n        /* \"#utility.yul\":12063:12064   */\n      0x00\n        /* \"#utility.yul\":12058:12061   */\n      dup4\n        /* \"#utility.yul\":11982:12065   */\n      tag_466\n      jump\t// in\n    tag_638:\n        /* \"#utility.yul\":11975:12065   */\n      swap2\n      pop\n        /* \"#utility.yul\":12074:12167   */\n      tag_639\n        /* \"#utility.yul\":12163:12166   */\n      dup3\n        /* \"#utility.yul\":12074:12167   */\n      tag_467\n      jump\t// in\n    tag_639:\n        /* \"#utility.yul\":12192:12193   */\n      0x00\n        /* \"#utility.yul\":12187:12190   */\n      dup3\n        /* \"#utility.yul\":12183:12194   */\n      add\n        /* \"#utility.yul\":12176:12194   */\n      swap1\n      pop\n        /* \"#utility.yul\":11802:12200   */\n      swap2\n      swap1\n      pop\n      jump\t// out\n        /* \"#utility.yul\":12206:12585   */\n    tag_175:\n        /* \"#utility.yul\":12390:12393   */\n      0x00\n        /* \"#utility.yul\":12412:12559   */\n      tag_641\n        /* \"#utility.yul\":12555:12558   */\n      dup3\n        /* \"#utility.yul\":12412:12559   */\n      tag_468\n      jump\t// in\n    tag_641:\n        /* \"#utility.yul\":12405:12559   */\n      swap2\n      pop\n        /* \"#utility.yul\":12576:12579   */\n      dup2\n        /* \"#utility.yul\":12569:12579   */\n      swap1\n      pop\n        /* \"#utility.yul\":12206:12585   */\n      swap2\n      swap1\n      pop\n      jump\t// out\n        /* \"#utility.yul\":12591:12760   */\n    tag_469:\n        /* \"#utility.yul\":12731:12752   */\n      0x455448207472616e73666572206661696c656400000000000000000000000000\n        /* \"#utility.yul\":12727:12728   */\n      0x00\n        /* \"#utility.yul\":12719:12725   */\n      dup3\n        /* \"#utility.yul\":12715:12729   */\n      add\n        /* \"#utility.yul\":12708:12753   */\n      mstore\n        /* \"#utility.yul\":12591:12760   */\n      pop\n      jump\t// out\n        /* \"#utility.yul\":12766:13132   */\n    tag_470:\n        /* \"#utility.yul\":12908:12911   */\n      0x00\n        /* \"#utility.yul\":12929:12996   */\n      tag_644\n        /* \"#utility.yul\":12993:12995   */\n      0x13\n        /* \"#utility.yul\":12988:12991   */\n      dup4\n        /* \"#utility.yul\":12929:12996   */\n      tag_433\n      jump\t// in\n    tag_644:\n        /* \"#utility.yul\":12922:12996   */\n      swap2\n      pop\n        /* \"#utility.yul\":13005:13098   */\n      tag_645\n        /* \"#utility.yul\":13094:13097   */\n      dup3\n        /* \"#utility.yul\":13005:13098   */\n      tag_469\n      jump\t// in\n    tag_645:\n        /* \"#utility.yul\":13123:13125   */\n      0x20\n        /* \"#utility.yul\":13118:13121   */\n      dup3\n        /* \"#utility.yul\":13114:13126   */\n      add\n        /* \"#utility.yul\":13107:13126   */\n      swap1\n      pop\n        /* \"#utility.yul\":12766:13132   */\n      swap2\n      swap1\n      pop\n      jump\t// out\n        /* \"#utility.yul\":13138:13557   */\n    tag_181:\n        /* \"#utility.yul\":13304:13308   */\n      0x00\n        /* \"#utility.yul\":13342:13344   */\n      0x20\n        /* \"#utility.yul\":13331:13340   */\n      dup3\n        /* \"#utility.yul\":13327:13345   */\n      add\n        /* \"#utility.yul\":13319:13345   */\n      swap1\n      pop\n        /* \"#utility.yul\":13391:13400   */\n      dup2\n        /* \"#utility.yul\":13385:13389   */\n      dup2\n        /* \"#utility.yul\":13381:13401   */\n      sub\n        /* \"#utility.yul\":13377:13378   */\n      0x00\n        /* \"#utility.yul\":13366:13375   */\n      dup4\n        /* \"#utility.yul\":13362:13379   */\n      add\n        /* \"#utility.yul\":13355:13402   */\n      mstore\n        /* \"#utility.yul\":13419:13550   */\n      tag_647\n        /* \"#utility.yul\":13545:13549   */\n      dup2\n        /* \"#utility.yul\":13419:13550   */\n      tag_470\n      jump\t// in\n    tag_647:\n        /* \"#utility.yul\":13411:13550   */\n      swap1\n      pop\n        /* \"#utility.yul\":13138:13557   */\n      swap2\n      swap1\n      pop\n      jump\t// out\n        /* \"#utility.yul\":13563:13895   */\n    tag_183:\n        /* \"#utility.yul\":13684:13688   */\n      0x00\n        /* \"#utility.yul\":13722:13724   */\n      0x40\n        /* \"#utility.yul\":13711:13720   */\n      dup3\n        /* \"#utility.yul\":13707:13725   */\n      add\n        /* \"#utility.yul\":13699:13725   */\n      swap1\n      pop\n        /* \"#utility.yul\":13735:13806   */\n      tag_649\n        /* \"#utility.yul\":13803:13804   */\n      0x00\n        /* \"#utility.yul\":13792:13801   */\n      dup4\n        /* \"#utility.yul\":13788:13805   */\n      add\n        /* \"#utility.yul\":13779:13785   */\n      dup6\n        /* \"#utility.yul\":13735:13806   */\n      tag_462\n      jump\t// in\n    tag_649:\n        /* \"#utility.yul\":13816:13888   */\n      tag_650\n        /* \"#utility.yul\":13884:13886   */\n      0x20\n        /* \"#utility.yul\":13873:13882   */\n      dup4\n        /* \"#utility.yul\":13869:13887   */\n      add\n        /* \"#utility.yul\":13860:13866   */\n      dup5\n        /* \"#utility.yul\":13816:13888   */\n      tag_449\n      jump\t// in\n    tag_650:\n        /* \"#utility.yul\":13563:13895   */\n      swap4\n      swap3\n      pop\n      pop\n      pop\n      jump\t// out\n        /* \"#utility.yul\":13901:14017   */\n    tag_471:\n        /* \"#utility.yul\":13971:13992   */\n      tag_652\n        /* \"#utility.yul\":13986:13991   */\n      dup2\n        /* \"#utility.yul\":13971:13992   */\n      tag_447\n      jump\t// in\n    tag_652:\n        /* \"#utility.yul\":13964:13969   */\n      dup2\n        /* \"#utility.yul\":13961:13993   */\n      eq\n        /* \"#utility.yul\":13951:14011   */\n      tag_653\n      jumpi\n        /* \"#utility.yul\":14007:14008   */\n      0x00\n        /* \"#utility.yul\":14004:14005   */\n      dup1\n        /* \"#utility.yul\":13997:14009   */\n      revert\n        /* \"#utility.yul\":13951:14011   */\n    tag_653:\n        /* \"#utility.yul\":13901:14017   */\n      pop\n      jump\t// out\n        /* \"#utility.yul\":14023:14160   */\n    tag_472:\n        /* \"#utility.yul\":14077:14082   */\n      0x00\n        /* \"#utility.yul\":14108:14114   */\n      dup2\n        /* \"#utility.yul\":14102:14115   */\n      mload\n        /* \"#utility.yul\":14093:14115   */\n      swap1\n      pop\n        /* \"#utility.yul\":14124:14154   */\n      tag_655\n        /* \"#utility.yul\":14148:14153   */\n      dup2\n        /* \"#utility.yul\":14124:14154   */\n      tag_471\n      jump\t// in\n    tag_655:\n        /* \"#utility.yul\":14023:14160   */\n      swap3\n      swap2\n      pop\n      pop\n      jump\t// out\n        /* \"#utility.yul\":14166:14511   */\n    tag_187:\n        /* \"#utility.yul\":14233:14239   */\n      0x00\n        /* \"#utility.yul\":14282:14284   */\n      0x20\n        /* \"#utility.yul\":14270:14279   */\n      dup3\n        /* \"#utility.yul\":14261:14268   */\n      dup5\n        /* \"#utility.yul\":14257:14280   */\n      sub\n        /* \"#utility.yul\":14253:14285   */\n      slt\n        /* \"#utility.yul\":14250:14369   */\n      iszero\n      tag_657\n      jumpi\n        /* \"#utility.yul\":14288:14367   */\n      tag_658\n      tag_438\n      jump\t// in\n    tag_658:\n        /* \"#utility.yul\":14250:14369   */\n    tag_657:\n        /* \"#utility.yul\":14408:14409   */\n      0x00\n        /* \"#utility.yul\":14433:14494   */\n      tag_659\n        /* \"#utility.yul\":14486:14493   */\n      dup5\n        /* \"#utility.yul\":14477:14483   */\n      dup3\n        /* \"#utility.yul\":14466:14475   */\n      dup6\n        /* \"#utility.yul\":14462:14484   */\n      add\n        /* \"#utility.yul\":14433:14494   */\n      tag_472\n      jump\t// in\n    tag_659:\n        /* \"#utility.yul\":14423:14494   */\n      swap2\n      pop\n        /* \"#utility.yul\":14379:14504   */\n      pop\n        /* \"#utility.yul\":14166:14511   */\n      swap3\n      swap2\n      pop\n      pop\n      jump\t// out\n        /* \"#utility.yul\":14517:14688   */\n    tag_473:\n        /* \"#utility.yul\":14657:14680   */\n      0x546f6b656e207472616e73666572206661696c65640000000000000000000000\n        /* \"#utility.yul\":14653:14654   */\n      0x00\n        /* \"#utility.yul\":14645:14651   */\n      dup3\n        /* \"#utility.yul\":14641:14655   */\n      add\n        /* \"#utility.yul\":14634:14681   */\n      mstore\n        /* \"#utility.yul\":14517:14688   */\n      pop\n      jump\t// out\n        /* \"#utility.yul\":14694:15060   */\n    tag_474:\n        /* \"#utility.yul\":14836:14839   */\n      0x00\n        /* \"#utility.yul\":14857:14924   */\n      tag_662\n        /* \"#utility.yul\":14921:14923   */\n      0x15\n        /* \"#utility.yul\":14916:14919   */\n      dup4\n        /* \"#utility.yul\":14857:14924   */\n      tag_433\n      jump\t// in\n    tag_662:\n        /* \"#utility.yul\":14850:14924   */\n      swap2\n      pop\n        /* \"#utility.yul\":14933:15026   */\n      tag_663\n        /* \"#utility.yul\":15022:15025   */\n      dup3\n        /* \"#utility.yul\":14933:15026   */\n      tag_473\n      jump\t// in\n    tag_663:\n        /* \"#utility.yul\":15051:15053   */\n      0x20\n        /* \"#utility.yul\":15046:15049   */\n      dup3\n        /* \"#utility.yul\":15042:15054   */\n      add\n        /* \"#utility.yul\":15035:15054   */\n      swap1\n      pop\n        /* \"#utility.yul\":14694:15060   */\n      swap2\n      swap1\n      pop\n      jump\t// out\n        /* \"#utility.yul\":15066:15485   */\n    tag_190:\n        /* \"#utility.yul\":15232:15236   */\n      0x00\n        /* \"#utility.yul\":15270:15272   */\n      0x20\n        /* \"#utility.yul\":15259:15268   */\n      dup3\n        /* \"#utility.yul\":15255:15273   */\n      add\n        /* \"#utility.yul\":15247:15273   */\n      swap1\n      pop\n        /* \"#utility.yul\":15319:15328   */\n      dup2\n        /* \"#utility.yul\":15313:15317   */\n      dup2\n        /* \"#utility.yul\":15309:15329   */\n      sub\n        /* \"#utility.yul\":15305:15306   */\n      0x00\n        /* \"#utility.yul\":15294:15303   */\n      dup4\n        /* \"#utility.yul\":15290:15307   */\n      add\n        /* \"#utility.yul\":15283:15330   */\n      mstore\n        /* \"#utility.yul\":15347:15478   */\n      tag_665\n        /* \"#utility.yul\":15473:15477   */\n      dup2\n        /* \"#utility.yul\":15347:15478   */\n      tag_474\n      jump\t// in\n    tag_665:\n        /* \"#utility.yul\":15339:15478   */\n      swap1\n      pop\n        /* \"#utility.yul\":15066:15485   */\n      swap2\n      swap1\n      pop\n      jump\t// out\n        /* \"#utility.yul\":15491:15933   */\n    tag_197:\n        /* \"#utility.yul\":15640:15644   */\n      0x00\n        /* \"#utility.yul\":15678:15680   */\n      0x60\n        /* \"#utility.yul\":15667:15676   */\n      dup3\n        /* \"#utility.yul\":15663:15681   */\n      add\n        /* \"#utility.yul\":15655:15681   */\n      swap1\n      pop\n        /* \"#utility.yul\":15691:15762   */\n      tag_667\n        /* \"#utility.yul\":15759:15760   */\n      0x00\n        /* \"#utility.yul\":15748:15757   */\n      dup4\n        /* \"#utility.yul\":15744:15761   */\n      add\n        /* \"#utility.yul\":15735:15741   */\n      dup7\n        /* \"#utility.yul\":15691:15762   */\n      tag_449\n      jump\t// in\n    tag_667:\n        /* \"#utility.yul\":15772:15844   */\n      tag_668\n        /* \"#utility.yul\":15840:15842   */\n      0x20\n        /* \"#utility.yul\":15829:15838   */\n      dup4\n        /* \"#utility.yul\":15825:15843   */\n      add\n        /* \"#utility.yul\":15816:15822   */\n      dup6\n        /* \"#utility.yul\":15772:15844   */\n      tag_449\n      jump\t// in\n    tag_668:\n        /* \"#utility.yul\":15854:15926   */\n      tag_669\n        /* \"#utility.yul\":15922:15924   */\n      0x40\n        /* \"#utility.yul\":15911:15920   */\n      dup4\n        /* \"#utility.yul\":15907:15925   */\n      add\n        /* \"#utility.yul\":15898:15904   */\n      dup5\n        /* \"#utility.yul\":15854:15926   */\n      tag_449\n      jump\t// in\n    tag_669:\n        /* \"#utility.yul\":15491:15933   */\n      swap5\n      swap4\n      pop\n      pop\n      pop\n      pop\n      jump\t// out\n        /* \"#utility.yul\":15939:16099   */\n    tag_475:\n        /* \"#utility.yul\":16079:16091   */\n      0x506f6f6c20656d70747900000000000000000000000000000000000000000000\n        /* \"#utility.yul\":16075:16076   */\n      0x00\n        /* \"#utility.yul\":16067:16073   */\n      dup3\n        /* \"#utility.yul\":16063:16077   */\n      add\n        /* \"#utility.yul\":16056:16092   */\n      mstore\n        /* \"#utility.yul\":15939:16099   */\n      pop\n      jump\t// out\n        /* \"#utility.yul\":16105:16471   */\n    tag_476:\n        /* \"#utility.yul\":16247:16250   */\n      0x00\n        /* \"#utility.yul\":16268:16335   */\n      tag_672\n        /* \"#utility.yul\":16332:16334   */\n      0x0a\n        /* \"#utility.yul\":16327:16330   */\n      dup4\n        /* \"#utility.yul\":16268:16335   */\n      tag_433\n      jump\t// in\n    tag_672:\n        /* \"#utility.yul\":16261:16335   */\n      swap2\n      pop\n        /* \"#utility.yul\":16344:16437   */\n      tag_673\n        /* \"#utility.yul\":16433:16436   */\n      dup3\n        /* \"#utility.yul\":16344:16437   */\n      tag_475\n      jump\t// in\n    tag_673:\n        /* \"#utility.yul\":16462:16464   */\n      0x20\n        /* \"#utility.yul\":16457:16460   */\n      dup3\n        /* \"#utility.yul\":16453:16465   */\n      add\n        /* \"#utility.yul\":16446:16465   */\n      swap1\n      pop\n        /* \"#utility.yul\":16105:16471   */\n      swap2\n      swap1\n      pop\n      jump\t// out\n        /* \"#utility.yul\":16477:16896   */\n    tag_213:\n        /* \"#utility.yul\":16643:16647   */\n      0x00\n        /* \"#utility.yul\":16681:16683   */\n      0x20\n        /* \"#utility.yul\":16670:16679   */\n      dup3\n        /* \"#utility.yul\":16666:16684   */\n      add\n        /* \"#utility.yul\":16658:16684   */\n      swap1\n      pop\n        /* \"#utility.yul\":16730:16739   */\n      dup2\n        /* \"#utility.yul\":16724:16728   */\n      dup2\n        /* \"#utility.yul\":16720:16740   */\n      sub\n        /* \"#utility.yul\":16716:16717   */\n      0x00\n        /* \"#utility.yul\":16705:16714   */\n      dup4\n        /* \"#utility.yul\":16701:16718   */\n      add\n        /* \"#utility.yul\":16694:16741   */\n      mstore\n        /* \"#utility.yul\":16758:16889   */\n      tag_675\n        /* \"#utility.yul\":16884:16888   */\n      dup2\n        /* \"#utility.yul\":16758:16889   */\n      tag_476\n      jump\t// in\n    tag_675:\n        /* \"#utility.yul\":16750:16889   */\n      swap1\n      pop\n        /* \"#utility.yul\":16477:16896   */\n      swap2\n      swap1\n      pop\n      jump\t// out\n        /* \"#utility.yul\":16902:17063   */\n    tag_477:\n        /* \"#utility.yul\":17042:17055   */\n      0x496e76616c696420455448000000000000000000000000000000000000000000\n        /* \"#utility.yul\":17038:17039   */\n      0x00\n        /* \"#utility.yul\":17030:17036   */\n      dup3\n        /* \"#utility.yul\":17026:17040   */\n      add\n        /* \"#utility.yul\":17019:17056   */\n      mstore\n        /* \"#utility.yul\":16902:17063   */\n      pop\n      jump\t// out\n        /* \"#utility.yul\":17069:17435   */\n    tag_478:\n        /* \"#utility.yul\":17211:17214   */\n      0x00\n        /* \"#utility.yul\":17232:17299   */\n      tag_678\n        /* \"#utility.yul\":17296:17298   */\n      0x0b\n        /* \"#utility.yul\":17291:17294   */\n      dup4\n        /* \"#utility.yul\":17232:17299   */\n      tag_433\n      jump\t// in\n    tag_678:\n        /* \"#utility.yul\":17225:17299   */\n      swap2\n      pop\n        /* \"#utility.yul\":17308:17401   */\n      tag_679\n        /* \"#utility.yul\":17397:17400   */\n      dup3\n        /* \"#utility.yul\":17308:17401   */\n      tag_477\n      jump\t// in\n    tag_679:\n        /* \"#utility.yul\":17426:17428   */\n      0x20\n        /* \"#utility.yul\":17421:17424   */\n      dup3\n        /* \"#utility.yul\":17417:17429   */\n      add\n        /* \"#utility.yul\":17410:17429   */\n      swap1\n      pop\n        /* \"#utility.yul\":17069:17435   */\n      swap2\n      swap1\n      pop\n      jump\t// out\n        /* \"#utility.yul\":17441:17860   */\n    tag_219:\n        /* \"#utility.yul\":17607:17611   */\n      0x00\n        /* \"#utility.yul\":17645:17647   */\n      0x20\n        /* \"#utility.yul\":17634:17643   */\n      dup3\n        /* \"#utility.yul\":17630:17648   */\n      add\n        /* \"#utility.yul\":17622:17648   */\n      swap1\n      pop\n        /* \"#utility.yul\":17694:17703   */\n      dup2\n        /* \"#utility.yul\":17688:17692   */\n      dup2\n        /* \"#utility.yul\":17684:17704   */\n      sub\n        /* \"#utility.yul\":17680:17681   */\n      0x00\n        /* \"#utility.yul\":17669:17678   */\n      dup4\n        /* \"#utility.yul\":17665:17682   */\n      add\n        /* \"#utility.yul\":17658:17705   */\n      mstore\n        /* \"#utility.yul\":17722:17853   */\n      tag_681\n        /* \"#utility.yul\":17848:17852   */\n      dup2\n        /* \"#utility.yul\":17722:17853   */\n      tag_478\n      jump\t// in\n    tag_681:\n        /* \"#utility.yul\":17714:17853   */\n      swap1\n      pop\n        /* \"#utility.yul\":17441:17860   */\n      swap2\n      swap1\n      pop\n      jump\t// out\n        /* \"#utility.yul\":17866:18060   */\n    tag_221:\n        /* \"#utility.yul\":17906:17910   */\n      0x00\n        /* \"#utility.yul\":17926:17946   */\n      tag_683\n        /* \"#utility.yul\":17944:17945   */\n      dup3\n        /* \"#utility.yul\":17926:17946   */\n      tag_444\n      jump\t// in\n    tag_683:\n        /* \"#utility.yul\":17921:17946   */\n      swap2\n      pop\n        /* \"#utility.yul\":17960:17980   */\n      tag_684\n        /* \"#utility.yul\":17978:17979   */\n      dup4\n        /* \"#utility.yul\":17960:17980   */\n      tag_444\n      jump\t// in\n    tag_684:\n        /* \"#utility.yul\":17955:17980   */\n      swap3\n      pop\n        /* \"#utility.yul\":18004:18005   */\n      dup3\n        /* \"#utility.yul\":18001:18002   */\n      dup3\n        /* \"#utility.yul\":17997:18006   */\n      sub\n        /* \"#utility.yul\":17989:18006   */\n      swap1\n      pop\n        /* \"#utility.yul\":18028:18029   */\n      dup2\n        /* \"#utility.yul\":18022:18026   */\n      dup2\n        /* \"#utility.yul\":18019:18030   */\n      gt\n        /* \"#utility.yul\":18016:18053   */\n      iszero\n      tag_685\n      jumpi\n        /* \"#utility.yul\":18033:18051   */\n      tag_686\n      tag_464\n      jump\t// in\n    tag_686:\n        /* \"#utility.yul\":18016:18053   */\n    tag_685:\n        /* \"#utility.yul\":17866:18060   */\n      swap3\n      swap2\n      pop\n      pop\n      jump\t// out\n        /* \"#utility.yul\":18066:18257   */\n    tag_230:\n        /* \"#utility.yul\":18106:18109   */\n      0x00\n        /* \"#utility.yul\":18125:18145   */\n      tag_688\n        /* \"#utility.yul\":18143:18144   */\n      dup3\n        /* \"#utility.yul\":18125:18145   */\n      tag_444\n      jump\t// in\n    tag_688:\n        /* \"#utility.yul\":18120:18145   */\n      swap2\n      pop\n        /* \"#utility.yul\":18159:18179   */\n      tag_689\n        /* \"#utility.yul\":18177:18178   */\n      dup4\n        /* \"#utility.yul\":18159:18179   */\n      tag_444\n      jump\t// in\n    tag_689:\n        /* \"#utility.yul\":18154:18179   */\n      swap3\n      pop\n        /* \"#utility.yul\":18202:18203   */\n      dup3\n        /* \"#utility.yul\":18199:18200   */\n      dup3\n        /* \"#utility.yul\":18195:18204   */\n      add\n        /* \"#utility.yul\":18188:18204   */\n      swap1\n      pop\n        /* \"#utility.yul\":18223:18226   */\n      dup1\n        /* \"#utility.yul\":18220:18221   */\n      dup3\n        /* \"#utility.yul\":18217:18227   */\n      gt\n        /* \"#utility.yul\":18214:18250   */\n      iszero\n      tag_690\n      jumpi\n        /* \"#utility.yul\":18230:18248   */\n      tag_691\n      tag_464\n      jump\t// in\n    tag_691:\n        /* \"#utility.yul\":18214:18250   */\n    tag_690:\n        /* \"#utility.yul\":18066:18257   */\n      swap3\n      swap2\n      pop\n      pop\n      jump\t// out\n        /* \"#utility.yul\":18263:18428   */\n    tag_479:\n        /* \"#utility.yul\":18403:18420   */\n      0x4e6f20746f6b656e206f75747075740000000000000000000000000000000000\n        /* \"#utility.yul\":18399:18400   */\n      0x00\n        /* \"#utility.yul\":18391:18397   */\n      dup3\n        /* \"#utility.yul\":18387:18401   */\n      add\n        /* \"#utility.yul\":18380:18421   */\n      mstore\n        /* \"#utility.yul\":18263:18428   */\n      pop\n      jump\t// out\n        /* \"#utility.yul\":18434:18800   */\n    tag_480:\n        /* \"#utility.yul\":18576:18579   */\n      0x00\n        /* \"#utility.yul\":18597:18664   */\n      tag_694\n        /* \"#utility.yul\":18661:18663   */\n      0x0f\n        /* \"#utility.yul\":18656:18659   */\n      dup4\n        /* \"#utility.yul\":18597:18664   */\n      tag_433\n      jump\t// in\n    tag_694:\n        /* \"#utility.yul\":18590:18664   */\n      swap2\n      pop\n        /* \"#utility.yul\":18673:18766   */\n      tag_695\n        /* \"#utility.yul\":18762:18765   */\n      dup3\n        /* \"#utility.yul\":18673:18766   */\n      tag_479\n      jump\t// in\n    tag_695:\n        /* \"#utility.yul\":18791:18793   */\n      0x20\n        /* \"#utility.yul\":18786:18789   */\n      dup3\n        /* \"#utility.yul\":18782:18794   */\n      add\n        /* \"#utility.yul\":18775:18794   */\n      swap1\n      pop\n        /* \"#utility.yul\":18434:18800   */\n      swap2\n      swap1\n      pop\n      jump\t// out\n        /* \"#utility.yul\":18806:19225   */\n    tag_234:\n        /* \"#utility.yul\":18972:18976   */\n      0x00\n        /* \"#utility.yul\":19010:19012   */\n      0x20\n        /* \"#utility.yul\":18999:19008   */\n      dup3\n        /* \"#utility.yul\":18995:19013   */\n      add\n        /* \"#utility.yul\":18987:19013   */\n      swap1\n      pop\n        /* \"#utility.yul\":19059:19068   */\n      dup2\n        /* \"#utility.yul\":19053:19057   */\n      dup2\n        /* \"#utility.yul\":19049:19069   */\n      sub\n        /* \"#utility.yul\":19045:19046   */\n      0x00\n        /* \"#utility.yul\":19034:19043   */\n      dup4\n        /* \"#utility.yul\":19030:19047   */\n      add\n        /* \"#utility.yul\":19023:19070   */\n      mstore\n        /* \"#utility.yul\":19087:19218   */\n      tag_697\n        /* \"#utility.yul\":19213:19217   */\n      dup2\n        /* \"#utility.yul\":19087:19218   */\n      tag_480\n      jump\t// in\n    tag_697:\n        /* \"#utility.yul\":19079:19218   */\n      swap1\n      pop\n        /* \"#utility.yul\":18806:19225   */\n      swap2\n      swap1\n      pop\n      jump\t// out\n        /* \"#utility.yul\":19231:19394   */\n    tag_481:\n        /* \"#utility.yul\":19371:19386   */\n      0x4e6f20455448206f757470757400000000000000000000000000000000000000\n        /* \"#utility.yul\":19367:19368   */\n      0x00\n        /* \"#utility.yul\":19359:19365   */\n      dup3\n        /* \"#utility.yul\":19355:19369   */\n      add\n        /* \"#utility.yul\":19348:19387   */\n      mstore\n        /* \"#utility.yul\":19231:19394   */\n      pop\n      jump\t// out\n        /* \"#utility.yul\":19400:19766   */\n    tag_482:\n        /* \"#utility.yul\":19542:19545   */\n      0x00\n        /* \"#utility.yul\":19563:19630   */\n      tag_700\n        /* \"#utility.yul\":19627:19629   */\n      0x0d\n        /* \"#utility.yul\":19622:19625   */\n      dup4\n        /* \"#utility.yul\":19563:19630   */\n      tag_433\n      jump\t// in\n    tag_700:\n        /* \"#utility.yul\":19556:19630   */\n      swap2\n      pop\n        /* \"#utility.yul\":19639:19732   */\n      tag_701\n        /* \"#utility.yul\":19728:19731   */\n      dup3\n        /* \"#utility.yul\":19639:19732   */\n      tag_481\n      jump\t// in\n    tag_701:\n        /* \"#utility.yul\":19757:19759   */\n      0x20\n        /* \"#utility.yul\":19752:19755   */\n      dup3\n        /* \"#utility.yul\":19748:19760   */\n      add\n        /* \"#utility.yul\":19741:19760   */\n      swap1\n      pop\n        /* \"#utility.yul\":19400:19766   */\n      swap2\n      swap1\n      pop\n      jump\t// out\n        /* \"#utility.yul\":19772:20191   */\n    tag_280:\n        /* \"#utility.yul\":19938:19942   */\n      0x00\n        /* \"#utility.yul\":19976:19978   */\n      0x20\n        /* \"#utility.yul\":19965:19974   */\n      dup3\n        /* \"#utility.yul\":19961:19979   */\n      add\n        /* \"#utility.yul\":19953:19979   */\n      swap1\n      pop\n        /* \"#utility.yul\":20025:20034   */\n      dup2\n        /* \"#utility.yul\":20019:20023   */\n      dup2\n        /* \"#utility.yul\":20015:20035   */\n      sub\n        /* \"#utility.yul\":20011:20012   */\n      0x00\n        /* \"#utility.yul\":20000:20009   */\n      dup4\n        /* \"#utility.yul\":19996:20013   */\n      add\n        /* \"#utility.yul\":19989:20036   */\n      mstore\n        /* \"#utility.yul\":20053:20184   */\n      tag_703\n        /* \"#utility.yul\":20179:20183   */\n      dup2\n        /* \"#utility.yul\":20053:20184   */\n      tag_482\n      jump\t// in\n    tag_703:\n        /* \"#utility.yul\":20045:20184   */\n      swap1\n      pop\n        /* \"#utility.yul\":19772:20191   */\n      swap2\n      swap1\n      pop\n      jump\t// out\n        /* \"#utility.yul\":20197:20421   */\n    tag_483:\n        /* \"#utility.yul\":20337:20371   */\n      0x45524332303a2064656372656173656420616c6c6f77616e63652062656c6f77\n        /* \"#utility.yul\":20333:20334   */\n      0x00\n        /* \"#utility.yul\":20325:20331   */\n      dup3\n        /* \"#utility.yul\":20321:20335   */\n      add\n        /* \"#utility.yul\":20314:20372   */\n      mstore\n        /* \"#utility.yul\":20406:20413   */\n      0x207a65726f000000000000000000000000000000000000000000000000000000\n        /* \"#utility.yul\":20401:20403   */\n      0x20\n        /* \"#utility.yul\":20393:20399   */\n      dup3\n        /* \"#utility.yul\":20389:20404   */\n      add\n        /* \"#utility.yul\":20382:20414   */\n      mstore\n        /* \"#utility.yul\":20197:20421   */\n      pop\n      jump\t// out\n        /* \"#utility.yul\":20427:20793   */\n    tag_484:\n        /* \"#utility.yul\":20569:20572   */\n      0x00\n        /* \"#utility.yul\":20590:20657   */\n      tag_706\n        /* \"#utility.yul\":20654:20656   */\n      0x25\n        /* \"#utility.yul\":20649:20652   */\n      dup4\n        /* \"#utility.yul\":20590:20657   */\n      tag_433\n      jump\t// in\n    tag_706:\n        /* \"#utility.yul\":20583:20657   */\n      swap2\n      pop\n        /* \"#utility.yul\":20666:20759   */\n      tag_707\n        /* \"#utility.yul\":20755:20758   */\n      dup3\n        /* \"#utility.yul\":20666:20759   */\n      tag_483\n      jump\t// in\n    tag_707:\n        /* \"#utility.yul\":20784:20786   */\n      0x40\n        /* \"#utility.yul\":20779:20782   */\n      dup3\n        /* \"#utility.yul\":20775:20787   */\n      add\n        /* \"#utility.yul\":20768:20787   */\n      swap1\n      pop\n        /* \"#utility.yul\":20427:20793   */\n      swap2\n      swap1\n      pop\n      jump\t// out\n        /* \"#utility.yul\":20799:21218   */\n    tag_293:\n        /* \"#utility.yul\":20965:20969   */\n      0x00\n        /* \"#utility.yul\":21003:21005   */\n      0x20\n        /* \"#utility.yul\":20992:21001   */\n      dup3\n        /* \"#utility.yul\":20988:21006   */\n      add\n        /* \"#utility.yul\":20980:21006   */\n      swap1\n      pop\n        /* \"#utility.yul\":21052:21061   */\n      dup2\n        /* \"#utility.yul\":21046:21050   */\n      dup2\n        /* \"#utility.yul\":21042:21062   */\n      sub\n        /* \"#utility.yul\":21038:21039   */\n      0x00\n        /* \"#utility.yul\":21027:21036   */\n      dup4\n        /* \"#utility.yul\":21023:21040   */\n      add\n        /* \"#utility.yul\":21016:21063   */\n      mstore\n        /* \"#utility.yul\":21080:21211   */\n      tag_709\n        /* \"#utility.yul\":21206:21210   */\n      dup2\n        /* \"#utility.yul\":21080:21211   */\n      tag_484\n      jump\t// in\n    tag_709:\n        /* \"#utility.yul\":21072:21211   */\n      swap1\n      pop\n        /* \"#utility.yul\":20799:21218   */\n      swap2\n      swap1\n      pop\n      jump\t// out\n        /* \"#utility.yul\":21224:21388   */\n    tag_485:\n        /* \"#utility.yul\":21364:21380   */\n      0x496e76616c696420616d6f756e74000000000000000000000000000000000000\n        /* \"#utility.yul\":21360:21361   */\n      0x00\n        /* \"#utility.yul\":21352:21358   */\n      dup3\n        /* \"#utility.yul\":21348:21362   */\n      add\n        /* \"#utility.yul\":21341:21381   */\n      mstore\n        /* \"#utility.yul\":21224:21388   */\n      pop\n      jump\t// out\n        /* \"#utility.yul\":21394:21760   */\n    tag_486:\n        /* \"#utility.yul\":21536:21539   */\n      0x00\n        /* \"#utility.yul\":21557:21624   */\n      tag_712\n        /* \"#utility.yul\":21621:21623   */\n      0x0e\n        /* \"#utility.yul\":21616:21619   */\n      dup4\n        /* \"#utility.yul\":21557:21624   */\n      tag_433\n      jump\t// in\n    tag_712:\n        /* \"#utility.yul\":21550:21624   */\n      swap2\n      pop\n        /* \"#utility.yul\":21633:21726   */\n      tag_713\n        /* \"#utility.yul\":21722:21725   */\n      dup3\n        /* \"#utility.yul\":21633:21726   */\n      tag_485\n      jump\t// in\n    tag_713:\n        /* \"#utility.yul\":21751:21753   */\n      0x20\n        /* \"#utility.yul\":21746:21749   */\n      dup3\n        /* \"#utility.yul\":21742:21754   */\n      add\n        /* \"#utility.yul\":21735:21754   */\n      swap1\n      pop\n        /* \"#utility.yul\":21394:21760   */\n      swap2\n      swap1\n      pop\n      jump\t// out\n        /* \"#utility.yul\":21766:22185   */\n    tag_301:\n        /* \"#utility.yul\":21932:21936   */\n      0x00\n        /* \"#utility.yul\":21970:21972   */\n      0x20\n        /* \"#utility.yul\":21959:21968   */\n      dup3\n        /* \"#utility.yul\":21955:21973   */\n      add\n        /* \"#utility.yul\":21947:21973   */\n      swap1\n      pop\n        /* \"#utility.yul\":22019:22028   */\n      dup2\n        /* \"#utility.yul\":22013:22017   */\n      dup2\n        /* \"#utility.yul\":22009:22029   */\n      sub\n        /* \"#utility.yul\":22005:22006   */\n      0x00\n        /* \"#utility.yul\":21994:22003   */\n      dup4\n        /* \"#utility.yul\":21990:22007   */\n      add\n        /* \"#utility.yul\":21983:22030   */\n      mstore\n        /* \"#utility.yul\":22047:22178   */\n      tag_715\n        /* \"#utility.yul\":22173:22177   */\n      dup2\n        /* \"#utility.yul\":22047:22178   */\n      tag_486\n      jump\t// in\n    tag_715:\n        /* \"#utility.yul\":22039:22178   */\n      swap1\n      pop\n        /* \"#utility.yul\":21766:22185   */\n      swap2\n      swap1\n      pop\n      jump\t// out\n        /* \"#utility.yul\":22191:22633   */\n    tag_315:\n        /* \"#utility.yul\":22340:22344   */\n      0x00\n        /* \"#utility.yul\":22378:22380   */\n      0x60\n        /* \"#utility.yul\":22367:22376   */\n      dup3\n        /* \"#utility.yul\":22363:22381   */\n      add\n        /* \"#utility.yul\":22355:22381   */\n      swap1\n      pop\n        /* \"#utility.yul\":22391:22462   */\n      tag_717\n        /* \"#utility.yul\":22459:22460   */\n      0x00\n        /* \"#utility.yul\":22448:22457   */\n      dup4\n        /* \"#utility.yul\":22444:22461   */\n      add\n        /* \"#utility.yul\":22435:22441   */\n      dup7\n        /* \"#utility.yul\":22391:22462   */\n      tag_462\n      jump\t// in\n    tag_717:\n        /* \"#utility.yul\":22472:22544   */\n      tag_718\n        /* \"#utility.yul\":22540:22542   */\n      0x20\n        /* \"#utility.yul\":22529:22538   */\n      dup4\n        /* \"#utility.yul\":22525:22543   */\n      add\n        /* \"#utility.yul\":22516:22522   */\n      dup6\n        /* \"#utility.yul\":22472:22544   */\n      tag_462\n      jump\t// in\n    tag_718:\n        /* \"#utility.yul\":22554:22626   */\n      tag_719\n        /* \"#utility.yul\":22622:22624   */\n      0x40\n        /* \"#utility.yul\":22611:22620   */\n      dup4\n        /* \"#utility.yul\":22607:22625   */\n      add\n        /* \"#utility.yul\":22598:22604   */\n      dup5\n        /* \"#utility.yul\":22554:22626   */\n      tag_449\n      jump\t// in\n    tag_719:\n        /* \"#utility.yul\":22191:22633   */\n      swap5\n      swap4\n      pop\n      pop\n      pop\n      pop\n      jump\t// out\n        /* \"#utility.yul\":22639:22804   */\n    tag_487:\n        /* \"#utility.yul\":22779:22796   */\n      0x496e76616c696420616d6f756e74730000000000000000000000000000000000\n        /* \"#utility.yul\":22775:22776   */\n      0x00\n        /* \"#utility.yul\":22767:22773   */\n      dup3\n        /* \"#utility.yul\":22763:22777   */\n      add\n        /* \"#utility.yul\":22756:22797   */\n      mstore\n        /* \"#utility.yul\":22639:22804   */\n      pop\n      jump\t// out\n        /* \"#utility.yul\":22810:23176   */\n    tag_488:\n        /* \"#utility.yul\":22952:22955   */\n      0x00\n        /* \"#utility.yul\":22973:23040   */\n      tag_722\n        /* \"#utility.yul\":23037:23039   */\n      0x0f\n        /* \"#utility.yul\":23032:23035   */\n      dup4\n        /* \"#utility.yul\":22973:23040   */\n      tag_433\n      jump\t// in\n    tag_722:\n        /* \"#utility.yul\":22966:23040   */\n      swap2\n      pop\n        /* \"#utility.yul\":23049:23142   */\n      tag_723\n        /* \"#utility.yul\":23138:23141   */\n      dup3\n        /* \"#utility.yul\":23049:23142   */\n      tag_487\n      jump\t// in\n    tag_723:\n        /* \"#utility.yul\":23167:23169   */\n      0x20\n        /* \"#utility.yul\":23162:23165   */\n      dup3\n        /* \"#utility.yul\":23158:23170   */\n      add\n        /* \"#utility.yul\":23151:23170   */\n      swap1\n      pop\n        /* \"#utility.yul\":22810:23176   */\n      swap2\n      swap1\n      pop\n      jump\t// out\n        /* \"#utility.yul\":23182:23601   */\n    tag_340:\n        /* \"#utility.yul\":23348:23352   */\n      0x00\n        /* \"#utility.yul\":23386:23388   */\n      0x20\n        /* \"#utility.yul\":23375:23384   */\n      dup3\n        /* \"#utility.yul\":23371:23389   */\n      add\n        /* \"#utility.yul\":23363:23389   */\n      swap1\n      pop\n        /* \"#utility.yul\":23435:23444   */\n      dup2\n        /* \"#utility.yul\":23429:23433   */\n      dup2\n        /* \"#utility.yul\":23425:23445   */\n      sub\n        /* \"#utility.yul\":23421:23422   */\n      0x00\n        /* \"#utility.yul\":23410:23419   */\n      dup4\n        /* \"#utility.yul\":23406:23423   */\n      add\n        /* \"#utility.yul\":23399:23446   */\n      mstore\n        /* \"#utility.yul\":23463:23594   */\n      tag_725\n        /* \"#utility.yul\":23589:23593   */\n      dup2\n        /* \"#utility.yul\":23463:23594   */\n      tag_488\n      jump\t// in\n    tag_725:\n        /* \"#utility.yul\":23455:23594   */\n      swap1\n      pop\n        /* \"#utility.yul\":23182:23601   */\n      swap2\n      swap1\n      pop\n      jump\t// out\n        /* \"#utility.yul\":23607:23771   */\n    tag_489:\n        /* \"#utility.yul\":23747:23763   */\n      0x526174696f206d69736d61746368000000000000000000000000000000000000\n        /* \"#utility.yul\":23743:23744   */\n      0x00\n        /* \"#utility.yul\":23735:23741   */\n      dup3\n        /* \"#utility.yul\":23731:23745   */\n      add\n        /* \"#utility.yul\":23724:23764   */\n      mstore\n        /* \"#utility.yul\":23607:23771   */\n      pop\n      jump\t// out\n        /* \"#utility.yul\":23777:24143   */\n    tag_490:\n        /* \"#utility.yul\":23919:23922   */\n      0x00\n        /* \"#utility.yul\":23940:24007   */\n      tag_728\n        /* \"#utility.yul\":24004:24006   */\n      0x0e\n        /* \"#utility.yul\":23999:24002   */\n      dup4\n        /* \"#utility.yul\":23940:24007   */\n      tag_433\n      jump\t// in\n    tag_728:\n        /* \"#utility.yul\":23933:24007   */\n      swap2\n      pop\n        /* \"#utility.yul\":24016:24109   */\n      tag_729\n        /* \"#utility.yul\":24105:24108   */\n      dup3\n        /* \"#utility.yul\":24016:24109   */\n      tag_489\n      jump\t// in\n    tag_729:\n        /* \"#utility.yul\":24134:24136   */\n      0x20\n        /* \"#utility.yul\":24129:24132   */\n      dup3\n        /* \"#utility.yul\":24125:24137   */\n      add\n        /* \"#utility.yul\":24118:24137   */\n      swap1\n      pop\n        /* \"#utility.yul\":23777:24143   */\n      swap2\n      swap1\n      pop\n      jump\t// out\n        /* \"#utility.yul\":24149:24568   */\n    tag_353:\n        /* \"#utility.yul\":24315:24319   */\n      0x00\n        /* \"#utility.yul\":24353:24355   */\n      0x20\n        /* \"#utility.yul\":24342:24351   */\n      dup3\n        /* \"#utility.yul\":24338:24356   */\n      add\n        /* \"#utility.yul\":24330:24356   */\n      swap1\n      pop\n        /* \"#utility.yul\":24402:24411   */\n      dup2\n        /* \"#utility.yul\":24396:24400   */\n      dup2\n        /* \"#utility.yul\":24392:24412   */\n      sub\n        /* \"#utility.yul\":24388:24389   */\n      0x00\n        /* \"#utility.yul\":24377:24386   */\n      dup4\n        /* \"#utility.yul\":24373:24390   */\n      add\n        /* \"#utility.yul\":24366:24413   */\n      mstore\n        /* \"#utility.yul\":24430:24561   */\n      tag_731\n        /* \"#utility.yul\":24556:24560   */\n      dup2\n        /* \"#utility.yul\":24430:24561   */\n      tag_490\n      jump\t// in\n    tag_731:\n        /* \"#utility.yul\":24422:24561   */\n      swap1\n      pop\n        /* \"#utility.yul\":24149:24568   */\n      swap2\n      swap1\n      pop\n      jump\t// out\n        /* \"#utility.yul\":24574:24797   */\n    tag_491:\n        /* \"#utility.yul\":24714:24748   */\n      0x45524332303a20617070726f76652066726f6d20746865207a65726f20616464\n        /* \"#utility.yul\":24710:24711   */\n      0x00\n        /* \"#utility.yul\":24702:24708   */\n      dup3\n        /* \"#utility.yul\":24698:24712   */\n      add\n        /* \"#utility.yul\":24691:24749   */\n      mstore\n        /* \"#utility.yul\":24783:24789   */\n      0x7265737300000000000000000000000000000000000000000000000000000000\n        /* \"#utility.yul\":24778:24780   */\n      0x20\n        /* \"#utility.yul\":24770:24776   */\n      dup3\n        /* \"#utility.yul\":24766:24781   */\n      add\n        /* \"#utility.yul\":24759:24790   */\n      mstore\n        /* \"#utility.yul\":24574:24797   */\n      pop\n      jump\t// out\n        /* \"#utility.yul\":24803:25169   */\n    tag_492:\n        /* \"#utility.yul\":24945:24948   */\n      0x00\n        /* \"#utility.yul\":24966:25033   */\n      tag_734\n        /* \"#utility.yul\":25030:25032   */\n      0x24\n        /* \"#utility.yul\":25025:25028   */\n      dup4\n        /* \"#utility.yul\":24966:25033   */\n      tag_433\n      jump\t// in\n    tag_734:\n        /* \"#utility.yul\":24959:25033   */\n      swap2\n      pop\n        /* \"#utility.yul\":25042:25135   */\n      tag_735\n        /* \"#utility.yul\":25131:25134   */\n      dup3\n        /* \"#utility.yul\":25042:25135   */\n      tag_491\n      jump\t// in\n    tag_735:\n        /* \"#utility.yul\":25160:25162   */\n      0x40\n        /* \"#utility.yul\":25155:25158   */\n      dup3\n        /* \"#utility.yul\":25151:25163   */\n      add\n        /* \"#utility.yul\":25144:25163   */\n      swap1\n      pop\n        /* \"#utility.yul\":24803:25169   */\n      swap2\n      swap1\n      pop\n      jump\t// out\n        /* \"#utility.yul\":25175:25594   */\n    tag_385:\n        /* \"#utility.yul\":25341:25345   */\n      0x00\n        /* \"#utility.yul\":25379:25381   */\n      0x20\n        /* \"#utility.yul\":25368:25377   */\n      dup3\n        /* \"#utility.yul\":25364:25382   */\n      add\n        /* \"#utility.yul\":25356:25382   */\n      swap1\n      pop\n        /* \"#utility.yul\":25428:25437   */\n      dup2\n        /* \"#utility.yul\":25422:25426   */\n      dup2\n        /* \"#utility.yul\":25418:25438   */\n      sub\n        /* \"#utility.yul\":25414:25415   */\n      0x00\n        /* \"#utility.yul\":25403:25412   */\n      dup4\n        /* \"#utility.yul\":25399:25416   */\n      add\n        /* \"#utility.yul\":25392:25439   */\n      mstore\n        /* \"#utility.yul\":25456:25587   */\n      tag_737\n        /* \"#utility.yul\":25582:25586   */\n      dup2\n        /* \"#utility.yul\":25456:25587   */\n      tag_492\n      jump\t// in\n    tag_737:\n        /* \"#utility.yul\":25448:25587   */\n      swap1\n      pop\n        /* \"#utility.yul\":25175:25594   */\n      swap2\n      swap1\n      pop\n      jump\t// out\n        /* \"#utility.yul\":25600:25821   */\n    tag_493:\n        /* \"#utility.yul\":25740:25774   */\n      0x45524332303a20617070726f766520746f20746865207a65726f206164647265\n        /* \"#utility.yul\":25736:25737   */\n      0x00\n        /* \"#utility.yul\":25728:25734   */\n      dup3\n        /* \"#utility.yul\":25724:25738   */\n      add\n        /* \"#utility.yul\":25717:25775   */\n      mstore\n        /* \"#utility.yul\":25809:25813   */\n      0x7373000000000000000000000000000000000000000000000000000000000000\n        /* \"#utility.yul\":25804:25806   */\n      0x20\n        /* \"#utility.yul\":25796:25802   */\n      dup3\n        /* \"#utility.yul\":25792:25807   */\n      add\n        /* \"#utility.yul\":25785:25814   */\n      mstore\n        /* \"#utility.yul\":25600:25821   */\n      pop\n      jump\t// out\n        /* \"#utility.yul\":25827:26193   */\n    tag_494:\n        /* \"#utility.yul\":25969:25972   */\n      0x00\n        /* \"#utility.yul\":25990:26057   */\n      tag_740\n        /* \"#utility.yul\":26054:26056   */\n      0x22\n        /* \"#utility.yul\":26049:26052   */\n      dup4\n        /* \"#utility.yul\":25990:26057   */\n      tag_433\n      jump\t// in\n    tag_740:\n        /* \"#utility.yul\":25983:26057   */\n      swap2\n      pop\n        /* \"#utility.yul\":26066:26159   */\n      tag_741\n        /* \"#utility.yul\":26155:26158   */\n      dup3\n        /* \"#utility.yul\":26066:26159   */\n      tag_493\n      jump\t// in\n    tag_741:\n        /* \"#utility.yul\":26184:26186   */\n      0x40\n        /* \"#utility.yul\":26179:26182   */\n      dup3\n        /* \"#utility.yul\":26175:26187   */\n      add\n        /* \"#utility.yul\":26168:26187   */\n      swap1\n      pop\n        /* \"#utility.yul\":25827:26193   */\n      swap2\n      swap1\n      pop\n      jump\t// out\n        /* \"#utility.yul\":26199:26618   */\n    tag_388:\n        /* \"#utility.yul\":26365:26369   */\n      0x00\n        /* \"#utility.yul\":26403:26405   */\n      0x20\n        /* \"#utility.yul\":26392:26401   */\n      dup3\n        /* \"#utility.yul\":26388:26406   */\n      add\n        /* \"#utility.yul\":26380:26406   */\n      swap1\n      pop\n        /* \"#utility.yul\":26452:26461   */\n      dup2\n        /* \"#utility.yul\":26446:26450   */\n      dup2\n        /* \"#utility.yul\":26442:26462   */\n      sub\n        /* \"#utility.yul\":26438:26439   */\n      0x00\n        /* \"#utility.yul\":26427:26436   */\n      dup4\n        /* \"#utility.yul\":26423:26440   */\n      add\n        /* \"#utility.yul\":26416:26463   */\n      mstore\n        /* \"#utility.yul\":26480:26611   */\n      tag_743\n        /* \"#utility.yul\":26606:26610   */\n      dup2\n        /* \"#utility.yul\":26480:26611   */\n      tag_494\n      jump\t// in\n    tag_743:\n        /* \"#utility.yul\":26472:26611   */\n      swap1\n      pop\n        /* \"#utility.yul\":26199:26618   */\n      swap2\n      swap1\n      pop\n      jump\t// out\n        /* \"#utility.yul\":26624:26844   */\n    tag_495:\n        /* \"#utility.yul\":26764:26798   */\n      0x45524332303a206275726e2066726f6d20746865207a65726f20616464726573\n        /* \"#utility.yul\":26760:26761   */\n      0x00\n        /* \"#utility.yul\":26752:26758   */\n      dup3\n        /* \"#utility.yul\":26748:26762   */\n      add\n        /* \"#utility.yul\":26741:26799   */\n      mstore\n        /* \"#utility.yul\":26833:26836   */\n      0x7300000000000000000000000000000000000000000000000000000000000000\n        /* \"#utility.yul\":26828:26830   */\n      0x20\n        /* \"#utility.yul\":26820:26826   */\n      dup3\n        /* \"#utility.yul\":26816:26831   */\n      add\n        /* \"#utility.yul\":26809:26837   */\n      mstore\n        /* \"#utility.yul\":26624:26844   */\n      pop\n      jump\t// out\n        /* \"#utility.yul\":26850:27216   */\n    tag_496:\n        /* \"#utility.yul\":26992:26995   */\n      0x00\n        /* \"#utility.yul\":27013:27080   */\n      tag_746\n        /* \"#utility.yul\":27077:27079   */\n      0x21\n        /* \"#utility.yul\":27072:27075   */\n      dup4\n        /* \"#utility.yul\":27013:27080   */\n      tag_433\n      jump\t// in\n    tag_746:\n        /* \"#utility.yul\":27006:27080   */\n      swap2\n      pop\n        /* \"#utility.yul\":27089:27182   */\n      tag_747\n        /* \"#utility.yul\":27178:27181   */\n      dup3\n        /* \"#utility.yul\":27089:27182   */\n      tag_495\n      jump\t// in\n    tag_747:\n        /* \"#utility.yul\":27207:27209   */\n      0x40\n        /* \"#utility.yul\":27202:27205   */\n      dup3\n        /* \"#utility.yul\":27198:27210   */\n      add\n        /* \"#utility.yul\":27191:27210   */\n      swap1\n      pop\n        /* \"#utility.yul\":26850:27216   */\n      swap2\n      swap1\n      pop\n      jump\t// out\n        /* \"#utility.yul\":27222:27641   */\n    tag_393:\n        /* \"#utility.yul\":27388:27392   */\n      0x00\n        /* \"#utility.yul\":27426:27428   */\n      0x20\n        /* \"#utility.yul\":27415:27424   */\n      dup3\n        /* \"#utility.yul\":27411:27429   */\n      add\n        /* \"#utility.yul\":27403:27429   */\n      swap1\n      pop\n        /* \"#utility.yul\":27475:27484   */\n      dup2\n        /* \"#utility.yul\":27469:27473   */\n      dup2\n        /* \"#utility.yul\":27465:27485   */\n      sub\n        /* \"#utility.yul\":27461:27462   */\n      0x00\n        /* \"#utility.yul\":27450:27459   */\n      dup4\n        /* \"#utility.yul\":27446:27463   */\n      add\n        /* \"#utility.yul\":27439:27486   */\n      mstore\n        /* \"#utility.yul\":27503:27634   */\n      tag_749\n        /* \"#utility.yul\":27629:27633   */\n      dup2\n        /* \"#utility.yul\":27503:27634   */\n      tag_496\n      jump\t// in\n    tag_749:\n        /* \"#utility.yul\":27495:27634   */\n      swap1\n      pop\n        /* \"#utility.yul\":27222:27641   */\n      swap2\n      swap1\n      pop\n      jump\t// out\n        /* \"#utility.yul\":27647:27868   */\n    tag_497:\n        /* \"#utility.yul\":27787:27821   */\n      0x45524332303a206275726e20616d6f756e7420657863656564732062616c616e\n        /* \"#utility.yul\":27783:27784   */\n      0x00\n        /* \"#utility.yul\":27775:27781   */\n      dup3\n        /* \"#utility.yul\":27771:27785   */\n      add\n        /* \"#utility.yul\":27764:27822   */\n      mstore\n        /* \"#utility.yul\":27856:27860   */\n      0x6365000000000000000000000000000000000000000000000000000000000000\n        /* \"#utility.yul\":27851:27853   */\n      0x20\n        /* \"#utility.yul\":27843:27849   */\n      dup3\n        /* \"#utility.yul\":27839:27854   */\n      add\n        /* \"#utility.yul\":27832:27861   */\n      mstore\n        /* \"#utility.yul\":27647:27868   */\n      pop\n      jump\t// out\n        /* \"#utility.yul\":27874:28240   */\n    tag_498:\n        /* \"#utility.yul\":28016:28019   */\n      0x00\n        /* \"#utility.yul\":28037:28104   */\n      tag_752\n        /* \"#utility.yul\":28101:28103   */\n      0x22\n        /* \"#utility.yul\":28096:28099   */\n      dup4\n        /* \"#utility.yul\":28037:28104   */\n      tag_433\n      jump\t// in\n    tag_752:\n        /* \"#utility.yul\":28030:28104   */\n      swap2\n      pop\n        /* \"#utility.yul\":28113:28206   */\n      tag_753\n        /* \"#utility.yul\":28202:28205   */\n      dup3\n        /* \"#utility.yul\":28113:28206   */\n      tag_497\n      jump\t// in\n    tag_753:\n        /* \"#utility.yul\":28231:28233   */\n      0x40\n        /* \"#utility.yul\":28226:28229   */\n      dup3\n        /* \"#utility.yul\":28222:28234   */\n      add\n        /* \"#utility.yul\":28215:28234   */\n      swap1\n      pop\n        /* \"#utility.yul\":27874:28240   */\n      swap2\n      swap1\n      pop\n      jump\t// out\n        /* \"#utility.yul\":28246:28665   */\n    tag_398:\n        /* \"#utility.yul\":28412:28416   */\n      0x00\n        /* \"#utility.yul\":28450:28452   */\n      0x20\n        /* \"#utility.yul\":28439:28448   */\n      dup3\n        /* \"#utility.yul\":28435:28453   */\n      add\n        /* \"#utility.yul\":28427:28453   */\n      swap1\n      pop\n        /* \"#utility.yul\":28499:28508   */\n      dup2\n        /* \"#utility.yul\":28493:28497   */\n      dup2\n        /* \"#utility.yul\":28489:28509   */\n      sub\n        /* \"#utility.yul\":28485:28486   */\n      0x00\n        /* \"#utility.yul\":28474:28483   */\n      dup4\n        /* \"#utility.yul\":28470:28487   */\n      add\n        /* \"#utility.yul\":28463:28510   */\n      mstore\n        /* \"#utility.yul\":28527:28658   */\n      tag_755\n        /* \"#utility.yul\":28653:28657   */\n      dup2\n        /* \"#utility.yul\":28527:28658   */\n      tag_498\n      jump\t// in\n    tag_755:\n        /* \"#utility.yul\":28519:28658   */\n      swap1\n      pop\n        /* \"#utility.yul\":28246:28665   */\n      swap2\n      swap1\n      pop\n      jump\t// out\n        /* \"#utility.yul\":28671:28850   */\n    tag_499:\n        /* \"#utility.yul\":28811:28842   */\n      0x45524332303a20696e73756666696369656e7420616c6c6f77616e6365000000\n        /* \"#utility.yul\":28807:28808   */\n      0x00\n        /* \"#utility.yul\":28799:28805   */\n      dup3\n        /* \"#utility.yul\":28795:28809   */\n      add\n        /* \"#utility.yul\":28788:28843   */\n      mstore\n        /* \"#utility.yul\":28671:28850   */\n      pop\n      jump\t// out\n        /* \"#utility.yul\":28856:29222   */\n    tag_500:\n        /* \"#utility.yul\":28998:29001   */\n      0x00\n        /* \"#utility.yul\":29019:29086   */\n      tag_758\n        /* \"#utility.yul\":29083:29085   */\n      0x1d\n        /* \"#utility.yul\":29078:29081   */\n      dup4\n        /* \"#utility.yul\":29019:29086   */\n      tag_433\n      jump\t// in\n    tag_758:\n        /* \"#utility.yul\":29012:29086   */\n      swap2\n      pop\n        /* \"#utility.yul\":29095:29188   */\n      tag_759\n        /* \"#utility.yul\":29184:29187   */\n      dup3\n        /* \"#utility.yul\":29095:29188   */\n      tag_499\n      jump\t// in\n    tag_759:\n        /* \"#utility.yul\":29213:29215   */\n      0x20\n        /* \"#utility.yul\":29208:29211   */\n      dup3\n        /* \"#utility.yul\":29204:29216   */\n      add\n        /* \"#utility.yul\":29197:29216   */\n      swap1\n      pop\n        /* \"#utility.yul\":28856:29222   */\n      swap2\n      swap1\n      pop\n      jump\t// out\n        /* \"#utility.yul\":29228:29647   */\n    tag_407:\n        /* \"#utility.yul\":29394:29398   */\n      0x00\n        /* \"#utility.yul\":29432:29434   */\n      0x20\n        /* \"#utility.yul\":29421:29430   */\n      dup3\n        /* \"#utility.yul\":29417:29435   */\n      add\n        /* \"#utility.yul\":29409:29435   */\n      swap1\n      pop\n        /* \"#utility.yul\":29481:29490   */\n      dup2\n        /* \"#utility.yul\":29475:29479   */\n      dup2\n        /* \"#utility.yul\":29471:29491   */\n      sub\n        /* \"#utility.yul\":29467:29468   */\n      0x00\n        /* \"#utility.yul\":29456:29465   */\n      dup4\n        /* \"#utility.yul\":29452:29469   */\n      add\n        /* \"#utility.yul\":29445:29492   */\n      mstore\n        /* \"#utility.yul\":29509:29640   */\n      tag_761\n        /* \"#utility.yul\":29635:29639   */\n      dup2\n        /* \"#utility.yul\":29509:29640   */\n      tag_500\n      jump\t// in\n    tag_761:\n        /* \"#utility.yul\":29501:29640   */\n      swap1\n      pop\n        /* \"#utility.yul\":29228:29647   */\n      swap2\n      swap1\n      pop\n      jump\t// out\n        /* \"#utility.yul\":29653:29877   */\n    tag_501:\n        /* \"#utility.yul\":29793:29827   */\n      0x45524332303a207472616e736665722066726f6d20746865207a65726f206164\n        /* \"#utility.yul\":29789:29790   */\n      0x00\n        /* \"#utility.yul\":29781:29787   */\n      dup3\n        /* \"#utility.yul\":29777:29791   */\n      add\n        /* \"#utility.yul\":29770:29828   */\n      mstore\n        /* \"#utility.yul\":29862:29869   */\n      0x6472657373000000000000000000000000000000000000000000000000000000\n        /* \"#utility.yul\":29857:29859   */\n      0x20\n        /* \"#utility.yul\":29849:29855   */\n      dup3\n        /* \"#utility.yul\":29845:29860   */\n      add\n        /* \"#utility.yul\":29838:29870   */\n      mstore\n        /* \"#utility.yul\":29653:29877   */\n      pop\n      jump\t// out\n        /* \"#utility.yul\":29883:30249   */\n    tag_502:\n        /* \"#utility.yul\":30025:30028   */\n      0x00\n        /* \"#utility.yul\":30046:30113   */\n      tag_764\n        /* \"#utility.yul\":30110:30112   */\n      0x25\n        /* \"#utility.yul\":30105:30108   */\n      dup4\n        /* \"#utility.yul\":30046:30113   */\n      tag_433\n      jump\t// in\n    tag_764:\n        /* \"#utility.yul\":30039:30113   */\n      swap2\n      pop\n        /* \"#utility.yul\":30122:30215   */\n      tag_765\n        /* \"#utility.yul\":30211:30214   */\n      dup3\n        /* \"#utility.yul\":30122:30215   */\n      tag_501\n      jump\t// in\n    tag_765:\n        /* \"#utility.yul\":30240:30242   */\n      0x40\n        /* \"#utility.yul\":30235:30238   */\n      dup3\n        /* \"#utility.yul\":30231:30243   */\n      add\n        /* \"#utility.yul\":30224:30243   */\n      swap1\n      pop\n        /* \"#utility.yul\":29883:30249   */\n      swap2\n      swap1\n      pop\n      jump\t// out\n        /* \"#utility.yul\":30255:30674   */\n    tag_412:\n        /* \"#utility.yul\":30421:30425   */\n      0x00\n        /* \"#utility.yul\":30459:30461   */\n      0x20\n        /* \"#utility.yul\":30448:30457   */\n      dup3\n        /* \"#utility.yul\":30444:30462   */\n      add\n        /* \"#utility.yul\":30436:30462   */\n      swap1\n      pop\n        /* \"#utility.yul\":30508:30517   */\n      dup2\n        /* \"#utility.yul\":30502:30506   */\n      dup2\n        /* \"#utility.yul\":30498:30518   */\n      sub\n        /* \"#utility.yul\":30494:30495   */\n      0x00\n        /* \"#utility.yul\":30483:30492   */\n      dup4\n        /* \"#utility.yul\":30479:30496   */\n      add\n        /* \"#utility.yul\":30472:30519   */\n      mstore\n        /* \"#utility.yul\":30536:30667   */\n      tag_767\n        /* \"#utility.yul\":30662:30666   */\n      dup2\n        /* \"#utility.yul\":30536:30667   */\n      tag_502\n      jump\t// in\n    tag_767:\n        /* \"#utility.yul\":30528:30667   */\n      swap1\n      pop\n        /* \"#utility.yul\":30255:30674   */\n      swap2\n      swap1\n      pop\n      jump\t// out\n        /* \"#utility.yul\":30680:30902   */\n    tag_503:\n        /* \"#utility.yul\":30820:30854   */\n      0x45524332303a207472616e7366657220746f20746865207a65726f2061646472\n        /* \"#utility.yul\":30816:30817   */\n      0x00\n        /* \"#utility.yul\":30808:30814   */\n      dup3\n        /* \"#utility.yul\":30804:30818   */\n      add\n        /* \"#utility.yul\":30797:30855   */\n      mstore\n        /* \"#utility.yul\":30889:30894   */\n      0x6573730000000000000000000000000000000000000000000000000000000000\n        /* \"#utility.yul\":30884:30886   */\n      0x20\n        /* \"#utility.yul\":30876:30882   */\n      dup3\n        /* \"#utility.yul\":30872:30887   */\n      add\n        /* \"#utility.yul\":30865:30895   */\n      mstore\n        /* \"#utility.yul\":30680:30902   */\n      pop\n      jump\t// out\n        /* \"#utility.yul\":30908:31274   */\n    tag_504:\n        /* \"#utility.yul\":31050:31053   */\n      0x00\n        /* \"#utility.yul\":31071:31138   */\n      tag_770\n        /* \"#utility.yul\":31135:31137   */\n      0x23\n        /* \"#utility.yul\":31130:31133   */\n      dup4\n        /* \"#utility.yul\":31071:31138   */\n      tag_433\n      jump\t// in\n    tag_770:\n        /* \"#utility.yul\":31064:31138   */\n      swap2\n      pop\n        /* \"#utility.yul\":31147:31240   */\n      tag_771\n        /* \"#utility.yul\":31236:31239   */\n      dup3\n        /* \"#utility.yul\":31147:31240   */\n      tag_503\n      jump\t// in\n    tag_771:\n        /* \"#utility.yul\":31265:31267   */\n      0x40\n        /* \"#utility.yul\":31260:31263   */\n      dup3\n        /* \"#utility.yul\":31256:31268   */\n      add\n        /* \"#utility.yul\":31249:31268   */\n      swap1\n      pop\n        /* \"#utility.yul\":30908:31274   */\n      swap2\n      swap1\n      pop\n      jump\t// out\n        /* \"#utility.yul\":31280:31699   */\n    tag_415:\n        /* \"#utility.yul\":31446:31450   */\n      0x00\n        /* \"#utility.yul\":31484:31486   */\n      0x20\n        /* \"#utility.yul\":31473:31482   */\n      dup3\n        /* \"#utility.yul\":31469:31487   */\n      add\n        /* \"#utility.yul\":31461:31487   */\n      swap1\n      pop\n        /* \"#utility.yul\":31533:31542   */\n      dup2\n        /* \"#utility.yul\":31527:31531   */\n      dup2\n        /* \"#utility.yul\":31523:31543   */\n      sub\n        /* \"#utility.yul\":31519:31520   */\n      0x00\n        /* \"#utility.yul\":31508:31517   */\n      dup4\n        /* \"#utility.yul\":31504:31521   */\n      add\n        /* \"#utility.yul\":31497:31544   */\n      mstore\n        /* \"#utility.yul\":31561:31692   */\n      tag_773\n        /* \"#utility.yul\":31687:31691   */\n      dup2\n        /* \"#utility.yul\":31561:31692   */\n      tag_504\n      jump\t// in\n    tag_773:\n        /* \"#utility.yul\":31553:31692   */\n      swap1\n      pop\n        /* \"#utility.yul\":31280:31699   */\n      swap2\n      swap1\n      pop\n      jump\t// out\n        /* \"#utility.yul\":31705:31930   */\n    tag_505:\n        /* \"#utility.yul\":31845:31879   */\n      0x45524332303a207472616e7366657220616d6f756e7420657863656564732062\n        /* \"#utility.yul\":31841:31842   */\n      0x00\n        /* \"#utility.yul\":31833:31839   */\n      dup3\n        /* \"#utility.yul\":31829:31843   */\n      add\n        /* \"#utility.yul\":31822:31880   */\n      mstore\n        /* \"#utility.yul\":31914:31922   */\n      0x616c616e63650000000000000000000000000000000000000000000000000000\n        /* \"#utility.yul\":31909:31911   */\n      0x20\n        /* \"#utility.yul\":31901:31907   */\n      dup3\n        /* \"#utility.yul\":31897:31912   */\n      add\n        /* \"#utility.yul\":31890:31923   */\n      mstore\n        /* \"#utility.yul\":31705:31930   */\n      pop\n      jump\t// out\n        /* \"#utility.yul\":31936:32302   */\n    tag_506:\n        /* \"#utility.yul\":32078:32081   */\n      0x00\n        /* \"#utility.yul\":32099:32166   */\n      tag_776\n        /* \"#utility.yul\":32163:32165   */\n      0x26\n        /* \"#utility.yul\":32158:32161   */\n      dup4\n        /* \"#utility.yul\":32099:32166   */\n      tag_433\n      jump\t// in\n    tag_776:\n        /* \"#utility.yul\":32092:32166   */\n      swap2\n      pop\n        /* \"#utility.yul\":32175:32268   */\n      tag_777\n        /* \"#utility.yul\":32264:32267   */\n      dup3\n        /* \"#utility.yul\":32175:32268   */\n      tag_505\n      jump\t// in\n    tag_777:\n        /* \"#utility.yul\":32293:32295   */\n      0x40\n        /* \"#utility.yul\":32288:32291   */\n      dup3\n        /* \"#utility.yul\":32284:32296   */\n      add\n        /* \"#utility.yul\":32277:32296   */\n      swap1\n      pop\n        /* \"#utility.yul\":31936:32302   */\n      swap2\n      swap1\n      pop\n      jump\t// out\n        /* \"#utility.yul\":32308:32727   */\n    tag_419:\n        /* \"#utility.yul\":32474:32478   */\n      0x00\n        /* \"#utility.yul\":32512:32514   */\n      0x20\n        /* \"#utility.yul\":32501:32510   */\n      dup3\n        /* \"#utility.yul\":32497:32515   */\n      add\n        /* \"#utility.yul\":32489:32515   */\n      swap1\n      pop\n        /* \"#utility.yul\":32561:32570   */\n      dup2\n        /* \"#utility.yul\":32555:32559   */\n      dup2\n        /* \"#utility.yul\":32551:32571   */\n      sub\n        /* \"#utility.yul\":32547:32548   */\n      0x00\n        /* \"#utility.yul\":32536:32545   */\n      dup4\n        /* \"#utility.yul\":32532:32549   */\n      add\n        /* \"#utility.yul\":32525:32572   */\n      mstore\n        /* \"#utility.yul\":32589:32720   */\n      tag_779\n        /* \"#utility.yul\":32715:32719   */\n      dup2\n        /* \"#utility.yul\":32589:32720   */\n      tag_506\n      jump\t// in\n    tag_779:\n        /* \"#utility.yul\":32581:32720   */\n      swap1\n      pop\n        /* \"#utility.yul\":32308:32727   */\n      swap2\n      swap1\n      pop\n      jump\t// out\n        /* \"#utility.yul\":32733:32914   */\n    tag_507:\n        /* \"#utility.yul\":32873:32906   */\n      0x45524332303a206d696e7420746f20746865207a65726f206164647265737300\n        /* \"#utility.yul\":32869:32870   */\n      0x00\n        /* \"#utility.yul\":32861:32867   */\n      dup3\n        /* \"#utility.yul\":32857:32871   */\n      add\n        /* \"#utility.yul\":32850:32907   */\n      mstore\n        /* \"#utility.yul\":32733:32914   */\n      pop\n      jump\t// out\n        /* \"#utility.yul\":32920:33286   */\n    tag_508:\n        /* \"#utility.yul\":33062:33065   */\n      0x00\n        /* \"#utility.yul\":33083:33150   */\n      tag_782\n        /* \"#utility.yul\":33147:33149   */\n      0x1f\n        /* \"#utility.yul\":33142:33145   */\n      dup4\n        /* \"#utility.yul\":33083:33150   */\n      tag_433\n      jump\t// in\n    tag_782:\n        /* \"#utility.yul\":33076:33150   */\n      swap2\n      pop\n        /* \"#utility.yul\":33159:33252   */\n      tag_783\n        /* \"#utility.yul\":33248:33251   */\n      dup3\n        /* \"#utility.yul\":33159:33252   */\n      tag_507\n      jump\t// in\n    tag_783:\n        /* \"#utility.yul\":33277:33279   */\n      0x20\n        /* \"#utility.yul\":33272:33275   */\n      dup3\n        /* \"#utility.yul\":33268:33280   */\n      add\n        /* \"#utility.yul\":33261:33280   */\n      swap1\n      pop\n        /* \"#utility.yul\":32920:33286   */\n      swap2\n      swap1\n      pop\n      jump\t// out\n        /* \"#utility.yul\":33292:33711   */\n    tag_425:\n        /* \"#utility.yul\":33458:33462   */\n      0x00\n        /* \"#utility.yul\":33496:33498   */\n      0x20\n        /* \"#utility.yul\":33485:33494   */\n      dup3\n        /* \"#utility.yul\":33481:33499   */\n      add\n        /* \"#utility.yul\":33473:33499   */\n      swap1\n      pop\n        /* \"#utility.yul\":33545:33554   */\n      dup2\n        /* \"#utility.yul\":33539:33543   */\n      dup2\n        /* \"#utility.yul\":33535:33555   */\n      sub\n        /* \"#utility.yul\":33531:33532   */\n      0x00\n        /* \"#utility.yul\":33520:33529   */\n      dup4\n        /* \"#utility.yul\":33516:33533   */\n      add\n        /* \"#utility.yul\":33509:33556   */\n      mstore\n        /* \"#utility.yul\":33573:33704   */\n      tag_785\n        /* \"#utility.yul\":33699:33703   */\n      dup2\n        /* \"#utility.yul\":33573:33704   */\n      tag_508\n      jump\t// in\n    tag_785:\n        /* \"#utility.yul\":33565:33704   */\n      swap1\n      pop\n        /* \"#utility.yul\":33292:33711   */\n      swap2\n      swap1\n      pop\n      jump\t// out\n\n    auxdata: 0xa264697066735822122036834e85dabeb5b9f76573df14633a424305bc37239d7a1094861a56bd62e51864736f6c63430008130033\n}\n",
				"bytecode": {
					"linkReferences": {},
					"object": "60806040523480156200001157600080fd5b5060405162003bab38038062003bab83398181016040528101906200003791906200017b565b6040518060400160405280600e81526020017f4c6971756964697479546f6b656e0000000000000000000000000000000000008152506040518060400160405280600381526020017f4c515400000000000000000000000000000000000000000000000000000000008152508160039081620000b4919062000427565b508060049081620000c6919062000427565b50505080600560006101000a81548173ffffffffffffffffffffffffffffffffffffffff021916908373ffffffffffffffffffffffffffffffffffffffff160217905550506200050e565b600080fd5b600073ffffffffffffffffffffffffffffffffffffffff82169050919050565b6000620001438262000116565b9050919050565b620001558162000136565b81146200016157600080fd5b50565b60008151905062000175816200014a565b92915050565b60006020828403121562000194576200019362000111565b5b6000620001a48482850162000164565b91505092915050565b600081519050919050565b7f4e487b7100000000000000000000000000000000000000000000000000000000600052604160045260246000fd5b7f4e487b7100000000000000000000000000000000000000000000000000000000600052602260045260246000fd5b600060028204905060018216806200022f57607f821691505b602082108103620002455762000244620001e7565b5b50919050565b60008190508160005260206000209050919050565b60006020601f8301049050919050565b600082821b905092915050565b600060088302620002af7fffffffffffffffffffffffffffffffffffffffffffffffffffffffffffffffff8262000270565b620002bb868362000270565b95508019841693508086168417925050509392505050565b6000819050919050565b6000819050919050565b60006200030862000302620002fc84620002d3565b620002dd565b620002d3565b9050919050565b6000819050919050565b6200032483620002e7565b6200033c62000333826200030f565b8484546200027d565b825550505050565b600090565b6200035362000344565b6200036081848462000319565b505050565b5b8181101562000388576200037c60008262000349565b60018101905062000366565b5050565b601f821115620003d757620003a1816200024b565b620003ac8462000260565b81016020851015620003bc578190505b620003d4620003cb8562000260565b83018262000365565b50505b505050565b600082821c905092915050565b6000620003fc60001984600802620003dc565b1980831691505092915050565b6000620004178383620003e9565b9150826002028217905092915050565b6200043282620001ad565b67ffffffffffffffff8111156200044e576200044d620001b8565b5b6200045a825462000216565b620004678282856200038c565b600060209050601f8311600181146200049f57600084156200048a578287015190505b62000496858262000409565b86555062000506565b601f198416620004af866200024b565b60005b82811015620004d957848901518255600182019150602085019450602081019050620004b2565b86831015620004f95784890151620004f5601f891682620003e9565b8355505b6001600288020188555050505b505050505050565b61368d806200051e6000396000f3fe6080604052600436106101355760003560e01c8063903875f7116100ab578063c8ab83251161006f578063c8ab832514610492578063dd62ed3e146104cf578063e0ba20001461050c578063eb521a4c14610537578063ed7bf86814610567578063fc0c546a146105a457610135565b8063903875f71461038557806395d89b41146103c2578063a457c2d7146103ed578063a9059cbb1461042a578063b4f40c611461046757610135565b8063240f3dea116100fd578063240f3dea1461024857806329cbab3e14610285578063313ce567146102a357806339509351146102ce57806370a082311461030b57806379ed35621461034857610135565b806306fdde031461013a578063095ea7b3146101655780630a861f2a146101a257806318160ddd146101e057806323b872dd1461020b575b600080fd5b34801561014657600080fd5b5061014f6105cf565b60405161015c91906125ee565b60405180910390f35b34801561017157600080fd5b5061018c600480360381019061018791906126a9565b610661565b6040516101999190612704565b60405180910390f35b3480156101ae57600080fd5b506101c960048036038101906101c4919061271f565b610684565b6040516101d792919061275b565b60405180910390f35b3480156101ec57600080fd5b506101f5610a89565b6040516102029190612784565b60405180910390f35b34801561021757600080fd5b50610232600480360381019061022d919061279f565b610a93565b60405161023f9190612704565b60405180910390f35b34801561025457600080fd5b5061026f600480360381019061026a919061271f565b610ac2565b60405161027c9190612784565b60405180910390f35b61028d610bd7565b60405161029a9190612784565b60405180910390f35b3480156102af57600080fd5b506102b8610f58565b6040516102c5919061280e565b60405180910390f35b3480156102da57600080fd5b506102f560048036038101906102f091906126a9565b610f61565b6040516103029190612704565b60405180910390f35b34801561031757600080fd5b50610332600480360381019061032d9190612829565b610f98565b60405161033f9190612784565b60405180910390f35b34801561035457600080fd5b5061036f600480360381019061036a919061271f565b610fe0565b60405161037c9190612784565b60405180910390f35b34801561039157600080fd5b506103ac60048036038101906103a7919061271f565b611150565b6040516103b99190612784565b60405180910390f35b3480156103ce57600080fd5b506103d76112c0565b6040516103e491906125ee565b60405180910390f35b3480156103f957600080fd5b50610414600480360381019061040f91906126a9565b611352565b6040516104219190612704565b60405180910390f35b34801561043657600080fd5b50610451600480360381019061044c91906126a9565b6113c9565b60405161045e9190612704565b60405180910390f35b34801561047357600080fd5b5061047c6113ec565b6040516104899190612784565b60405180910390f35b34801561049e57600080fd5b506104b960048036038101906104b4919061271f565b6113f2565b6040516104c69190612784565b60405180910390f35b3480156104db57600080fd5b506104f660048036038101906104f19190612856565b611819565b6040516105039190612784565b60405180910390f35b34801561051857600080fd5b506105216118a0565b60405161052e9190612784565b60405180910390f35b610551600480360381019061054c919061271f565b6118b0565b60405161055e9190612784565b60405180910390f35b34801561057357600080fd5b5061058e6004803603810190610589919061271f565b611c23565b60405161059b9190612784565b60405180910390f35b3480156105b057600080fd5b506105b9611d38565b6040516105c691906128f5565b60405180910390f35b6060600380546105de9061293f565b80601f016020809104026020016040519081016040528092919081815260200182805461060a9061293f565b80156106575780601f1061062c57610100808354040283529160200191610657565b820191906000526020600020905b81548152906001019060200180831161063a57829003601f168201915b5050505050905090565b60008061066c611d5e565b9050610679818585611d66565b600191505092915050565b60008060008311801561069e575061069b33610f98565b83105b6106dd576040517f08c379a00000000000000000000000000000000000000000000000000000000081526004016106d4906129bc565b60405180910390fd5b60006106e7610a89565b90506000811161072c576040517f08c379a000000000000000000000000000000000000000000000000000000000815260040161072390612a28565b60405180910390fd5b60004790506000600560009054906101000a900473ffffffffffffffffffffffffffffffffffffffff1673ffffffffffffffffffffffffffffffffffffffff166370a08231306040518263ffffffff1660e01b815260040161078e9190612a57565b602060405180830381865afa1580156107ab573d6000803e3d6000fd5b505050506040513d601f19601f820116820180604052508101906107cf9190612a87565b90508286836107de9190612ae3565b6107e89190612b54565b93508286826107f79190612ae3565b6108019190612b54565b945061080d3387611f2f565b60003373ffffffffffffffffffffffffffffffffffffffff168560405161083390612bb6565b60006040518083038185875af1925050503d8060008114610870576040519150601f19603f3d011682016040523d82523d6000602084013e610875565b606091505b50509050806108b9576040517f08c379a00000000000000000000000000000000000000000000000000000000081526004016108b090612c17565b60405180910390fd5b600560009054906101000a900473ffffffffffffffffffffffffffffffffffffffff1673ffffffffffffffffffffffffffffffffffffffff1663a9059cbb33886040518363ffffffff1660e01b8152600401610916929190612c37565b6020604051808303816000875af1158015610935573d6000803e3d6000fd5b505050506040513d601f19601f820116820180604052508101906109599190612c8c565b610998576040517f08c379a000000000000000000000000000000000000000000000000000000000815260040161098f90612d05565b60405180910390fd5b600560009054906101000a900473ffffffffffffffffffffffffffffffffffffffff1673ffffffffffffffffffffffffffffffffffffffff166370a08231306040518263ffffffff1660e01b81526004016109f39190612a57565b602060405180830381865afa158015610a10573d6000803e3d6000fd5b505050506040513d601f19601f82011682018060405250810190610a349190612a87565b47610a3f9190612ae3565b6006819055507fb14f451e613015c13a17c78777f1d87fcb448d7330d67299a09b8f2db38aab10868689604051610a7893929190612d25565b60405180910390a150505050915091565b6000600254905090565b600080610a9e611d5e565b9050610aab8582856120fc565b610ab6858585612188565b60019150509392505050565b6000804790506000600560009054906101000a900473ffffffffffffffffffffffffffffffffffffffff1673ffffffffffffffffffffffffffffffffffffffff166370a08231306040518263ffffffff1660e01b8152600401610b259190612a57565b602060405180830381865afa158015610b42573d6000803e3d6000fd5b505050506040513d601f19601f82011682018060405250810190610b669190612a87565b9050600081118015610b785750600082115b610bb7576040517f08c379a0000000000000000000000000000000000000000000000000000000008152600401610bae90612da8565b60405180910390fd5b808483610bc49190612ae3565b610bce9190612b54565b92505050919050565b6000803411610c1b576040517f08c379a0000000000000000000000000000000000000000000000000000000008152600401610c1290612e14565b60405180910390fd5b60003447610c299190612e34565b90506000600560009054906101000a900473ffffffffffffffffffffffffffffffffffffffff1673ffffffffffffffffffffffffffffffffffffffff166370a08231306040518263ffffffff1660e01b8152600401610c889190612a57565b602060405180830381865afa158015610ca5573d6000803e3d6000fd5b505050506040513d601f19601f82011682018060405250810190610cc99190612a87565b9050600082118015610cdb5750600081115b610d1a576040517f08c379a0000000000000000000000000000000000000000000000000000000008152600401610d1190612da8565b60405180910390fd5b60003483610d289190612e68565b9050600081600654610d3a9190612b54565b9050808311610d7e576040517f08c379a0000000000000000000000000000000000000000000000000000000008152600401610d7590612ee8565b60405180910390fd5b8083610d8a9190612e34565b9450600560009054906101000a900473ffffffffffffffffffffffffffffffffffffffff1673ffffffffffffffffffffffffffffffffffffffff1663a9059cbb33876040518363ffffffff1660e01b8152600401610de9929190612c37565b6020604051808303816000875af1158015610e08573d6000803e3d6000fd5b505050506040513d601f19601f82011682018060405250810190610e2c9190612c8c565b610e6b576040517f08c379a0000000000000000000000000000000000000000000000000000000008152600401610e6290612d05565b60405180910390fd5b600560009054906101000a900473ffffffffffffffffffffffffffffffffffffffff1673ffffffffffffffffffffffffffffffffffffffff166370a08231306040518263ffffffff1660e01b8152600401610ec69190612a57565b602060405180830381865afa158015610ee3573d6000803e3d6000fd5b505050506040513d601f19601f82011682018060405250810190610f079190612a87565b47610f129190612ae3565b6006819055507fcdfc57b3d0cdc24b23cea1f480aabea287321f5bee23ad76c2b52fa7982f5ea58534604051610f4992919061275b565b60405180910390a15050505090565b60006012905090565b600080610f6c611d5e565b9050610f8d818585610f7e8589611819565b610f889190612e68565b611d66565b600191505092915050565b60008060008373ffffffffffffffffffffffffffffffffffffffff1673ffffffffffffffffffffffffffffffffffffffff168152602001908152602001600020549050919050565b6000804790506000600560009054906101000a900473ffffffffffffffffffffffffffffffffffffffff1673ffffffffffffffffffffffffffffffffffffffff166370a08231306040518263ffffffff1660e01b81526004016110439190612a57565b602060405180830381865afa158015611060573d6000803e3d6000fd5b505050506040513d601f19601f820116820180604052508101906110849190612a87565b90506000821180156110965750600081115b6110d5576040517f08c379a00000000000000000000000000000000000000000000000000000000081526004016110cc90612da8565b60405180910390fd5b600084836110e39190612e68565b90506000816006546110f59190612b54565b9050808311611139576040517f08c379a000000000000000000000000000000000000000000000000000000000815260040161113090612ee8565b60405180910390fd5b80836111459190612e34565b945050505050919050565b6000804790506000600560009054906101000a900473ffffffffffffffffffffffffffffffffffffffff1673ffffffffffffffffffffffffffffffffffffffff166370a08231306040518263ffffffff1660e01b81526004016111b39190612a57565b602060405180830381865afa1580156111d0573d6000803e3d6000fd5b505050506040513d601f19601f820116820180604052508101906111f49190612a87565b90506000821180156112065750600081115b611245576040517f08c379a000000000000000000000000000000000000000000000000000000000815260040161123c90612da8565b60405180910390fd5b600084826112539190612e68565b90506000816006546112659190612b54565b90508084116112a9576040517f08c379a00000000000000000000000000000000000000000000000000000000081526004016112a090612f54565b60405180910390fd5b80846112b59190612e34565b945050505050919050565b6060600480546112cf9061293f565b80601f01602080910402602001604051908101604052809291908181526020018280546112fb9061293f565b80156113485780601f1061131d57610100808354040283529160200191611348565b820191906000526020600020905b81548152906001019060200180831161132b57829003601f168201915b5050505050905090565b60008061135d611d5e565b9050600061136b8286611819565b9050838110156113b0576040517f08c379a00000000000000000000000000000000000000000000000000000000081526004016113a790612fe6565b60405180910390fd5b6113bd8286868403611d66565b60019250505092915050565b6000806113d4611d5e565b90506113e1818585612188565b600191505092915050565b60065481565b6000808211611436576040517f08c379a000000000000000000000000000000000000000000000000000000000815260040161142d90613052565b60405180910390fd5b60004790506000600560009054906101000a900473ffffffffffffffffffffffffffffffffffffffff1673ffffffffffffffffffffffffffffffffffffffff166370a08231306040518263ffffffff1660e01b81526004016114989190612a57565b602060405180830381865afa1580156114b5573d6000803e3d6000fd5b505050506040513d601f19601f820116820180604052508101906114d99190612a87565b90506000821180156114eb5750600081115b61152a576040517f08c379a000000000000000000000000000000000000000000000000000000000815260040161152190612da8565b60405180910390fd5b600084826115389190612e68565b905060008160065461154a9190612b54565b905080841161158e576040517f08c379a000000000000000000000000000000000000000000000000000000000815260040161158590612f54565b60405180910390fd5b808461159a9190612e34565b9450600560009054906101000a900473ffffffffffffffffffffffffffffffffffffffff1673ffffffffffffffffffffffffffffffffffffffff166323b872dd3330896040518463ffffffff1660e01b81526004016115fb93929190613072565b6020604051808303816000875af115801561161a573d6000803e3d6000fd5b505050506040513d601f19601f8201168201806040525081019061163e9190612c8c565b61167d576040517f08c379a000000000000000000000000000000000000000000000000000000000815260040161167490612d05565b60405180910390fd5b60003373ffffffffffffffffffffffffffffffffffffffff16866040516116a390612bb6565b60006040518083038185875af1925050503d80600081146116e0576040519150601f19603f3d011682016040523d82523d6000602084013e6116e5565b606091505b5050905080611729576040517f08c379a000000000000000000000000000000000000000000000000000000000815260040161172090612c17565b60405180910390fd5b600560009054906101000a900473ffffffffffffffffffffffffffffffffffffffff1673ffffffffffffffffffffffffffffffffffffffff166370a08231306040518263ffffffff1660e01b81526004016117849190612a57565b602060405180830381865afa1580156117a1573d6000803e3d6000fd5b505050506040513d601f19601f820116820180604052508101906117c59190612a87565b476117d09190612ae3565b6006819055507f3297a389bb586920e62a196af529d5f42651b17a1013d6bfe77f22372a0b2112878760405161180792919061275b565b60405180910390a15050505050919050565b6000600160008473ffffffffffffffffffffffffffffffffffffffff1673ffffffffffffffffffffffffffffffffffffffff16815260200190815260200160002060008373ffffffffffffffffffffffffffffffffffffffff1673ffffffffffffffffffffffffffffffffffffffff16815260200190815260200160002054905092915050565b60006118ab33610f98565b905090565b600080821180156118c15750600034115b611900576040517f08c379a00000000000000000000000000000000000000000000000000000000081526004016118f7906130f5565b60405180910390fd5b6000344761190e9190612e34565b90506000600560009054906101000a900473ffffffffffffffffffffffffffffffffffffffff1673ffffffffffffffffffffffffffffffffffffffff166370a08231306040518263ffffffff1660e01b815260040161196d9190612a57565b602060405180830381865afa15801561198a573d6000803e3d6000fd5b505050506040513d601f19601f820116820180604052508101906119ae9190612a87565b905060006119ba610a89565b036119d05768056bc75e2d631000009250611a49565b34816119dc9190612ae3565b84836119e89190612ae3565b14611a28576040517f08c379a0000000000000000000000000000000000000000000000000000000008152600401611a1f90613161565b60405180910390fd5b8084611a32610a89565b611a3c9190612ae3565b611a469190612b54565b92505b600560009054906101000a900473ffffffffffffffffffffffffffffffffffffffff1673ffffffffffffffffffffffffffffffffffffffff166323b872dd3330876040518463ffffffff1660e01b8152600401611aa893929190613072565b6020604051808303816000875af1158015611ac7573d6000803e3d6000fd5b505050506040513d601f19601f82011682018060405250810190611aeb9190612c8c565b611b2a576040517f08c379a0000000000000000000000000000000000000000000000000000000008152600401611b2190612d05565b60405180910390fd5b611b3433846123fe565b600560009054906101000a900473ffffffffffffffffffffffffffffffffffffffff1673ffffffffffffffffffffffffffffffffffffffff166370a08231306040518263ffffffff1660e01b8152600401611b8f9190612a57565b602060405180830381865afa158015611bac573d6000803e3d6000fd5b505050506040513d601f19601f82011682018060405250810190611bd09190612a87565b47611bdb9190612ae3565b6006819055507faa58f006cc244b2af6662862508bd39465f57169ff8386d1d1f7b0b903150abc843485604051611c1493929190612d25565b60405180910390a15050919050565b6000804790506000600560009054906101000a900473ffffffffffffffffffffffffffffffffffffffff1673ffffffffffffffffffffffffffffffffffffffff166370a08231306040518263ffffffff1660e01b8152600401611c869190612a57565b602060405180830381865afa158015611ca3573d6000803e3d6000fd5b505050506040513d601f19601f82011682018060405250810190611cc79190612a87565b9050600081118015611cd95750600082115b611d18576040517f08c379a0000000000000000000000000000000000000000000000000000000008152600401611d0f90612da8565b60405180910390fd5b818482611d259190612ae3565b611d2f9190612b54565b92505050919050565b600560009054906101000a900473ffffffffffffffffffffffffffffffffffffffff1681565b600033905090565b600073ffffffffffffffffffffffffffffffffffffffff168373ffffffffffffffffffffffffffffffffffffffff1603611dd5576040517f08c379a0000000000000000000000000000000000000000000000000000000008152600401611dcc906131f3565b60405180910390fd5b600073ffffffffffffffffffffffffffffffffffffffff168273ffffffffffffffffffffffffffffffffffffffff1603611e44576040517f08c379a0000000000000000000000000000000000000000000000000000000008152600401611e3b90613285565b60405180910390fd5b80600160008573ffffffffffffffffffffffffffffffffffffffff1673ffffffffffffffffffffffffffffffffffffffff16815260200190815260200160002060008473ffffffffffffffffffffffffffffffffffffffff1673ffffffffffffffffffffffffffffffffffffffff168152602001908152602001600020819055508173ffffffffffffffffffffffffffffffffffffffff168373ffffffffffffffffffffffffffffffffffffffff167f8c5be1e5ebec7d5bd14f71427d1e84f3dd0314c0f7b2291e5b200ac8c7c3b92583604051611f229190612784565b60405180910390a3505050565b600073ffffffffffffffffffffffffffffffffffffffff168273ffffffffffffffffffffffffffffffffffffffff1603611f9e576040517f08c379a0000000000000000000000000000000000000000000000000000000008152600401611f9590613317565b60405180910390fd5b611faa82600083612554565b60008060008473ffffffffffffffffffffffffffffffffffffffff1673ffffffffffffffffffffffffffffffffffffffff16815260200190815260200160002054905081811015612030576040517f08c379a0000000000000000000000000000000000000000000000000000000008152600401612027906133a9565b60405180910390fd5b8181036000808573ffffffffffffffffffffffffffffffffffffffff1673ffffffffffffffffffffffffffffffffffffffff1681526020019081526020016000208190555081600260008282540392505081905550600073ffffffffffffffffffffffffffffffffffffffff168373ffffffffffffffffffffffffffffffffffffffff167fddf252ad1be2c89b69c2b068fc378daa952ba7f163c4a11628f55a4df523b3ef846040516120e39190612784565b60405180910390a36120f783600084612559565b505050565b60006121088484611819565b90507fffffffffffffffffffffffffffffffffffffffffffffffffffffffffffffffff81146121825781811015612174576040517f08c379a000000000000000000000000000000000000000000000000000000000815260040161216b90613415565b60405180910390fd5b6121818484848403611d66565b5b50505050565b600073ffffffffffffffffffffffffffffffffffffffff168373ffffffffffffffffffffffffffffffffffffffff16036121f7576040517f08c379a00000000000000000000000000000000000000000000000000000000081526004016121ee906134a7565b60405180910390fd5b600073ffffffffffffffffffffffffffffffffffffffff168273ffffffffffffffffffffffffffffffffffffffff1603612266576040517f08c379a000000000000000000000000000000000000000000000000000000000815260040161225d90613539565b60405180910390fd5b612271838383612554565b60008060008573ffffffffffffffffffffffffffffffffffffffff1673ffffffffffffffffffffffffffffffffffffffff168152602001908152602001600020549050818110156122f7576040517f08c379a00000000000000000000000000000000000000000000000000000000081526004016122ee906135cb565b60405180910390fd5b8181036000808673ffffffffffffffffffffffffffffffffffffffff1673ffffffffffffffffffffffffffffffffffffffff16815260200190815260200160002081905550816000808573ffffffffffffffffffffffffffffffffffffffff1673ffffffffffffffffffffffffffffffffffffffff168152602001908152602001600020600082825401925050819055508273ffffffffffffffffffffffffffffffffffffffff168473ffffffffffffffffffffffffffffffffffffffff167fddf252ad1be2c89b69c2b068fc378daa952ba7f163c4a11628f55a4df523b3ef846040516123e59190612784565b60405180910390a36123f8848484612559565b50505050565b600073ffffffffffffffffffffffffffffffffffffffff168273ffffffffffffffffffffffffffffffffffffffff160361246d576040517f08c379a000000000000000000000000000000000000000000000000000000000815260040161246490613637565b60405180910390fd5b61247960008383612554565b806002600082825461248b9190612e68565b92505081905550806000808473ffffffffffffffffffffffffffffffffffffffff1673ffffffffffffffffffffffffffffffffffffffff168152602001908152602001600020600082825401925050819055508173ffffffffffffffffffffffffffffffffffffffff16600073ffffffffffffffffffffffffffffffffffffffff167fddf252ad1be2c89b69c2b068fc378daa952ba7f163c4a11628f55a4df523b3ef8360405161253c9190612784565b60405180910390a361255060008383612559565b5050565b505050565b505050565b600081519050919050565b600082825260208201905092915050565b60005b8381101561259857808201518184015260208101905061257d565b60008484015250505050565b6000601f19601f8301169050919050565b60006125c08261255e565b6125ca8185612569565b93506125da81856020860161257a565b6125e3816125a4565b840191505092915050565b6000602082019050818103600083015261260881846125b5565b905092915050565b600080fd5b600073ffffffffffffffffffffffffffffffffffffffff82169050919050565b600061264082612615565b9050919050565b61265081612635565b811461265b57600080fd5b50565b60008135905061266d81612647565b92915050565b6000819050919050565b61268681612673565b811461269157600080fd5b50565b6000813590506126a38161267d565b92915050565b600080604083850312156126c0576126bf612610565b5b60006126ce8582860161265e565b92505060206126df85828601612694565b9150509250929050565b60008115159050919050565b6126fe816126e9565b82525050565b600060208201905061271960008301846126f5565b92915050565b60006020828403121561273557612734612610565b5b600061274384828501612694565b91505092915050565b61275581612673565b82525050565b6000604082019050612770600083018561274c565b61277d602083018461274c565b9392505050565b6000602082019050612799600083018461274c565b92915050565b6000806000606084860312156127b8576127b7612610565b5b60006127c68682870161265e565b93505060206127d78682870161265e565b92505060406127e886828701612694565b9150509250925092565b600060ff82169050919050565b612808816127f2565b82525050565b600060208201905061282360008301846127ff565b92915050565b60006020828403121561283f5761283e612610565b5b600061284d8482850161265e565b91505092915050565b6000806040838503121561286d5761286c612610565b5b600061287b8582860161265e565b925050602061288c8582860161265e565b9150509250929050565b6000819050919050565b60006128bb6128b66128b184612615565b612896565b612615565b9050919050565b60006128cd826128a0565b9050919050565b60006128df826128c2565b9050919050565b6128ef816128d4565b82525050565b600060208201905061290a60008301846128e6565b92915050565b7f4e487b7100000000000000000000000000000000000000000000000000000000600052602260045260246000fd5b6000600282049050600182168061295757607f821691505b60208210810361296a57612969612910565b5b50919050565b7f496e76616c6964204c50206275726e0000000000000000000000000000000000600082015250565b60006129a6600f83612569565b91506129b182612970565b602082019050919050565b600060208201905081810360008301526129d581612999565b9050919050565b7f456d70747920706f6f6c00000000000000000000000000000000000000000000600082015250565b6000612a12600a83612569565b9150612a1d826129dc565b602082019050919050565b60006020820190508181036000830152612a4181612a05565b9050919050565b612a5181612635565b82525050565b6000602082019050612a6c6000830184612a48565b92915050565b600081519050612a818161267d565b92915050565b600060208284031215612a9d57612a9c612610565b5b6000612aab84828501612a72565b91505092915050565b7f4e487b7100000000000000000000000000000000000000000000000000000000600052601160045260246000fd5b6000612aee82612673565b9150612af983612673565b9250828202612b0781612673565b91508282048414831517612b1e57612b1d612ab4565b5b5092915050565b7f4e487b7100000000000000000000000000000000000000000000000000000000600052601260045260246000fd5b6000612b5f82612673565b9150612b6a83612673565b925082612b7a57612b79612b25565b5b828204905092915050565b600081905092915050565b50565b6000612ba0600083612b85565b9150612bab82612b90565b600082019050919050565b6000612bc182612b93565b9150819050919050565b7f455448207472616e73666572206661696c656400000000000000000000000000600082015250565b6000612c01601383612569565b9150612c0c82612bcb565b602082019050919050565b60006020820190508181036000830152612c3081612bf4565b9050919050565b6000604082019050612c4c6000830185612a48565b612c59602083018461274c565b9392505050565b612c69816126e9565b8114612c7457600080fd5b50565b600081519050612c8681612c60565b92915050565b600060208284031215612ca257612ca1612610565b5b6000612cb084828501612c77565b91505092915050565b7f546f6b656e207472616e73666572206661696c65640000000000000000000000600082015250565b6000612cef601583612569565b9150612cfa82612cb9565b602082019050919050565b60006020820190508181036000830152612d1e81612ce2565b9050919050565b6000606082019050612d3a600083018661274c565b612d47602083018561274c565b612d54604083018461274c565b949350505050565b7f506f6f6c20656d70747900000000000000000000000000000000000000000000600082015250565b6000612d92600a83612569565b9150612d9d82612d5c565b602082019050919050565b60006020820190508181036000830152612dc181612d85565b9050919050565b7f496e76616c696420455448000000000000000000000000000000000000000000600082015250565b6000612dfe600b83612569565b9150612e0982612dc8565b602082019050919050565b60006020820190508181036000830152612e2d81612df1565b9050919050565b6000612e3f82612673565b9150612e4a83612673565b9250828203905081811115612e6257612e61612ab4565b5b92915050565b6000612e7382612673565b9150612e7e83612673565b9250828201905080821115612e9657612e95612ab4565b5b92915050565b7f4e6f20746f6b656e206f75747075740000000000000000000000000000000000600082015250565b6000612ed2600f83612569565b9150612edd82612e9c565b602082019050919050565b60006020820190508181036000830152612f0181612ec5565b9050919050565b7f4e6f20455448206f757470757400000000000000000000000000000000000000600082015250565b6000612f3e600d83612569565b9150612f4982612f08565b602082019050919050565b60006020820190508181036000830152612f6d81612f31565b9050919050565b7f45524332303a2064656372656173656420616c6c6f77616e63652062656c6f7760008201527f207a65726f000000000000000000000000000000000000000000000000000000602082015250565b6000612fd0602583612569565b9150612fdb82612f74565b604082019050919050565b60006020820190508181036000830152612fff81612fc3565b9050919050565b7f496e76616c696420616d6f756e74000000000000000000000000000000000000600082015250565b600061303c600e83612569565b915061304782613006565b602082019050919050565b6000602082019050818103600083015261306b8161302f565b9050919050565b60006060820190506130876000830186612a48565b6130946020830185612a48565b6130a1604083018461274c565b949350505050565b7f496e76616c696420616d6f756e74730000000000000000000000000000000000600082015250565b60006130df600f83612569565b91506130ea826130a9565b602082019050919050565b6000602082019050818103600083015261310e816130d2565b9050919050565b7f526174696f206d69736d61746368000000000000000000000000000000000000600082015250565b600061314b600e83612569565b915061315682613115565b602082019050919050565b6000602082019050818103600083015261317a8161313e565b9050919050565b7f45524332303a20617070726f76652066726f6d20746865207a65726f2061646460008201527f7265737300000000000000000000000000000000000000000000000000000000602082015250565b60006131dd602483612569565b91506131e882613181565b604082019050919050565b6000602082019050818103600083015261320c816131d0565b9050919050565b7f45524332303a20617070726f766520746f20746865207a65726f20616464726560008201527f7373000000000000000000000000000000000000000000000000000000000000602082015250565b600061326f602283612569565b915061327a82613213565b604082019050919050565b6000602082019050818103600083015261329e81613262565b9050919050565b7f45524332303a206275726e2066726f6d20746865207a65726f2061646472657360008201527f7300000000000000000000000000000000000000000000000000000000000000602082015250565b6000613301602183612569565b915061330c826132a5565b604082019050919050565b60006020820190508181036000830152613330816132f4565b9050919050565b7f45524332303a206275726e20616d6f756e7420657863656564732062616c616e60008201527f6365000000000000000000000000000000000000000000000000000000000000602082015250565b6000613393602283612569565b915061339e82613337565b604082019050919050565b600060208201905081810360008301526133c281613386565b9050919050565b7f45524332303a20696e73756666696369656e7420616c6c6f77616e6365000000600082015250565b60006133ff601d83612569565b915061340a826133c9565b602082019050919050565b6000602082019050818103600083015261342e816133f2565b9050919050565b7f45524332303a207472616e736665722066726f6d20746865207a65726f20616460008201527f6472657373000000000000000000000000000000000000000000000000000000602082015250565b6000613491602583612569565b915061349c82613435565b604082019050919050565b600060208201905081810360008301526134c081613484565b9050919050565b7f45524332303a207472616e7366657220746f20746865207a65726f206164647260008201527f6573730000000000000000000000000000000000000000000000000000000000602082015250565b6000613523602383612569565b915061352e826134c7565b604082019050919050565b6000602082019050818103600083015261355281613516565b9050919050565b7f45524332303a207472616e7366657220616d6f756e742065786365656473206260008201527f616c616e63650000000000000000000000000000000000000000000000000000602082015250565b60006135b5602683612569565b91506135c082613559565b604082019050919050565b600060208201905081810360008301526135e4816135a8565b9050919050565b7f45524332303a206d696e7420746f20746865207a65726f206164647265737300600082015250565b6000613621601f83612569565b915061362c826135eb565b602082019050919050565b6000602082019050818103600083015261365081613614565b905091905056fea264697066735822122036834e85dabeb5b9f76573df14633a424305bc37239d7a1094861a56bd62e51864736f6c63430008130033",
					"opcodes": "PUSH1 0x80 PUSH1 0x40 MSTORE CALLVALUE DUP1 ISZERO PUSH3 0x11 JUMPI PUSH1 0x0 DUP1 REVERT JUMPDEST POP PUSH1 0x40 MLOAD PUSH3 0x3BAB CODESIZE SUB DUP1 PUSH3 0x3BAB DUP4 CODECOPY DUP2 DUP2 ADD PUSH1 0x40 MSTORE DUP2 ADD SWAP1 PUSH3 0x37 SWAP2 SWAP1 PUSH3 0x17B JUMP JUMPDEST PUSH1 0x40 MLOAD DUP1 PUSH1 0x40 ADD PUSH1 0x40 MSTORE DUP1 PUSH1 0xE DUP2 MSTORE PUSH1 0x20 ADD PUSH32 0x4C6971756964697479546F6B656E000000000000000000000000000000000000 DUP2 MSTORE POP PUSH1 0x40 MLOAD DUP1 PUSH1 0x40 ADD PUSH1 0x40 MSTORE DUP1 PUSH1 0x3 DUP2 MSTORE PUSH1 0x20 ADD PUSH32 0x4C51540000000000000000000000000000000000000000000000000000000000 DUP2 MSTORE POP DUP2 PUSH1 0x3 SWAP1 DUP2 PUSH3 0xB4 SWAP2 SWAP1 PUSH3 0x427 JUMP JUMPDEST POP DUP1 PUSH1 0x4 SWAP1 DUP2 PUSH3 0xC6 SWAP2 SWAP1 PUSH3 0x427 JUMP JUMPDEST POP POP POP DUP1 PUSH1 0x5 PUSH1 0x0 PUSH2 0x100 EXP DUP2 SLOAD DUP2 PUSH20 0xFFFFFFFFFFFFFFFFFFFFFFFFFFFFFFFFFFFFFFFF MUL NOT AND SWAP1 DUP4 PUSH20 0xFFFFFFFFFFFFFFFFFFFFFFFFFFFFFFFFFFFFFFFF AND MUL OR SWAP1 SSTORE POP POP PUSH3 0x50E JUMP JUMPDEST PUSH1 0x0 DUP1 REVERT JUMPDEST PUSH1 0x0 PUSH20 0xFFFFFFFFFFFFFFFFFFFFFFFFFFFFFFFFFFFFFFFF DUP3 AND SWAP1 POP SWAP2 SWAP1 POP JUMP JUMPDEST PUSH1 0x0 PUSH3 0x143 DUP3 PUSH3 0x116 JUMP JUMPDEST SWAP1 POP SWAP2 SWAP1 POP JUMP JUMPDEST PUSH3 0x155 DUP2 PUSH3 0x136 JUMP JUMPDEST DUP2 EQ PUSH3 0x161 JUMPI PUSH1 0x0 DUP1 REVERT JUMPDEST POP JUMP JUMPDEST PUSH1 0x0 DUP2 MLOAD SWAP1 POP PUSH3 0x175 DUP2 PUSH3 0x14A JUMP JUMPDEST SWAP3 SWAP2 POP POP JUMP JUMPDEST PUSH1 0x0 PUSH1 0x20 DUP3 DUP5 SUB SLT ISZERO PUSH3 0x194 JUMPI PUSH3 0x193 PUSH3 0x111 JUMP JUMPDEST JUMPDEST PUSH1 0x0 PUSH3 0x1A4 DUP5 DUP3 DUP6 ADD PUSH3 0x164 JUMP JUMPDEST SWAP2 POP POP SWAP3 SWAP2 POP POP JUMP JUMPDEST PUSH1 0x0 DUP2 MLOAD SWAP1 POP SWAP2 SWAP1 POP JUMP JUMPDEST PUSH32 0x4E487B7100000000000000000000000000000000000000000000000000000000 PUSH1 0x0 MSTORE PUSH1 0x41 PUSH1 0x4 MSTORE PUSH1 0x24 PUSH1 0x0 REVERT JUMPDEST PUSH32 0x4E487B7100000000000000000000000000000000000000000000000000000000 PUSH1 0x0 MSTORE PUSH1 0x22 PUSH1 0x4 MSTORE PUSH1 0x24 PUSH1 0x0 REVERT JUMPDEST PUSH1 0x0 PUSH1 0x2 DUP3 DIV SWAP1 POP PUSH1 0x1 DUP3 AND DUP1 PUSH3 0x22F JUMPI PUSH1 0x7F DUP3 AND SWAP2 POP JUMPDEST PUSH1 0x20 DUP3 LT DUP2 SUB PUSH3 0x245 JUMPI PUSH3 0x244 PUSH3 0x1E7 JUMP JUMPDEST JUMPDEST POP SWAP2 SWAP1 POP JUMP JUMPDEST PUSH1 0x0 DUP2 SWAP1 POP DUP2 PUSH1 0x0 MSTORE PUSH1 0x20 PUSH1 0x0 KECCAK256 SWAP1 POP SWAP2 SWAP1 POP JUMP JUMPDEST PUSH1 0x0 PUSH1 0x20 PUSH1 0x1F DUP4 ADD DIV SWAP1 POP SWAP2 SWAP1 POP JUMP JUMPDEST PUSH1 0x0 DUP3 DUP3 SHL SWAP1 POP SWAP3 SWAP2 POP POP JUMP JUMPDEST PUSH1 0x0 PUSH1 0x8 DUP4 MUL PUSH3 0x2AF PUSH32 0xFFFFFFFFFFFFFFFFFFFFFFFFFFFFFFFFFFFFFFFFFFFFFFFFFFFFFFFFFFFFFFFF DUP3 PUSH3 0x270 JUMP JUMPDEST PUSH3 0x2BB DUP7 DUP4 PUSH3 0x270 JUMP JUMPDEST SWAP6 POP DUP1 NOT DUP5 AND SWAP4 POP DUP1 DUP7 AND DUP5 OR SWAP3 POP POP POP SWAP4 SWAP3 POP POP POP JUMP JUMPDEST PUSH1 0x0 DUP2 SWAP1 POP SWAP2 SWAP1 POP JUMP JUMPDEST PUSH1 0x0 DUP2 SWAP1 POP SWAP2 SWAP1 POP JUMP JUMPDEST PUSH1 0x0 PUSH3 0x308 PUSH3 0x302 PUSH3 0x2FC DUP5 PUSH3 0x2D3 JUMP JUMPDEST PUSH3 0x2DD JUMP JUMPDEST PUSH3 0x2D3 JUMP JUMPDEST SWAP1 POP SWAP2 SWAP1 POP JUMP JUMPDEST PUSH1 0x0 DUP2 SWAP1 POP SWAP2 SWAP1 POP JUMP JUMPDEST PUSH3 0x324 DUP4 PUSH3 0x2E7 JUMP JUMPDEST PUSH3 0x33C PUSH3 0x333 DUP3 PUSH3 0x30F JUMP JUMPDEST DUP5 DUP5 SLOAD PUSH3 0x27D JUMP JUMPDEST DUP3 SSTORE POP POP POP POP JUMP JUMPDEST PUSH1 0x0 SWAP1 JUMP JUMPDEST PUSH3 0x353 PUSH3 0x344 JUMP JUMPDEST PUSH3 0x360 DUP2 DUP5 DUP5 PUSH3 0x319 JUMP JUMPDEST POP POP POP JUMP JUMPDEST JUMPDEST DUP2 DUP2 LT ISZERO PUSH3 0x388 JUMPI PUSH3 0x37C PUSH1 0x0 DUP3 PUSH3 0x349 JUMP JUMPDEST PUSH1 0x1 DUP2 ADD SWAP1 POP PUSH3 0x366 JUMP JUMPDEST POP POP JUMP JUMPDEST PUSH1 0x1F DUP3 GT ISZERO PUSH3 0x3D7 JUMPI PUSH3 0x3A1 DUP2 PUSH3 0x24B JUMP JUMPDEST PUSH3 0x3AC DUP5 PUSH3 0x260 JUMP JUMPDEST DUP2 ADD PUSH1 0x20 DUP6 LT ISZERO PUSH3 0x3BC JUMPI DUP2 SWAP1 POP JUMPDEST PUSH3 0x3D4 PUSH3 0x3CB DUP6 PUSH3 0x260 JUMP JUMPDEST DUP4 ADD DUP3 PUSH3 0x365 JUMP JUMPDEST POP POP JUMPDEST POP POP POP JUMP JUMPDEST PUSH1 0x0 DUP3 DUP3 SHR SWAP1 POP SWAP3 SWAP2 POP POP JUMP JUMPDEST PUSH1 0x0 PUSH3 0x3FC PUSH1 0x0 NOT DUP5 PUSH1 0x8 MUL PUSH3 0x3DC JUMP JUMPDEST NOT DUP1 DUP4 AND SWAP2 POP POP SWAP3 SWAP2 POP POP JUMP JUMPDEST PUSH1 0x0 PUSH3 0x417 DUP4 DUP4 PUSH3 0x3E9 JUMP JUMPDEST SWAP2 POP DUP3 PUSH1 0x2 MUL DUP3 OR SWAP1 POP SWAP3 SWAP2 POP POP JUMP JUMPDEST PUSH3 0x432 DUP3 PUSH3 0x1AD JUMP JUMPDEST PUSH8 0xFFFFFFFFFFFFFFFF DUP2 GT ISZERO PUSH3 0x44E JUMPI PUSH3 0x44D PUSH3 0x1B8 JUMP JUMPDEST JUMPDEST PUSH3 0x45A DUP3 SLOAD PUSH3 0x216 JUMP JUMPDEST PUSH3 0x467 DUP3 DUP3 DUP6 PUSH3 0x38C JUMP JUMPDEST PUSH1 0x0 PUSH1 0x20 SWAP1 POP PUSH1 0x1F DUP4 GT PUSH1 0x1 DUP2 EQ PUSH3 0x49F JUMPI PUSH1 0x0 DUP5 ISZERO PUSH3 0x48A JUMPI DUP3 DUP8 ADD MLOAD SWAP1 POP JUMPDEST PUSH3 0x496 DUP6 DUP3 PUSH3 0x409 JUMP JUMPDEST DUP7 SSTORE POP PUSH3 0x506 JUMP JUMPDEST PUSH1 0x1F NOT DUP5 AND PUSH3 0x4AF DUP7 PUSH3 0x24B JUMP JUMPDEST PUSH1 0x0 JUMPDEST DUP3 DUP2 LT ISZERO PUSH3 0x4D9 JUMPI DUP5 DUP10 ADD MLOAD DUP3 SSTORE PUSH1 0x1 DUP3 ADD SWAP2 POP PUSH1 0x20 DUP6 ADD SWAP5 POP PUSH1 0x20 DUP2 ADD SWAP1 POP PUSH3 0x4B2 JUMP JUMPDEST DUP7 DUP4 LT ISZERO PUSH3 0x4F9 JUMPI DUP5 DUP10 ADD MLOAD PUSH3 0x4F5 PUSH1 0x1F DUP10 AND DUP3 PUSH3 0x3E9 JUMP JUMPDEST DUP4 SSTORE POP JUMPDEST PUSH1 0x1 PUSH1 0x2 DUP9 MUL ADD DUP9 SSTORE POP POP POP JUMPDEST POP POP POP POP POP POP JUMP JUMPDEST PUSH2 0x368D DUP1 PUSH3 0x51E PUSH1 0x0 CODECOPY PUSH1 0x0 RETURN INVALID PUSH1 0x80 PUSH1 0x40 MSTORE PUSH1 0x4 CALLDATASIZE LT PUSH2 0x135 JUMPI PUSH1 0x0 CALLDATALOAD PUSH1 0xE0 SHR DUP1 PUSH4 0x903875F7 GT PUSH2 0xAB JUMPI DUP1 PUSH4 0xC8AB8325 GT PUSH2 0x6F JUMPI DUP1 PUSH4 0xC8AB8325 EQ PUSH2 0x492 JUMPI DUP1 PUSH4 0xDD62ED3E EQ PUSH2 0x4CF JUMPI DUP1 PUSH4 0xE0BA2000 EQ PUSH2 0x50C JUMPI DUP1 PUSH4 0xEB521A4C EQ PUSH2 0x537 JUMPI DUP1 PUSH4 0xED7BF868 EQ PUSH2 0x567 JUMPI DUP1 PUSH4 0xFC0C546A EQ PUSH2 0x5A4 JUMPI PUSH2 0x135 JUMP JUMPDEST DUP1 PUSH4 0x903875F7 EQ PUSH2 0x385 JUMPI DUP1 PUSH4 0x95D89B41 EQ PUSH2 0x3C2 JUMPI DUP1 PUSH4 0xA457C2D7 EQ PUSH2 0x3ED JUMPI DUP1 PUSH4 0xA9059CBB EQ PUSH2 0x42A JUMPI DUP1 PUSH4 0xB4F40C61 EQ PUSH2 0x467 JUMPI PUSH2 0x135 JUMP JUMPDEST DUP1 PUSH4 0x240F3DEA GT PUSH2 0xFD JUMPI DUP1 PUSH4 0x240F3DEA EQ PUSH2 0x248 JUMPI DUP1 PUSH4 0x29CBAB3E EQ PUSH2 0x285 JUMPI DUP1 PUSH4 0x313CE567 EQ PUSH2 0x2A3 JUMPI DUP1 PUSH4 0x39509351 EQ PUSH2 0x2CE JUMPI DUP1 PUSH4 0x70A08231 EQ PUSH2 0x30B JUMPI DUP1 PUSH4 0x79ED3562 EQ PUSH2 0x348 JUMPI PUSH2 0x135 JUMP JUMPDEST DUP1 PUSH4 0x6FDDE03 EQ PUSH2 0x13A JUMPI DUP1 PUSH4 0x95EA7B3 EQ PUSH2 0x165 JUMPI DUP1 PUSH4 0xA861F2A EQ PUSH2 0x1A2 JUMPI DUP1 PUSH4 0x18160DDD EQ PUSH2 0x1E0 JUMPI DUP1 PUSH4 0x23B872DD EQ PUSH2 0x20B JUMPI JUMPDEST PUSH1 0x0 DUP1 REVERT JUMPDEST CALLVALUE DUP1 ISZERO PUSH2 0x146 JUMPI PUSH1 0x0 DUP1 REVERT JUMPDEST POP PUSH2 0x14F PUSH2 0x5CF JUMP JUMPDEST PUSH1 0x40 MLOAD PUSH2 0x15C SWAP2 SWAP1 PUSH2 0x25EE JUMP JUMPDEST PUSH1 0x40 MLOAD DUP1 SWAP2 SUB SWAP1 RETURN JUMPDEST CALLVALUE DUP1 ISZERO PUSH2 0x171 JUMPI PUSH1 0x0 DUP1 REVERT JUMPDEST POP PUSH2 0x18C PUSH1 0x4 DUP1 CALLDATASIZE SUB DUP2 ADD SWAP1 PUSH2 0x187 SWAP2 SWAP1 PUSH2 0x26A9 JUMP JUMPDEST PUSH2 0x661 JUMP JUMPDEST PUSH1 0x40 MLOAD PUSH2 0x199 SWAP2 SWAP1 PUSH2 0x2704 JUMP JUMPDEST PUSH1 0x40 MLOAD DUP1 SWAP2 SUB SWAP1 RETURN JUMPDEST CALLVALUE DUP1 ISZERO PUSH2 0x1AE JUMPI PUSH1 0x0 DUP1 REVERT JUMPDEST POP PUSH2 0x1C9 PUSH1 0x4 DUP1 CALLDATASIZE SUB DUP2 ADD SWAP1 PUSH2 0x1C4 SWAP2 SWAP1 PUSH2 0x271F JUMP JUMPDEST PUSH2 0x684 JUMP JUMPDEST PUSH1 0x40 MLOAD PUSH2 0x1D7 SWAP3 SWAP2 SWAP1 PUSH2 0x275B JUMP JUMPDEST PUSH1 0x40 MLOAD DUP1 SWAP2 SUB SWAP1 RETURN JUMPDEST CALLVALUE DUP1 ISZERO PUSH2 0x1EC JUMPI PUSH1 0x0 DUP1 REVERT JUMPDEST POP PUSH2 0x1F5 PUSH2 0xA89 JUMP JUMPDEST PUSH1 0x40 MLOAD PUSH2 0x202 SWAP2 SWAP1 PUSH2 0x2784 JUMP JUMPDEST PUSH1 0x40 MLOAD DUP1 SWAP2 SUB SWAP1 RETURN JUMPDEST CALLVALUE DUP1 ISZERO PUSH2 0x217 JUMPI PUSH1 0x0 DUP1 REVERT JUMPDEST POP PUSH2 0x232 PUSH1 0x4 DUP1 CALLDATASIZE SUB DUP2 ADD SWAP1 PUSH2 0x22D SWAP2 SWAP1 PUSH2 0x279F JUMP JUMPDEST PUSH2 0xA93 JUMP JUMPDEST PUSH1 0x40 MLOAD PUSH2 0x23F SWAP2 SWAP1 PUSH2 0x2704 JUMP JUMPDEST PUSH1 0x40 MLOAD DUP1 SWAP2 SUB SWAP1 RETURN JUMPDEST CALLVALUE DUP1 ISZERO PUSH2 0x254 JUMPI PUSH1 0x0 DUP1 REVERT JUMPDEST POP PUSH2 0x26F PUSH1 0x4 DUP1 CALLDATASIZE SUB DUP2 ADD SWAP1 PUSH2 0x26A SWAP2 SWAP1 PUSH2 0x271F JUMP JUMPDEST PUSH2 0xAC2 JUMP JUMPDEST PUSH1 0x40 MLOAD PUSH2 0x27C SWAP2 SWAP1 PUSH2 0x2784 JUMP JUMPDEST PUSH1 0x40 MLOAD DUP1 SWAP2 SUB SWAP1 RETURN JUMPDEST PUSH2 0x28D PUSH2 0xBD7 JUMP JUMPDEST PUSH1 0x40 MLOAD PUSH2 0x29A SWAP2 SWAP1 PUSH2 0x2784 JUMP JUMPDEST PUSH1 0x40 MLOAD DUP1 SWAP2 SUB SWAP1 RETURN JUMPDEST CALLVALUE DUP1 ISZERO PUSH2 0x2AF JUMPI PUSH1 0x0 DUP1 REVERT JUMPDEST POP PUSH2 0x2B8 PUSH2 0xF58 JUMP JUMPDEST PUSH1 0x40 MLOAD PUSH2 0x2C5 SWAP2 SWAP1 PUSH2 0x280E JUMP JUMPDEST PUSH1 0x40 MLOAD DUP1 SWAP2 SUB SWAP1 RETURN JUMPDEST CALLVALUE DUP1 ISZERO PUSH2 0x2DA JUMPI PUSH1 0x0 DUP1 REVERT JUMPDEST POP PUSH2 0x2F5 PUSH1 0x4 DUP1 CALLDATASIZE SUB DUP2 ADD SWAP1 PUSH2 0x2F0 SWAP2 SWAP1 PUSH2 0x26A9 JUMP JUMPDEST PUSH2 0xF61 JUMP JUMPDEST PUSH1 0x40 MLOAD PUSH2 0x302 SWAP2 SWAP1 PUSH2 0x2704 JUMP JUMPDEST PUSH1 0x40 MLOAD DUP1 SWAP2 SUB SWAP1 RETURN JUMPDEST CALLVALUE DUP1 ISZERO PUSH2 0x317 JUMPI PUSH1 0x0 DUP1 REVERT JUMPDEST POP PUSH2 0x332 PUSH1 0x4 DUP1 CALLDATASIZE SUB DUP2 ADD SWAP1 PUSH2 0x32D SWAP2 SWAP1 PUSH2 0x2829 JUMP JUMPDEST PUSH2 0xF98 JUMP JUMPDEST PUSH1 0x40 MLOAD PUSH2 0x33F SWAP2 SWAP1 PUSH2 0x2784 JUMP JUMPDEST PUSH1 0x40 MLOAD DUP1 SWAP2 SUB SWAP1 RETURN JUMPDEST CALLVALUE DUP1 ISZERO PUSH2 0x354 JUMPI PUSH1 0x0 DUP1 REVERT JUMPDEST POP PUSH2 0x36F PUSH1 0x4 DUP1 CALLDATASIZE SUB DUP2 ADD SWAP1 PUSH2 0x36A SWAP2 SWAP1 PUSH2 0x271F JUMP JUMPDEST PUSH2 0xFE0 JUMP JUMPDEST PUSH1 0x40 MLOAD PUSH2 0x37C SWAP2 SWAP1 PUSH2 0x2784 JUMP JUMPDEST PUSH1 0x40 MLOAD DUP1 SWAP2 SUB SWAP1 RETURN JUMPDEST CALLVALUE DUP1 ISZERO PUSH2 0x391 JUMPI PUSH1 0x0 DUP1 REVERT JUMPDEST POP PUSH2 0x3AC PUSH1 0x4 DUP1 CALLDATASIZE SUB DUP2 ADD SWAP1 PUSH2 0x3A7 SWAP2 SWAP1 PUSH2 0x271F JUMP JUMPDEST PUSH2 0x1150 JUMP JUMPDEST PUSH1 0x40 MLOAD PUSH2 0x3B9 SWAP2 SWAP1 PUSH2 0x2784 JUMP JUMPDEST PUSH1 0x40 MLOAD DUP1 SWAP2 SUB SWAP1 RETURN JUMPDEST CALLVALUE DUP1 ISZERO PUSH2 0x3CE JUMPI PUSH1 0x0 DUP1 REVERT JUMPDEST POP PUSH2 0x3D7 PUSH2 0x12C0 JUMP JUMPDEST PUSH1 0x40 MLOAD PUSH2 0x3E4 SWAP2 SWAP1 PUSH2 0x25EE JUMP JUMPDEST PUSH1 0x40 MLOAD DUP1 SWAP2 SUB SWAP1 RETURN JUMPDEST CALLVALUE DUP1 ISZERO PUSH2 0x3F9 JUMPI PUSH1 0x0 DUP1 REVERT JUMPDEST POP PUSH2 0x414 PUSH1 0x4 DUP1 CALLDATASIZE SUB DUP2 ADD SWAP1 PUSH2 0x40F SWAP2 SWAP1 PUSH2 0x26A9 JUMP JUMPDEST PUSH2 0x1352 JUMP JUMPDEST PUSH1 0x40 MLOAD PUSH2 0x421 SWAP2 SWAP1 PUSH2 0x2704 JUMP JUMPDEST PUSH1 0x40 MLOAD DUP1 SWAP2 SUB SWAP1 RETURN JUMPDEST CALLVALUE DUP1 ISZERO PUSH2 0x436 JUMPI PUSH1 0x0 DUP1 REVERT JUMPDEST POP PUSH2 0x451 PUSH1 0x4 DUP1 CALLDATASIZE SUB DUP2 ADD SWAP1 PUSH2 0x44C SWAP2 SWAP1 PUSH2 0x26A9 JUMP JUMPDEST PUSH2 0x13C9 JUMP JUMPDEST PUSH1 0x40 MLOAD PUSH2 0x45E SWAP2 SWAP1 PUSH2 0x2704 JUMP JUMPDEST PUSH1 0x40 MLOAD DUP1 SWAP2 SUB SWAP1 RETURN JUMPDEST CALLVALUE DUP1 ISZERO PUSH2 0x473 JUMPI PUSH1 0x0 DUP1 REVERT JUMPDEST POP PUSH2 0x47C PUSH2 0x13EC JUMP JUMPDEST PUSH1 0x40 MLOAD PUSH2 0x489 SWAP2 SWAP1 PUSH2 0x2784 JUMP JUMPDEST PUSH1 0x40 MLOAD DUP1 SWAP2 SUB SWAP1 RETURN JUMPDEST CALLVALUE DUP1 ISZERO PUSH2 0x49E JUMPI PUSH1 0x0 DUP1 REVERT JUMPDEST POP PUSH2 0x4B9 PUSH1 0x4 DUP1 CALLDATASIZE SUB DUP2 ADD SWAP1 PUSH2 0x4B4 SWAP2 SWAP1 PUSH2 0x271F JUMP JUMPDEST PUSH2 0x13F2 JUMP JUMPDEST PUSH1 0x40 MLOAD PUSH2 0x4C6 SWAP2 SWAP1 PUSH2 0x2784 JUMP JUMPDEST PUSH1 0x40 MLOAD DUP1 SWAP2 SUB SWAP1 RETURN JUMPDEST CALLVALUE DUP1 ISZERO PUSH2 0x4DB JUMPI PUSH1 0x0 DUP1 REVERT JUMPDEST POP PUSH2 0x4F6 PUSH1 0x4 DUP1 CALLDATASIZE SUB DUP2 ADD SWAP1 PUSH2 0x4F1 SWAP2 SWAP1 PUSH2 0x2856 JUMP JUMPDEST PUSH2 0x1819 JUMP JUMPDEST PUSH1 0x40 MLOAD PUSH2 0x503 SWAP2 SWAP1 PUSH2 0x2784 JUMP JUMPDEST PUSH1 0x40 MLOAD DUP1 SWAP2 SUB SWAP1 RETURN JUMPDEST CALLVALUE DUP1 ISZERO PUSH2 0x518 JUMPI PUSH1 0x0 DUP1 REVERT JUMPDEST POP PUSH2 0x521 PUSH2 0x18A0 JUMP JUMPDEST PUSH1 0x40 MLOAD PUSH2 0x52E SWAP2 SWAP1 PUSH2 0x2784 JUMP JUMPDEST PUSH1 0x40 MLOAD DUP1 SWAP2 SUB SWAP1 RETURN JUMPDEST PUSH2 0x551 PUSH1 0x4 DUP1 CALLDATASIZE SUB DUP2 ADD SWAP1 PUSH2 0x54C SWAP2 SWAP1 PUSH2 0x271F JUMP JUMPDEST PUSH2 0x18B0 JUMP JUMPDEST PUSH1 0x40 MLOAD PUSH2 0x55E SWAP2 SWAP1 PUSH2 0x2784 JUMP JUMPDEST PUSH1 0x40 MLOAD DUP1 SWAP2 SUB SWAP1 RETURN JUMPDEST CALLVALUE DUP1 ISZERO PUSH2 0x573 JUMPI PUSH1 0x0 DUP1 REVERT JUMPDEST POP PUSH2 0x58E PUSH1 0x4 DUP1 CALLDATASIZE SUB DUP2 ADD SWAP1 PUSH2 0x589 SWAP2 SWAP1 PUSH2 0x271F JUMP JUMPDEST PUSH2 0x1C23 JUMP JUMPDEST PUSH1 0x40 MLOAD PUSH2 0x59B SWAP2 SWAP1 PUSH2 0x2784 JUMP JUMPDEST PUSH1 0x40 MLOAD DUP1 SWAP2 SUB SWAP1 RETURN JUMPDEST CALLVALUE DUP1 ISZERO PUSH2 0x5B0 JUMPI PUSH1 0x0 DUP1 REVERT JUMPDEST POP PUSH2 0x5B9 PUSH2 0x1D38 JUMP JUMPDEST PUSH1 0x40 MLOAD PUSH2 0x5C6 SWAP2 SWAP1 PUSH2 0x28F5 JUMP JUMPDEST PUSH1 0x40 MLOAD DUP1 SWAP2 SUB SWAP1 RETURN JUMPDEST PUSH1 0x60 PUSH1 0x3 DUP1 SLOAD PUSH2 0x5DE SWAP1 PUSH2 0x293F JUMP JUMPDEST DUP1 PUSH1 0x1F ADD PUSH1 0x20 DUP1 SWAP2 DIV MUL PUSH1 0x20 ADD PUSH1 0x40 MLOAD SWAP1 DUP2 ADD PUSH1 0x40 MSTORE DUP1 SWAP3 SWAP2 SWAP1 DUP2 DUP2 MSTORE PUSH1 0x20 ADD DUP3 DUP1 SLOAD PUSH2 0x60A SWAP1 PUSH2 0x293F JUMP JUMPDEST DUP1 ISZERO PUSH2 0x657 JUMPI DUP1 PUSH1 0x1F LT PUSH2 0x62C JUMPI PUSH2 0x100 DUP1 DUP4 SLOAD DIV MUL DUP4 MSTORE SWAP2 PUSH1 0x20 ADD SWAP2 PUSH2 0x657 JUMP JUMPDEST DUP3 ADD SWAP2 SWAP1 PUSH1 0x0 MSTORE PUSH1 0x20 PUSH1 0x0 KECCAK256 SWAP1 JUMPDEST DUP2 SLOAD DUP2 MSTORE SWAP1 PUSH1 0x1 ADD SWAP1 PUSH1 0x20 ADD DUP1 DUP4 GT PUSH2 0x63A JUMPI DUP3 SWAP1 SUB PUSH1 0x1F AND DUP3 ADD SWAP2 JUMPDEST POP POP POP POP POP SWAP1 POP SWAP1 JUMP JUMPDEST PUSH1 0x0 DUP1 PUSH2 0x66C PUSH2 0x1D5E JUMP JUMPDEST SWAP1 POP PUSH2 0x679 DUP2 DUP6 DUP6 PUSH2 0x1D66 JUMP JUMPDEST PUSH1 0x1 SWAP2 POP POP SWAP3 SWAP2 POP POP JUMP JUMPDEST PUSH1 0x0 DUP1 PUSH1 0x0 DUP4 GT DUP1 ISZERO PUSH2 0x69E JUMPI POP PUSH2 0x69B CALLER PUSH2 0xF98 JUMP JUMPDEST DUP4 LT JUMPDEST PUSH2 0x6DD JUMPI PUSH1 0x40 MLOAD PUSH32 0x8C379A000000000000000000000000000000000000000000000000000000000 DUP2 MSTORE PUSH1 0x4 ADD PUSH2 0x6D4 SWAP1 PUSH2 0x29BC JUMP JUMPDEST PUSH1 0x40 MLOAD DUP1 SWAP2 SUB SWAP1 REVERT JUMPDEST PUSH1 0x0 PUSH2 0x6E7 PUSH2 0xA89 JUMP JUMPDEST SWAP1 POP PUSH1 0x0 DUP2 GT PUSH2 0x72C JUMPI PUSH1 0x40 MLOAD PUSH32 0x8C379A000000000000000000000000000000000000000000000000000000000 DUP2 MSTORE PUSH1 0x4 ADD PUSH2 0x723 SWAP1 PUSH2 0x2A28 JUMP JUMPDEST PUSH1 0x40 MLOAD DUP1 SWAP2 SUB SWAP1 REVERT JUMPDEST PUSH1 0x0 SELFBALANCE SWAP1 POP PUSH1 0x0 PUSH1 0x5 PUSH1 0x0 SWAP1 SLOAD SWAP1 PUSH2 0x100 EXP SWAP1 DIV PUSH20 0xFFFFFFFFFFFFFFFFFFFFFFFFFFFFFFFFFFFFFFFF AND PUSH20 0xFFFFFFFFFFFFFFFFFFFFFFFFFFFFFFFFFFFFFFFF AND PUSH4 0x70A08231 ADDRESS PUSH1 0x40 MLOAD DUP3 PUSH4 0xFFFFFFFF AND PUSH1 0xE0 SHL DUP2 MSTORE PUSH1 0x4 ADD PUSH2 0x78E SWAP2 SWAP1 PUSH2 0x2A57 JUMP JUMPDEST PUSH1 0x20 PUSH1 0x40 MLOAD DUP1 DUP4 SUB DUP2 DUP7 GAS STATICCALL ISZERO DUP1 ISZERO PUSH2 0x7AB JUMPI RETURNDATASIZE PUSH1 0x0 DUP1 RETURNDATACOPY RETURNDATASIZE PUSH1 0x0 REVERT JUMPDEST POP POP POP POP PUSH1 0x40 MLOAD RETURNDATASIZE PUSH1 0x1F NOT PUSH1 0x1F DUP3 ADD AND DUP3 ADD DUP1 PUSH1 0x40 MSTORE POP DUP2 ADD SWAP1 PUSH2 0x7CF SWAP2 SWAP1 PUSH2 0x2A87 JUMP JUMPDEST SWAP1 POP DUP3 DUP7 DUP4 PUSH2 0x7DE SWAP2 SWAP1 PUSH2 0x2AE3 JUMP JUMPDEST PUSH2 0x7E8 SWAP2 SWAP1 PUSH2 0x2B54 JUMP JUMPDEST SWAP4 POP DUP3 DUP7 DUP3 PUSH2 0x7F7 SWAP2 SWAP1 PUSH2 0x2AE3 JUMP JUMPDEST PUSH2 0x801 SWAP2 SWAP1 PUSH2 0x2B54 JUMP JUMPDEST SWAP5 POP PUSH2 0x80D CALLER DUP8 PUSH2 0x1F2F JUMP JUMPDEST PUSH1 0x0 CALLER PUSH20 0xFFFFFFFFFFFFFFFFFFFFFFFFFFFFFFFFFFFFFFFF AND DUP6 PUSH1 0x40 MLOAD PUSH2 0x833 SWAP1 PUSH2 0x2BB6 JUMP JUMPDEST PUSH1 0x0 PUSH1 0x40 MLOAD DUP1 DUP4 SUB DUP2 DUP6 DUP8 GAS CALL SWAP3 POP POP POP RETURNDATASIZE DUP1 PUSH1 0x0 DUP2 EQ PUSH2 0x870 JUMPI PUSH1 0x40 MLOAD SWAP2 POP PUSH1 0x1F NOT PUSH1 0x3F RETURNDATASIZE ADD AND DUP3 ADD PUSH1 0x40 MSTORE RETURNDATASIZE DUP3 MSTORE RETURNDATASIZE PUSH1 0x0 PUSH1 0x20 DUP5 ADD RETURNDATACOPY PUSH2 0x875 JUMP JUMPDEST PUSH1 0x60 SWAP2 POP JUMPDEST POP POP SWAP1 POP DUP1 PUSH2 0x8B9 JUMPI PUSH1 0x40 MLOAD PUSH32 0x8C379A000000000000000000000000000000000000000000000000000000000 DUP2 MSTORE PUSH1 0x4 ADD PUSH2 0x8B0 SWAP1 PUSH2 0x2C17 JUMP JUMPDEST PUSH1 0x40 MLOAD DUP1 SWAP2 SUB SWAP1 REVERT JUMPDEST PUSH1 0x5 PUSH1 0x0 SWAP1 SLOAD SWAP1 PUSH2 0x100 EXP SWAP1 DIV PUSH20 0xFFFFFFFFFFFFFFFFFFFFFFFFFFFFFFFFFFFFFFFF AND PUSH20 0xFFFFFFFFFFFFFFFFFFFFFFFFFFFFFFFFFFFFFFFF AND PUSH4 0xA9059CBB CALLER DUP9 PUSH1 0x40 MLOAD DUP4 PUSH4 0xFFFFFFFF AND PUSH1 0xE0 SHL DUP2 MSTORE PUSH1 0x4 ADD PUSH2 0x916 SWAP3 SWAP2 SWAP1 PUSH2 0x2C37 JUMP JUMPDEST PUSH1 0x20 PUSH1 0x40 MLOAD DUP1 DUP4 SUB DUP2 PUSH1 0x0 DUP8 GAS CALL ISZERO DUP1 ISZERO PUSH2 0x935 JUMPI RETURNDATASIZE PUSH1 0x0 DUP1 RETURNDATACOPY RETURNDATASIZE PUSH1 0x0 REVERT JUMPDEST POP POP POP POP PUSH1 0x40 MLOAD RETURNDATASIZE PUSH1 0x1F NOT PUSH1 0x1F DUP3 ADD AND DUP3 ADD DUP1 PUSH1 0x40 MSTORE POP DUP2 ADD SWAP1 PUSH2 0x959 SWAP2 SWAP1 PUSH2 0x2C8C JUMP JUMPDEST PUSH2 0x998 JUMPI PUSH1 0x40 MLOAD PUSH32 0x8C379A000000000000000000000000000000000000000000000000000000000 DUP2 MSTORE PUSH1 0x4 ADD PUSH2 0x98F SWAP1 PUSH2 0x2D05 JUMP JUMPDEST PUSH1 0x40 MLOAD DUP1 SWAP2 SUB SWAP1 REVERT JUMPDEST PUSH1 0x5 PUSH1 0x0 SWAP1 SLOAD SWAP1 PUSH2 0x100 EXP SWAP1 DIV PUSH20 0xFFFFFFFFFFFFFFFFFFFFFFFFFFFFFFFFFFFFFFFF AND PUSH20 0xFFFFFFFFFFFFFFFFFFFFFFFFFFFFFFFFFFFFFFFF AND PUSH4 0x70A08231 ADDRESS PUSH1 0x40 MLOAD DUP3 PUSH4 0xFFFFFFFF AND PUSH1 0xE0 SHL DUP2 MSTORE PUSH1 0x4 ADD PUSH2 0x9F3 SWAP2 SWAP1 PUSH2 0x2A57 JUMP JUMPDEST PUSH1 0x20 PUSH1 0x40 MLOAD DUP1 DUP4 SUB DUP2 DUP7 GAS STATICCALL ISZERO DUP1 ISZERO PUSH2 0xA10 JUMPI RETURNDATASIZE PUSH1 0x0 DUP1 RETURNDATACOPY RETURNDATASIZE PUSH1 0x0 REVERT JUMPDEST POP POP POP POP PUSH1 0x40 MLOAD RETURNDATASIZE PUSH1 0x1F NOT PUSH1 0x1F DUP3 ADD AND DUP3 ADD DUP1 PUSH1 0x40 MSTORE POP DUP2 ADD SWAP1 PUSH2 0xA34 SWAP2 SWAP1 PUSH2 0x2A87 JUMP JUMPDEST SELFBALANCE PUSH2 0xA3F SWAP2 SWAP1 PUSH2 0x2AE3 JUMP JUMPDEST PUSH1 0x6 DUP2 SWAP1 SSTORE POP PUSH32 0xB14F451E613015C13A17C78777F1D87FCB448D7330D67299A09B8F2DB38AAB10 DUP7 DUP7 DUP10 PUSH1 0x40 MLOAD PUSH2 0xA78 SWAP4 SWAP3 SWAP2 SWAP1 PUSH2 0x2D25 JUMP JUMPDEST PUSH1 0x40 MLOAD DUP1 SWAP2 SUB SWAP1 LOG1 POP POP POP POP SWAP2 POP SWAP2 JUMP JUMPDEST PUSH1 0x0 PUSH1 0x2 SLOAD SWAP1 POP SWAP1 JUMP JUMPDEST PUSH1 0x0 DUP1 PUSH2 0xA9E PUSH2 0x1D5E JUMP JUMPDEST SWAP1 POP PUSH2 0xAAB DUP6 DUP3 DUP6 PUSH2 0x20FC JUMP JUMPDEST PUSH2 0xAB6 DUP6 DUP6 DUP6 PUSH2 0x2188 JUMP JUMPDEST PUSH1 0x1 SWAP2 POP POP SWAP4 SWAP3 POP POP POP JUMP JUMPDEST PUSH1 0x0 DUP1 SELFBALANCE SWAP1 POP PUSH1 0x0 PUSH1 0x5 PUSH1 0x0 SWAP1 SLOAD SWAP1 PUSH2 0x100 EXP SWAP1 DIV PUSH20 0xFFFFFFFFFFFFFFFFFFFFFFFFFFFFFFFFFFFFFFFF AND PUSH20 0xFFFFFFFFFFFFFFFFFFFFFFFFFFFFFFFFFFFFFFFF AND PUSH4 0x70A08231 ADDRESS PUSH1 0x40 MLOAD DUP3 PUSH4 0xFFFFFFFF AND PUSH1 0xE0 SHL DUP2 MSTORE PUSH1 0x4 ADD PUSH2 0xB25 SWAP2 SWAP1 PUSH2 0x2A57 JUMP JUMPDEST PUSH1 0x20 PUSH1 0x40 MLOAD DUP1 DUP4 SUB DUP2 DUP7 GAS STATICCALL ISZERO DUP1 ISZERO PUSH2 0xB42 JUMPI RETURNDATASIZE PUSH1 0x0 DUP1 RETURNDATACOPY RETURNDATASIZE PUSH1 0x0 REVERT JUMPDEST POP POP POP POP PUSH1 0x40 MLOAD RETURNDATASIZE PUSH1 0x1F NOT PUSH1 0x1F DUP3 ADD AND DUP3 ADD DUP1 PUSH1 0x40 MSTORE POP DUP2 ADD SWAP1 PUSH2 0xB66 SWAP2 SWAP1 PUSH2 0x2A87 JUMP JUMPDEST SWAP1 POP PUSH1 0x0 DUP2 GT DUP1 ISZERO PUSH2 0xB78 JUMPI POP PUSH1 0x0 DUP3 GT JUMPDEST PUSH2 0xBB7 JUMPI PUSH1 0x40 MLOAD PUSH32 0x8C379A000000000000000000000000000000000000000000000000000000000 DUP2 MSTORE PUSH1 0x4 ADD PUSH2 0xBAE SWAP1 PUSH2 0x2DA8 JUMP JUMPDEST PUSH1 0x40 MLOAD DUP1 SWAP2 SUB SWAP1 REVERT JUMPDEST DUP1 DUP5 DUP4 PUSH2 0xBC4 SWAP2 SWAP1 PUSH2 0x2AE3 JUMP JUMPDEST PUSH2 0xBCE SWAP2 SWAP1 PUSH2 0x2B54 JUMP JUMPDEST SWAP3 POP POP POP SWAP2 SWAP1 POP JUMP JUMPDEST PUSH1 0x0 DUP1 CALLVALUE GT PUSH2 0xC1B JUMPI PUSH1 0x40 MLOAD PUSH32 0x8C379A000000000000000000000000000000000000000000000000000000000 DUP2 MSTORE PUSH1 0x4 ADD PUSH2 0xC12 SWAP1 PUSH2 0x2E14 JUMP JUMPDEST PUSH1 0x40 MLOAD DUP1 SWAP2 SUB SWAP1 REVERT JUMPDEST PUSH1 0x0 CALLVALUE SELFBALANCE PUSH2 0xC29 SWAP2 SWAP1 PUSH2 0x2E34 JUMP JUMPDEST SWAP1 POP PUSH1 0x0 PUSH1 0x5 PUSH1 0x0 SWAP1 SLOAD SWAP1 PUSH2 0x100 EXP SWAP1 DIV PUSH20 0xFFFFFFFFFFFFFFFFFFFFFFFFFFFFFFFFFFFFFFFF AND PUSH20 0xFFFFFFFFFFFFFFFFFFFFFFFFFFFFFFFFFFFFFFFF AND PUSH4 0x70A08231 ADDRESS PUSH1 0x40 MLOAD DUP3 PUSH4 0xFFFFFFFF AND PUSH1 0xE0 SHL DUP2 MSTORE PUSH1 0x4 ADD PUSH2 0xC88 SWAP2 SWAP1 PUSH2 0x2A57 JUMP JUMPDEST PUSH1 0x20 PUSH1 0x40 MLOAD DUP1 DUP4 SUB DUP2 DUP7 GAS STATICCALL ISZERO DUP1 ISZERO PUSH2 0xCA5 JUMPI RETURNDATASIZE PUSH1 0x0 DUP1 RETURNDATACOPY RETURNDATASIZE PUSH1 0x0 REVERT JUMPDEST POP POP POP POP PUSH1 0x40 MLOAD RETURNDATASIZE PUSH1 0x1F NOT PUSH1 0x1F DUP3 ADD AND DUP3 ADD DUP1 PUSH1 0x40 MSTORE POP DUP2 ADD SWAP1 PUSH2 0xCC9 SWAP2 SWAP1 PUSH2 0x2A87 JUMP JUMPDEST SWAP1 POP PUSH1 0x0 DUP3 GT DUP1 ISZERO PUSH2 0xCDB JUMPI POP PUSH1 0x0 DUP2 GT JUMPDEST PUSH2 0xD1A JUMPI PUSH1 0x40 MLOAD PUSH32 0x8C379A000000000000000000000000000000000000000000000000000000000 DUP2 MSTORE PUSH1 0x4 ADD PUSH2 0xD11 SWAP1 PUSH2 0x2DA8 JUMP JUMPDEST PUSH1 0x40 MLOAD DUP1 SWAP2 SUB SWAP1 REVERT JUMPDEST PUSH1 0x0 CALLVALUE DUP4 PUSH2 0xD28 SWAP2 SWAP1 PUSH2 0x2E68 JUMP JUMPDEST SWAP1 POP PUSH1 0x0 DUP2 PUSH1 0x6 SLOAD PUSH2 0xD3A SWAP2 SWAP1 PUSH2 0x2B54 JUMP JUMPDEST SWAP1 POP DUP1 DUP4 GT PUSH2 0xD7E JUMPI PUSH1 0x40 MLOAD PUSH32 0x8C379A000000000000000000000000000000000000000000000000000000000 DUP2 MSTORE PUSH1 0x4 ADD PUSH2 0xD75 SWAP1 PUSH2 0x2EE8 JUMP JUMPDEST PUSH1 0x40 MLOAD DUP1 SWAP2 SUB SWAP1 REVERT JUMPDEST DUP1 DUP4 PUSH2 0xD8A SWAP2 SWAP1 PUSH2 0x2E34 JUMP JUMPDEST SWAP5 POP PUSH1 0x5 PUSH1 0x0 SWAP1 SLOAD SWAP1 PUSH2 0x100 EXP SWAP1 DIV PUSH20 0xFFFFFFFFFFFFFFFFFFFFFFFFFFFFFFFFFFFFFFFF AND PUSH20 0xFFFFFFFFFFFFFFFFFFFFFFFFFFFFFFFFFFFFFFFF AND PUSH4 0xA9059CBB CALLER DUP8 PUSH1 0x40 MLOAD DUP4 PUSH4 0xFFFFFFFF AND PUSH1 0xE0 SHL DUP2 MSTORE PUSH1 0x4 ADD PUSH2 0xDE9 SWAP3 SWAP2 SWAP1 PUSH2 0x2C37 JUMP JUMPDEST PUSH1 0x20 PUSH1 0x40 MLOAD DUP1 DUP4 SUB DUP2 PUSH1 0x0 DUP8 GAS CALL ISZERO DUP1 ISZERO PUSH2 0xE08 JUMPI RETURNDATASIZE PUSH1 0x0 DUP1 RETURNDATACOPY RETURNDATASIZE PUSH1 0x0 REVERT JUMPDEST POP POP POP POP PUSH1 0x40 MLOAD RETURNDATASIZE PUSH1 0x1F NOT PUSH1 0x1F DUP3 ADD AND DUP3 ADD DUP1 PUSH1 0x40 MSTORE POP DUP2 ADD SWAP1 PUSH2 0xE2C SWAP2 SWAP1 PUSH2 0x2C8C JUMP JUMPDEST PUSH2 0xE6B JUMPI PUSH1 0x40 MLOAD PUSH32 0x8C379A000000000000000000000000000000000000000000000000000000000 DUP2 MSTORE PUSH1 0x4 ADD PUSH2 0xE62 SWAP1 PUSH2 0x2D05 JUMP JUMPDEST PUSH1 0x40 MLOAD DUP1 SWAP2 SUB SWAP1 REVERT JUMPDEST PUSH1 0x5 PUSH1 0x0 SWAP1 SLOAD SWAP1 PUSH2 0x100 EXP SWAP1 DIV PUSH20 0xFFFFFFFFFFFFFFFFFFFFFFFFFFFFFFFFFFFFFFFF AND PUSH20 0xFFFFFFFFFFFFFFFFFFFFFFFFFFFFFFFFFFFFFFFF AND PUSH4 0x70A08231 ADDRESS PUSH1 0x40 MLOAD DUP3 PUSH4 0xFFFFFFFF AND PUSH1 0xE0 SHL DUP2 MSTORE PUSH1 0x4 ADD PUSH2 0xEC6 SWAP2 SWAP1 PUSH2 0x2A57 JUMP JUMPDEST PUSH1 0x20 PUSH1 0x40 MLOAD DUP1 DUP4 SUB DUP2 DUP7 GAS STATICCALL ISZERO DUP1 ISZERO PUSH2 0xEE3 JUMPI RETURNDATASIZE PUSH1 0x0 DUP1 RETURNDATACOPY RETURNDATASIZE PUSH1 0x0 REVERT JUMPDEST POP POP POP POP PUSH1 0x40 MLOAD RETURNDATASIZE PUSH1 0x1F NOT PUSH1 0x1F DUP3 ADD AND DUP3 ADD DUP1 PUSH1 0x40 MSTORE POP DUP2 ADD SWAP1 PUSH2 0xF07 SWAP2 SWAP1 PUSH2 0x2A87 JUMP JUMPDEST SELFBALANCE PUSH2 0xF12 SWAP2 SWAP1 PUSH2 0x2AE3 JUMP JUMPDEST PUSH1 0x6 DUP2 SWAP1 SSTORE POP PUSH32 0xCDFC57B3D0CDC24B23CEA1F480AABEA287321F5BEE23AD76C2B52FA7982F5EA5 DUP6 CALLVALUE PUSH1 0x40 MLOAD PUSH2 0xF49 SWAP3 SWAP2 SWAP1 PUSH2 0x275B JUMP JUMPDEST PUSH1 0x40 MLOAD DUP1 SWAP2 SUB SWAP1 LOG1 POP POP POP POP SWAP1 JUMP JUMPDEST PUSH1 0x0 PUSH1 0x12 SWAP1 POP SWAP1 JUMP JUMPDEST PUSH1 0x0 DUP1 PUSH2 0xF6C PUSH2 0x1D5E JUMP JUMPDEST SWAP1 POP PUSH2 0xF8D DUP2 DUP6 DUP6 PUSH2 0xF7E DUP6 DUP10 PUSH2 0x1819 JUMP JUMPDEST PUSH2 0xF88 SWAP2 SWAP1 PUSH2 0x2E68 JUMP JUMPDEST PUSH2 0x1D66 JUMP JUMPDEST PUSH1 0x1 SWAP2 POP POP SWAP3 SWAP2 POP POP JUMP JUMPDEST PUSH1 0x0 DUP1 PUSH1 0x0 DUP4 PUSH20 0xFFFFFFFFFFFFFFFFFFFFFFFFFFFFFFFFFFFFFFFF AND PUSH20 0xFFFFFFFFFFFFFFFFFFFFFFFFFFFFFFFFFFFFFFFF AND DUP2 MSTORE PUSH1 0x20 ADD SWAP1 DUP2 MSTORE PUSH1 0x20 ADD PUSH1 0x0 KECCAK256 SLOAD SWAP1 POP SWAP2 SWAP1 POP JUMP JUMPDEST PUSH1 0x0 DUP1 SELFBALANCE SWAP1 POP PUSH1 0x0 PUSH1 0x5 PUSH1 0x0 SWAP1 SLOAD SWAP1 PUSH2 0x100 EXP SWAP1 DIV PUSH20 0xFFFFFFFFFFFFFFFFFFFFFFFFFFFFFFFFFFFFFFFF AND PUSH20 0xFFFFFFFFFFFFFFFFFFFFFFFFFFFFFFFFFFFFFFFF AND PUSH4 0x70A08231 ADDRESS PUSH1 0x40 MLOAD DUP3 PUSH4 0xFFFFFFFF AND PUSH1 0xE0 SHL DUP2 MSTORE PUSH1 0x4 ADD PUSH2 0x1043 SWAP2 SWAP1 PUSH2 0x2A57 JUMP JUMPDEST PUSH1 0x20 PUSH1 0x40 MLOAD DUP1 DUP4 SUB DUP2 DUP7 GAS STATICCALL ISZERO DUP1 ISZERO PUSH2 0x1060 JUMPI RETURNDATASIZE PUSH1 0x0 DUP1 RETURNDATACOPY RETURNDATASIZE PUSH1 0x0 REVERT JUMPDEST POP POP POP POP PUSH1 0x40 MLOAD RETURNDATASIZE PUSH1 0x1F NOT PUSH1 0x1F DUP3 ADD AND DUP3 ADD DUP1 PUSH1 0x40 MSTORE POP DUP2 ADD SWAP1 PUSH2 0x1084 SWAP2 SWAP1 PUSH2 0x2A87 JUMP JUMPDEST SWAP1 POP PUSH1 0x0 DUP3 GT DUP1 ISZERO PUSH2 0x1096 JUMPI POP PUSH1 0x0 DUP2 GT JUMPDEST PUSH2 0x10D5 JUMPI PUSH1 0x40 MLOAD PUSH32 0x8C379A000000000000000000000000000000000000000000000000000000000 DUP2 MSTORE PUSH1 0x4 ADD PUSH2 0x10CC SWAP1 PUSH2 0x2DA8 JUMP JUMPDEST PUSH1 0x40 MLOAD DUP1 SWAP2 SUB SWAP1 REVERT JUMPDEST PUSH1 0x0 DUP5 DUP4 PUSH2 0x10E3 SWAP2 SWAP1 PUSH2 0x2E68 JUMP JUMPDEST SWAP1 POP PUSH1 0x0 DUP2 PUSH1 0x6 SLOAD PUSH2 0x10F5 SWAP2 SWAP1 PUSH2 0x2B54 JUMP JUMPDEST SWAP1 POP DUP1 DUP4 GT PUSH2 0x1139 JUMPI PUSH1 0x40 MLOAD PUSH32 0x8C379A000000000000000000000000000000000000000000000000000000000 DUP2 MSTORE PUSH1 0x4 ADD PUSH2 0x1130 SWAP1 PUSH2 0x2EE8 JUMP JUMPDEST PUSH1 0x40 MLOAD DUP1 SWAP2 SUB SWAP1 REVERT JUMPDEST DUP1 DUP4 PUSH2 0x1145 SWAP2 SWAP1 PUSH2 0x2E34 JUMP JUMPDEST SWAP5 POP POP POP POP POP SWAP2 SWAP1 POP JUMP JUMPDEST PUSH1 0x0 DUP1 SELFBALANCE SWAP1 POP PUSH1 0x0 PUSH1 0x5 PUSH1 0x0 SWAP1 SLOAD SWAP1 PUSH2 0x100 EXP SWAP1 DIV PUSH20 0xFFFFFFFFFFFFFFFFFFFFFFFFFFFFFFFFFFFFFFFF AND PUSH20 0xFFFFFFFFFFFFFFFFFFFFFFFFFFFFFFFFFFFFFFFF AND PUSH4 0x70A08231 ADDRESS PUSH1 0x40 MLOAD DUP3 PUSH4 0xFFFFFFFF AND PUSH1 0xE0 SHL DUP2 MSTORE PUSH1 0x4 ADD PUSH2 0x11B3 SWAP2 SWAP1 PUSH2 0x2A57 JUMP JUMPDEST PUSH1 0x20 PUSH1 0x40 MLOAD DUP1 DUP4 SUB DUP2 DUP7 GAS STATICCALL ISZERO DUP1 ISZERO PUSH2 0x11D0 JUMPI RETURNDATASIZE PUSH1 0x0 DUP1 RETURNDATACOPY RETURNDATASIZE PUSH1 0x0 REVERT JUMPDEST POP POP POP POP PUSH1 0x40 MLOAD RETURNDATASIZE PUSH1 0x1F NOT PUSH1 0x1F DUP3 ADD AND DUP3 ADD DUP1 PUSH1 0x40 MSTORE POP DUP2 ADD SWAP1 PUSH2 0x11F4 SWAP2 SWAP1 PUSH2 0x2A87 JUMP JUMPDEST SWAP1 POP PUSH1 0x0 DUP3 GT DUP1 ISZERO PUSH2 0x1206 JUMPI POP PUSH1 0x0 DUP2 GT JUMPDEST PUSH2 0x1245 JUMPI PUSH1 0x40 MLOAD PUSH32 0x8C379A000000000000000000000000000000000000000000000000000000000 DUP2 MSTORE PUSH1 0x4 ADD PUSH2 0x123C SWAP1 PUSH2 0x2DA8 JUMP JUMPDEST PUSH1 0x40 MLOAD DUP1 SWAP2 SUB SWAP1 REVERT JUMPDEST PUSH1 0x0 DUP5 DUP3 PUSH2 0x1253 SWAP2 SWAP1 PUSH2 0x2E68 JUMP JUMPDEST SWAP1 POP PUSH1 0x0 DUP2 PUSH1 0x6 SLOAD PUSH2 0x1265 SWAP2 SWAP1 PUSH2 0x2B54 JUMP JUMPDEST SWAP1 POP DUP1 DUP5 GT PUSH2 0x12A9 JUMPI PUSH1 0x40 MLOAD PUSH32 0x8C379A000000000000000000000000000000000000000000000000000000000 DUP2 MSTORE PUSH1 0x4 ADD PUSH2 0x12A0 SWAP1 PUSH2 0x2F54 JUMP JUMPDEST PUSH1 0x40 MLOAD DUP1 SWAP2 SUB SWAP1 REVERT JUMPDEST DUP1 DUP5 PUSH2 0x12B5 SWAP2 SWAP1 PUSH2 0x2E34 JUMP JUMPDEST SWAP5 POP POP POP POP POP SWAP2 SWAP1 POP JUMP JUMPDEST PUSH1 0x60 PUSH1 0x4 DUP1 SLOAD PUSH2 0x12CF SWAP1 PUSH2 0x293F JUMP JUMPDEST DUP1 PUSH1 0x1F ADD PUSH1 0x20 DUP1 SWAP2 DIV MUL PUSH1 0x20 ADD PUSH1 0x40 MLOAD SWAP1 DUP2 ADD PUSH1 0x40 MSTORE DUP1 SWAP3 SWAP2 SWAP1 DUP2 DUP2 MSTORE PUSH1 0x20 ADD DUP3 DUP1 SLOAD PUSH2 0x12FB SWAP1 PUSH2 0x293F JUMP JUMPDEST DUP1 ISZERO PUSH2 0x1348 JUMPI DUP1 PUSH1 0x1F LT PUSH2 0x131D JUMPI PUSH2 0x100 DUP1 DUP4 SLOAD DIV MUL DUP4 MSTORE SWAP2 PUSH1 0x20 ADD SWAP2 PUSH2 0x1348 JUMP JUMPDEST DUP3 ADD SWAP2 SWAP1 PUSH1 0x0 MSTORE PUSH1 0x20 PUSH1 0x0 KECCAK256 SWAP1 JUMPDEST DUP2 SLOAD DUP2 MSTORE SWAP1 PUSH1 0x1 ADD SWAP1 PUSH1 0x20 ADD DUP1 DUP4 GT PUSH2 0x132B JUMPI DUP3 SWAP1 SUB PUSH1 0x1F AND DUP3 ADD SWAP2 JUMPDEST POP POP POP POP POP SWAP1 POP SWAP1 JUMP JUMPDEST PUSH1 0x0 DUP1 PUSH2 0x135D PUSH2 0x1D5E JUMP JUMPDEST SWAP1 POP PUSH1 0x0 PUSH2 0x136B DUP3 DUP7 PUSH2 0x1819 JUMP JUMPDEST SWAP1 POP DUP4 DUP2 LT ISZERO PUSH2 0x13B0 JUMPI PUSH1 0x40 MLOAD PUSH32 0x8C379A000000000000000000000000000000000000000000000000000000000 DUP2 MSTORE PUSH1 0x4 ADD PUSH2 0x13A7 SWAP1 PUSH2 0x2FE6 JUMP JUMPDEST PUSH1 0x40 MLOAD DUP1 SWAP2 SUB SWAP1 REVERT JUMPDEST PUSH2 0x13BD DUP3 DUP7 DUP7 DUP5 SUB PUSH2 0x1D66 JUMP JUMPDEST PUSH1 0x1 SWAP3 POP POP POP SWAP3 SWAP2 POP POP JUMP JUMPDEST PUSH1 0x0 DUP1 PUSH2 0x13D4 PUSH2 0x1D5E JUMP JUMPDEST SWAP1 POP PUSH2 0x13E1 DUP2 DUP6 DUP6 PUSH2 0x2188 JUMP JUMPDEST PUSH1 0x1 SWAP2 POP POP SWAP3 SWAP2 POP POP JUMP JUMPDEST PUSH1 0x6 SLOAD DUP2 JUMP JUMPDEST PUSH1 0x0 DUP1 DUP3 GT PUSH2 0x1436 JUMPI PUSH1 0x40 MLOAD PUSH32 0x8C379A000000000000000000000000000000000000000000000000000000000 DUP2 MSTORE PUSH1 0x4 ADD PUSH2 0x142D SWAP1 PUSH2 0x3052 JUMP JUMPDEST PUSH1 0x40 MLOAD DUP1 SWAP2 SUB SWAP1 REVERT JUMPDEST PUSH1 0x0 SELFBALANCE SWAP1 POP PUSH1 0x0 PUSH1 0x5 PUSH1 0x0 SWAP1 SLOAD SWAP1 PUSH2 0x100 EXP SWAP1 DIV PUSH20 0xFFFFFFFFFFFFFFFFFFFFFFFFFFFFFFFFFFFFFFFF AND PUSH20 0xFFFFFFFFFFFFFFFFFFFFFFFFFFFFFFFFFFFFFFFF AND PUSH4 0x70A08231 ADDRESS PUSH1 0x40 MLOAD DUP3 PUSH4 0xFFFFFFFF AND PUSH1 0xE0 SHL DUP2 MSTORE PUSH1 0x4 ADD PUSH2 0x1498 SWAP2 SWAP1 PUSH2 0x2A57 JUMP JUMPDEST PUSH1 0x20 PUSH1 0x40 MLOAD DUP1 DUP4 SUB DUP2 DUP7 GAS STATICCALL ISZERO DUP1 ISZERO PUSH2 0x14B5 JUMPI RETURNDATASIZE PUSH1 0x0 DUP1 RETURNDATACOPY RETURNDATASIZE PUSH1 0x0 REVERT JUMPDEST POP POP POP POP PUSH1 0x40 MLOAD RETURNDATASIZE PUSH1 0x1F NOT PUSH1 0x1F DUP3 ADD AND DUP3 ADD DUP1 PUSH1 0x40 MSTORE POP DUP2 ADD SWAP1 PUSH2 0x14D9 SWAP2 SWAP1 PUSH2 0x2A87 JUMP JUMPDEST SWAP1 POP PUSH1 0x0 DUP3 GT DUP1 ISZERO PUSH2 0x14EB JUMPI POP PUSH1 0x0 DUP2 GT JUMPDEST PUSH2 0x152A JUMPI PUSH1 0x40 MLOAD PUSH32 0x8C379A000000000000000000000000000000000000000000000000000000000 DUP2 MSTORE PUSH1 0x4 ADD PUSH2 0x1521 SWAP1 PUSH2 0x2DA8 JUMP JUMPDEST PUSH1 0x40 MLOAD DUP1 SWAP2 SUB SWAP1 REVERT JUMPDEST PUSH1 0x0 DUP5 DUP3 PUSH2 0x1538 SWAP2 SWAP1 PUSH2 0x2E68 JUMP JUMPDEST SWAP1 POP PUSH1 0x0 DUP2 PUSH1 0x6 SLOAD PUSH2 0x154A SWAP2 SWAP1 PUSH2 0x2B54 JUMP JUMPDEST SWAP1 POP DUP1 DUP5 GT PUSH2 0x158E JUMPI PUSH1 0x40 MLOAD PUSH32 0x8C379A000000000000000000000000000000000000000000000000000000000 DUP2 MSTORE PUSH1 0x4 ADD PUSH2 0x1585 SWAP1 PUSH2 0x2F54 JUMP JUMPDEST PUSH1 0x40 MLOAD DUP1 SWAP2 SUB SWAP1 REVERT JUMPDEST DUP1 DUP5 PUSH2 0x159A SWAP2 SWAP1 PUSH2 0x2E34 JUMP JUMPDEST SWAP5 POP PUSH1 0x5 PUSH1 0x0 SWAP1 SLOAD SWAP1 PUSH2 0x100 EXP SWAP1 DIV PUSH20 0xFFFFFFFFFFFFFFFFFFFFFFFFFFFFFFFFFFFFFFFF AND PUSH20 0xFFFFFFFFFFFFFFFFFFFFFFFFFFFFFFFFFFFFFFFF AND PUSH4 0x23B872DD CALLER ADDRESS DUP10 PUSH1 0x40 MLOAD DUP5 PUSH4 0xFFFFFFFF AND PUSH1 0xE0 SHL DUP2 MSTORE PUSH1 0x4 ADD PUSH2 0x15FB SWAP4 SWAP3 SWAP2 SWAP1 PUSH2 0x3072 JUMP JUMPDEST PUSH1 0x20 PUSH1 0x40 MLOAD DUP1 DUP4 SUB DUP2 PUSH1 0x0 DUP8 GAS CALL ISZERO DUP1 ISZERO PUSH2 0x161A JUMPI RETURNDATASIZE PUSH1 0x0 DUP1 RETURNDATACOPY RETURNDATASIZE PUSH1 0x0 REVERT JUMPDEST POP POP POP POP PUSH1 0x40 MLOAD RETURNDATASIZE PUSH1 0x1F NOT PUSH1 0x1F DUP3 ADD AND DUP3 ADD DUP1 PUSH1 0x40 MSTORE POP DUP2 ADD SWAP1 PUSH2 0x163E SWAP2 SWAP1 PUSH2 0x2C8C JUMP JUMPDEST PUSH2 0x167D JUMPI PUSH1 0x40 MLOAD PUSH32 0x8C379A000000000000000000000000000000000000000000000000000000000 DUP2 MSTORE PUSH1 0x4 ADD PUSH2 0x1674 SWAP1 PUSH2 0x2D05 JUMP JUMPDEST PUSH1 0x40 MLOAD DUP1 SWAP2 SUB SWAP1 REVERT JUMPDEST PUSH1 0x0 CALLER PUSH20 0xFFFFFFFFFFFFFFFFFFFFFFFFFFFFFFFFFFFFFFFF AND DUP7 PUSH1 0x40 MLOAD PUSH2 0x16A3 SWAP1 PUSH2 0x2BB6 JUMP JUMPDEST PUSH1 0x0 PUSH1 0x40 MLOAD DUP1 DUP4 SUB DUP2 DUP6 DUP8 GAS CALL SWAP3 POP POP POP RETURNDATASIZE DUP1 PUSH1 0x0 DUP2 EQ PUSH2 0x16E0 JUMPI PUSH1 0x40 MLOAD SWAP2 POP PUSH1 0x1F NOT PUSH1 0x3F RETURNDATASIZE ADD AND DUP3 ADD PUSH1 0x40 MSTORE RETURNDATASIZE DUP3 MSTORE RETURNDATASIZE PUSH1 0x0 PUSH1 0x20 DUP5 ADD RETURNDATACOPY PUSH2 0x16E5 JUMP JUMPDEST PUSH1 0x60 SWAP2 POP JUMPDEST POP POP SWAP1 POP DUP1 PUSH2 0x1729 JUMPI PUSH1 0x40 MLOAD PUSH32 0x8C379A000000000000000000000000000000000000000000000000000000000 DUP2 MSTORE PUSH1 0x4 ADD PUSH2 0x1720 SWAP1 PUSH2 0x2C17 JUMP JUMPDEST PUSH1 0x40 MLOAD DUP1 SWAP2 SUB SWAP1 REVERT JUMPDEST PUSH1 0x5 PUSH1 0x0 SWAP1 SLOAD SWAP1 PUSH2 0x100 EXP SWAP1 DIV PUSH20 0xFFFFFFFFFFFFFFFFFFFFFFFFFFFFFFFFFFFFFFFF AND PUSH20 0xFFFFFFFFFFFFFFFFFFFFFFFFFFFFFFFFFFFFFFFF AND PUSH4 0x70A08231 ADDRESS PUSH1 0x40 MLOAD DUP3 PUSH4 0xFFFFFFFF AND PUSH1 0xE0 SHL DUP2 MSTORE PUSH1 0x4 ADD PUSH2 0x1784 SWAP2 SWAP1 PUSH2 0x2A57 JUMP JUMPDEST PUSH1 0x20 PUSH1 0x40 MLOAD DUP1 DUP4 SUB DUP2 DUP7 GAS STATICCALL ISZERO DUP1 ISZERO PUSH2 0x17A1 JUMPI RETURNDATASIZE PUSH1 0x0 DUP1 RETURNDATACOPY RETURNDATASIZE PUSH1 0x0 REVERT JUMPDEST POP POP POP POP PUSH1 0x40 MLOAD RETURNDATASIZE PUSH1 0x1F NOT PUSH1 0x1F DUP3 ADD AND DUP3 ADD DUP1 PUSH1 0x40 MSTORE POP DUP2 ADD SWAP1 PUSH2 0x17C5 SWAP2 SWAP1 PUSH2 0x2A87 JUMP JUMPDEST SELFBALANCE PUSH2 0x17D0 SWAP2 SWAP1 PUSH2 0x2AE3 JUMP JUMPDEST PUSH1 0x6 DUP2 SWAP1 SSTORE POP PUSH32 0x3297A389BB586920E62A196AF529D5F42651B17A1013D6BFE77F22372A0B2112 DUP8 DUP8 PUSH1 0x40 MLOAD PUSH2 0x1807 SWAP3 SWAP2 SWAP1 PUSH2 0x275B JUMP JUMPDEST PUSH1 0x40 MLOAD DUP1 SWAP2 SUB SWAP1 LOG1 POP POP POP POP POP SWAP2 SWAP1 POP JUMP JUMPDEST PUSH1 0x0 PUSH1 0x1 PUSH1 0x0 DUP5 PUSH20 0xFFFFFFFFFFFFFFFFFFFFFFFFFFFFFFFFFFFFFFFF AND PUSH20 0xFFFFFFFFFFFFFFFFFFFFFFFFFFFFFFFFFFFFFFFF AND DUP2 MSTORE PUSH1 0x20 ADD SWAP1 DUP2 MSTORE PUSH1 0x20 ADD PUSH1 0x0 KECCAK256 PUSH1 0x0 DUP4 PUSH20 0xFFFFFFFFFFFFFFFFFFFFFFFFFFFFFFFFFFFFFFFF AND PUSH20 0xFFFFFFFFFFFFFFFFFFFFFFFFFFFFFFFFFFFFFFFF AND DUP2 MSTORE PUSH1 0x20 ADD SWAP1 DUP2 MSTORE PUSH1 0x20 ADD PUSH1 0x0 KECCAK256 SLOAD SWAP1 POP SWAP3 SWAP2 POP POP JUMP JUMPDEST PUSH1 0x0 PUSH2 0x18AB CALLER PUSH2 0xF98 JUMP JUMPDEST SWAP1 POP SWAP1 JUMP JUMPDEST PUSH1 0x0 DUP1 DUP3 GT DUP1 ISZERO PUSH2 0x18C1 JUMPI POP PUSH1 0x0 CALLVALUE GT JUMPDEST PUSH2 0x1900 JUMPI PUSH1 0x40 MLOAD PUSH32 0x8C379A000000000000000000000000000000000000000000000000000000000 DUP2 MSTORE PUSH1 0x4 ADD PUSH2 0x18F7 SWAP1 PUSH2 0x30F5 JUMP JUMPDEST PUSH1 0x40 MLOAD DUP1 SWAP2 SUB SWAP1 REVERT JUMPDEST PUSH1 0x0 CALLVALUE SELFBALANCE PUSH2 0x190E SWAP2 SWAP1 PUSH2 0x2E34 JUMP JUMPDEST SWAP1 POP PUSH1 0x0 PUSH1 0x5 PUSH1 0x0 SWAP1 SLOAD SWAP1 PUSH2 0x100 EXP SWAP1 DIV PUSH20 0xFFFFFFFFFFFFFFFFFFFFFFFFFFFFFFFFFFFFFFFF AND PUSH20 0xFFFFFFFFFFFFFFFFFFFFFFFFFFFFFFFFFFFFFFFF AND PUSH4 0x70A08231 ADDRESS PUSH1 0x40 MLOAD DUP3 PUSH4 0xFFFFFFFF AND PUSH1 0xE0 SHL DUP2 MSTORE PUSH1 0x4 ADD PUSH2 0x196D SWAP2 SWAP1 PUSH2 0x2A57 JUMP JUMPDEST PUSH1 0x20 PUSH1 0x40 MLOAD DUP1 DUP4 SUB DUP2 DUP7 GAS STATICCALL ISZERO DUP1 ISZERO PUSH2 0x198A JUMPI RETURNDATASIZE PUSH1 0x0 DUP1 RETURNDATACOPY RETURNDATASIZE PUSH1 0x0 REVERT JUMPDEST POP POP POP POP PUSH1 0x40 MLOAD RETURNDATASIZE PUSH1 0x1F NOT PUSH1 0x1F DUP3 ADD AND DUP3 ADD DUP1 PUSH1 0x40 MSTORE POP DUP2 ADD SWAP1 PUSH2 0x19AE SWAP2 SWAP1 PUSH2 0x2A87 JUMP JUMPDEST SWAP1 POP PUSH1 0x0 PUSH2 0x19BA PUSH2 0xA89 JUMP JUMPDEST SUB PUSH2 0x19D0 JUMPI PUSH9 0x56BC75E2D63100000 SWAP3 POP PUSH2 0x1A49 JUMP JUMPDEST CALLVALUE DUP2 PUSH2 0x19DC SWAP2 SWAP1 PUSH2 0x2AE3 JUMP JUMPDEST DUP5 DUP4 PUSH2 0x19E8 SWAP2 SWAP1 PUSH2 0x2AE3 JUMP JUMPDEST EQ PUSH2 0x1A28 JUMPI PUSH1 0x40 MLOAD PUSH32 0x8C379A000000000000000000000000000000000000000000000000000000000 DUP2 MSTORE PUSH1 0x4 ADD PUSH2 0x1A1F SWAP1 PUSH2 0x3161 JUMP JUMPDEST PUSH1 0x40 MLOAD DUP1 SWAP2 SUB SWAP1 REVERT JUMPDEST DUP1 DUP5 PUSH2 0x1A32 PUSH2 0xA89 JUMP JUMPDEST PUSH2 0x1A3C SWAP2 SWAP1 PUSH2 0x2AE3 JUMP JUMPDEST PUSH2 0x1A46 SWAP2 SWAP1 PUSH2 0x2B54 JUMP JUMPDEST SWAP3 POP JUMPDEST PUSH1 0x5 PUSH1 0x0 SWAP1 SLOAD SWAP1 PUSH2 0x100 EXP SWAP1 DIV PUSH20 0xFFFFFFFFFFFFFFFFFFFFFFFFFFFFFFFFFFFFFFFF AND PUSH20 0xFFFFFFFFFFFFFFFFFFFFFFFFFFFFFFFFFFFFFFFF AND PUSH4 0x23B872DD CALLER ADDRESS DUP8 PUSH1 0x40 MLOAD DUP5 PUSH4 0xFFFFFFFF AND PUSH1 0xE0 SHL DUP2 MSTORE PUSH1 0x4 ADD PUSH2 0x1AA8 SWAP4 SWAP3 SWAP2 SWAP1 PUSH2 0x3072 JUMP JUMPDEST PUSH1 0x20 PUSH1 0x40 MLOAD DUP1 DUP4 SUB DUP2 PUSH1 0x0 DUP8 GAS CALL ISZERO DUP1 ISZERO PUSH2 0x1AC7 JUMPI RETURNDATASIZE PUSH1 0x0 DUP1 RETURNDATACOPY RETURNDATASIZE PUSH1 0x0 REVERT JUMPDEST POP POP POP POP PUSH1 0x40 MLOAD RETURNDATASIZE PUSH1 0x1F NOT PUSH1 0x1F DUP3 ADD AND DUP3 ADD DUP1 PUSH1 0x40 MSTORE POP DUP2 ADD SWAP1 PUSH2 0x1AEB SWAP2 SWAP1 PUSH2 0x2C8C JUMP JUMPDEST PUSH2 0x1B2A JUMPI PUSH1 0x40 MLOAD PUSH32 0x8C379A000000000000000000000000000000000000000000000000000000000 DUP2 MSTORE PUSH1 0x4 ADD PUSH2 0x1B21 SWAP1 PUSH2 0x2D05 JUMP JUMPDEST PUSH1 0x40 MLOAD DUP1 SWAP2 SUB SWAP1 REVERT JUMPDEST PUSH2 0x1B34 CALLER DUP5 PUSH2 0x23FE JUMP JUMPDEST PUSH1 0x5 PUSH1 0x0 SWAP1 SLOAD SWAP1 PUSH2 0x100 EXP SWAP1 DIV PUSH20 0xFFFFFFFFFFFFFFFFFFFFFFFFFFFFFFFFFFFFFFFF AND PUSH20 0xFFFFFFFFFFFFFFFFFFFFFFFFFFFFFFFFFFFFFFFF AND PUSH4 0x70A08231 ADDRESS PUSH1 0x40 MLOAD DUP3 PUSH4 0xFFFFFFFF AND PUSH1 0xE0 SHL DUP2 MSTORE PUSH1 0x4 ADD PUSH2 0x1B8F SWAP2 SWAP1 PUSH2 0x2A57 JUMP JUMPDEST PUSH1 0x20 PUSH1 0x40 MLOAD DUP1 DUP4 SUB DUP2 DUP7 GAS STATICCALL ISZERO DUP1 ISZERO PUSH2 0x1BAC JUMPI RETURNDATASIZE PUSH1 0x0 DUP1 RETURNDATACOPY RETURNDATASIZE PUSH1 0x0 REVERT JUMPDEST POP POP POP POP PUSH1 0x40 MLOAD RETURNDATASIZE PUSH1 0x1F NOT PUSH1 0x1F DUP3 ADD AND DUP3 ADD DUP1 PUSH1 0x40 MSTORE POP DUP2 ADD SWAP1 PUSH2 0x1BD0 SWAP2 SWAP1 PUSH2 0x2A87 JUMP JUMPDEST SELFBALANCE PUSH2 0x1BDB SWAP2 SWAP1 PUSH2 0x2AE3 JUMP JUMPDEST PUSH1 0x6 DUP2 SWAP1 SSTORE POP PUSH32 0xAA58F006CC244B2AF6662862508BD39465F57169FF8386D1D1F7B0B903150ABC DUP5 CALLVALUE DUP6 PUSH1 0x40 MLOAD PUSH2 0x1C14 SWAP4 SWAP3 SWAP2 SWAP1 PUSH2 0x2D25 JUMP JUMPDEST PUSH1 0x40 MLOAD DUP1 SWAP2 SUB SWAP1 LOG1 POP POP SWAP2 SWAP1 POP JUMP JUMPDEST PUSH1 0x0 DUP1 SELFBALANCE SWAP1 POP PUSH1 0x0 PUSH1 0x5 PUSH1 0x0 SWAP1 SLOAD SWAP1 PUSH2 0x100 EXP SWAP1 DIV PUSH20 0xFFFFFFFFFFFFFFFFFFFFFFFFFFFFFFFFFFFFFFFF AND PUSH20 0xFFFFFFFFFFFFFFFFFFFFFFFFFFFFFFFFFFFFFFFF AND PUSH4 0x70A08231 ADDRESS PUSH1 0x40 MLOAD DUP3 PUSH4 0xFFFFFFFF AND PUSH1 0xE0 SHL DUP2 MSTORE PUSH1 0x4 ADD PUSH2 0x1C86 SWAP2 SWAP1 PUSH2 0x2A57 JUMP JUMPDEST PUSH1 0x20 PUSH1 0x40 MLOAD DUP1 DUP4 SUB DUP2 DUP7 GAS STATICCALL ISZERO DUP1 ISZERO PUSH2 0x1CA3 JUMPI RETURNDATASIZE PUSH1 0x0 DUP1 RETURNDATACOPY RETURNDATASIZE PUSH1 0x0 REVERT JUMPDEST POP POP POP POP PUSH1 0x40 MLOAD RETURNDATASIZE PUSH1 0x1F NOT PUSH1 0x1F DUP3 ADD AND DUP3 ADD DUP1 PUSH1 0x40 MSTORE POP DUP2 ADD SWAP1 PUSH2 0x1CC7 SWAP2 SWAP1 PUSH2 0x2A87 JUMP JUMPDEST SWAP1 POP PUSH1 0x0 DUP2 GT DUP1 ISZERO PUSH2 0x1CD9 JUMPI POP PUSH1 0x0 DUP3 GT JUMPDEST PUSH2 0x1D18 JUMPI PUSH1 0x40 MLOAD PUSH32 0x8C379A000000000000000000000000000000000000000000000000000000000 DUP2 MSTORE PUSH1 0x4 ADD PUSH2 0x1D0F SWAP1 PUSH2 0x2DA8 JUMP JUMPDEST PUSH1 0x40 MLOAD DUP1 SWAP2 SUB SWAP1 REVERT JUMPDEST DUP2 DUP5 DUP3 PUSH2 0x1D25 SWAP2 SWAP1 PUSH2 0x2AE3 JUMP JUMPDEST PUSH2 0x1D2F SWAP2 SWAP1 PUSH2 0x2B54 JUMP JUMPDEST SWAP3 POP POP POP SWAP2 SWAP1 POP JUMP JUMPDEST PUSH1 0x5 PUSH1 0x0 SWAP1 SLOAD SWAP1 PUSH2 0x100 EXP SWAP1 DIV PUSH20 0xFFFFFFFFFFFFFFFFFFFFFFFFFFFFFFFFFFFFFFFF AND DUP2 JUMP JUMPDEST PUSH1 0x0 CALLER SWAP1 POP SWAP1 JUMP JUMPDEST PUSH1 0x0 PUSH20 0xFFFFFFFFFFFFFFFFFFFFFFFFFFFFFFFFFFFFFFFF AND DUP4 PUSH20 0xFFFFFFFFFFFFFFFFFFFFFFFFFFFFFFFFFFFFFFFF AND SUB PUSH2 0x1DD5 JUMPI PUSH1 0x40 MLOAD PUSH32 0x8C379A000000000000000000000000000000000000000000000000000000000 DUP2 MSTORE PUSH1 0x4 ADD PUSH2 0x1DCC SWAP1 PUSH2 0x31F3 JUMP JUMPDEST PUSH1 0x40 MLOAD DUP1 SWAP2 SUB SWAP1 REVERT JUMPDEST PUSH1 0x0 PUSH20 0xFFFFFFFFFFFFFFFFFFFFFFFFFFFFFFFFFFFFFFFF AND DUP3 PUSH20 0xFFFFFFFFFFFFFFFFFFFFFFFFFFFFFFFFFFFFFFFF AND SUB PUSH2 0x1E44 JUMPI PUSH1 0x40 MLOAD PUSH32 0x8C379A000000000000000000000000000000000000000000000000000000000 DUP2 MSTORE PUSH1 0x4 ADD PUSH2 0x1E3B SWAP1 PUSH2 0x3285 JUMP JUMPDEST PUSH1 0x40 MLOAD DUP1 SWAP2 SUB SWAP1 REVERT JUMPDEST DUP1 PUSH1 0x1 PUSH1 0x0 DUP6 PUSH20 0xFFFFFFFFFFFFFFFFFFFFFFFFFFFFFFFFFFFFFFFF AND PUSH20 0xFFFFFFFFFFFFFFFFFFFFFFFFFFFFFFFFFFFFFFFF AND DUP2 MSTORE PUSH1 0x20 ADD SWAP1 DUP2 MSTORE PUSH1 0x20 ADD PUSH1 0x0 KECCAK256 PUSH1 0x0 DUP5 PUSH20 0xFFFFFFFFFFFFFFFFFFFFFFFFFFFFFFFFFFFFFFFF AND PUSH20 0xFFFFFFFFFFFFFFFFFFFFFFFFFFFFFFFFFFFFFFFF AND DUP2 MSTORE PUSH1 0x20 ADD SWAP1 DUP2 MSTORE PUSH1 0x20 ADD PUSH1 0x0 KECCAK256 DUP2 SWAP1 SSTORE POP DUP2 PUSH20 0xFFFFFFFFFFFFFFFFFFFFFFFFFFFFFFFFFFFFFFFF AND DUP4 PUSH20 0xFFFFFFFFFFFFFFFFFFFFFFFFFFFFFFFFFFFFFFFF AND PUSH32 0x8C5BE1E5EBEC7D5BD14F71427D1E84F3DD0314C0F7B2291E5B200AC8C7C3B925 DUP4 PUSH1 0x40 MLOAD PUSH2 0x1F22 SWAP2 SWAP1 PUSH2 0x2784 JUMP JUMPDEST PUSH1 0x40 MLOAD DUP1 SWAP2 SUB SWAP1 LOG3 POP POP POP JUMP JUMPDEST PUSH1 0x0 PUSH20 0xFFFFFFFFFFFFFFFFFFFFFFFFFFFFFFFFFFFFFFFF AND DUP3 PUSH20 0xFFFFFFFFFFFFFFFFFFFFFFFFFFFFFFFFFFFFFFFF AND SUB PUSH2 0x1F9E JUMPI PUSH1 0x40 MLOAD PUSH32 0x8C379A000000000000000000000000000000000000000000000000000000000 DUP2 MSTORE PUSH1 0x4 ADD PUSH2 0x1F95 SWAP1 PUSH2 0x3317 JUMP JUMPDEST PUSH1 0x40 MLOAD DUP1 SWAP2 SUB SWAP1 REVERT JUMPDEST PUSH2 0x1FAA DUP3 PUSH1 0x0 DUP4 PUSH2 0x2554 JUMP JUMPDEST PUSH1 0x0 DUP1 PUSH1 0x0 DUP5 PUSH20 0xFFFFFFFFFFFFFFFFFFFFFFFFFFFFFFFFFFFFFFFF AND PUSH20 0xFFFFFFFFFFFFFFFFFFFFFFFFFFFFFFFFFFFFFFFF AND DUP2 MSTORE PUSH1 0x20 ADD SWAP1 DUP2 MSTORE PUSH1 0x20 ADD PUSH1 0x0 KECCAK256 SLOAD SWAP1 POP DUP2 DUP2 LT ISZERO PUSH2 0x2030 JUMPI PUSH1 0x40 MLOAD PUSH32 0x8C379A000000000000000000000000000000000000000000000000000000000 DUP2 MSTORE PUSH1 0x4 ADD PUSH2 0x2027 SWAP1 PUSH2 0x33A9 JUMP JUMPDEST PUSH1 0x40 MLOAD DUP1 SWAP2 SUB SWAP1 REVERT JUMPDEST DUP2 DUP2 SUB PUSH1 0x0 DUP1 DUP6 PUSH20 0xFFFFFFFFFFFFFFFFFFFFFFFFFFFFFFFFFFFFFFFF AND PUSH20 0xFFFFFFFFFFFFFFFFFFFFFFFFFFFFFFFFFFFFFFFF AND DUP2 MSTORE PUSH1 0x20 ADD SWAP1 DUP2 MSTORE PUSH1 0x20 ADD PUSH1 0x0 KECCAK256 DUP2 SWAP1 SSTORE POP DUP2 PUSH1 0x2 PUSH1 0x0 DUP3 DUP3 SLOAD SUB SWAP3 POP POP DUP2 SWAP1 SSTORE POP PUSH1 0x0 PUSH20 0xFFFFFFFFFFFFFFFFFFFFFFFFFFFFFFFFFFFFFFFF AND DUP4 PUSH20 0xFFFFFFFFFFFFFFFFFFFFFFFFFFFFFFFFFFFFFFFF AND PUSH32 0xDDF252AD1BE2C89B69C2B068FC378DAA952BA7F163C4A11628F55A4DF523B3EF DUP5 PUSH1 0x40 MLOAD PUSH2 0x20E3 SWAP2 SWAP1 PUSH2 0x2784 JUMP JUMPDEST PUSH1 0x40 MLOAD DUP1 SWAP2 SUB SWAP1 LOG3 PUSH2 0x20F7 DUP4 PUSH1 0x0 DUP5 PUSH2 0x2559 JUMP JUMPDEST POP POP POP JUMP JUMPDEST PUSH1 0x0 PUSH2 0x2108 DUP5 DUP5 PUSH2 0x1819 JUMP JUMPDEST SWAP1 POP PUSH32 0xFFFFFFFFFFFFFFFFFFFFFFFFFFFFFFFFFFFFFFFFFFFFFFFFFFFFFFFFFFFFFFFF DUP2 EQ PUSH2 0x2182 JUMPI DUP2 DUP2 LT ISZERO PUSH2 0x2174 JUMPI PUSH1 0x40 MLOAD PUSH32 0x8C379A000000000000000000000000000000000000000000000000000000000 DUP2 MSTORE PUSH1 0x4 ADD PUSH2 0x216B SWAP1 PUSH2 0x3415 JUMP JUMPDEST PUSH1 0x40 MLOAD DUP1 SWAP2 SUB SWAP1 REVERT JUMPDEST PUSH2 0x2181 DUP5 DUP5 DUP5 DUP5 SUB PUSH2 0x1D66 JUMP JUMPDEST JUMPDEST POP POP POP POP JUMP JUMPDEST PUSH1 0x0 PUSH20 0xFFFFFFFFFFFFFFFFFFFFFFFFFFFFFFFFFFFFFFFF AND DUP4 PUSH20 0xFFFFFFFFFFFFFFFFFFFFFFFFFFFFFFFFFFFFFFFF AND SUB PUSH2 0x21F7 JUMPI PUSH1 0x40 MLOAD PUSH32 0x8C379A000000000000000000000000000000000000000000000000000000000 DUP2 MSTORE PUSH1 0x4 ADD PUSH2 0x21EE SWAP1 PUSH2 0x34A7 JUMP JUMPDEST PUSH1 0x40 MLOAD DUP1 SWAP2 SUB SWAP1 REVERT JUMPDEST PUSH1 0x0 PUSH20 0xFFFFFFFFFFFFFFFFFFFFFFFFFFFFFFFFFFFFFFFF AND DUP3 PUSH20 0xFFFFFFFFFFFFFFFFFFFFFFFFFFFFFFFFFFFFFFFF AND SUB PUSH2 0x2266 JUMPI PUSH1 0x40 MLOAD PUSH32 0x8C379A000000000000000000000000000000000000000000000000000000000 DUP2 MSTORE PUSH1 0x4 ADD PUSH2 0x225D SWAP1 PUSH2 0x3539 JUMP JUMPDEST PUSH1 0x40 MLOAD DUP1 SWAP2 SUB SWAP1 REVERT JUMPDEST PUSH2 0x2271 DUP4 DUP4 DUP4 PUSH2 0x2554 JUMP JUMPDEST PUSH1 0x0 DUP1 PUSH1 0x0 DUP6 PUSH20 0xFFFFFFFFFFFFFFFFFFFFFFFFFFFFFFFFFFFFFFFF AND PUSH20 0xFFFFFFFFFFFFFFFFFFFFFFFFFFFFFFFFFFFFFFFF AND DUP2 MSTORE PUSH1 0x20 ADD SWAP1 DUP2 MSTORE PUSH1 0x20 ADD PUSH1 0x0 KECCAK256 SLOAD SWAP1 POP DUP2 DUP2 LT ISZERO PUSH2 0x22F7 JUMPI PUSH1 0x40 MLOAD PUSH32 0x8C379A000000000000000000000000000000000000000000000000000000000 DUP2 MSTORE PUSH1 0x4 ADD PUSH2 0x22EE SWAP1 PUSH2 0x35CB JUMP JUMPDEST PUSH1 0x40 MLOAD DUP1 SWAP2 SUB SWAP1 REVERT JUMPDEST DUP2 DUP2 SUB PUSH1 0x0 DUP1 DUP7 PUSH20 0xFFFFFFFFFFFFFFFFFFFFFFFFFFFFFFFFFFFFFFFF AND PUSH20 0xFFFFFFFFFFFFFFFFFFFFFFFFFFFFFFFFFFFFFFFF AND DUP2 MSTORE PUSH1 0x20 ADD SWAP1 DUP2 MSTORE PUSH1 0x20 ADD PUSH1 0x0 KECCAK256 DUP2 SWAP1 SSTORE POP DUP2 PUSH1 0x0 DUP1 DUP6 PUSH20 0xFFFFFFFFFFFFFFFFFFFFFFFFFFFFFFFFFFFFFFFF AND PUSH20 0xFFFFFFFFFFFFFFFFFFFFFFFFFFFFFFFFFFFFFFFF AND DUP2 MSTORE PUSH1 0x20 ADD SWAP1 DUP2 MSTORE PUSH1 0x20 ADD PUSH1 0x0 KECCAK256 PUSH1 0x0 DUP3 DUP3 SLOAD ADD SWAP3 POP POP DUP2 SWAP1 SSTORE POP DUP3 PUSH20 0xFFFFFFFFFFFFFFFFFFFFFFFFFFFFFFFFFFFFFFFF AND DUP5 PUSH20 0xFFFFFFFFFFFFFFFFFFFFFFFFFFFFFFFFFFFFFFFF AND PUSH32 0xDDF252AD1BE2C89B69C2B068FC378DAA952BA7F163C4A11628F55A4DF523B3EF DUP5 PUSH1 0x40 MLOAD PUSH2 0x23E5 SWAP2 SWAP1 PUSH2 0x2784 JUMP JUMPDEST PUSH1 0x40 MLOAD DUP1 SWAP2 SUB SWAP1 LOG3 PUSH2 0x23F8 DUP5 DUP5 DUP5 PUSH2 0x2559 JUMP JUMPDEST POP POP POP POP JUMP JUMPDEST PUSH1 0x0 PUSH20 0xFFFFFFFFFFFFFFFFFFFFFFFFFFFFFFFFFFFFFFFF AND DUP3 PUSH20 0xFFFFFFFFFFFFFFFFFFFFFFFFFFFFFFFFFFFFFFFF AND SUB PUSH2 0x246D JUMPI PUSH1 0x40 MLOAD PUSH32 0x8C379A000000000000000000000000000000000000000000000000000000000 DUP2 MSTORE PUSH1 0x4 ADD PUSH2 0x2464 SWAP1 PUSH2 0x3637 JUMP JUMPDEST PUSH1 0x40 MLOAD DUP1 SWAP2 SUB SWAP1 REVERT JUMPDEST PUSH2 0x2479 PUSH1 0x0 DUP4 DUP4 PUSH2 0x2554 JUMP JUMPDEST DUP1 PUSH1 0x2 PUSH1 0x0 DUP3 DUP3 SLOAD PUSH2 0x248B SWAP2 SWAP1 PUSH2 0x2E68 JUMP JUMPDEST SWAP3 POP POP DUP2 SWAP1 SSTORE POP DUP1 PUSH1 0x0 DUP1 DUP5 PUSH20 0xFFFFFFFFFFFFFFFFFFFFFFFFFFFFFFFFFFFFFFFF AND PUSH20 0xFFFFFFFFFFFFFFFFFFFFFFFFFFFFFFFFFFFFFFFF AND DUP2 MSTORE PUSH1 0x20 ADD SWAP1 DUP2 MSTORE PUSH1 0x20 ADD PUSH1 0x0 KECCAK256 PUSH1 0x0 DUP3 DUP3 SLOAD ADD SWAP3 POP POP DUP2 SWAP1 SSTORE POP DUP2 PUSH20 0xFFFFFFFFFFFFFFFFFFFFFFFFFFFFFFFFFFFFFFFF AND PUSH1 0x0 PUSH20 0xFFFFFFFFFFFFFFFFFFFFFFFFFFFFFFFFFFFFFFFF AND PUSH32 0xDDF252AD1BE2C89B69C2B068FC378DAA952BA7F163C4A11628F55A4DF523B3EF DUP4 PUSH1 0x40 MLOAD PUSH2 0x253C SWAP2 SWAP1 PUSH2 0x2784 JUMP JUMPDEST PUSH1 0x40 MLOAD DUP1 SWAP2 SUB SWAP1 LOG3 PUSH2 0x2550 PUSH1 0x0 DUP4 DUP4 PUSH2 0x2559 JUMP JUMPDEST POP POP JUMP JUMPDEST POP POP POP JUMP JUMPDEST POP POP POP JUMP JUMPDEST PUSH1 0x0 DUP2 MLOAD SWAP1 POP SWAP2 SWAP1 POP JUMP JUMPDEST PUSH1 0x0 DUP3 DUP3 MSTORE PUSH1 0x20 DUP3 ADD SWAP1 POP SWAP3 SWAP2 POP POP JUMP JUMPDEST PUSH1 0x0 JUMPDEST DUP4 DUP2 LT ISZERO PUSH2 0x2598 JUMPI DUP1 DUP3 ADD MLOAD DUP2 DUP5 ADD MSTORE PUSH1 0x20 DUP2 ADD SWAP1 POP PUSH2 0x257D JUMP JUMPDEST PUSH1 0x0 DUP5 DUP5 ADD MSTORE POP POP POP POP JUMP JUMPDEST PUSH1 0x0 PUSH1 0x1F NOT PUSH1 0x1F DUP4 ADD AND SWAP1 POP SWAP2 SWAP1 POP JUMP JUMPDEST PUSH1 0x0 PUSH2 0x25C0 DUP3 PUSH2 0x255E JUMP JUMPDEST PUSH2 0x25CA DUP2 DUP6 PUSH2 0x2569 JUMP JUMPDEST SWAP4 POP PUSH2 0x25DA DUP2 DUP6 PUSH1 0x20 DUP7 ADD PUSH2 0x257A JUMP JUMPDEST PUSH2 0x25E3 DUP2 PUSH2 0x25A4 JUMP JUMPDEST DUP5 ADD SWAP2 POP POP SWAP3 SWAP2 POP POP JUMP JUMPDEST PUSH1 0x0 PUSH1 0x20 DUP3 ADD SWAP1 POP DUP2 DUP2 SUB PUSH1 0x0 DUP4 ADD MSTORE PUSH2 0x2608 DUP2 DUP5 PUSH2 0x25B5 JUMP JUMPDEST SWAP1 POP SWAP3 SWAP2 POP POP JUMP JUMPDEST PUSH1 0x0 DUP1 REVERT JUMPDEST PUSH1 0x0 PUSH20 0xFFFFFFFFFFFFFFFFFFFFFFFFFFFFFFFFFFFFFFFF DUP3 AND SWAP1 POP SWAP2 SWAP1 POP JUMP JUMPDEST PUSH1 0x0 PUSH2 0x2640 DUP3 PUSH2 0x2615 JUMP JUMPDEST SWAP1 POP SWAP2 SWAP1 POP JUMP JUMPDEST PUSH2 0x2650 DUP2 PUSH2 0x2635 JUMP JUMPDEST DUP2 EQ PUSH2 0x265B JUMPI PUSH1 0x0 DUP1 REVERT JUMPDEST POP JUMP JUMPDEST PUSH1 0x0 DUP2 CALLDATALOAD SWAP1 POP PUSH2 0x266D DUP2 PUSH2 0x2647 JUMP JUMPDEST SWAP3 SWAP2 POP POP JUMP JUMPDEST PUSH1 0x0 DUP2 SWAP1 POP SWAP2 SWAP1 POP JUMP JUMPDEST PUSH2 0x2686 DUP2 PUSH2 0x2673 JUMP JUMPDEST DUP2 EQ PUSH2 0x2691 JUMPI PUSH1 0x0 DUP1 REVERT JUMPDEST POP JUMP JUMPDEST PUSH1 0x0 DUP2 CALLDATALOAD SWAP1 POP PUSH2 0x26A3 DUP2 PUSH2 0x267D JUMP JUMPDEST SWAP3 SWAP2 POP POP JUMP JUMPDEST PUSH1 0x0 DUP1 PUSH1 0x40 DUP4 DUP6 SUB SLT ISZERO PUSH2 0x26C0 JUMPI PUSH2 0x26BF PUSH2 0x2610 JUMP JUMPDEST JUMPDEST PUSH1 0x0 PUSH2 0x26CE DUP6 DUP3 DUP7 ADD PUSH2 0x265E JUMP JUMPDEST SWAP3 POP POP PUSH1 0x20 PUSH2 0x26DF DUP6 DUP3 DUP7 ADD PUSH2 0x2694 JUMP JUMPDEST SWAP2 POP POP SWAP3 POP SWAP3 SWAP1 POP JUMP JUMPDEST PUSH1 0x0 DUP2 ISZERO ISZERO SWAP1 POP SWAP2 SWAP1 POP JUMP JUMPDEST PUSH2 0x26FE DUP2 PUSH2 0x26E9 JUMP JUMPDEST DUP3 MSTORE POP POP JUMP JUMPDEST PUSH1 0x0 PUSH1 0x20 DUP3 ADD SWAP1 POP PUSH2 0x2719 PUSH1 0x0 DUP4 ADD DUP5 PUSH2 0x26F5 JUMP JUMPDEST SWAP3 SWAP2 POP POP JUMP JUMPDEST PUSH1 0x0 PUSH1 0x20 DUP3 DUP5 SUB SLT ISZERO PUSH2 0x2735 JUMPI PUSH2 0x2734 PUSH2 0x2610 JUMP JUMPDEST JUMPDEST PUSH1 0x0 PUSH2 0x2743 DUP5 DUP3 DUP6 ADD PUSH2 0x2694 JUMP JUMPDEST SWAP2 POP POP SWAP3 SWAP2 POP POP JUMP JUMPDEST PUSH2 0x2755 DUP2 PUSH2 0x2673 JUMP JUMPDEST DUP3 MSTORE POP POP JUMP JUMPDEST PUSH1 0x0 PUSH1 0x40 DUP3 ADD SWAP1 POP PUSH2 0x2770 PUSH1 0x0 DUP4 ADD DUP6 PUSH2 0x274C JUMP JUMPDEST PUSH2 0x277D PUSH1 0x20 DUP4 ADD DUP5 PUSH2 0x274C JUMP JUMPDEST SWAP4 SWAP3 POP POP POP JUMP JUMPDEST PUSH1 0x0 PUSH1 0x20 DUP3 ADD SWAP1 POP PUSH2 0x2799 PUSH1 0x0 DUP4 ADD DUP5 PUSH2 0x274C JUMP JUMPDEST SWAP3 SWAP2 POP POP JUMP JUMPDEST PUSH1 0x0 DUP1 PUSH1 0x0 PUSH1 0x60 DUP5 DUP7 SUB SLT ISZERO PUSH2 0x27B8 JUMPI PUSH2 0x27B7 PUSH2 0x2610 JUMP JUMPDEST JUMPDEST PUSH1 0x0 PUSH2 0x27C6 DUP7 DUP3 DUP8 ADD PUSH2 0x265E JUMP JUMPDEST SWAP4 POP POP PUSH1 0x20 PUSH2 0x27D7 DUP7 DUP3 DUP8 ADD PUSH2 0x265E JUMP JUMPDEST SWAP3 POP POP PUSH1 0x40 PUSH2 0x27E8 DUP7 DUP3 DUP8 ADD PUSH2 0x2694 JUMP JUMPDEST SWAP2 POP POP SWAP3 POP SWAP3 POP SWAP3 JUMP JUMPDEST PUSH1 0x0 PUSH1 0xFF DUP3 AND SWAP1 POP SWAP2 SWAP1 POP JUMP JUMPDEST PUSH2 0x2808 DUP2 PUSH2 0x27F2 JUMP JUMPDEST DUP3 MSTORE POP POP JUMP JUMPDEST PUSH1 0x0 PUSH1 0x20 DUP3 ADD SWAP1 POP PUSH2 0x2823 PUSH1 0x0 DUP4 ADD DUP5 PUSH2 0x27FF JUMP JUMPDEST SWAP3 SWAP2 POP POP JUMP JUMPDEST PUSH1 0x0 PUSH1 0x20 DUP3 DUP5 SUB SLT ISZERO PUSH2 0x283F JUMPI PUSH2 0x283E PUSH2 0x2610 JUMP JUMPDEST JUMPDEST PUSH1 0x0 PUSH2 0x284D DUP5 DUP3 DUP6 ADD PUSH2 0x265E JUMP JUMPDEST SWAP2 POP POP SWAP3 SWAP2 POP POP JUMP JUMPDEST PUSH1 0x0 DUP1 PUSH1 0x40 DUP4 DUP6 SUB SLT ISZERO PUSH2 0x286D JUMPI PUSH2 0x286C PUSH2 0x2610 JUMP JUMPDEST JUMPDEST PUSH1 0x0 PUSH2 0x287B DUP6 DUP3 DUP7 ADD PUSH2 0x265E JUMP JUMPDEST SWAP3 POP POP PUSH1 0x20 PUSH2 0x288C DUP6 DUP3 DUP7 ADD PUSH2 0x265E JUMP JUMPDEST SWAP2 POP POP SWAP3 POP SWAP3 SWAP1 POP JUMP JUMPDEST PUSH1 0x0 DUP2 SWAP1 POP SWAP2 SWAP1 POP JUMP JUMPDEST PUSH1 0x0 PUSH2 0x28BB PUSH2 0x28B6 PUSH2 0x28B1 DUP5 PUSH2 0x2615 JUMP JUMPDEST PUSH2 0x2896 JUMP JUMPDEST PUSH2 0x2615 JUMP JUMPDEST SWAP1 POP SWAP2 SWAP1 POP JUMP JUMPDEST PUSH1 0x0 PUSH2 0x28CD DUP3 PUSH2 0x28A0 JUMP JUMPDEST SWAP1 POP SWAP2 SWAP1 POP JUMP JUMPDEST PUSH1 0x0 PUSH2 0x28DF DUP3 PUSH2 0x28C2 JUMP JUMPDEST SWAP1 POP SWAP2 SWAP1 POP JUMP JUMPDEST PUSH2 0x28EF DUP2 PUSH2 0x28D4 JUMP JUMPDEST DUP3 MSTORE POP POP JUMP JUMPDEST PUSH1 0x0 PUSH1 0x20 DUP3 ADD SWAP1 POP PUSH2 0x290A PUSH1 0x0 DUP4 ADD DUP5 PUSH2 0x28E6 JUMP JUMPDEST SWAP3 SWAP2 POP POP JUMP JUMPDEST PUSH32 0x4E487B7100000000000000000000000000000000000000000000000000000000 PUSH1 0x0 MSTORE PUSH1 0x22 PUSH1 0x4 MSTORE PUSH1 0x24 PUSH1 0x0 REVERT JUMPDEST PUSH1 0x0 PUSH1 0x2 DUP3 DIV SWAP1 POP PUSH1 0x1 DUP3 AND DUP1 PUSH2 0x2957 JUMPI PUSH1 0x7F DUP3 AND SWAP2 POP JUMPDEST PUSH1 0x20 DUP3 LT DUP2 SUB PUSH2 0x296A JUMPI PUSH2 0x2969 PUSH2 0x2910 JUMP JUMPDEST JUMPDEST POP SWAP2 SWAP1 POP JUMP JUMPDEST PUSH32 0x496E76616C6964204C50206275726E0000000000000000000000000000000000 PUSH1 0x0 DUP3 ADD MSTORE POP JUMP JUMPDEST PUSH1 0x0 PUSH2 0x29A6 PUSH1 0xF DUP4 PUSH2 0x2569 JUMP JUMPDEST SWAP2 POP PUSH2 0x29B1 DUP3 PUSH2 0x2970 JUMP JUMPDEST PUSH1 0x20 DUP3 ADD SWAP1 POP SWAP2 SWAP1 POP JUMP JUMPDEST PUSH1 0x0 PUSH1 0x20 DUP3 ADD SWAP1 POP DUP2 DUP2 SUB PUSH1 0x0 DUP4 ADD MSTORE PUSH2 0x29D5 DUP2 PUSH2 0x2999 JUMP JUMPDEST SWAP1 POP SWAP2 SWAP1 POP JUMP JUMPDEST PUSH32 0x456D70747920706F6F6C00000000000000000000000000000000000000000000 PUSH1 0x0 DUP3 ADD MSTORE POP JUMP JUMPDEST PUSH1 0x0 PUSH2 0x2A12 PUSH1 0xA DUP4 PUSH2 0x2569 JUMP JUMPDEST SWAP2 POP PUSH2 0x2A1D DUP3 PUSH2 0x29DC JUMP JUMPDEST PUSH1 0x20 DUP3 ADD SWAP1 POP SWAP2 SWAP1 POP JUMP JUMPDEST PUSH1 0x0 PUSH1 0x20 DUP3 ADD SWAP1 POP DUP2 DUP2 SUB PUSH1 0x0 DUP4 ADD MSTORE PUSH2 0x2A41 DUP2 PUSH2 0x2A05 JUMP JUMPDEST SWAP1 POP SWAP2 SWAP1 POP JUMP JUMPDEST PUSH2 0x2A51 DUP2 PUSH2 0x2635 JUMP JUMPDEST DUP3 MSTORE POP POP JUMP JUMPDEST PUSH1 0x0 PUSH1 0x20 DUP3 ADD SWAP1 POP PUSH2 0x2A6C PUSH1 0x0 DUP4 ADD DUP5 PUSH2 0x2A48 JUMP JUMPDEST SWAP3 SWAP2 POP POP JUMP JUMPDEST PUSH1 0x0 DUP2 MLOAD SWAP1 POP PUSH2 0x2A81 DUP2 PUSH2 0x267D JUMP JUMPDEST SWAP3 SWAP2 POP POP JUMP JUMPDEST PUSH1 0x0 PUSH1 0x20 DUP3 DUP5 SUB SLT ISZERO PUSH2 0x2A9D JUMPI PUSH2 0x2A9C PUSH2 0x2610 JUMP JUMPDEST JUMPDEST PUSH1 0x0 PUSH2 0x2AAB DUP5 DUP3 DUP6 ADD PUSH2 0x2A72 JUMP JUMPDEST SWAP2 POP POP SWAP3 SWAP2 POP POP JUMP JUMPDEST PUSH32 0x4E487B7100000000000000000000000000000000000000000000000000000000 PUSH1 0x0 MSTORE PUSH1 0x11 PUSH1 0x4 MSTORE PUSH1 0x24 PUSH1 0x0 REVERT JUMPDEST PUSH1 0x0 PUSH2 0x2AEE DUP3 PUSH2 0x2673 JUMP JUMPDEST SWAP2 POP PUSH2 0x2AF9 DUP4 PUSH2 0x2673 JUMP JUMPDEST SWAP3 POP DUP3 DUP3 MUL PUSH2 0x2B07 DUP2 PUSH2 0x2673 JUMP JUMPDEST SWAP2 POP DUP3 DUP3 DIV DUP5 EQ DUP4 ISZERO OR PUSH2 0x2B1E JUMPI PUSH2 0x2B1D PUSH2 0x2AB4 JUMP JUMPDEST JUMPDEST POP SWAP3 SWAP2 POP POP JUMP JUMPDEST PUSH32 0x4E487B7100000000000000000000000000000000000000000000000000000000 PUSH1 0x0 MSTORE PUSH1 0x12 PUSH1 0x4 MSTORE PUSH1 0x24 PUSH1 0x0 REVERT JUMPDEST PUSH1 0x0 PUSH2 0x2B5F DUP3 PUSH2 0x2673 JUMP JUMPDEST SWAP2 POP PUSH2 0x2B6A DUP4 PUSH2 0x2673 JUMP JUMPDEST SWAP3 POP DUP3 PUSH2 0x2B7A JUMPI PUSH2 0x2B79 PUSH2 0x2B25 JUMP JUMPDEST JUMPDEST DUP3 DUP3 DIV SWAP1 POP SWAP3 SWAP2 POP POP JUMP JUMPDEST PUSH1 0x0 DUP2 SWAP1 POP SWAP3 SWAP2 POP POP JUMP JUMPDEST POP JUMP JUMPDEST PUSH1 0x0 PUSH2 0x2BA0 PUSH1 0x0 DUP4 PUSH2 0x2B85 JUMP JUMPDEST SWAP2 POP PUSH2 0x2BAB DUP3 PUSH2 0x2B90 JUMP JUMPDEST PUSH1 0x0 DUP3 ADD SWAP1 POP SWAP2 SWAP1 POP JUMP JUMPDEST PUSH1 0x0 PUSH2 0x2BC1 DUP3 PUSH2 0x2B93 JUMP JUMPDEST SWAP2 POP DUP2 SWAP1 POP SWAP2 SWAP1 POP JUMP JUMPDEST PUSH32 0x455448207472616E73666572206661696C656400000000000000000000000000 PUSH1 0x0 DUP3 ADD MSTORE POP JUMP JUMPDEST PUSH1 0x0 PUSH2 0x2C01 PUSH1 0x13 DUP4 PUSH2 0x2569 JUMP JUMPDEST SWAP2 POP PUSH2 0x2C0C DUP3 PUSH2 0x2BCB JUMP JUMPDEST PUSH1 0x20 DUP3 ADD SWAP1 POP SWAP2 SWAP1 POP JUMP JUMPDEST PUSH1 0x0 PUSH1 0x20 DUP3 ADD SWAP1 POP DUP2 DUP2 SUB PUSH1 0x0 DUP4 ADD MSTORE PUSH2 0x2C30 DUP2 PUSH2 0x2BF4 JUMP JUMPDEST SWAP1 POP SWAP2 SWAP1 POP JUMP JUMPDEST PUSH1 0x0 PUSH1 0x40 DUP3 ADD SWAP1 POP PUSH2 0x2C4C PUSH1 0x0 DUP4 ADD DUP6 PUSH2 0x2A48 JUMP JUMPDEST PUSH2 0x2C59 PUSH1 0x20 DUP4 ADD DUP5 PUSH2 0x274C JUMP JUMPDEST SWAP4 SWAP3 POP POP POP JUMP JUMPDEST PUSH2 0x2C69 DUP2 PUSH2 0x26E9 JUMP JUMPDEST DUP2 EQ PUSH2 0x2C74 JUMPI PUSH1 0x0 DUP1 REVERT JUMPDEST POP JUMP JUMPDEST PUSH1 0x0 DUP2 MLOAD SWAP1 POP PUSH2 0x2C86 DUP2 PUSH2 0x2C60 JUMP JUMPDEST SWAP3 SWAP2 POP POP JUMP JUMPDEST PUSH1 0x0 PUSH1 0x20 DUP3 DUP5 SUB SLT ISZERO PUSH2 0x2CA2 JUMPI PUSH2 0x2CA1 PUSH2 0x2610 JUMP JUMPDEST JUMPDEST PUSH1 0x0 PUSH2 0x2CB0 DUP5 DUP3 DUP6 ADD PUSH2 0x2C77 JUMP JUMPDEST SWAP2 POP POP SWAP3 SWAP2 POP POP JUMP JUMPDEST PUSH32 0x546F6B656E207472616E73666572206661696C65640000000000000000000000 PUSH1 0x0 DUP3 ADD MSTORE POP JUMP JUMPDEST PUSH1 0x0 PUSH2 0x2CEF PUSH1 0x15 DUP4 PUSH2 0x2569 JUMP JUMPDEST SWAP2 POP PUSH2 0x2CFA DUP3 PUSH2 0x2CB9 JUMP JUMPDEST PUSH1 0x20 DUP3 ADD SWAP1 POP SWAP2 SWAP1 POP JUMP JUMPDEST PUSH1 0x0 PUSH1 0x20 DUP3 ADD SWAP1 POP DUP2 DUP2 SUB PUSH1 0x0 DUP4 ADD MSTORE PUSH2 0x2D1E DUP2 PUSH2 0x2CE2 JUMP JUMPDEST SWAP1 POP SWAP2 SWAP1 POP JUMP JUMPDEST PUSH1 0x0 PUSH1 0x60 DUP3 ADD SWAP1 POP PUSH2 0x2D3A PUSH1 0x0 DUP4 ADD DUP7 PUSH2 0x274C JUMP JUMPDEST PUSH2 0x2D47 PUSH1 0x20 DUP4 ADD DUP6 PUSH2 0x274C JUMP JUMPDEST PUSH2 0x2D54 PUSH1 0x40 DUP4 ADD DUP5 PUSH2 0x274C JUMP JUMPDEST SWAP5 SWAP4 POP POP POP POP JUMP JUMPDEST PUSH32 0x506F6F6C20656D70747900000000000000000000000000000000000000000000 PUSH1 0x0 DUP3 ADD MSTORE POP JUMP JUMPDEST PUSH1 0x0 PUSH2 0x2D92 PUSH1 0xA DUP4 PUSH2 0x2569 JUMP JUMPDEST SWAP2 POP PUSH2 0x2D9D DUP3 PUSH2 0x2D5C JUMP JUMPDEST PUSH1 0x20 DUP3 ADD SWAP1 POP SWAP2 SWAP1 POP JUMP JUMPDEST PUSH1 0x0 PUSH1 0x20 DUP3 ADD SWAP1 POP DUP2 DUP2 SUB PUSH1 0x0 DUP4 ADD MSTORE PUSH2 0x2DC1 DUP2 PUSH2 0x2D85 JUMP JUMPDEST SWAP1 POP SWAP2 SWAP1 POP JUMP JUMPDEST PUSH32 0x496E76616C696420455448000000000000000000000000000000000000000000 PUSH1 0x0 DUP3 ADD MSTORE POP JUMP JUMPDEST PUSH1 0x0 PUSH2 0x2DFE PUSH1 0xB DUP4 PUSH2 0x2569 JUMP JUMPDEST SWAP2 POP PUSH2 0x2E09 DUP3 PUSH2 0x2DC8 JUMP JUMPDEST PUSH1 0x20 DUP3 ADD SWAP1 POP SWAP2 SWAP1 POP JUMP JUMPDEST PUSH1 0x0 PUSH1 0x20 DUP3 ADD SWAP1 POP DUP2 DUP2 SUB PUSH1 0x0 DUP4 ADD MSTORE PUSH2 0x2E2D DUP2 PUSH2 0x2DF1 JUMP JUMPDEST SWAP1 POP SWAP2 SWAP1 POP JUMP JUMPDEST PUSH1 0x0 PUSH2 0x2E3F DUP3 PUSH2 0x2673 JUMP JUMPDEST SWAP2 POP PUSH2 0x2E4A DUP4 PUSH2 0x2673 JUMP JUMPDEST SWAP3 POP DUP3 DUP3 SUB SWAP1 POP DUP2 DUP2 GT ISZERO PUSH2 0x2E62 JUMPI PUSH2 0x2E61 PUSH2 0x2AB4 JUMP JUMPDEST JUMPDEST SWAP3 SWAP2 POP POP JUMP JUMPDEST PUSH1 0x0 PUSH2 0x2E73 DUP3 PUSH2 0x2673 JUMP JUMPDEST SWAP2 POP PUSH2 0x2E7E DUP4 PUSH2 0x2673 JUMP JUMPDEST SWAP3 POP DUP3 DUP3 ADD SWAP1 POP DUP1 DUP3 GT ISZERO PUSH2 0x2E96 JUMPI PUSH2 0x2E95 PUSH2 0x2AB4 JUMP JUMPDEST JUMPDEST SWAP3 SWAP2 POP POP JUMP JUMPDEST PUSH32 0x4E6F20746F6B656E206F75747075740000000000000000000000000000000000 PUSH1 0x0 DUP3 ADD MSTORE POP JUMP JUMPDEST PUSH1 0x0 PUSH2 0x2ED2 PUSH1 0xF DUP4 PUSH2 0x2569 JUMP JUMPDEST SWAP2 POP PUSH2 0x2EDD DUP3 PUSH2 0x2E9C JUMP JUMPDEST PUSH1 0x20 DUP3 ADD SWAP1 POP SWAP2 SWAP1 POP JUMP JUMPDEST PUSH1 0x0 PUSH1 0x20 DUP3 ADD SWAP1 POP DUP2 DUP2 SUB PUSH1 0x0 DUP4 ADD MSTORE PUSH2 0x2F01 DUP2 PUSH2 0x2EC5 JUMP JUMPDEST SWAP1 POP SWAP2 SWAP1 POP JUMP JUMPDEST PUSH32 0x4E6F20455448206F757470757400000000000000000000000000000000000000 PUSH1 0x0 DUP3 ADD MSTORE POP JUMP JUMPDEST PUSH1 0x0 PUSH2 0x2F3E PUSH1 0xD DUP4 PUSH2 0x2569 JUMP JUMPDEST SWAP2 POP PUSH2 0x2F49 DUP3 PUSH2 0x2F08 JUMP JUMPDEST PUSH1 0x20 DUP3 ADD SWAP1 POP SWAP2 SWAP1 POP JUMP JUMPDEST PUSH1 0x0 PUSH1 0x20 DUP3 ADD SWAP1 POP DUP2 DUP2 SUB PUSH1 0x0 DUP4 ADD MSTORE PUSH2 0x2F6D DUP2 PUSH2 0x2F31 JUMP JUMPDEST SWAP1 POP SWAP2 SWAP1 POP JUMP JUMPDEST PUSH32 0x45524332303A2064656372656173656420616C6C6F77616E63652062656C6F77 PUSH1 0x0 DUP3 ADD MSTORE PUSH32 0x207A65726F000000000000000000000000000000000000000000000000000000 PUSH1 0x20 DUP3 ADD MSTORE POP JUMP JUMPDEST PUSH1 0x0 PUSH2 0x2FD0 PUSH1 0x25 DUP4 PUSH2 0x2569 JUMP JUMPDEST SWAP2 POP PUSH2 0x2FDB DUP3 PUSH2 0x2F74 JUMP JUMPDEST PUSH1 0x40 DUP3 ADD SWAP1 POP SWAP2 SWAP1 POP JUMP JUMPDEST PUSH1 0x0 PUSH1 0x20 DUP3 ADD SWAP1 POP DUP2 DUP2 SUB PUSH1 0x0 DUP4 ADD MSTORE PUSH2 0x2FFF DUP2 PUSH2 0x2FC3 JUMP JUMPDEST SWAP1 POP SWAP2 SWAP1 POP JUMP JUMPDEST PUSH32 0x496E76616C696420616D6F756E74000000000000000000000000000000000000 PUSH1 0x0 DUP3 ADD MSTORE POP JUMP JUMPDEST PUSH1 0x0 PUSH2 0x303C PUSH1 0xE DUP4 PUSH2 0x2569 JUMP JUMPDEST SWAP2 POP PUSH2 0x3047 DUP3 PUSH2 0x3006 JUMP JUMPDEST PUSH1 0x20 DUP3 ADD SWAP1 POP SWAP2 SWAP1 POP JUMP JUMPDEST PUSH1 0x0 PUSH1 0x20 DUP3 ADD SWAP1 POP DUP2 DUP2 SUB PUSH1 0x0 DUP4 ADD MSTORE PUSH2 0x306B DUP2 PUSH2 0x302F JUMP JUMPDEST SWAP1 POP SWAP2 SWAP1 POP JUMP JUMPDEST PUSH1 0x0 PUSH1 0x60 DUP3 ADD SWAP1 POP PUSH2 0x3087 PUSH1 0x0 DUP4 ADD DUP7 PUSH2 0x2A48 JUMP JUMPDEST PUSH2 0x3094 PUSH1 0x20 DUP4 ADD DUP6 PUSH2 0x2A48 JUMP JUMPDEST PUSH2 0x30A1 PUSH1 0x40 DUP4 ADD DUP5 PUSH2 0x274C JUMP JUMPDEST SWAP5 SWAP4 POP POP POP POP JUMP JUMPDEST PUSH32 0x496E76616C696420616D6F756E74730000000000000000000000000000000000 PUSH1 0x0 DUP3 ADD MSTORE POP JUMP JUMPDEST PUSH1 0x0 PUSH2 0x30DF PUSH1 0xF DUP4 PUSH2 0x2569 JUMP JUMPDEST SWAP2 POP PUSH2 0x30EA DUP3 PUSH2 0x30A9 JUMP JUMPDEST PUSH1 0x20 DUP3 ADD SWAP1 POP SWAP2 SWAP1 POP JUMP JUMPDEST PUSH1 0x0 PUSH1 0x20 DUP3 ADD SWAP1 POP DUP2 DUP2 SUB PUSH1 0x0 DUP4 ADD MSTORE PUSH2 0x310E DUP2 PUSH2 0x30D2 JUMP JUMPDEST SWAP1 POP SWAP2 SWAP1 POP JUMP JUMPDEST PUSH32 0x526174696F206D69736D61746368000000000000000000000000000000000000 PUSH1 0x0 DUP3 ADD MSTORE POP JUMP JUMPDEST PUSH1 0x0 PUSH2 0x314B PUSH1 0xE DUP4 PUSH2 0x2569 JUMP JUMPDEST SWAP2 POP PUSH2 0x3156 DUP3 PUSH2 0x3115 JUMP JUMPDEST PUSH1 0x20 DUP3 ADD SWAP1 POP SWAP2 SWAP1 POP JUMP JUMPDEST PUSH1 0x0 PUSH1 0x20 DUP3 ADD SWAP1 POP DUP2 DUP2 SUB PUSH1 0x0 DUP4 ADD MSTORE PUSH2 0x317A DUP2 PUSH2 0x313E JUMP JUMPDEST SWAP1 POP SWAP2 SWAP1 POP JUMP JUMPDEST PUSH32 0x45524332303A20617070726F76652066726F6D20746865207A65726F20616464 PUSH1 0x0 DUP3 ADD MSTORE PUSH32 0x7265737300000000000000000000000000000000000000000000000000000000 PUSH1 0x20 DUP3 ADD MSTORE POP JUMP JUMPDEST PUSH1 0x0 PUSH2 0x31DD PUSH1 0x24 DUP4 PUSH2 0x2569 JUMP JUMPDEST SWAP2 POP PUSH2 0x31E8 DUP3 PUSH2 0x3181 JUMP JUMPDEST PUSH1 0x40 DUP3 ADD SWAP1 POP SWAP2 SWAP1 POP JUMP JUMPDEST PUSH1 0x0 PUSH1 0x20 DUP3 ADD SWAP1 POP DUP2 DUP2 SUB PUSH1 0x0 DUP4 ADD MSTORE PUSH2 0x320C DUP2 PUSH2 0x31D0 JUMP JUMPDEST SWAP1 POP SWAP2 SWAP1 POP JUMP JUMPDEST PUSH32 0x45524332303A20617070726F766520746F20746865207A65726F206164647265 PUSH1 0x0 DUP3 ADD MSTORE PUSH32 0x7373000000000000000000000000000000000000000000000000000000000000 PUSH1 0x20 DUP3 ADD MSTORE POP JUMP JUMPDEST PUSH1 0x0 PUSH2 0x326F PUSH1 0x22 DUP4 PUSH2 0x2569 JUMP JUMPDEST SWAP2 POP PUSH2 0x327A DUP3 PUSH2 0x3213 JUMP JUMPDEST PUSH1 0x40 DUP3 ADD SWAP1 POP SWAP2 SWAP1 POP JUMP JUMPDEST PUSH1 0x0 PUSH1 0x20 DUP3 ADD SWAP1 POP DUP2 DUP2 SUB PUSH1 0x0 DUP4 ADD MSTORE PUSH2 0x329E DUP2 PUSH2 0x3262 JUMP JUMPDEST SWAP1 POP SWAP2 SWAP1 POP JUMP JUMPDEST PUSH32 0x45524332303A206275726E2066726F6D20746865207A65726F20616464726573 PUSH1 0x0 DUP3 ADD MSTORE PUSH32 0x7300000000000000000000000000000000000000000000000000000000000000 PUSH1 0x20 DUP3 ADD MSTORE POP JUMP JUMPDEST PUSH1 0x0 PUSH2 0x3301 PUSH1 0x21 DUP4 PUSH2 0x2569 JUMP JUMPDEST SWAP2 POP PUSH2 0x330C DUP3 PUSH2 0x32A5 JUMP JUMPDEST PUSH1 0x40 DUP3 ADD SWAP1 POP SWAP2 SWAP1 POP JUMP JUMPDEST PUSH1 0x0 PUSH1 0x20 DUP3 ADD SWAP1 POP DUP2 DUP2 SUB PUSH1 0x0 DUP4 ADD MSTORE PUSH2 0x3330 DUP2 PUSH2 0x32F4 JUMP JUMPDEST SWAP1 POP SWAP2 SWAP1 POP JUMP JUMPDEST PUSH32 0x45524332303A206275726E20616D6F756E7420657863656564732062616C616E PUSH1 0x0 DUP3 ADD MSTORE PUSH32 0x6365000000000000000000000000000000000000000000000000000000000000 PUSH1 0x20 DUP3 ADD MSTORE POP JUMP JUMPDEST PUSH1 0x0 PUSH2 0x3393 PUSH1 0x22 DUP4 PUSH2 0x2569 JUMP JUMPDEST SWAP2 POP PUSH2 0x339E DUP3 PUSH2 0x3337 JUMP JUMPDEST PUSH1 0x40 DUP3 ADD SWAP1 POP SWAP2 SWAP1 POP JUMP JUMPDEST PUSH1 0x0 PUSH1 0x20 DUP3 ADD SWAP1 POP DUP2 DUP2 SUB PUSH1 0x0 DUP4 ADD MSTORE PUSH2 0x33C2 DUP2 PUSH2 0x3386 JUMP JUMPDEST SWAP1 POP SWAP2 SWAP1 POP JUMP JUMPDEST PUSH32 0x45524332303A20696E73756666696369656E7420616C6C6F77616E6365000000 PUSH1 0x0 DUP3 ADD MSTORE POP JUMP JUMPDEST PUSH1 0x0 PUSH2 0x33FF PUSH1 0x1D DUP4 PUSH2 0x2569 JUMP JUMPDEST SWAP2 POP PUSH2 0x340A DUP3 PUSH2 0x33C9 JUMP JUMPDEST PUSH1 0x20 DUP3 ADD SWAP1 POP SWAP2 SWAP1 POP JUMP JUMPDEST PUSH1 0x0 PUSH1 0x20 DUP3 ADD SWAP1 POP DUP2 DUP2 SUB PUSH1 0x0 DUP4 ADD MSTORE PUSH2 0x342E DUP2 PUSH2 0x33F2 JUMP JUMPDEST SWAP1 POP SWAP2 SWAP1 POP JUMP JUMPDEST PUSH32 0x45524332303A207472616E736665722066726F6D20746865207A65726F206164 PUSH1 0x0 DUP3 ADD MSTORE PUSH32 0x6472657373000000000000000000000000000000000000000000000000000000 PUSH1 0x20 DUP3 ADD MSTORE POP JUMP JUMPDEST PUSH1 0x0 PUSH2 0x3491 PUSH1 0x25 DUP4 PUSH2 0x2569 JUMP JUMPDEST SWAP2 POP PUSH2 0x349C DUP3 PUSH2 0x3435 JUMP JUMPDEST PUSH1 0x40 DUP3 ADD SWAP1 POP SWAP2 SWAP1 POP JUMP JUMPDEST PUSH1 0x0 PUSH1 0x20 DUP3 ADD SWAP1 POP DUP2 DUP2 SUB PUSH1 0x0 DUP4 ADD MSTORE PUSH2 0x34C0 DUP2 PUSH2 0x3484 JUMP JUMPDEST SWAP1 POP SWAP2 SWAP1 POP JUMP JUMPDEST PUSH32 0x45524332303A207472616E7366657220746F20746865207A65726F2061646472 PUSH1 0x0 DUP3 ADD MSTORE PUSH32 0x6573730000000000000000000000000000000000000000000000000000000000 PUSH1 0x20 DUP3 ADD MSTORE POP JUMP JUMPDEST PUSH1 0x0 PUSH2 0x3523 PUSH1 0x23 DUP4 PUSH2 0x2569 JUMP JUMPDEST SWAP2 POP PUSH2 0x352E DUP3 PUSH2 0x34C7 JUMP JUMPDEST PUSH1 0x40 DUP3 ADD SWAP1 POP SWAP2 SWAP1 POP JUMP JUMPDEST PUSH1 0x0 PUSH1 0x20 DUP3 ADD SWAP1 POP DUP2 DUP2 SUB PUSH1 0x0 DUP4 ADD MSTORE PUSH2 0x3552 DUP2 PUSH2 0x3516 JUMP JUMPDEST SWAP1 POP SWAP2 SWAP1 POP JUMP JUMPDEST PUSH32 0x45524332303A207472616E7366657220616D6F756E7420657863656564732062 PUSH1 0x0 DUP3 ADD MSTORE PUSH32 0x616C616E63650000000000000000000000000000000000000000000000000000 PUSH1 0x20 DUP3 ADD MSTORE POP JUMP JUMPDEST PUSH1 0x0 PUSH2 0x35B5 PUSH1 0x26 DUP4 PUSH2 0x2569 JUMP JUMPDEST SWAP2 POP PUSH2 0x35C0 DUP3 PUSH2 0x3559 JUMP JUMPDEST PUSH1 0x40 DUP3 ADD SWAP1 POP SWAP2 SWAP1 POP JUMP JUMPDEST PUSH1 0x0 PUSH1 0x20 DUP3 ADD SWAP1 POP DUP2 DUP2 SUB PUSH1 0x0 DUP4 ADD MSTORE PUSH2 0x35E4 DUP2 PUSH2 0x35A8 JUMP JUMPDEST SWAP1 POP SWAP2 SWAP1 POP JUMP JUMPDEST PUSH32 0x45524332303A206D696E7420746F20746865207A65726F206164647265737300 PUSH1 0x0 DUP3 ADD MSTORE POP JUMP JUMPDEST PUSH1 0x0 PUSH2 0x3621 PUSH1 0x1F DUP4 PUSH2 0x2569 JUMP JUMPDEST SWAP2 POP PUSH2 0x362C DUP3 PUSH2 0x35EB JUMP JUMPDEST PUSH1 0x20 DUP3 ADD SWAP1 POP SWAP2 SWAP1 POP JUMP JUMPDEST PUSH1 0x0 PUSH1 0x20 DUP3 ADD SWAP1 POP DUP2 DUP2 SUB PUSH1 0x0 DUP4 ADD MSTORE PUSH2 0x3650 DUP2 PUSH2 0x3614 JUMP JUMPDEST SWAP1 POP SWAP2 SWAP1 POP JUMP INVALID LOG2 PUSH5 0x6970667358 0x22 SLT KECCAK256 CALLDATASIZE DUP4 0x4E DUP6 0xDA 0xBE 0xB5 0xB9 0xF7 PUSH6 0x73DF14633A42 NUMBER SDIV 0xBC CALLDATACOPY 0x23 SWAP14 PUSH27 0x1094861A56BD62E51864736F6C6343000813003300000000000000 "
				},
				"gasEstimates": {
					"creation": {
						"codeDepositCost": "2793000",
						"executionCost": "infinite",
						"totalCost": "infinite"
					},
					"external": {
						"allowance(address,address)": "infinite",
						"approve(address,uint256)": "infinite",
						"balanceOf(address)": "2952",
						"decimals()": "410",
						"decreaseAllowance(address,uint256)": "infinite",
						"estimateERC20TokenToProvide(uint256)": "infinite",
						"estimateEthToProvide(uint256)": "infinite",
						"estimateSwapForERC20Token(uint256)": "infinite",
						"estimateSwapForEth(uint256)": "infinite",
						"getMyLiquidityPositions()": "2635",
						"increaseAllowance(address,uint256)": "infinite",
						"k()": "2540",
						"name()": "infinite",
						"provideLiquidity(uint256)": "infinite",
						"swapForERC20Token()": "infinite",
						"swapForEth(uint256)": "infinite",
						"symbol()": "infinite",
						"token()": "infinite",
						"totalSupply()": "2527",
						"transfer(address,uint256)": "infinite",
						"transferFrom(address,address,uint256)": "infinite",
						"withdrawLiquidity(uint256)": "infinite"
					}
				},
				"methodIdentifiers": {
					"allowance(address,address)": "dd62ed3e",
					"approve(address,uint256)": "095ea7b3",
					"balanceOf(address)": "70a08231",
					"decimals()": "313ce567",
					"decreaseAllowance(address,uint256)": "a457c2d7",
					"estimateERC20TokenToProvide(uint256)": "ed7bf868",
					"estimateEthToProvide(uint256)": "240f3dea",
					"estimateSwapForERC20Token(uint256)": "79ed3562",
					"estimateSwapForEth(uint256)": "903875f7",
					"getMyLiquidityPositions()": "e0ba2000",
					"increaseAllowance(address,uint256)": "39509351",
					"k()": "b4f40c61",
					"name()": "06fdde03",
					"provideLiquidity(uint256)": "eb521a4c",
					"swapForERC20Token()": "29cbab3e",
					"swapForEth(uint256)": "c8ab8325",
					"symbol()": "95d89b41",
					"token()": "fc0c546a",
					"totalSupply()": "18160ddd",
					"transfer(address,uint256)": "a9059cbb",
					"transferFrom(address,address,uint256)": "23b872dd",
					"withdrawLiquidity(uint256)": "0a861f2a"
				}
			},
			"storageLayout": {
				"storage": [
					{
						"astId": 15,
						"contract": "Exchange1.sol:Exchange",
						"label": "_balances",
						"offset": 0,
						"slot": "0",
						"type": "t_mapping(t_address,t_uint256)"
					},
					{
						"astId": 21,
						"contract": "Exchange1.sol:Exchange",
						"label": "_allowances",
						"offset": 0,
						"slot": "1",
						"type": "t_mapping(t_address,t_mapping(t_address,t_uint256))"
					},
					{
						"astId": 23,
						"contract": "Exchange1.sol:Exchange",
						"label": "_totalSupply",
						"offset": 0,
						"slot": "2",
						"type": "t_uint256"
					},
					{
						"astId": 25,
						"contract": "Exchange1.sol:Exchange",
						"label": "_name",
						"offset": 0,
						"slot": "3",
						"type": "t_string_storage"
					},
					{
						"astId": 27,
						"contract": "Exchange1.sol:Exchange",
						"label": "_symbol",
						"offset": 0,
						"slot": "4",
						"type": "t_string_storage"
					},
					{
						"astId": 719,
						"contract": "Exchange1.sol:Exchange",
						"label": "token",
						"offset": 0,
						"slot": "5",
						"type": "t_contract(ERC20)586"
					},
					{
						"astId": 721,
						"contract": "Exchange1.sol:Exchange",
						"label": "k",
						"offset": 0,
						"slot": "6",
						"type": "t_uint256"
					}
				],
				"types": {
					"t_address": {
						"encoding": "inplace",
						"label": "address",
						"numberOfBytes": "20"
					},
					"t_contract(ERC20)586": {
						"encoding": "inplace",
						"label": "contract ERC20",
						"numberOfBytes": "20"
					},
					"t_mapping(t_address,t_mapping(t_address,t_uint256))": {
						"encoding": "mapping",
						"key": "t_address",
						"label": "mapping(address => mapping(address => uint256))",
						"numberOfBytes": "32",
						"value": "t_mapping(t_address,t_uint256)"
					},
					"t_mapping(t_address,t_uint256)": {
						"encoding": "mapping",
						"key": "t_address",
						"label": "mapping(address => uint256)",
						"numberOfBytes": "32",
						"value": "t_uint256"
					},
					"t_string_storage": {
						"encoding": "bytes",
						"label": "string",
						"numberOfBytes": "32"
					},
					"t_uint256": {
						"encoding": "inplace",
						"label": "uint256",
						"numberOfBytes": "32"
					}
				}
			},
			"userdoc": {
				"kind": "user",
				"methods": {},
				"version": 1
			}
		}
	}
}